:040000003FEF00F0DE
:10000800FACF34F0FBCF35F0E1CF36F0E2CF37F05E
:10001800D9CF38F0DACF39F0F3CF3AF0F4CF3BF05C
:1000280019EE88F0F0B6F0A003D02EEC3FF012D015
:10003800F0B8F0A203D02AEC3FF00CD0F2B6F2A050
:1000480003D021EC3FF006D0F2BC9DA003D09EB0B7
:1000580072EC3EF03BC0F4FF3AC0F3FF39C0DAFF60
:1000680038C0D9FF37C0E2FF36C0E1FF35C0FBFF1B
:1000780034C0FAFF110016EEAEF0C4EF2FF032ECE8
:100088003FF0020103B157EF06F066C1D9FF67C11F
:10009800DAFFDF500001E16FE139E832070BE806CB
:1000A800D8A4D8D002011D51D8A4D4D00101680524
:1000B800000128D0E751DA6FDB6BDA1FDB1FDA4B60
:1000C800DB2B010168510001DC6FDD6BDA51DC27A5
:1000D800DB51DD23DC510101662500017D6FDD5117
:1000E8000101672100017E6F420E7F6F020E806F53
:1000F800BEEC3AF0100E0001E76503D0100EE75F82
:1001080002D0000EE76FE751D8A4D4D7420EC76FCC
:10011800020EC86F66C1C9F067C1CAF00101685113
:10012800FC0F0001CB6F7CEC35F0C7C0EAF0C8C00B
:10013800EBF0C9C0ECF0CAC0EDF066C16BF067C166
:100148006CF068C16DF028EC37F06BC0E2F06CC061
:10015800E3F06DC0E4F06EC0E5F00001EA51E21989
:100168000AE1EB51E31907E1EC51E41904E1ED511F
:10017800E519D8B411D0020102510F0B050AD8B401
:1001880008D002510F0B030AD8A41200E251D8B4C8
:10019800120055EC3BF01200020102510F0B030A4A
:1001A800D8A403D0D45189EC3CF066C1EEF067C105
:1001B800EFF0000120EE07F0EE51D926EF51DA22D8
:1001C800DECF1EF2DECF1FF2DECF20F2DECF21F22D
:1001D80020EE0CF0EE51D926EF51DA22DF500F0B4A
:1001E80003EC3AF0000120EE0BF0EE51D926EF5166
:1001F800DA22DF38070B606F20EE0BF0EE51D926BC
:10020800EF51DA22DF500F0B09EC3DF0EEC060F041
:10021800EFC061F00101685153EC3FF0EEC091F07E
:10022800EFC092F00EEC32F0000EE66EEBEC23F02D
:10023800000E0201066F000E076F000E086F000E19
:10024800096F000E0A6F000E0B6F000E0C6F000E88
:100258000D6F12000001E139E832070B030AD8B428
:1002680007D0E139E832070B050AD8A454EF06F0A5
:10027800000E0201986F66C1F1F067C1F2F0020E3C
:100288001219D8A408D2000120EE01F0F151D926A4
:10029800F251DA2202016251DE1809E16351DE18D7
:1002A80006E16451DE1803E16551DE18D8A4F3D1E4
:1002B80004A5F1D1F1C060F0F2C061F0D5EC32F0E4
:1002C8000009D8A408D002010251F00B0909026FF5
:1002D80054EC33F01200000120EE06F0F151D9265B
:1002E800F251DA22DECFDAF0DDCFDBF0DAC06BF0E4
:1002F800DBC06CF06D6B6E6B01016851FC0F000187
:100308006F6F490E706F010E716F010EDDEC28F0F2
:100318009F0E0001606F050E616FAA0E626F010EDD
:10032800636F000E656F100E646F3EEC36F0AF0E13
:100338000001606F050E616F66C162F067C163F00E
:10034800FC0E010168250001646F656BFF0E6523D3
:100358003EEC36F0660E0001B96F020EBA6FAA0EB7
:10036800BB6F010EBC6F9F0EBD6F050EBE6F010106
:1003780068510C0F0001BF6F6CEC0FF0EA0E000122
:10038800606F000E616FAA0E626F010E636F000E40
:10039800656F040E646F3EEC36F066C16BF067C1A2
:1003A8006CF068C16DF028EC37F06BC0E2F06CC0FF
:1003B800E3F06DC0E4F06EC0E5F00001E251EA1927
:1003C8000AE1E351EB1907E1E451EC1904E1E551C5
:1003D800ED19D8B408D002010251F00B0909026FD7
:1003E80054EC33F01200000120EE06F0F151D9264A
:1003F800F251DA2202010E51DE5C0F51DE58D8A00C
:100408004ED0000120EE06F0F151D926F251DA2241
:10041800DECFDAF0DDCFDBF022EE0EF0DECFDCF05F
:10042800DDCFDDF0DC1FDD1FDC4BDD2BDA51DC27F7
:10043800DB51DD23DC510201905D0001DD51020139
:100448009159D8B020D00001F951FA11D8B413D07D
:10045800000E606F000E616F000E626F050E636F15
:1004680001D809D00500FA6EF951FD6EFA51FE6EF9
:10047800FF6AFA50120002010251F00B0909026FDB
:1004880054EC33F01200000120EE06F0F151D926A9
:10049800F251DA22DECF0EF2DDCF0FF238D00001B2
:1004A80020EE06F0F151D926F251DA22DE50DE10A4
:1004B800D8A40DD002010E290AE10F29D8A407D02B
:1004C800000E0F6F000E0E6F104B112B20D0000185
:1004D800F951FA11D8B413D0000E606F000E616F95
:1004E800000E626F050E636F01D809D00500FA6E21
:1004F800F951FD6EFA51FE6EFF6AFA5012000201C0
:100508000251F00B0909026F54EC33F0120002019A
:100518000E2927E10F2925E1102923E11129D8A463
:1005280020D00001F951FA11D8B413D0000E606F31
:10053800000E616F000E626F050E636F01D809D05F
:100548000500FA6EF951FD6EFA51FE6EFF6AFA5017
:10055800120002010251F00B0909026F54EC33F04A
:100568001200020102510F0B080AD8A408D0D55175
:1005780089EC3CF00201D65189EC3CF009D002012B
:1005880002510F0B030AD8A403D0D65189EC3CF0D2
:10059800080E01016625666F000E6721676F6851B6
:1005A8000001DA6FDB6B20EE05F0F151D926F2512C
:1005B800DA22DF500F0BDC6FDD6B0C0EDC27000E30
:1005C800DD23DA51DC1904E1DB51DD19D8B437D069
:1005D80066C1D9FF67C1DAFFDF50DF6F0101664BE3
:1005E800672B6851F40F0001F06F190EE66F66C1B2
:1005F80091F067C192F0F005936F010E946F0EC2EF
:1006080095F00FC296F010C297F011C298F0760ECE
:10061800996F020E9A6FE6C09BF09F0E9C6F050EB5
:100628009D6F010E9E6F3EEC1DF0FF0E01016625C9
:100638000001E86FFF0E01016721000105D0000EDF
:10064800F06F000EE86F000EE96F0201038302915C
:100658000293029502970001F951FA11D8B413D008
:10066800E8C060F0E9C061F0F0C062F0010E636FAD
:1006780001D809D00500FA6EF951FD6EFA51FE6EE7
:10068800FF6AFA50120002010251F00B0909026FC9
:1006980054EC33F01200000120EE01F0F151D9269C
:1006A800F251DA2202011E51DE180AE11F51DE184A
:1006B80007E12051DE1804E12151DE18D8B40ED02C
:1006C80016EC33F0020E02011219D8A412000251DE
:1006D800F00B0909026F54EC33F01200000120EE10
:1006E80006F0F151D926F251DA22DECFDAF0DDCF69
:1006F800DBF0DAC06BF0DBC06CF06D6B6E6B010188
:100708006851FC0F00016F6F490E706F000E716F1A
:10071800010EDDEC28F09F0E0001606F050E616F81
:10072800AA0E626F010E636F000E656F100E646F84
:100738003EEC36F0AF0E0001606F050E616F66C1CA
:1007480062F067C163F0FC0E010168250001646F67
:10075800656BFF0E65233EEC36F0220E0001B96F83
:10076800020EBA6FAA0EBB6F010EBC6F9F0EBD6F53
:10077800050EBE6F010168510C0F0001BF6F6CECD4
:100788000FF0EA0E0001606F000E616FAA0E626F33
:10079800010E636F000E656F040E646F3EEC36F059
:1007A80066C16BF067C16CF068C16DF028EC37F07A
:1007B8006BC0E2F06CC0E3F06DC0E4F06EC0E5F031
:1007C8000001E251EA190AE1E351EB1907E1E451AA
:1007D800EC1904E1E551ED19D8B40ED016EC33F05C
:1007E800020E02011219D8A412000251F00B0909D5
:1007F800026F54EC33F01200000120EE06F0F151C4
:10080800D926F251DA2202010A51DE5C0B51DE5878
:10081800D8A05CD0000120EE06F0F151D926F251A3
:10082800DA22DECFDAF0DDCFDBF022EE0AF0DECF1F
:10083800DCF0DDCFDDF0DC1FDD1FDC4BDD2BDA511A
:10084800DC27DB51DD23DC5102018E5D0001DD5127
:1008580002018F59D8B02ED00091029102930295CF
:1008680002970001F951FA11D8B416D00201009B81
:10087800000E0001606F000E616F000E626F000EC7
:10088800636F01D809D00500FA6EF951FD6EFA516F
:10089800FE6EFF6AFA501200020103930483020EEF
:1008A8001219D8A412000251F00B0909026F54EC76
:1008B80033F01200000120EE06F0F151D926F25172
:1008C800DA22DECF0AF2DDCF0BF22ED0000120EEC5
:1008D80006F0F151D926F251DA22DE50DE10D8A402
:1008E80015D002010A2912E10B29D8A40FD0000162
:1008F80020EE06F0F151D926F251DA22DECF0AF2C3
:10090800DDCF0BF202010C4B0D2B0ED016EC33F0A1
:10091800020E02011219D8A412000251F00B0909A3
:10092800026F54EC33F0120002010A2913E10B297B
:1009380011E10C290FE10D29D8A40CD00483020E73
:100948001219D8A412000251F00B0909026F54ECD5
:1009580033F01200020102510F0B030AD8A403D08E
:10096800D65189EC3CF0010E0201C96FF1C060F06C
:10097800F2C061F09DEC36F0000120EE05F0F15177
:10098800D926F251DA22DF500F0B0009D8B416D05D
:10099800080EF125BD6F000EF221BE6F20EE05F0A6
:1009A800F151D926F251DA22DF500F0BBF6FE6EC76
:1009B80012F0BDC066F1BEC067F107D0080E010194
:1009C8006625666F000E6721676F01016851000197
:1009D800DA6FDB6B20EE05F0F151D926F251DA22FD
:1009E800DF500F0BDC6FDD6B0C0EDC27000EDD23F8
:1009F800DA51DC1904E1DB51DD19D8B498D066C1AD
:100A0800D9FF67C1DAFFDF50DF6F0101664B672B43
:100A1800000120EE05F0F151D926F251DA22DF501B
:100A28000F0B000801016825F40F0001F06F20EE9C
:100A380005F0F151D926F251DA22DF500F0B190FC8
:100A4800E66FDF51D8B428D066C191F067C192F043
:100A5800F005936F010E946F0AC295F00BC296F0E1
:100A68000CC297F00DC298F0320E996F020E9A6F71
:100A7800E6C09BF09F0E9C6F050E9D6F000E9E6F4B
:100A88003EEC1DF0FF0E010166250001E86FFF0E28
:100A980001016721000150D0010168510001DA6F9E
:100AA800DB6B20EE05F0F151D926F251DA22DF5046
:100AB8000F0BDC6FDD6B0D0EDC27000EDD23DA512A
:100AC800DC5DDD51800ADE6FDB51800ADE59D8B06B
:100AD8002BD066C191F067C192F0F005936F010EBB
:100AE800946F0AC295F00BC296F00CC297F00DC233
:100AF80098F0220E996F020E9A6FE6C09BF09F0E37
:100B08009C6F050E9D6F000E9E6F3EEC1DF066C13A
:100B1800BDF067C1BEF00001F005BF6FE6EC12F052
:100B2800BDC066F1BEC067F1000E000101D0000E25
:100B3800F06F000EE86F000EE96F010E0201C96F39
:100B4800000EC26F000EC16F000EDF6F00990383A5
:100B580000A154D0000120EE05F0F151D926F25140
:100B6800DA22DFAA48D0020100910291029302958D
:100B780002970001F951FA11D8B416D00201009B6E
:100B8800E8C060F0E9C061F0F0C062F0010E000159
:100B9800636F01D809D00500FA6EF951FD6EFA515C
:100BA800FE6EFF6AFA5012000201039302BB00BBFB
:100BB8006BD000B302D000A767D0010E0001AF6F61
:100BC800E00EB06F000EB16F0201DE51D9EC26F0D5
:100BD8000009D8A40DD0000E0001D36F000ED46F09
:100BE800000ED56F000ED66F000EE6EC2CF047D045
:100BF80054EC3FF049D004EC34F046D00291029313
:100C0800029502970001F951FA11D8B416D00201E1
:100C1800009BE8C060F0E9C061F0F0C062F0010E2E
:100C28000001636F01D809D00500FA6EF951FD6E15
:100C3800FA51FE6EFF6AFA501200020102BB00BBB5
:100C480023D000B302D000A71FD0010E0001AF6F60
:100C5800E00EB06F000EB16F0201DE51D9EC26F044
:100C68000009D8A40FD0000E0001D36F000ED46F76
:100C7800000ED56F000ED66F000EE6EC2CF00201C8
:100C8800009702D054EC3FF0020E02011219D8A4CA
:100C980012000251F00B0909026F54EC33F01200F4
:100CA80016EC33F012000001F951FA11D8B4120011
:100CB80038EC3FF00001DA6FDAB713D066C160F0A4
:100CC80067C161F068C162F0030E636F01D812005A
:100CD8000500FA6EF951FD6EFA51FE6EFF6AFA5080
:100CE800120066C160F067C161F068C162F0020E6F
:100CF8000001636F01D812000500FA6EF951FD6E0C
:100D0800FA51FE6EFF6AFA5012008CC165F0000EAF
:100D18000001666F000E5EEC28F074C16DF075C1BD
:100D28006EF076C16FF077C170F0CFEC29F0010159
:100D38008F5157EC29F001018C05D8A4EDD182C15F
:100D480062F0390E5DEC3DF096C1A8F0010E00018D
:100D5800A8170101D89095350001A96F01018E39B6
:100D6800F00B0001A911A811626F1D0E5DEC3DF09A
:100D7800A6C0A8F0A7C0A9F0A9C0A8F00001A96B57
:100D8800030EA81790C1AAF0010EAA17D890AA3787
:100D9800D890AA3701018D39F00B0001AA11A811CA
:100DA800626F1E0E5DEC3DF0010192519311D8B4B3
:100DB8006FD092C1ACF093C1ADF00001AE6BAF6BD8
:100DC8004ED0ACC09AF0ADC09BF0AEC09CF0AFC0A6
:100DD8009DF07D0E00019E6F000E9F6F000EA06FAC
:100DE800000EA16F55EC37F027D0ACC09AF0ADC01B
:100DF8009BF0AEC09CF0AFC09DF0FA0E00019E6F54
:100E0800000E9F6F000EA06F000EA16F55EC37F01B
:100E180013D0ACC09AF0ADC09BF0AEC09CF0AFC090
:100E28009DF0F40E00019E6F010E9F6F000EA06FE3
:100E3800000EA16F55EC37F09AC0ACF09BC0ADF036
:100E48009CC0AEF09DC0AFF016D0000E0001AC6F94
:100E5800000EAD6F000EAE6F000EAF6F0CD001012B
:100E68008E51070AD8B4ADD70F0AD8B4BED7010A35
:100E7800D8B4CFD7EAD701018D290001A86F05D0D2
:100E8800D890AF33AE33AD33AC33A82FF9D709D0F0
:100E9800000E0001AC6F000EAD6F000EAE6F000EBD
:100EA800AF6FACC062F0240E5DEC3DF0A6C062F0FE
:100EB8001F0E5DEC3DF0260E75EC3CF00001B06FA6
:100EC8000C0E01018D19D8A408D0070E8E19D8B4BC
:100ED8000CD0080E8E19D8B408D00B0E8D19D8A4D2
:100EE80007D0070E8E19D8A403D00001B08702D00E
:100EF8000001B097B085B0C062F0260E5DEC3DF001
:100F0800310E75EC3CF00001B06FF80EB017030E0F
:100F1800B013B0C062F0310E5DEC3DF00A0E000176
:100F2800626F370E5DEC3DF0120E0101A519D8A4D1
:100F38002FD0070E8E19D8B404D0080E8E19D8A455
:100F480017D0310E75EC3CF00001B06FB09FB0C007
:100F580062F0310E5DEC3DF0400E0001626F2F0E25
:100F68005DEC3DF0000E0001626F300E5DEC3DF06F
:100F7800090E01018E19D8A40BD0310E75EC3CF086
:100F88000001B06FB08FB0C062F0310E5DEC3DF083
:100F9800330E75EC3CF00001B06FB09DB08194C188
:100FA800A8F0010EA817060EA96FD890A837A92F88
:100FB800FCD7A851B013B0C062F0330E5DEC3DF021
:100FC80094C1A8F0010E0001A817D890A837D890AE
:100FD800A835FF0A1D0BB06FB0C062F03B0E5DEC88
:100FE8003DF0010181510001626F200E5DEC3DF082
:100FF80080C162F0210E5DEC3DF0000E0001626FD1
:101008000D0E5DEC3DF0000E0001626F0E0E5DEC02
:101018003DF0000E0001626F0F0E5DEC3DF0120E08
:101028000101A519D8A471D0090E8E19D8A420D011
:10103800800E745D130E7559610E7659330E77590B
:10104800D8A016D07405F70E7559CB0E76593C0EFC
:101058007759D8B00DD0020E0001626F360E5DECE4
:101068003DF0640E0001626F3A0E5DEC3DF02CD04D
:10107800090E01018E19D8A421D0800E745D1A0EB4
:101088007559700E7659180E7759D8A017D0410E99
:10109800745DDD0E75594A0E76591F0E7759D8B012
:1010A8000DD0020E0001626F360E5DEC3DF07F0E32
:1010B8000001626F3A0E5DEC3DF006D0030E0001B0
:1010C800626F360E5DEC3DF0090E01018E19D8A451
:1010D80010D09405D8A40DD0650E0001626F3A0EA9
:1010E8005DEC3DF0190E0001626F3B0E5DEC3DF0CA
:1010F8000CD0650E0001626F3A0E5DEC3DF01D0EDE
:101108000001626F3B0E5DEC3DF0FF0E0001626F67
:10111800120E5DEC3DF0120078C16DF079C16EF0F1
:101128007AC16FF07BC170F0ACEC34F07CC16DF02B
:101138007DC16EF07EC16FF07FC170F0E1EC34F0DC
:10114800010181510001626F250E5DEC3DF080C107
:1011580062F0260E5DEC3DF00A0E75EC3CF00001E5
:10116800B06F9F0EB0170101A739E846E00B0001E8
:10117800B013B0C062F00A0E5DEC3DF0C80E00017D
:10118800B06F01019051D8B402D00001B089B0C04D
:1011980062F0300E5DEC3DF0000E0001AB6F10D038
:1011A800AB51010D830EF324D96E010EF420DA6ED3
:1011B800DF50626FAB51280F5DEC3DF00001AB2BA7
:1011C80001018B510001AB5DD8A0EAD701018B5119
:1011D800D8B408D08B0510090001626F270E5DECAA
:1011E8003DF006D0000E0001626F270E5DEC3DF069
:1011F800FF0E0001626F3E0E5DEC3DF0FF0E000138
:10120800626F3F0E5DEC3DF01200070E0001796F32
:10121800000E7C6F70C0D9FF71C0DAFFDF500F0B72
:101228007A6F70C0D9FF71C0DAFFDF50726F723900
:101238000F0B0F0B7B6F704B712B70C0D9FF71C0F8
:10124800DAFFDECF77F0DDCF78F077C07DF078C0B9
:101258007EF0020E7025706F000E7121716F70C0E4
:101268007FF071C080F0704B712B020102ADDDD1AF
:1012780077C060F078C061F07FC0D9FF80C0DAFF26
:101288000001DF38070B4DEC3DF00009D8A403D16D
:1012980002019851020D000E0001726F020E736F69
:1012A800990E7227000E7323F3507227F45073239C
:1012B800010E7225D96E000E7321DA6E0201DF80ED
:1012C800CED07FC0D9FF80C0DAFF0001DF38070B1E
:1012D800726F7239F00B766F7651100F746F76C09B
:1012E80081F05DD08151020D010EF326000EF4222B
:1012F800000EF324D96E040EF420DA6E0401DF50D8
:101308000F0B0001726F7951725DD8B017D07DB1A3
:1013180004D07D517E11D8A411D08151020D010E47
:10132800F326000EF422000EF324D96E040EF420E6
:10133800DA6E0401DF500F0B0001796F8151020D45
:10134800010EF326000EF422000EF324D96E040ECB
:10135800F420DA6E0401DF380F0B00017C6117D02E
:101368007DB104D07D517E11D8A411D08151020DD8
:10137800010EF326000EF422000EF324D96E040E9B
:10138800F420DA6E0401DF380F0B00017C6FD8906F
:101398007E31726F7D317D6F72C07EF0812B74510A
:1013A800815DD8B078D09ED7040E796F55D0000EE5
:1013B800816F3F0E816501D04BD08151020D010E26
:1013C800F326000EF422000EF324D96E040EF42046
:1013D800DA6E0401DF500F0B0001726F7951725DF4
:1013E800D8B011D08151020D010EF326000EF4225F
:1013F800000EF324D96E040EF420DA6E0401DF50D7
:101408000F0B0001796F8151020D010EF326000EBA
:10141800F422000EF324D96E040EF420DA6E0401CF
:10142800DF380F0B00017C6111D08151020D010ED4
:10143800F326000EF422000EF324D96E040EF420D5
:10144800DA6E0401DF380F0B00017C6F812BB1D7F6
:1014580077517811D8B41FD0040E7C6F1CD07FC090
:10146800D9FF80C0DAFF0001DF38070B000AD8B4C3
:1014780028D7010AD8B425D7030AD8B422D7010A35
:10148800D8B41FD7070AD8B48FD7020AD8B48FD7D1
:10149800010AD8B489D700017B5147EC3EF0000916
:1014A800D8A421D0000179517B5DD8A01CD07B51F4
:1014B8007C5DD8A018D002019851020D000E0001E1
:1014C800726F020E736F990E7227000E7323F3501A
:1014D8007227F4507323010E7225D96E000E732102
:1014E800DA6E0201DF820B0E00017A611CD0060E53
:1014F8007A19D8B418D002019851020D000E0001D3
:10150800726F020E736F990E7227000E7323F350D9
:101518007227F4507323010E7225D96E000E7321C1
:10152800DA6E0201DF8402019851020D000E0001FB
:10153800726F020E736F990E7227000E7323F350A9
:101548007227F4507323010E7225D96E000E732191
:10155800DA6E0201DFA4AED09851020D000E000130
:10156800726F020E736F990E7227000E7323F35079
:101578007227F4507323010E7225D96E000E732161
:10158800DA6E0201DFA296D09851020D000E00011A
:10159800726F020E736F990E7227000E7323F35049
:1015A8007227F4507323010E7225D96E000E732131
:1015B800DA6E0201DFA07ED077C06BF078C06CF0E5
:1015C8007FC0D9FF80C0DAFF0001DF38070B6D6FDD
:1015D800B4EC2DF0050E00017A6103D0050E756F8D
:1015E80002D07AC075F07551EFEC3EF00201038924
:1015F80000017B51F4EC3EF07FC0D9FF80C0DAFFD8
:101608000001DF500F0B0009D8A402D0000E09D04A
:101618007FC0D9FF80C0DAFF0001DF500F0B726F67
:1016280072050201C76F038B45D09851020D000E59
:101638000001726F020E736F990E7227000E7323EA
:10164800F3507227F4507323010E7225D96E000EE1
:101658007321DA6E0201DF909851020D000E00012D
:10166800726F020E736F990E7227000E7323F35078
:101678007227F4507323010E7225D96E000E732160
:10168800DA6E0201DF929851020D000E0001726FAE
:10169800020E736F990E7227000E7323F350722790
:1016A800F4507323010E7225D96E000E7321DA6E81
:1016B8000201DF9470C070F071C071F01200000E6A
:1016C80000016D6F62C0D9FF63C0DAFFDF506E6F33
:1016D800000E6D6F18D26451D8B4F6D16D51020D59
:1016E800990EF324D96E020EF420DA6EDE28D8B4EF
:1016F800EBD162C0D9FF63C0DAFFDF50656F666B5C
:10170800651F661F654B662BFE0E676FFF0E686FC1
:101718006D51020D990EF324D96E020EF420DA6E83
:10172800DF50696F6A6B6751692768516A23620ED7
:101738006925F66EFF0E6A21F76EF86A000EF82228
:101748000800F5506EC06BF06C6B6B27000E6C23B5
:1017580065516B2766516C236CBFB6D16C5105E19E
:10176800100E6B5DD8B0D5D1AFD1D3D16E51010D6C
:10177800F3506025D96EF4506121DA6E030EDF6EE6
:101788006E2B6E51010DF3506025D96EF450612116
:10179800DA6E000EDF6E6D51020D000E656F020EDF
:1017A800666F990E6527000E6623F3506527F4507F
:1017B8006623010E6525D96E000E6621DA6E0201D8
:1017C800DFA00BD000016E51010DF3506025D96EDA
:1017D800F4506121DA6E000EDB8000016D51020DBC
:1017E800000E656F020E666F990E6527000E662360
:1017F800F3506527F4506623010E6525D96E000E57
:101808006621DA6E0201DFA20BD000016E51010DD4
:10181800F3506025D96EF4506121DA6E000EDB8238
:1018280000016D51020D000E656F020E666F990E74
:101838006527000E6623F3506527F4506623010ED2
:101848006525D96E000E6621DA6E0201DFA489D003
:1018580000016E51010DF3506025D96EF4506121DD
:10186800DA6E000EDB847DD06E51010DF3506025D9
:10187800D96EF4506121DA6E050EDF6E6E2B6E5153
:10188800010DF3506025D96EF4506121DA6E000E17
:10189800DF6E6D51020D000E656F020E666F990EB8
:1018A8006527000E6623F3506527F4506623010E62
:1018B8006525D96E000E6621DA6E0201DFA60BD00F
:1018C80000016E51010DF3506025D96EF45061216D
:1018D800DA6E000EDB8000016D51020D000E656F9F
:1018E800020E666F990E6527000E6623F350652772
:1018F800F4506623010E6525D96E000E6621DA6E56
:101908000201DFA80BD000016E51010DF3506025D4
:10191800D96EF4506121DA6E000EDB8200016D5140
:10192800020D000E656F020E666F990E6527000E98
:101938006623F3506527F4506623010E6525D96E9A
:10194800000E6621DA6E0201DFAA0BD000016E518B
:10195800010DF3506025D96EF4506121DA6E000E46
:10196800DB8400013CD06E51010DF3506025D96E27
:10197800F4506121DA6E060EDF6E6E2B6E51010D8A
:10198800F3506025D96EF4506121DA6ED1C2DFFFC1
:101998006E2B35EC3FF0800AA00FD8A006D035ECAE
:1019A8003FF0800A600FD8A00CD000016E51010DE5
:1019B800F3506025D96EF4506121DA6E200EDF6E87
:1019C8000ED000016E51010DF3506025D96EF45010
:1019D8006121DA6E35EC3FF03F0BDF6EC2D76E2B1C
:1019E80091D06E51010DF3506025D96EF4506121EC
:1019F800DA6E070EDF6E6E2B6E51010DF350602507
:101A0800D96EF4506121DA6E000EDF6E6D51020D51
:101A1800000E656F020E666F990E6527000E66232D
:101A2800F3506527F4506623010E6525D96E000E24
:101A38006621DA6E0201DFAE0BD000016E51010D96
:101A4800F3506025D96EF4506121DA6E000EDB8008
:101A580000016D51020D000E656F020E666F990E42
:101A68006527000E6623F3506527F4506623010EA0
:101A78006525D96E000E6621DA6E0201DFAC71D7DA
:101A880000016E51010DF3506025D96EF4506121AB
:101A9800DA6E000EDB8265D70201CE69000ECF6FC9
:101AA80000016D51020D990EF324D96E020EF42037
:101AB800DA6E6E51010DF3506025E96EF450612124
:101AC800EA6EDFCFEFFF8BD76D51020D990EF3242D
:101AD800D96E020EF420DA6EDF50020AD8B4DCD7D1
:101AE800010AD8B443D6070AD8B4DBD7010AD8B458
:101AF800BBD6030AD8B437D7010AD8B472D70F0AAD
:101B0800D8B4CFD76D2B0201985100016D5DD8A0D4
:101B1800E2D562C0D9FF63C0DAFF6EC0DFFF1200F2
:101B28000001CE6F100E0001D26F000ED16FCF0EE4
:101B3800606F000E616F000E636F000E626F000E23
:101B4800656F010E646F9DEC3BF0900E0001606FB5
:101B5800040E616F000E636F000E626F010E656FF9
:101B68000F0E646F9DEC3BF0AA0E0001606F010E32
:101B7800616F000E636F000E626F000E656F100ECE
:101B8800646F9DEC3BF00001CE05D8A407D0CF517F
:101B98001F0B8009CF6F0201008105D00001CF51D2
:101BA8001F0B4009CF6FFC0E0001CF17CF95CF97C1
:101BB800CF99D251010D900EF324D96E040EF42062
:101BC800DA6ECFC0DFFFD22BD251010D900EF32475
:101BD800606F040EF420616F1E0E626F020E636F59
:101BE800000E656F040E646F3EEC36F00001D251B2
:101BF800040FD26F000ED06F020102AD47D0000172
:101C0800D08F0201D051DC5DD8B03FD00001D08D1B
:101C180002010089C14BC22B94510001CC6FCD6BDE
:101C28000201C1510001CC190CE10201C2510001AD
:101C3800CD19D8A406D0000E0201DF6F23D002010F
:101C480024D0020194510001CC6FCD6B0201C15127
:101C58000001CC5D0201C2510001CD59D8B013D0AA
:101C68000201DF2BDF51955DD8B010D0000EDF6F79
:101C780011EC2CF00009D8A409D0000E0201C26FA3
:101C8800000EC16F0001D09DDAD70099020100A3B0
:101C980004D00001D08B020100930001D099020109
:101CA8009851D8B405D00001CA51CB11D8A406D098
:101CB8000001D091D093D095D09709D04FEC2DF05A
:101CC8000001CC6FD051CC19F00BCC19D06FD25188
:101CD800010D900EF324D96E040EF420DA6ED0C0F4
:101CE800DFFFD22BD251010D900EF324606F040E4A
:101CF800F420616F060E626F020E636F000E656F4F
:101D0800020E646F3EEC36F00001D251020FD26F22
:101D180002019851D8B411D00001CA51CB11D8B4DE
:101D28000CD0900E606F040E616FD20E626F000EC1
:101D3800636F010E646F63EC0BF00001D251010D6B
:101D4800900EF324D96E040EF420DA6EC7C0DFFFBC
:101D5800D22BCA51CB11D8B435D0D251010D900E27
:101D6800F324606F040EF420616FC8C062F0C9C02C
:101D780063F0CAC064F0CBC065F03EEC36F0C8C072
:101D880091F0C9C092F0CAC093F0000E0001946FA0
:101D980006C295F007C296F008C297F009C298F0FB
:101DA800320E996F020E9A6FD2C09BF0900E9C6F04
:101DB800040E9D6F000E9E6F3EEC1DF00001D25187
:101DC800CA2533D002019851D8B430D09F0E0001F3
:101DD800606F050E616FD10E626F000E636F000EAB
:101DE800646F63EC0BF09F0E0001916F050E926F0C
:101DF800D1C093F0000E946F06C295F007C296F01A
:101E080008C297F009C298F0220E996F020E9A6FD5
:101E1800D2C09BF0900E9C6F040E9D6F000E9E6FBB
:101E28003EEC1DF00001D251D125D26F06C26BF0F5
:101E380007C26CF008C26DF009C26EF00001D25101
:101E4800F00F6F6F490E706F000E716F000EDDECB2
:101E580028F0900E0001606F040E616FAA0E626F89
:101E6800010E636F000E656F100E646F3EEC36F066
:101E7800220E0001B96F020EBA6FAA0EBB6F010ED7
:101E8800BC6F900EBD6F040EBE6FD2C0BFF06CEC7D
:101E98000FF00001D251010D900EF324606F040E73
:101EA800F420616FAA0E626F010E636F000E656FFA
:101EB800040E646F3EEC36F00001D251040FD26F6D
:101EC800F00ED2250201C56FC66BFF0EC6231200A5
:101ED800000E0101636F000E656F000E646F000E47
:101EE800626F000E606F000E616FB9C091F0BAC0EA
:101EF80092F0100E0001936F010E946F000E956F13
:101F0800010E966F45EC23F00001BF51C06FC16B05
:101F18000F0EC027000EC123040EC26FC135C13396
:101F2800C033C22FFBD7C0510101636F6351D8A4DE
:101F380004D0010E636F000E0BD0BFC0C0F00F0EAF
:101F48000001C017D8A402D0010E01D0000E010173
:101F5800626F6205D8A448D0000E646F6339F00B35
:101F6800F00F656F24D001016451010D200EF32498
:101F7800D96E010EF420DA6E6451010D100EF324AF
:101F8800E96E010EF420EA6EEF500001C06F010106
:101F98006551010DF3500001BD25E96EF450BE21D5
:101FA800EA6EEF50C019DF6E0101642B652B635197
:101FB8000001C06FC16BC03BC13BF00EC117C051DF
:101FC8000F0BC113F00EC017010165510001C26F5C
:101FD800C36BC051C25DC351800AC46FC151800A2E
:101FE800C459D8B07FD0BFD70001BF510F0BC06F05
:101FF800C16BC01FC11FC04BC12BBF51C26FC36B88
:10200800C051C227C151C323C251BD250101606F10
:102018000001C351BE210101616F000E656F0F0EF3
:10202800656501D036D00001BF510F0B0101656114
:1020380013D06551010DF3506025D96EF45061211C
:10204800DA6E6551010D300EF324E96E010EF420AD
:10205800EA6EDFCFEFFF1BD00001BF510F0B01016C
:102068006519D8A40AD06551010D300EF324D96E34
:10207800010EF420DA6E800E09D06551010D300E84
:10208800F324D96E010EF420DA6E000EDF6E652B94
:10209800C6D7000E656F0F0E656501D023D0655158
:1020A800010D200EF324D96E010EF420DA6E65516D
:1020B800010D000EF324E96E010EF420EA6EEF50D4
:1020C8000001C06F01016551010D300EF324E96E66
:1020D800010EF420EA6EEF500001C019DF6E010115
:1020E800652BD9D7500E0001606F010E616F000E8D
:1020F800636F000E626F000E656F100E646F9DECCB
:102108003BF0000E0101656F56D0000E0101646FAF
:102118000F0E646501D033D06451010D400EF324D5
:10212800D96E010EF420DA6E65510001C06FC16BE3
:10213800C03BC13BF00EC117C0510F0BC113F00ECD
:10214800C017010164510001C027000EC123C0510E
:10215800BD25E96EC151BE21EA6EEF50C26F010183
:102168006451010D500EF324E96E010EF420EA6E5D
:10217800EF500001C219DF6E0101642BC9D7500E60
:102188000001606F010E616F400E626F010E636F98
:10219800000E656F100E646F3EEC36F0500E0001B5
:1021A8007D6F010E7E6FB9C07FF0BAC080F0BEECC3
:1021B8003AF00101652BFF0E0001C06FFF0EC16FE1
:1021C800010163510001C26FC36BC051C227C151E5
:1021D800C323010165510001C46FC56BC251C45DC1
:1021E800C551800AC66FC351800AC659D8A08DD779
:1021F800000E0101656F0F0E656501D023D0655192
:10220800010D400EF324D96E010EF420DA6E6551EB
:10221800010D200EF324E96E010EF420EA6EEF5052
:102228000001C06F01016551010D500EF324E96EE4
:10223800010EF420EA6EEF500001C019DF6E0101B3
:10224800652BD9D7400E00017D6F010E7E6FB9C096
:102258007FF0BAC080F0BEEC3AF0BBC060F0BCC002
:1022680061F0400E0001626F010E636F000E656F32
:10227800100E646F3EEC36F012000A0E0101726F08
:10228800010E466E000E00017C6F0F0E7C6501D0BA
:1022980016D07C51010DF3506825D96EF450692190
:1022A800DA6EDF506A6F7C51010DF3506625D96EE6
:1022B800F4506721DA6E6A51DF1A7C2BE6D7000EDC
:1022C80000017C6F0F0E7C6501D022D07C51010D7E
:1022D800F3506625D96EF4506721DA6EDF506A6FC5
:1022E8006A51010D1F0EF324F66EFE0EF420F76EF0
:1022F800F86A000EF8227C51010DF3506625D96E5C
:10230800F4506721DA6E0800F5CFDFFF7C2BDAD7AF
:1023180066C060F067C061F0E4EC21F0010172056D
:10232800D8B427D1000E00017C6F0F0E7C6501D058
:1023380020D17C516A6F6B6B010E6A27000E6B23EC
:102348006A516625D96E6B516721DA6EDF506C6F62
:102358007C516625D96E000E6721DA6EDF506C1944
:102368007A6F7C516A6F6B6B030E6A27000E6B23C2
:102378006A516625D96E6B516721DA6EDF506C6F32
:102388007C516D6F6E6B020E6D27000E6E236D51C2
:102398006625D96E6E516721DA6EDF506C197B6F36
:1023A8007A517B19786F7C516A6F6B6B010E6A27C3
:1023B800000E6B236A516625D96E6B516721DA6E60
:1023C800DF506C6F7C516D6F6E6B020E6D27000EC7
:1023D8006E236D516625D96E6E516721DA6EDF5016
:1023E8006C19796F7F0E7A650CD01B0E7AC06AF073
:1023F8006B6BD8906A376B376A19726F6B51736F52
:1024080005D0D8907A35726F736B733772C07AF0D3
:102418007F0E79650CD01B0E79C06AF06B6BD89073
:102428006A376B376A19746F6B51756F05D0D8901E
:102438007935746F756B753774C079F07F0E7B656D
:102448000CD01B0E7BC06AF06B6BD8906A376B3769
:102458006A19766F6B51776F05D0D8907B35766F98
:10246800776B773776C07BF07C516625D96E000E86
:102478006721DA6E7C516625E96E000E6721EA6EE7
:10248800EF5078197A19DF6E7C516A6F6B6B010E09
:102498006A27000E6B236A516625D96E6B51672136
:1024A800DA6E7C516C6F6D6B010E6C27000E6D231C
:1024B8006C516625E96E6D516721EA6EEF50781907
:1024C8007919DF6E7C516A6F6B6B020E6A27000EFA
:1024D8006B236A516625D96E6B516721DA6E7C5180
:1024E8006C6F6D6B020E6C27000E6D236C516625A8
:1024F800E96E6D516721EA6EEF5078197B19DF6E2E
:102508007C516A6F6B6B030E6A27000E6B236A514E
:102518006625D96E6B516721DA6E7C516C6F6D6BD5
:10252800020E6C27000E6D236C516625E96E6D5105
:102538006721EA6EEF506E6F7C516F6F706B010E02
:102548006F27000E70236F516625E96E7051672161
:10255800EA6EEF50716F7C516625E96E000E6721B7
:10256800EA6EEF5071196E197819DF6E040E7C2728
:10257800DCD668C060F069C061F0C2EC15F0000EEE
:1025880000017C6F0F0E7C6501D016D07C51010DC7
:10259800F3506825D96EF4506921DA6EDF506A6FFE
:1025A8007C51010DF3506625D96EF4506721DA6E1F
:1025B8006A51DF1A7C2BE6D7010172077251D8B431
:1025C80012007DD6000E0001C26FBDC0C3F0BEC0B0
:1025D800C4F05AD102019851020D000E0001C06FDB
:1025E800020EC16F990EC027000EC123F350C027F9
:1025F800F450C123010EC025D96E000EC121DA6E38
:102608000201DF909851020D000E0001C06F020E0A
:10261800C16F990EC027000EC123F350C027F45094
:10262800C123010EC025D96E000EC121DA6E020148
:10263800DF929851020D000E0001C06F020EC16FAB
:10264800990EC027000EC123F350C027F450C123B0
:10265800010EC025D96E000EC121DA6E0201DF9489
:102668009851020D000E0001C06F020EC16F990E45
:10267800C027000EC123F350C027F450C123010E18
:10268800C025D96E000EC121DA6E0201DF9698517D
:10269800020D000E0001C06F020EC16F990EC02717
:1026A800000EC123F350C027F450C123010EC025EA
:1026B800D96E000EC121DA6E0201DF989851020D21
:1026C800000E0001C06F020EC16F990EC027000EE8
:1026D800C123F350C027F450C123010EC025D96E81
:1026E800000EC121DA6E0201DF9A9851020D000E28
:1026F8000001C06F020EC16F990EC027000EC123E2
:10270800F350C027F450C123010EC025D96E000E26
:10271800C121DA6E0201DF9C9851020D000E000102
:10272800C06F020EC16F990EC027000EC123F3506F
:10273800C027F450C123010EC025D96E000EC12157
:10274800DA6E0201DF9EC3C0D9FFC4C0DAFF985118
:10275800020D990EF324E96E020EF420EA6EDFCF23
:10276800EFFF64D0C3C060F0C4C061F024EC3BF05C
:1027780060C0C3F061C0C4F04DD0C3C070F0C4C025
:1027880071F009EC09F070C0C3F071C0C4F06CD0EE
:10279800C3C060F0C4C061F0B0EC3CF060C0C3F0EE
:1027A80061C0C4F061D0C3C0A6F0C4C0A7F04AECB1
:1027B80019F0A6C0C3F0A7C0C4F056D0C3C060F0DB
:1027C800C4C061F0F9EC3EF060C0C3F061C0C4F071
:1027D8004BD0C3C0B3F0C4C0B4F054EC1AF0B3C0CB
:1027E800C3F0B4C0C4F040D0C3C067F0C4C068F040
:1027F8004DEC3CF067C0C3F068C0C4F035D0010EA2
:102808000001C26FBF51010DF350BD25C36FF450D5
:10281800BE21C46F02019851020D990EF324D96E9E
:10282800020EF420DA6EFF0EDF6E1ED0C3C0D9FF91
:10283800C4C0DAFF0001C34BC42BDF50020AD8B46E
:1028480091D7010AD8B499D7070AD8B4A1D7010AF1
:10285800D8B4A9D7030AD8B4B1D7010AD8B4B9D71C
:102868000F0AD8B4C1D7CBD702019851020D990EDF
:10287800F324D96E020EF420DA6EDE28D8B404D020
:10288800100E986101D0982B0001BF51010DBDC0F9
:10289800C0F0BEC0C1F0F350C027F450C123C051EE
:1028A800C35DC151C459D8B003D0C251D8B492D66F
:1028B800C3C0BDF0C4C0BEF01200020103B12DD1E7
:1028C800000E0001A16F000EA26F000EA36F000E94
:1028D800A46F000E0201E26F0251F00B0209026FB1
:1028E800CBC2A5F000A58CD01751010D2D0EF324F5
:1028F800F66EFF0EF420F76EF86A000EF822080054
:10290800F5CF9CF08A5100019C259D6F000E9CBF5D
:10291800FF0E02018B2100019E6F9F6BA06B0C0EB6
:10292800D8909D379E379F37A037E82EF9D79DC09E
:1029380060F09EC061F09FC062F0A0C063F07D0EA1
:10294800646F000E656F000E666F000E676F93EC84
:1029580032F060C06DF061C06EF062C06FF063C0AD
:1029680070F00201D3519DEC39F002011C51010DA8
:102978002D0EF324F66EFF0EF420F76EF86A000EA3
:10298800F8220800F5CF9CF08C5100019C259D6F22
:10299800000E9CBFFF0E02018D2100019E6F9F6BF0
:1029A800A06B0C0ED8909D379E379F37A037E82E26
:1029B800F9D79DC060F09EC061F09FC062F0A0C0D2
:1029C80063F07D0E646F000E656F000E666F000E7B
:1029D800676F93EC32F060C06DF061C06EF062C05A
:1029E8006FF063C070F00201D4519DEC39F0020120
:1029F800D35162EC30F00201D45162EC30F0120095
:102A080002011751010D2D0EF324F66EFF0EF4206E
:102A1800F76EF86A000EF8220800F5CF9CF0865190
:102A280000019C259D6F000E9CBFFF0E02018721AF
:102A380000019E6F9F6BA06B0C0ED8909D379E3740
:102A48009F37A037E82EF9D79DC060F09EC061F08F
:102A58009FC062F0A0C063F07D0E646F000E656FCA
:102A6800000E666F000E676F93EC32F060C06DF079
:102A780061C06EF062C06FF063C070F00201D551A2
:102A88009DEC39F002011C51010D2D0EF324F66E58
:102A9800FF0EF420F76EF86A000EF8220800F5CF52
:102AA8009CF0885100019C259D6F000E9CBFFF0E75
:102AB8000201892100019E6F9F6BA06B0C0ED890BC
:102AC8009D379E379F37A037E82EF9D79DC060F015
:102AD8009EC061F09FC062F0A0C063F07D0E646F7D
:102AE800000E656F000E666F000E676F93EC32F094
:102AF80060C06DF061C06EF062C06FF063C070F0CE
:102B08000201D6519DEC39F00201D55162EC30F04A
:102B18000201D65162EC30F0120038EC3FF00001AF
:102B28009C6F9CA913D0000E606F000E616F000EA1
:102B3800626F020E636F01D812000500FA6EF95138
:102B4800FD6EFA51FE6EFF6AFA5012000001F9514B
:102B5800FA11D8B41200000E606F000E616F000EFB
:102B6800626F030E636F01D812000500FA6EF95107
:102B7800FD6EFA51FE6EFF6AFA501200000120EE57
:102B88000DF06051D9266151DA22DF50626F62512F
:102B9800010D1F0EF324F66EFE0EF420F76EF86A90
:102BA800000EF8220800F5CF63F060C0D9FF61C0BD
:102BB800DAFF6351DF1A20EE0EF06051D926615119
:102BC800DA22DF50626F6251010D1F0EF324F66E98
:102BD800FE0EF420F76EF86A000EF8220800F5CF12
:102BE80063F020EE01F06051D9266151DA22635179
:102BF800DF1A20EE0FF06051D9266151DA22DF503A
:102C0800626F6251010D1F0EF324F66EFE0EF42062
:102C1800F76EF86A000EF8220800F5CF63F020EE90
:102C280002F06051D9266151DA226351DF1A20EE91
:102C38000CF06051D9266151DA22DF50626F62517F
:102C4800010D1F0EF324F66EFE0EF420F76EF86ADF
:102C5800000EF8220800F5CF63F020EE03F0605173
:102C6800D9266151DA226351DF1A60C0D9FF61C0E9
:102C7800DAFF4650DF1A7F0E46640CD01B0E46C0A2
:102C880062F0636BD890623763376219646F63517F
:102C9800656F05D0D8904634646F656B653764C03E
:102CA80046F060C0D9FF61C0DAFFDF50626F20EEE6
:102CB80004F06051D9266151DA226251DF1A20EE00
:102CC80001F06051D9266151DA22DF50626F20EE9F
:102CD80005F06051D9266151DA226251DF1A20EEDF
:102CE80002F06051D9266151DA22DF50626F20EE7E
:102CF80006F06051D9266151DA226251DF1A20EEBE
:102D080003F06051D9266151DA22DF50626F20EE5C
:102D180007F06051D9266151DA226251DF1A20EE9C
:102D280004F06051D9266151DA22DF50626F20EE3B
:102D380008F06051D9266151DA226251DF1A20EE7B
:102D480005F06051D9266151DA22DF50626F20EE1A
:102D580009F06051D9266151DA226251DF1A20EE5A
:102D680006F06051D9266151DA22DF50626F20EEF9
:102D78000AF06051D9266151DA226251DF1A20EE39
:102D880007F06051D9266151DA22DF50626F20EED8
:102D98000BF06051D9266151DA226251DF1A20EE18
:102DA80008F06051D9266151DA22DF50626F20EEB7
:102DB8000CF06051D9266151DA226251DF1A20EEF7
:102DC80009F06051D9266151DA22DF50626F20EE96
:102DD8000DF06051D9266151DA226251DF1A20EED6
:102DE8000AF06051D9266151DA22DF50626F20EE75
:102DF8000EF06051D9266151DA226251DF1A20EEB5
:102E08000BF06051D9266151DA22DF50626F20EE53
:102E18000FF06051D9266151DA226251DF1A12008F
:102E2800010197A506D0800E0001B26F030EB16FA5
:102E3800120097C1B4F0030E0001B417D8B405D03E
:102E4800800EB26F040EB16F120001018C51D8A42C
:102E580009D0400E0001B36505D0800EB26F020E96
:102E6800B16F12008A8601019B5189EC3CF0000E7B
:102E78000001A76F040EA66F89EC06F001018C050E
:102E8800D8A427D0B3C062F0220E5DEC3DF00A0E44
:102E980075EC3CF00001C06FF00EC017C087C0C0D1
:102EA80062F00A0E5DEC3DF0400E0001626F400ECC
:102EB8005DEC3DF0000E0001626F410E5DEC3DF0EF
:102EC8008CC165F0010E0001666F010E5EEC28F002
:102ED8000CD0000E0001626F400E5DEC3DF0000E5C
:102EE8000001626F410E5DEC3DF001018C51D8A4E8
:102EF80005D0B3C062F0000E5DEC3DF04AEC3FF047
:102F0800800EC4EC3EF0000E0001C16F0DD0C1511F
:102F1800010DF350B125D96EF450B221DA6EDF50AD
:102F2800C4EC3EF00001C12BB351C15DD8A0EFD76E
:102F380048EC3FF001019781E70E97178CC165F0C7
:102F4800000E0001666F030E5EEC28F0000E000113
:102F5800B86F000EB96F0A0EBA6F000EBB6FB8C01B
:102F68006DF0B9C06EF0BAC06FF0BBC070F001016F
:102F78009B519DEC39F001019B5162EC30F001014D
:102F88009E519F11A011A111D8B461D0A15107E1A0
:102F98009E29FF0E9F590F0EA059D8A01DD09EC183
:102FA80060F09FC161F0A0C162F0A1C163F07D0E25
:102FB8000001646F000E656F000E666F000E676F8C
:102FC80093EC32F00C0ED89000016037613762370D
:102FD8006337E82EF8D723D09EC1B4F09FC1B5F06F
:102FE800A0C1B6F0A1C1B7F00C0ED8900001B4375B
:102FF800B537B637B737E82EF8D7B4C060F0B5C0E4
:1030080061F0B6C062F0B7C063F07D0E646F000E69
:10301800656F000E666F000E676F93EC32F060C04C
:10302800BCF061C0BDF062C0BEF063C0BFF0BCC000
:103038006DF0BDC06EF0BEC06FF0BFC070F0010192
:103048009D519DEC39F001019D5162EC30F0000E6C
:103058000001B26F000EB16F1200010197A506D0F2
:10306800800E0001B26F030EB16F120097C1B3F06A
:10307800030E0001B317D8B405D0800EB26F040E4A
:10308800B16F12008A86B151B211D8A407D0000ED0
:10309800A76F040EA66F89EC06F006D0B1C0A6F0A3
:1030A800B2C0A7F089EC06F001018C05D8A413D0B2
:1030B800010E0001626F220E5DEC3DF0000E000172
:1030C800626F400E5DEC3DF0000E0001626F410E34
:1030D8005DEC3DF016D0A8C162F0120E5DEC3DF03B
:1030E800A9C162F0130E5DEC3DF0000E0001626FA5
:1030F800400E5DEC3DF0000E0001626F410E5DEC8C
:103108003DF001019783E70E97170001B151B21105
:10311800D8A408D08CC165F0000E666F050E5EEC71
:1031280028F046D001018C05D8A409D0010E000171
:10313800656F000E666F060E5EEC28F039D0000E43
:103148000001656F000E666F050E5EEC28F0000149
:10315800B151B36FB251B46FB56BB66B0C0ED8905A
:10316800B337B437B537B637E82EF9D7B3C060F000
:10317800B4C061F0B5C062F0B6C063F07D0E646F94
:10318800000E656F000E666F000E676F93EC32F0ED
:1031980060C06DF061C06EF062C06FF063C070F027
:1031A80001019C519DEC39F001019C5162EC30F019
:1031B80001019E519F11A011A111D8B461D0A15154
:1031C80007E19E29FF0E9F590F0EA059D8A01DD0C8
:1031D8009EC160F09FC161F0A0C162F0A1C163F01F
:1031E8007D0E0001646F000E656F000E666F000EA5
:1031F800676F93EC32F00C0ED8900001603761379E
:1032080062376337E82EF8D723D09EC1B3F09FC149
:10321800B4F0A0C1B5F0A1C1B6F00C0ED890000171
:10322800B337B437B537B637E82EF8D7B3C060F040
:10323800B4C061F0B5C062F0B6C063F07D0E646FD3
:10324800000E656F000E666F000E676F93EC32F02C
:1032580060C0B7F061C0B8F062C0B9F063C0BAF03E
:10326800B7C06DF0B8C06EF0B9C06FF0BAC070F0FA
:1032780001019D519DEC39F001019D5162EC30F046
:10328800000E0001B26F000EB16F1200000E0001B7
:10329800AA6F000EAB6F000EAC6F000EAD6FA6C02C
:1032A800D9FFA7C0DAFFDF50AE6FA64BA72BA6C089
:1032B800D9FFA7C0DAFFFF0EDE14AA6FFF0EDE14D7
:1032C800AB6FFF0EDE14AC6F000EDE14AD6FAAC03C
:1032D8009AF0ABC09BF0ACC09CF0ADC09DF0640E02
:1032E8009E6F000E9F6F000EA06F000EA16F55EC31
:1032F80037F09AC0AAF09BC0ABF09CC0ACF09DC060
:10330800ADF0030E0001A625A66F000EA721A76F3A
:10331800AAC069F0ABC06AF0ACC06BF0ADC06CF08D
:103328003DEC34F00009D8A418D002019851020DE0
:10333800000E0001A86F020EA96F990EA827000EB3
:10334800A923F350A827F450A923010EA825D96E64
:10335800000EA921DA6E0201DF860001AE510F0BC3
:10336800DCEC3DF00009D8A418D002019851020DF8
:10337800000E0001A86F020EA96F990EA827000E73
:10338800A923F350A827F450A923010EA825D96E24
:10339800000EA921DA6E0201DF880001AE39070BA1
:1033A8003BEC3EF00009D8A418D002019851020D58
:1033B800000E0001A86F020EA96F990EA827000E33
:1033C800A923F350A827F450A923010EA825D96EE4
:1033D800000EA921DA6E0201DF8A02019851020D5E
:1033E800000E0001A86F020EA96F990EA827000E03
:1033F800A923F350A827F450A923010EA825D96EB4
:10340800000EA921DA6E0201DFA845D09851020DFD
:10341800000E0001A86F020EA96F990EA827000ED2
:10342800A923F350A827F450A923010EA825D96E83
:10343800000EA921DA6E0201DFA62DD09851020DE7
:10344800000E0001A86F020EA96F990EA827000EA2
:10345800A923F350A827F450A923010EA825D96E53
:10346800000EA921DA6E0201DFAA15D00001AE39DB
:10347800070B0201E06FAAC060F0ABC061F0ACC0FE
:1034880062F0ADC063F00001AE510F0B646F53ECF6
:103498003EF00201038FA6C0A6F0A7C0A7F0120055
:1034A800000E0001B86F000EB96F000EBA6F000E63
:1034B800BB6FB3C0D9FFB4C0DAFFDF50BC6FB34BEA
:1034C800B42BB3C0D9FFB4C0DAFFFF0EDE14B86F57
:1034D800FF0EDE14B96FFF0EDE14BA6F000EDE1495
:1034E800BB6FB8C09AF0B9C09BF0BAC09CF0BBC023
:1034F8009DF0640E9E6F000E9F6F000EA06F000E71
:10350800A16F55EC37F09AC0B8F09BC0B9F09CC0D9
:10351800BAF09DC0BBF0030E0001B325B36F000ED7
:10352800B421B46FB3C0D9FFB4C0DAFFDF50B76FAE
:10353800B34BB42BBC51EBEC3DF00009D8A462D0DE
:103548000001BC517CEC38F00001B851A6190AE121
:10355800B951A71907E1BA51A81904E1BB51A91932
:10356800D8B417D0BC5175EC34F00001B851A61985
:103578000AE1B951A71907E1BA51A81904E1BB51E9
:10358800A919D8B406D0B851B911BA11BB11D8A429
:1035980018D002019851020D000E0001B56F020EFD
:1035A800B66F990EB527000EB623F350B527F45021
:1035B800B623010EB525D96E000EB621DA6E0201CA
:1035C800DF8EB7C062F00001BC5151EC32F0000947
:1035D800D8A418D002019851020D000E0001B56F51
:1035E800020EB66F990EB527000EB623F350B52715
:1035F800F450B623010EB525D96E000EB621DA6E49
:103608000201DF8C02019851020D000E0001B56F16
:10361800020EB66F990EB527000EB623F350B527E4
:10362800F450B623010EB525D96E000EB621DA6E18
:103638000201DFAE2BD09851020D000E0001B56FCC
:10364800020EB66F990EB527000EB623F350B527B4
:10365800F450B623010EB525D96E000EB621DA6EE8
:103668000201DFAC13D00001B851B911BA11BB1176
:10367800D8A406D0000E646FBC51F9EC3BF006D01C
:10368800B7C067F00001BC516DEC3BF0B3C0B3F0BC
:10369800B4C0B4F012000001C46F000E0001C36F83
:1036A8000201E6511CEC3FF0D0C2C2F00001C40593
:1036B800D8A428D0C4C0AFF0C50EB06F000EB16F4B
:1036C8000201DE51D9EC26F00001C36F0201D0518E
:1036D800010D1F0EF324F66EFF0EF420F76EF86A44
:1036E800000EF8220800F550FEEC3EF00201E05111
:1036F8000008D0250A0F176F0D0E176553D00D0E51
:10370800176F50D0020100BD1AD0000ED06FC4C090
:10371800AFF0C50E0001B06F000EB16F400ED9ECCE
:1037280026F00001C36F0A0EFEEC3EF00201E051E4
:1037380000080A0F176F070E12EC3FF01FD0040E97
:103748000201D06FC4C0AFF0C50E0001B06F000E0B
:10375800B16F080ED9EC26F00001C36F080EFEEC1D
:103768003EF00201E05100080E0F176F0D0E1765AD
:1037780002D00D0E176F090E12EC3FF0020100BDCA
:1037880004D00001BD6BBD2B02D00001BD6BBD3B59
:10379800BD47BD47020100510001BD19BF0BBD194E
:1037A8000201006FC2C0D0F20001C351D8A468D092
:1037B800400EC5611FD0C5517CEC38F0A6C0BEF0E4
:1037C800A7C0BFF0A8C0C0F0A9C0C1F0070E12EC96
:1037D8003FF00201D251010D570EF324F66EFF0E91
:1037E800F420F76EF86A000EF8220800F55003EC92
:1037F8003FF034D00001C55175EC34F0A6C0BEF0DE
:10380800A7C0BFF0A8C0C0F0A9C0C1F0090E12EC53
:103818003FF00201D251010D570EF324F66EFF0E50
:10382800F420F76EF86A000EF8220800F550800AB6
:10383800650FD8B010D0D251010D570EF324F66E93
:10384800FF0EF420F76EF86A000EF8220800F55013
:1038580003EC3FF003D01A0E03EC3FF0BEC060F05B
:10386800BFC061F0C0C062F0C1C063F086EC31F047
:10387800010E0DEC3FF0000E08EC3FF0C5C0CBF296
:103888000001C3511200000E0001806F7BC074F16B
:103898007CC075F17DC076F17EC077F1A80E01017C
:1038A800786F610E796F000E7A6F000E7B6F500E85
:1038B8007C6FC30E7D6F000E7E6F000E7F6F010E52
:1038C8008C6F070E8E6F020E8F6F010E956F000EB4
:1038D800966F000E816F080E806F0C0E8D6F010EB3
:1038E800906F000E916F000E946FC10E836F940E4F
:1038F800846FC10E856F030E8B6F340E826F000EBE
:10390800976F000E986F79C099F17AC09AF1000EFE
:10391800936F000E926F800EA66F980E9E6F3A0EF0
:103928009F6F000EA06F000EA16F020EA76F0B0E07
:10393800A86F120EA96F000EA36F000EA46FA251FC
:10394800D8A426D040EC31F001019B6F40EC31F057
:1039580001019C6F40EC31F001019D6F060E0001E2
:10396800606F750E616F000E626F01019C517BECF8
:1039780039F0E00E0001606F710E616F000E626F2A
:1039880001019D517BEC39F0010E0101A26F0BD0B2
:103998009B5189EC3CF001019C5189EC3CF0010100
:1039A8009D5189EC3CF014EC39F0000E0001656F74
:1039B800010E666F010E5EEC28F074C16DF075C1E2
:1039C8006EF076C16FF077C170F0CFEC29F0420E3F
:1039D8000001626F3B0E5DEC3DF03B0E75EC3CF078
:1039E80000017F6F7FBBF9D7230E626F0C0E5DEC71
:1039F8003DF01E0E0001626F0D0E5DEC3DF0AA0E4B
:103A08000001626F1F0E5DEC3DF08F0E0001626FCA
:103A1800350E5DEC3DF0FF0E0001626F320E5DEC7D
:103A28003DF0400E0001626F310E5DEC3DF0010E7D
:103A38000001656F010E666F000E5EEC28F093863C
:103A48006186F19E000E0001806F05D081A602D02C
:103A5800939603D0802B80AFF9D76196F18EFF0E35
:103A6800626F230E5DEC3DF0420E75EC3CF00101F7
:103A7800A56F1200000E0001A66F000EA76F000EC2
:103A8800A86F93C060F0616B000E636F100E626FD9
:103A9800CBEC31F000016051A66F010EA76F6DD01D
:103AA80095C06BF096C06CF097C06DF098C06EF042
:103AB800A7C06FF0010E706F9EC071F09451DDECDD
:103AC80028F0AA0E00017D6F010E7E6F99C07FF06D
:103AD8009AC080F0BEEC3AF0000E0001A86F0F0EFD
:103AE800A86501D049D09B51010DF3509C25D96E92
:103AF800F4509D21DA6EF00E9F6FFF0EA06FA75154
:103B0800A16FA26BA13BA23BF00EA217A1510F0B14
:103B1800A213F00EA117A851A127000EA2239F51AE
:103B2800A127A051A22391C0A3F092C0A4F0A15153
:103B3800A327A251A423A3C0F6FFA4C0F7FF000E39
:103B4800F86E0F0EF76403D00800F55005D0F6CFD5
:103B5800E9FFF7CFEAFFEF500001A56FA851010D6B
:103B6800AA0EF324E96E010EF420EA6EEF50A519AF
:103B7800DF6E9B2BA82BB3D7A72BA751A65DD8B078
:103B88008FD793C09FF00F0E9F17D8B4120095C01F
:103B98006BF096C06CF097C06DF098C06EF0A7C03F
:103BA8006FF0010E706F9EC071F09451DDEC28F03B
:103BB800AA0E00017D6F010E7E6F99C07FF09AC03A
:103BC80080F0BEEC3AF0000E0001A86F36D09B5191
:103BD800010DF3509C25D96EF4509D21DA6EA65143
:103BE800100DA851F326000EF42291C09FF092C048
:103BF800A0F0F3509F27F450A0239FC0F6FFA0C069
:103C0800F7FF000EF86E0F0EF76403D00800F550AA
:103C180005D0F6CFE9FFF7CFEAFFEF500001A16F1B
:103C2800A851010DAA0EF324E96E010EF420EA6EE4
:103C3800EF50A119DF6E9B2BA82B93C09FF00F0E9E
:103C48009F179F51A85DD8B01200C1D7000E000180
:103C5800DA6F900E606F040E616F000E636F000ED6
:103C6800626F010E656F0F0E646F9DEC3BF00001F3
:103C7800D89BD89DD89FFC0ED817D895D897D89997
:103C8800DA51010D900EF324D96E040EF420DA6E89
:103C9800D8C0DFFFDA2B000ED96F070ED96501D027
:103CA80022D0D951D06FD16BD01FD11FD04BD12B7F
:103CB800070ED027000ED123520ED025D96E020E42
:103CC800D121DA6ED951DAC0D2F0D36BD227000EE7
:103CD800D323900ED225E96E040ED321EA6EDFCFEE
:103CE800EFFFD92BDAD7DA51080FDA6F000ED96F48
:103CF800070ED96501D022D0D951D06FD16BD01F12
:103D0800D11FD04BD12B070ED027000ED1235A0E2E
:103D1800D025D96E020ED121DA6ED951DAC0D2F08F
:103D2800D36BD227000ED323900ED225E96E040E52
:103D3800D321EA6EDFCFEFFFD92BDAD7DA51080F9C
:103D4800DA6FFF0EAE6FAD692BEC3DF0ADC0C3F27C
:103D5800AEC0C4F20001DA51010D900EF324606F79
:103D6800040EF420616FC30E626F020E636F000EC3
:103D7800656F020E646F3EEC36F00001DA51020FF7
:103D8800DA6F420EC76F020EC86F900EC96F040E2D
:103D9800CA6FDAC0CBF07CEC35F0C7C0D4F0C8C02D
:103DA800D5F0C9C0D6F0CAC0D7F00001DA51010D6C
:103DB800900EF324606F040EF420616FD40E626FCE
:103DC800000E636F000E656F040E646F3EEC36F0F4
:103DD8000001DA51040FDA6FDA5112003CEC3DF0C1
:103DE80060C044F061C045F04704D8A46ED0000E0E
:103DF800476E3CC06CF03DC06DF03EC06EF03FC0F9
:103E08006FF000016C1F6D1F6E1F6F1F6C2B000E73
:103E18006D236E236F23FD51706FFE51716F726BAE
:103E2800736B701F711F721F731F702B000E71232D
:103E38007223732344507025746F45507121756F38
:103E4800000E7221766F000E7321776F6C51742506
:103E5800786F6D517521796F6E5176217A6F6F5138
:103E680077217B6F405078257C6F415079217D6F99
:103E780042507A217E6F43507B217F6F000E7C2554
:103E88000101696F000E00017D2101016A6F010EB9
:103E980000017E2101016B6F000E00017F210101ED
:103EA8006C6F44C03CF045C03DF03E6A3F6A000E6E
:103EB800406E000E416E000E426E000E436E000E04
:103EC8000001FE6F000EFD6F45D03CC06CF03DC098
:103ED8006DF03EC06EF03FC06FF000016C1F6D1FAB
:103EE8006E1F6F1F6C2B000E6D236E236F23FDC09A
:103EF80070F0FEC071F0701F711F704B712B445031
:103F080070274550712370516C25726F71516D2166
:103F1800736F000E6E21746F000E6F21756F405025
:103F280072250101696F41500001732101016A6F17
:103F380042500001742101016B6F4350000175214B
:103F480001016C6F69513C266A513D226B513E223A
:103F58006C513F2269C168F06AC169F06BC16AF0AF
:103F68006CC16BF012000201E105D8B402EC38F024
:103F7800340E0201E66FE6511CEC3FF0000E020120
:103F8800026F000E036F000E046F000E056FCE69FE
:103F9800000ECF6F000EB96F000EBA6F000EBB6F28
:103FA800000EBC6F000EC66F000EC56F000E0A6FC4
:103FB800000E0B6F000E0C6F000E0D6F000E066FDB
:103FC800000E076F000E086F000E096F000EC46F19
:103FD800000EC36F000ECD6F010ECC6F000EC26FC6
:103FE800000EC16F000EDF6F000EE06F000EB96F9C
:103FF800000EBA6F000EBB6F000EBC6F0395000E6B
:10400800026F000E036F000E046F000E056F000EA6
:10401800016F000E006F070EC86F000EC76F010E0C
:10402800CA6F010EC96FD169AF0E0001796F050E15
:104038007A6FA00E7B6F700E7C6F080E7D6F370E47
:104048007E6F47EC1CF0BFEC39F0060E0201D26F10
:10405800A00E186F700E196F080E1A6F370E1B6FAF
:10406800080E1C6F000ED06F47EC2AF0000E0201FC
:10407800976F000E966F1D0E0001606F020E616F44
:10408800000E636F000E626F000E656F690E646F3D
:104098009DEC3BF0030E0201876FE80E866F070E5A
:1040A800896FD00E886F130E8B6F880E8A6F170E6C
:1040B8008D6F700E8C6F070E936FD00E926F200E5F
:1040C800956F400E946F400E8F6F000E8E6F000E2E
:1040D8000001A76F000EA66F96EC22F0010E17ECF8
:1040E8003FF012008DEC3DF001C044F002C045F0F5
:1040F8004704D8A468D0000E476E3CC00DF03DC000
:104108000EF03EC00FF03FC010F00D1E0E1E0F1E29
:10411800101E0D2A000E0E220F2210220001FD5142
:10412800116EFE51126E136A146A111E121E131EAE
:10413800141E112A000E1222132214224450112494
:10414800156E45501220166E000E1320176E000EC5
:104158001420186E0D501524196E0E5016201A6E64
:104168000F5017201B6E105018201C6E4050192439
:104178001D6E41501A201E6E42501B201F6E435068
:104188001C20206E000E1D240101696F000E1E20E8
:104198006A6F010E1F206B6F000E20206C6F44C0E9
:1041A8003CF045C03DF03E6A3F6A000E406E000E8E
:1041B800416E000E426E000E436E000E0001FE6F4F
:1041C800000EFD6F3ED03CC00DF03DC00EF03EC06D
:1041D8000FF03FC010F00D1E0E1E0F1E101E0D2AF0
:1041E800000E0E220F221022FDC011F0FEC012F0A8
:1041F800111E121E114A122A44501126455012222D
:1042080011500D24136E12500E20146E000E0F2044
:10421800156E000E1020166E405013240101696FB0
:10422800415014206A6F425015206B6F435016207E
:104238006C6F69513C266A513D226B513E226C518C
:104248003F2269C109F06AC10AF06BC10BF06CC169
:104258000CF01200050EE126000EE222020103A175
:1042680003A52CD0FF0EE36A0FD0FF0EE350020D1A
:10427800990EF324D96E020EF420DA6E020EDE18BF
:10428800D8B409D0FF0EE32AFF0EE3CF48F09851C7
:10429800485CD8A0EAD7FF0EE3509819D8A40ED0EE
:1042A8009851020D990EF324D96E020EF420DA6E9D
:1042B800020EDF6E100E986101D0982B03A57BD0FB
:1042C800C05107E1BD29FF0EBE590F0EBF59D8A036
:1042D80024D0BDC260F0BEC261F0BFC262F0C0C2ED
:1042E80063F07D0E0001646F000E656F000E666F4F
:1042F800000E676F93EC32F060C050F061C051F06F
:1043080062C052F063C053F00C0ED890503651364C
:1043180052365336E82EF9D72BD0BDC250F0BEC264
:1043280051F0BFC252F0C0C253F00C0ED8905036B4
:10433800513652365336E82EF9D750C060F051C086
:1043480061F052C062F053C063F07D0E0001646FEB
:10435800000E656F000E666F000E676F93EC32F00B
:1043680060C050F061C051F062C052F063C053F0B9
:10437800FB0E50C0E3FFFC0E51C0E3FFFD0E52C020
:10438800E3FFFE0E53C0E3FFE150FB0FD96EE2508E
:10439800DA6EFF0EDA22DECF6DF0DECF6EF0DECF02
:1043A8006FF0DECF70F00201D8519DEC39F00201B8
:1043B800D85162EC30F0FA0EE126FF0EE22212002C
:1043C800000120EE01F06051D9266151DA22DF5058
:1043D800626F20EE05F06051D9266151DA2200EEB5
:1043E80001F06051E9266151EA22DFCFEFFF20EEAC
:1043F80009F06051D9266151DA2200EE05F06051CA
:10440800E9266151EA22DFCFEFFF20EE0DF060517F
:10441800D9266151DA2200EE09F06051E92661518E
:10442800EA22DFCFEFFF20EE0DF06051D92661516F
:10443800DA2262C0DFFF20EE02F06051D926615116
:10444800DA22DF50626F20EE0AF06051D9266151FE
:10445800DA2200EE02F06051E9266151EA22DFCF4C
:10446800EFFF20EE0AF06051D9266151DA2262C0CE
:10447800DFFF20EE0EF06051D9266151DA22DF50BD
:10448800626F20EE06F06051D9266151DA2200EE03
:104498000EF06051E9266151EA22DFCFEFFF20EEEE
:1044A80006F06051D9266151DA2262C0DFFF20EEA2
:1044B80003F06051D9266151DA22DF50626F20EE95
:1044C8000FF06051D9266151DA2200EE03F06051F5
:1044D800E9266151EA22DFCFEFFF20EE0BF06051B1
:1044E800D9266151DA2200EE0FF06051E9266151B8
:1044F800EA22DFCFEFFF20EE07F06051D9266151A5
:10450800DA2200EE0BF06051E9266151EA22DFCF92
:10451800EFFF20EE07F06051D9266151DA2262C020
:10452800DFFF1200A6C09AF0A7C09BF000019C6BA9
:104538009D6BE80E9E6F030E9F6F000EA06F000E1E
:10454800A16F55EC37F09AC0BDF29BC0BEF29CC07B
:10455800BFF29DC0C0F20001A651A711D8A42BD06C
:104568000201D85189EC3CF002010395000E0001CC
:10457800B06F1AD0B051020D990EF324D96E020E05
:10458800F420DA6E020EDE18D8A40CD0B051020D59
:10459800990EF324D96E020EF420DA6EFF0EDF6E48
:1045A800020198070001B02B020198510001B05D8B
:1045B800D8B01200DFD70201038502A91200C0514A
:1045C80007E1BD29FF0EBE590F0EBF59D8A01DD057
:1045D800BDC260F0BEC261F0BFC262F0C0C263F08B
:1045E8007D0E0001646F000E656F000E666F000E91
:1045F800676F93EC32F00C0ED8900001603761378A
:1046080062376337E82EF8D723D0BDC2A8F0BEC200
:10461800A9F0BFC2AAF0C0C2ABF00C0ED89000013E
:10462800A837A937AA37AB37E82EF8D7A8C060F063
:10463800A9C061F0AAC062F0ABC063F07D0E646FE0
:10464800000E656F000E666F000E676F93EC32F018
:1046580060C0ACF061C0ADF062C0AEF063C0AFF056
:10466800ACC06DF0ADC06EF0AEC06FF0AFC070F012
:104678000201D8519DEC39F00201D85162EC30F0BA
:104688001200000E0001B86F21EEBAF000EE98F0AB
:104698000F0EDBCFEBFFE806FCE2A80E606F000E02
:1046A800616F000E636F000E626F000E656F100E73
:1046B800646F9DEC3BF0A80E00017D6F000E7E6FCD
:1046C80091C07FF092C080F0BEEC3AF00001A8BF24
:1046D8000DD0A80E606F000E616F93C062F094C099
:1046E80063F0100E646FADEC35F02AD0A80E00010F
:1046F800606F000E616F93C062F094C063F0100E9B
:10470800646FADEC35F0000E0001B86F0F0EB865A0
:1047180001D016D0B851010D980EF324D96E000EB1
:10472800F420DA6EDF50976FB851010DF3509325DE
:10473800D96EF4509421DA6E9751DF1AB82BE6D768
:1047480093C0D9FF94C0DAFF0001DFBE0DD093C03B
:1047580060F094C061F095C062F096C063F0100EEE
:10476800646FADEC35F0120093C060F094C061F056
:1047780095C062F096C063F0100E0001646FADEC56
:1047880035F0000E0001B86F0F0EB86501D01200A9
:10479800B851010DF3509525D96EF4509621DA6E73
:1047A800B851010D980EF324E96E000EF420EA6E5C
:1047B800EF50976FB851010DF3509525E96EF450FD
:1047C8009621EA6EEF509719DF6EB82BDDD7E652C7
:1047D800E652E652E652020100950289F00E0217EF
:1047E800C16BC26BDF6B03A57BD0C05107E1BD294C
:1047F800FF0EBE590F0EBF59D8A024D0BDC260F01D
:10480800BEC261F0BFC262F0C0C263F07D0E00019B
:10481800646F000E656F000E666F000E676F93EC95
:1048280032F060C050F061C051F062C052F063C015
:1048380053F00C0ED8905036513652365336E82E77
:10484800F9D72BD0BDC250F0BEC251F0BFC252F052
:10485800C0C253F00C0ED8905036513652365336EB
:10486800E82EF9D750C060F051C061F052C062F034
:1048780053C063F07D0E0001646F000E656F000E7B
:10488800666F000E676F93EC32F060C050F061C045
:1048980051F062C052F063C053F0FC0E50C0E3FF09
:1048A800FD0E51C0E3FFFE0E52C0E3FFFF0E53C0E2
:1048B800E3FFE150FC0FD96EE250DA6EFF0EDA2208
:1048C800DECF6DF0DECF6EF0DECF6FF0DECF70F0B2
:1048D8000201D8519DEC39F00201D85162EC30F058
:1048E8000001FB51FC11D8B40CD001D80AD0050046
:1048F800FA6EFB51FD6EFC51FE6EFF6AFA50010E16
:104908001200FB0EE126FF0EE22212003F0E75ECAC
:104918003CF00001B26FB2A712008CC165F0000E26
:10492800666F000E5EEC28F0010197919D5189ECAD
:104938003CF08A96010197B912009B5144EC3AF079
:104948000001945108E11F0E915DAC0E9259DF0EE3
:104958009359D8A021D001019B5144EC3AF00D0E97
:1049680006D00001D8909433933392339133E82ED4
:10497800F8D791C09AF092C09BF093C09CF094C075
:104988009DF07D0E9E6F000E9F6F000EA06F000EB3
:10499800A16F55EC37F021D001019B5144EC3AF05E
:1049A80091C09AF092C09BF093C09CF094C09DF087
:1049B8007D0E00019E6F000E9F6F000EA06F000E0F
:1049C800A16F55EC37F00D0E06D00001D8909D333D
:1049D8009C339B339A33E82EF8D79AC0AEF09BC02D
:1049E800AFF09CC0B0F09DC0B1F0AEC0A6F0AFC0B3
:1049F800A7F0B0C0A8F0B1C0A9F00001A61FA71F7A
:104A0800A81FA91FA62B000EA723A823A923200EA1
:104A1800A625AA6F4E0EA721AB6F000EA821AC6F7A
:104A2800000EA921AD6F01019B5189EC3CF0AAC091
:104A38009AF0ABC09BF061EC14F01200020100A1E7
:104A480021D0CA51C85DD8A003D004EC34F01200BC
:104A58007CEC3EF00001F951FA11D8B41200000EB6
:104A6800606F000E616F000E626F000E636F01D8F9
:104A780012000500FA6EF951FD6EFA51FE6EFF6ADA
:104A8800FA5012000201C951C75DD8A054D0025192
:104A9800F00B0609026F010E4FEC1BF00009D8A4B9
:104AA80030D0A00E0001B16F040EB26FC5C2B3F0D2
:104AB80014EC17F00001B151B211D8A403D00201CF
:104AC800C92B120002010251F00B0609026F000EF9
:104AD8000001C66F000EC76F010EC86F000EC96FC8
:104AE800C6C06DF0C7C06EF0C8C06FF0C9C070F026
:104AF8000201E5519DEC39F00201E55162EC30F01C
:104B080012005EEC3EF00001F951FA11D8B412001F
:104B1800000E606F000E616F000E626F010E636F12
:104B280001D812000500FA6EF951FD6EFA51FE6EB9
:104B3800FF6AFA5012005EEC3EF00001F951FA11DA
:104B4800D8B41200000E606F000E616F000E626F25
:104B5800010E636F01D812000500FA6EF951FD6E5F
:104B6800FA51FE6EFF6AFA50120001019D5189EC5C
:104B78003CF08A96080E0001626F120E5DEC3DF063
:104B88008CC165F0000E0001666F000E5EEC28F027
:104B98000101979197B912009B5144EC3AF000013A
:104BA800945108E11F0E915DAC0E9259DF0E935996
:104BB800D8A021D001019B5144EC3AF00D0E06D04B
:104BC8000001D8909433933392339133E82EF8D779
:104BD80091C09AF092C09BF093C09CF094C09DF055
:104BE8007D0E9E6F000E9F6F000EA06F000EA16FCE
:104BF80055EC37F021D001019B5144EC3AF091C0BB
:104C08009AF092C09BF093C09CF094C09DF07D0EEA
:104C180000019E6F000E9F6F000EA06F000EA16F27
:104C280055EC37F00D0E06D00001D8909D339C331B
:104C38009B339A33E82EF8D79AC0AEF09BC0AFF0FA
:104C48009CC0B0F09DC0B1F0AEC0A6F0AFC0A7F058
:104C5800B0C0A8F0B1C0A9F00001A61FA71FA81FE7
:104C6800A91FA62B000EA723A823A923200EA6253B
:104C7800AA6F4E0EA721AB6F000EA821AC6F000ED5
:104C8800A921AD6FAAC09AF0ABC09BF061EC14F0FB
:104C98001200E652020103B183D0CA51C85DD8A000
:104CA80060D0DEEC35F0536E0D0E5326FF0E53C068
:104CB800E3FFFF0EE350496E4A6A0201C551495CA1
:104CC800C6514A58D8A039D0010E4FEC1BF0000944
:104CD800D8A430D0A00E0001B16F040EB26FC5C2C7
:104CE800B3F014EC17F0B1C049F0B2C04AF0495023
:104CF8004A10D8A41FD002010251F00B0109026F1B
:104D0800CA2BCAB14FD0D051D8B44CD0CA51496E71
:104D18004A6AC851526E536A010E5226000E532237
:104D28004950521804E14A505318D8B43BD011ECFA
:104D38002CF038D004EC34F035D07CEC3EF0000197
:104D4800F951FA11D8B42ED0000E606F000E616FC1
:104D5800000E626F040E636F01D824D00500FA6E4E
:104D680018D0CA51C85DD8A003B11CD07CEC3EF065
:104D78000001F951FA11D8B415D0000E606F000E79
:104D8800616F000E626F000E636F01D80BD00500D3
:104D9800FA6EF951FD6EFA51FE6EFF6AFA50120072
:104DA8007CEC3EF0E552E55212000001BA6F000EAD
:104DB8000001B86F000EB96F080EBA19D8A402D056
:104DC800400EB96FBAC0ADF0AE6B2BEC3DF00001F0
:104DD800AD29BB6FBBC0B7F05CD0B9C0BCF03BD04D
:104DE800BC51020D010EF326000EF422000EF3242E
:104DF800D96E040EF420DA6E0401DF500F0B0001A7
:104E0800B26FB2510201D05DD8A023D00001BC51CD
:104E1800020D010EF326000EF422000EF324D96EC3
:104E2800040EF420DA6E0401DF380F0B0001B26FB4
:104E38000201D0510001B25DD8A00BD0BC51020DC7
:104E4800000EF324D96E040EF420DA6EDE04D8B412
:104E5800BB070001BC2BBA51B9C0B2F0B36BB22783
:104E6800000EB323BC51B46FB56BB251B45DB551EC
:104E7800800AB66FB351800AB659D8B003D0BB5177
:104E8800D8A4AED7B751BB19D8A403D0090EB86FB0
:104E980003D0BB51D8A4A1D7BC51D8B402D0BC050B
:104EA80001D0BA05B0C0D9FFB1C0DAFFDF6EB85182
:104EB800120000018C698D698E698F69F2EC1EF011
:104EC80068C088F069C089F06AC08AF06BC08BF04E
:104ED800000E0001906F61D09051080D040EF3266A
:104EE800000EF422000EF324D96E030EF420DA6EBD
:104EF800DE04D8A451D09051080D000EF324D96EC9
:104F0800030EF420DA6EDE50885DDE508959DE50DB
:104F18008A59DE508B59D8A00DD09051080D000E3B
:104F2800F324D96E030EF420DA6EDE6ADE6ADE6AD6
:104F3800DD6A32D09051080D000EF324D96E030EAD
:104F4800F420DA6E8851DE5E8951DE5A8A51DE5AC3
:104F58008B51DE5A9051080D000EF324D96E030EC2
:104F6800F420DA6E8C51DE5C8D51DE588E51DE589D
:104F78008F51DE58D8B010D09051080D000EF32490
:104F8800D96E030EF420DA6EDECF8CF0DECF8DF012
:104F9800DECF8EF0DECF8FF0902BFF51905DD8A042
:104FA8009BD78CC080F08DC081F08EC082F08FC0FE
:104FB80083F012002D682E682F68306876EC20F098
:104FC80009C029F00AC02AF00BC02BF00CC02CF045
:104FD800000E316E61D03150080D040EF326000E1C
:104FE800F422000EF324D96E030EF420DA6EDE04E8
:104FF800D8A451D03150080D000EF324D96E030EF9
:10500800F420DA6EDE50295CDE502A58DE502B5828
:10501800DE502C58D8A00DD03150080D000EF324C6
:10502800D96E030EF420DA6EDE6ADE6ADE6ADD6AA5
:1050380032D03150080D000EF324D96E030EF4203F
:10504800DA6E2950DE5E2A50DE5A2B50DE5A2C507A
:10505800DE5A3150080D000EF324D96E030EF420E9
:10506800DA6E2D50DE5C2E50DE582F50DE58305050
:10507800DE58D8B010D03150080D000EF324D96E88
:10508800030EF420DA6EDECF2DF0DECF2EF0DECF69
:105098002FF0DECF30F0312A0001FF51315CD8A06B
:1050A8009AD72DC021F02EC022F02FC023F030C097
:1050B80024F0120000016A6F00016551D8A408D0DD
:1050C800060E6A19D8B41200070E6A19D8B412006D
:1050D800070E6A17010E6517010E75EC3CF000010A
:1050E8006B6F6BAF02D0010E01D0000E676F6B5172
:1050F800070B696F67516519D8B41BD06951D8B4CB
:1051080009D06B51F80B626F010E5DEC3DF0000E9B
:105118000001696F6551D8A403D06B51780B03D097
:105128006B51780B80096B6F6BC062F0010E5DEC00
:105138003DF0000169516A19D8B412006A51D8B417
:1051480015D06605D8A412D0410E75EC3CF00001CC
:10515800686F6551D8A403D0300E681302D0CF0E03
:10516800681768C062F0410E5DEC3DF0F80E000172
:105178006B176A516B136BC062F0010E5DEC3DF06A
:1051880000016605D8A412006A51D8B406D0CBEC49
:105198003EF00009D8A41200FAD7010E0001606F92
:1051A800000E616F000E626F000E636F85EC3BF0BE
:1051B80012000001726F000E0001736FAA0E606F7B
:1051C800010E616F000E636F000E626F000E656F57
:1051D800100E646F9DEC3BF000017351010DAA0E97
:1051E800F324D96E010EF420DA6E70C0DFFF73511C
:1051F800050F736F7351010DAA0EF324D96E010EBA
:10520800F420DA6E72C0DFFF732B7151D8A413D06B
:105218007351010DAA0EF324606F010EF420616F23
:105228001E0E626F020E636F000E656F040E646FD0
:105238003EEC36F012D07351010DAA0EF324606FC4
:10524800010EF420616F620E626F020E636F000E32
:10525800656F040E646F3EEC36F000017351040F65
:10526800736F7351010DAA0EF324606F010EF420C1
:10527800616F6B0E626F000E636F000E656F040E38
:10528800646F3EEC36F000017351040F736F732B9B
:105298007351010DAA0EF324D96E010EF420DA6EB3
:1052A8006FC0DFFF12000001666F01019151D8A4A1
:1052B80030D000016651800A830FD8B002D0FD0EAD
:1052C800666F6651800A700FD8A002D00F0E666F05
:1052D8004D0E75EC3CF00001656FF80E651765859D
:1052E80065C062F04D0E5DEC3DF0000166AF09D07F
:1052F800030E662766512009626F090E5DEC3DF0CA
:105308001200000166517009626F090E5DEC3DF0F4
:10531800120000016651800A7E0FD8B002D0020E3A
:10532800666F6651800A6C0FD8A002D0140E06D0A2
:105338006651800A6E0FD8A002D0110E666F0B0E50
:1053480075EC3CF00001646F4D0E75EC3CF000010B
:10535800656FF80E6517140E6619D8A406D0070EE7
:1053680065130F0E666F649B04D06585FE0E662775
:10537800648B65C062F04D0E5DEC3DF00001665136
:105388008009626F090E5DEC3DF064C062F00B0E9F
:105398005DEC3DF012006DC060F06EC061F06FC052
:1053A80062F070C063F0090E0001646F3D0E656F16
:1053B800000E666F000E676F93EC32F060C075F0F8
:1053C80061C076F062C077F063C078F06DC060F0BD
:1053D8006EC061F06FC062F070C063F0090E00012A
:1053E800646F3D0E656F000E666F000E676F15ECFB
:1053F80035F060C071F061C072F062C073F063C0D4
:1054080074F077C078F076C077F075C076F0000158
:10541800756B73C074F072C073F071C072F0716B09
:1054280071C060F072C061F073C062F074C063F064
:10543800090E646F3D0E656F000E666F000E676F94
:1054480093EC32F060C071F061C072F062C073F02A
:1054580063C074F00001715175277251762373513E
:1054680077237451782377C062F0060E5DEC3DF027
:1054780076C062F0070E5DEC3DF075C062F0080E74
:105488005DEC3DF01200070E0201DC6F000EDD6FCF
:10549800000E0001616F65D06151020D010EF32607
:1054A800000EF422000EF324D96E040EF420DA6EF6
:1054B8000401DF500F0B0001606F0201DC51000195
:1054C800605DD8B01CD06151020D000EF324D96E76
:1054D800040EF420DA6EDE04D8A411D06151020D56
:1054E800010EF326000EF422000EF324D96E040EEA
:1054F800F420DA6E0401DF500F0B0201DC6F0001AB
:105508006151020D010EF326000EF422000EF32461
:10551800D96E040EF420DA6E0401DF380F0B020195
:10552800DD611DD000016151020D000EF324D96E1A
:10553800040EF420DA6EDE04D8A411D06151020DF5
:10554800010EF326000EF422000EF324D96E040E89
:10555800F420DA6E0401DF380F0B0201DD6F000161
:10556800612B0201DE510001615DD8B0120094D7B1
:10557800F29E000E0001DE6F68D0DE51080D040EA9
:10558800F326000EF422000EF324D96E030EF42045
:10559800DA6EDE04D8A457D0DE51080D000EF324CD
:1055A800D96E030EF420DA6EDE50DE10DE10DE1047
:1055B800D8A449D0DE51080D040EF326000EF422BB
:1055C800000EF324D96E030EF420DA6E000EDF6E9F
:1055D800DE51080D060EF326000EF422000EF32409
:1055E800D96E030EF420DA6EDE50DE10D8B42BD05C
:1055F800F28EDE51080D050EF326000EF422000E81
:10560800F324D96E030EF420DA6EDF50E66EDE5115
:10561800080D060EF326000EF422000EF324D96EB0
:10562800030EF420DA6EDECFDAF0DDCFDBF001D83E
:1056380009D00500FA6EDA51FD6EDB51FE6EFF6A85
:10564800FA501200F29E0001DE2BFF51DE5DD8A059
:1056580094D7F28E1200120E75EC3CF00001F36F35
:10566800700E626F120E5DEC3DF00001F351500BAD
:10567800500AD8A4120001019D5189EC3CF08A9689
:105688001C0E75EC3CF00001F46F01019051D8B488
:1056980004D00001F3ABF4AD3CD0130E75EC3CF034
:1056A8000101986F000E0001626F0D0E5DEC3DF078
:1056B8004AEC3FF0000EC4EC3EF0000E0001F46F1F
:1056C8000FD0F451010DF35001019925D96EF45012
:1056D8009A21DA6EFF0EC4EC3EF0DF6E0001F42B67
:1056E800010198510001F45DD8A0EBD748EC3FF0D8
:1056F80001019785190E75EC3CF00101A66F040EA7
:105708000001606F0101A65149EC35F00101A66F57
:1057180002D0010197878CC165F0000E0001666F09
:10572800000E5EEC28F00101979399C166F19AC1C9
:1057380067F198C168F143EC00F01200220E0001F5
:10574800606F5C0E616F000E626F0201D3517BECDB
:1057580039F0F80E0001606F580E616F000E626F2D
:105768000201D4517BEC39F05C0E0001606F420EEF
:10577800616F000E626F0201D8517BEC39F0220E86
:105788000001606F5C0E616F000E626F0201D551FF
:105798007BEC39F0F80E0001606F580E616F000E57
:1057A800626F0201D6517BEC39F09A0E0001606FEE
:1057B8004C0E616F000E626F0201D9517BEC39F01B
:1057C8003A0E0001606F790E616F000E626F020180
:1057D800D7517BEC39F0220E0001606F670E616FC4
:1057E800000E626F0201DB517BEC39F0D60E00012E
:1057F800606F470E616F000E626F0201E4517BEC2F
:1058080039F02A0E0001606F600E616F000E626F42
:105818000201E5517BEC39F01200000E0001626FC5
:10582800000E616F0201D051DC5DD8B05ED0D005AA
:1058380000014CD0000E626F39D06251020D010E8A
:10584800F326000EF422000EF324D96E040EF42081
:10585800DA6E0401DF500F0B0001606F6051635D69
:10586800D8A023D06251020D010EF326000EF422B7
:10587800000EF324D96E040EF420DA6E0401DF382A
:105888000F0B0001606F6351605DD8A00ED06251AC
:10589800020D000EF324D96E040EF420DA6EDE0435
:1058A800D8A403D0010E616F07D0622B0201DE512C
:1058B8000001625DD8A0C1D76151D8A408D0635156
:1058C8000201DC5DD8B003D000016305636F0001FD
:1058D8006151D8A406D00201DC510001635DD8B043
:1058E800A9D76105D8B463C0D0F200016151120094
:1058F800020103B15DD038EC3FF0536E53B254D07F
:1059080002010251F00B0509026F1AEC3DF032EC6E
:105918003FF018C269F019C26AF01AC26BF01BC2D4
:105928006CF002011C5124EC3CF002011251D8A485
:1059380034D0490E1C25F66EF76AFF0EF722F86A76
:10594800000EF8220800F5500001B16FB26B31EC7F
:1059580018F0B1C049F0B2C04AF049504A10D8B462
:105968002FD07CEC3EF05EEC3EF00001F951FA11CC
:10597800D8B426D0000E606F000E616F000E626F03
:10598800000E636F01D81CD00500FA6EF951FD6E48
:10599800FA51FE6EFF6AFA5012000251F00B090923
:1059A800026F54EC33F00CD0010E0201E26F08D004
:1059B80000A502D0009502995EEC3EF07CEC3EF02A
:1059C800E55212000001D96F020103B1120002BFB3
:1059D800120002A912000001D351D8A403D0D65155
:1059E800D8A41200DEEC35F00001D76FD651D75D90
:1059F800D8A012000201062909E1072907E10829B0
:105A080005E10929D8A402D00483120002510F0B22
:105A18000009D8B403D01251D8B41200010E4FECCB
:105A28001BF00001D86FD851D8A41200020E020151
:105A38001219D8B41AEC3DF0D3C0C7F0D4C0C8F0DE
:105A4800D5C0C9F0D6C0CAF00001CB6BD95194ECCF
:105A58000DF0A00E0001B16F040EB26FC5C2B3F015
:105A680014EC17F00001B151B211D8A41200010EC4
:105A780002010627000E0723082309230001D90580
:105A8800D8A402D0020100810201008B0251F00B60
:105A98000109026F1200000E0001666F000E676FA9
:105AA80057D06751020D990EF324D96E020EF420D7
:105AB800DA6EDE28D8B44BD0FE0E606FFF0E616F31
:105AC8006751020D990EF324D96E020EF420DA6E96
:105AD800DF50626F636B6051622761516323620E0E
