:040000006DEF00F0B0
:100008005C82FACF20F0FBCF21F0E9CF22F0EACFD3
:1000180023F0E1CF24F0E2CF25F0D9CF26F0DACFD4
:1000280027F0F3CF28F0F4CF29F0F6CF2AF0F7CF56
:100038002BF0F8CF2CF0F5CF2DF05CC02EF05DC082
:100048002FF05EC030F05FC031F09DB09EA005D0AB
:1000580029EC25F059EC25F016D09DBA9EAA05D0BA
:100068004CEC25F08DEC23F00ED09DB89EA803D063
:1000780075EC23F008D0A0BCA1AC03D060EC25F04F
:1000880002D06EEC0FF031C05FF030C05EF02FC0D0
:100098005DF02EC05CF02DC0F5FF2CC0F8FF2BC022
:1000A800F7FF2AC0F6FF29C0F4FF28C0F3FF27C0D6
:1000B800DAFF26C0D9FF25C0E2FF24C0E1FF23C034
:1000C800EAFF22C0E9FF21C0FBFF20C0FAFF5C92D3
:1000D8001100F6EF1EF00001E66F000E0001DF6F61
:1000E800DC51D8B4B1EF07F0F551D8B4B1EF07F04F
:1000F800F851AA5DD8A0CED0000EE16F000EE06FD7
:10010800000EBF6F0A0EBE6F13EC23F0200E000125
:10011800E26FE251D8B411D0030E4AEC22F000018C
:100128009651BE279751BF23D890BF31DD6FBE319E
:10013800966FDDC097F0E207ECD7000EBF6F0A0E8E
:10014800BE6F13EC23F0200E0001E36FE351D8B427
:1001580011D0020E4AEC22F00001E051BE27E15115
:10016800BF23D890BF31DD6FBE31E06FDDC0E1F055
:10017800E307ECD7E051E9EC23F00001DD6FDD5136
:10018800946F956B000EAA6F88EC24F0BB0E0001EB
:10019800CB6F7B0ECC6F000ECD6F000ECE6F2EECAA
:1001A8001FF0350E0001CB6F7E0ECC6F000ECD6FA9
:1001B800010ECE6F2EEC1FF00A0E0001D06F010E5B
:1001C800D16FAC512CEC1DF0730E0001CB6F7D0E7E
:1001D800CC6F000ECD6F020ECE6F2EEC1FF096C0C6
:1001E800D0F097C0D1F0030E0001D26F020ED36F8A
:1001F800CAEC11F00C0E0001D06F020ED16F9451B1
:100208002CEC1DF0840E0001CB6F7C0ECC6F000E21
:10021800CD6F030ECE6F2EEC1FF09EEC1CF02FEC72
:1002280025F00001AC6FAC51D8A402D0050E05D062
:10023800DF0EAC6503D0AC51CE0FAC6F000EC46FAF
:10024800AC514DEC1AF0200E0101C36F96C0C5F0F9
:1002580097C0C6F0040E0001C76FC8EC0CF0090E79
:100268000001C46F94514DEC1AF000F02E0E0001FD
:10027800BF6F7D0EC06FC00EC16F010EC26F0C0E36
:10028800C36F7AEC18F0070E0001AB6F080EAE6F63
:10029800B1EF07F0F651D8B407D0AA2B0F0EAE6F06
:1002A800010EDA6FB1EF07F0000EAA6FB1EF07F099
:1002B800FFD70001E651D8A403D0DA51D8B4120010
:1002C80088EC24F0220E0001CB6F7B0ECC6F000E61
:1002D800CD6F000ECE6F2EEC1FF0880E0001CB6F95
:1002E8007B0ECC6F000ECD6F010ECE6F2EEC1FF083
:1002F800840E0001CB6F7C0ECC6F000ECD6F030E09
:10030800CE6F2EEC1FF0060E0001AE6F1200E65104
:10031800D8B427D088EC24F0110E0001CB6F7B0EE7
:10032800CC6F000ECD6F000ECE6F2EEC1FF0000EBE
:100338000001CB6F7B0ECC6F000ECD6F010ECE6F20
:100348002EEC1FF0840E0001CB6F7C0ECC6F000EDC
:10035800CD6F030ECE6F2EEC1FF00A0E0001AE6FAC
:100368001200DA51D8B41200000EAA6F88EC24F0FB
:10037800EE0E0001CB6F7B0ECC6F000ECD6F000E22
:10038800CE6F2EEC1FF0660E0001CB6F7D0ECC6F8A
:10039800000ECD6F010ECE6F2EEC1FF0980E0001EF
:1003A800CB6F7A0ECC6F000ECD6F030ECE6F2EEC96
:1003B8001FF09EEC1CF02FEC25F00001AC6FAC5147
:1003C800D8A402D0050E05D0DF0EAC6503D0AC5121
:1003D800CE0FAC6F0C0ED06F010ED16FAC512CEC60
:1003E8001DF0000E0001C46FAC514DEC1AF0200E48
:1003F8000101C36F96C0C5F097C0C6F0040E000196
:10040800C76FC8EC0CF0090E0001C46F94514DEC95
:100418001AF000F0070E0001AE6F1200E651D8B4D2
:100428000CD02E0EBF6F7D0EC06FC00EC16F010EB7
:10043800C26F0C0EC36F7AEC18F00001DA51D8B411
:100448000CD0650EBF6F7E0EC06FC00EC16F010E5F
:10045800C26F0C0EC36F7AEC18F00001E651D8A4F5
:1004680003D0DA51D8B4120088EC24F04D0E000104
:10047800CB6F7E0ECC6F000ECD6F000ECE6F2EECC4
:100488001FF0730E0001CB6F7D0ECC6F000ECD6F89
:10049800010ECE6F2EEC1FF096C0D0F097C0D1F0B1
:1004A800030E0001D26F020ED36FCAEC11F00C0ECE
:1004B8000001D06F020ED16F94512CEC1DF0410E4B
:1004C8000001CB6F7E0ECC6F000ECD6F010ECE6F8C
:1004D8002EEC1FF00C0E0001D06F010ED16FAC5145
:1004E8002CEC1DF0899C080E0001AE6F1200DB5148
:1004F800D8B4F8D0600EBE6F010EBF6FF80EC06F93
:100508007F0EC16F3DEC21F00001BE51BF11D8A490
:1005180003D0898C080EAE6F600EBE6F010EBF6FE0
:10052800AB0EC06F7F0EC16F000EC36F060EC26F99
:1005380071EC1DF00001BE51BF11D8A46DD0070E9B
:10054800E56FE551010D600EF324D96E010EF4201C
:10055800DA6EDF50BB6FE52BE551010D600EF32419
:10056800D96E010EF420DA6EDF50BC6FE52B200E39
:10057800BC19D8B40FD0E551010D600EF324D96E23
:10058800010EF420DA6EDF50BD6FE52B200EBD1989
:10059800D8A4E52BE52B000EE46F3F0EE46501D0EF
:1005A80023D0E551010D600EF324D96E010EF4201D
:1005B800DA6EE451010DA00EF324E16E010EF42071
:1005C800E26EDFCFE7FFE451010DA00EF324D96EF0
:1005D800010EF420DA6EDF50D8B402D0E52B02D039
:1005E800400EE46FE42BD9D7898E899C550ECB6FCA
:1005F8007B0ECC6F000ECD6F020ECE6F2EEC1FF06F
:10060800CD0E0001CB6F7A0ECC6F000ECD6F030EAE
:10061800CE6F2EEC1FF05DD0600E0001BE6F010E94
:10062800BF6FB20EC06F7F0EC16F000EC36F060E94
:10063800C26F71EC1DF00001BE51BF11D8A40CD0DF
:10064800899CCC0ECB6F7B0ECC6F000ECD6F030E4A
:10065800CE6F2EEC1FF03DD0600E0001BE6F010E74
:10066800BF6FA40EC06F7F0EC16F000EC36F060E62
:10067800C26F71EC1DF00001BE51BF11D8A40BD0A0
:10068800AA0ECB6F7A0ECC6F000ECD6F030ECE6F15
:100698002EEC1FF01ED0600E0001BE6F010EBF6F62
:1006A8009D0EC06F7F0EC16F000EC36F060EC26F26
:1006B80071EC1DF00001BE51BF11D8A40AD0B40ED0
:1006C800CB6F7C0ECC6F000ECD6F030ECE6F2EEC71
:1006D8001FF0FA0E0001DD6F580EE82EFED7DD2F51
:1006E800FCD700F00001E651D8A403D0DA51D8B401
:1006F800120088EC24F0220E0001CB6F7B0ECC6F29
:10070800000ECD6F000ECE6F2EEC1FF0880E00018C
:10071800CB6F7B0ECC6F000ECD6F010ECE6F2EEC23
:100728001FF0840E0001CB6F7C0ECC6F000ECD6FD6
:10073800030ECE6F2EEC1FF0060E0001AE6F1200F6
:10074800E651D8B427D088EC24F0640E0001CB6FB2
:100758007C0ECC6F000ECD6F000ECE6F2EEC1FF00E
:10076800540E0001CB6F7C0ECC6F000ECD6F010EC6
:10077800CE6F2EEC1FF0840E0001CB6F7C0ECC6F79
:10078800000ECD6F030ECE6F2EEC1FF0010E000190
:10079800AE6F1200DA51D8B4120088EC24F0899EAA
:1007A800430E0001CB6F7C0ECC6F000ECD6F000E98
:1007B800CE6F2EEC1FF0CB0E0001CB6F7E0ECC6FF0
:1007C800000ECD6F010ECE6F2EEC1FF0BB0E000198
:1007D800CB6F000ECC6F090ECD6F010ECE6F2EECD5
:1007E8001FF0520E0001CB6F7E0ECC6F000ECD6F46
:1007F800020ECE6F2EEC1FF0A00E0001CB6F010E83
:10080800CC6F060ECD6F020ECE6F2EEC1FF0AA0E27
:100818000001CB6F010ECC6F000ECD6F030ECE6FB3
:100828002EEC1FF00B0E0001AE6F1200E651D8A49B
:1008380003D0DA51D8B4120088EC24F0110E00016C
:10084800CB6F7B0ECC6F000ECD6F000ECE6F2EECF3
:100858001FF0000E0001CB6F7B0ECC6F000ECD6F2A
:10086800010ECE6F2EEC1FF0840E0001CB6F7C0EB4
:10087800CC6F000ECD6F030ECE6F2EEC1FF00A0E5C
:100888000001AE6F1200E651D8B436D088EC24F0DF
:10089800320E0001CB6F7C0ECC6F000ECD6F000EB8
:1008A800CE6F2EEC1FF00001F651D8B40BD0D40E49
:1008B800CB6F7C0ECC6F000ECD6F020ECE6F2EEC80
:1008C8001FF00BD0E30E0001CB6F7C0ECC6F000E37
:1008D800CD6F020ECE6F2EEC1FF0740E0001CB6FA1
:1008E8007C0ECC6F000ECD6F030ECE6F2EEC1FF07A
:1008F8000C0E0001AE6F1200DA51D8B4120088EC69
:1009080024F0640E0001CB6F7C0ECC6F000ECD6F0F
:10091800000ECE6F2EEC1FF0810E0001CB6F7F0E04
:10092800CC6F000ECD6F010ECE6F2EEC1FF07A0E3D
:100938000001CB6F7F0ECC6F000ECD6F020ECE6F15
:100948002EEC1FF0FB0E0001CB6F7F0ECC6F0C0E50
:10095800CD6F020ECE6F2EEC1FF000019451951151
:10096800D8B415D096C0D0F097C0D1F0060ED26F8B
:10097800010ED36FCAEC11F094C0D0F095C0D1F03D
:10098800060E0001D26F020ED36FCAEC11F0020EF0
:100998000001AE6F1200E651D8B49BD088EC24F069
:1009A800770E0001CB6F7B0ECC6F000ECD6F000E63
:1009B800CE6F2EEC1FF0660E0001CB6F7B0ECC6F56
:1009C800000ECD6F010ECE6F2EEC1FF0880E0001C9
:1009D800CB6F7F0ECC6F000ECD6F020ECE6F2EEC5C
:1009E8001FF0C30E0001CB6F7F0ECC6F0C0ECD6FC6
:1009F800020ECE6F2EEC1FF048D0CC0E0001CB6F4C
:100A08007D0ECC6F070ECD6F020ECE6F2EEC1FF051
:100A180051D0E10E0001CB6F7F0ECC6F070ECD6F6A
:100A2800020ECE6F2EEC1FF045D0ED0E0001CB6FFD
:100A38007F0ECC6F070ECD6F020ECE6F2EEC1FF01F
:100A480039D0E50E0001CB6F7F0ECC6F070ECD6F4E
:100A5800020ECE6F2EEC1FF02DD0E90E0001CB6FE9
:100A68007F0ECC6F070ECD6F020ECE6F2EEC1FF0EF
:100A780021D0F00E0001CB6F7F0ECC6F070ECD6F2B
:100A8800020ECE6F2EEC1FF015D00001F951000AAE
:100A9800D8B4B3D7010AD8B4BCD7030AD8B4C5D7D9
:100AA800010AD8B4CED7070AD8B4D7D7010AD8B420
:100AB800E0D7A3D7740E0001CB6F7C0ECC6F000E6D
:100AC800CD6F030ECE6F2EEC1FF00D0E0001AE6F32
:100AD8001200DA51D8B41200F651D8B40DD0000E75
:100AE800F66FE30ECB6F7C0ECC6F000ECD6F020E4F
:100AF800CE6F2EEC1FF01200010E0001F66FD40E1F
:100B0800CB6F7C0ECC6F000ECD6F020ECE6F2EEC2D
:100B18001FF0120096C0D0F097C0D1F0060E000169
:100B2800D26F010ED36FCAEC11F094C0D0F095C00B
:100B3800D1F0060E0001D26F020ED36FCAEC11F08D
:100B48000001E651D8A403D0DA51D8B4120088ECD9
:100B580024F0640E0001CB6F7C0ECC6F000ECD6FBD
:100B6800000ECE6F2EEC1FF0540E0001CB6F7C0EE2
:100B7800CC6F000ECD6F010ECE6F2EEC1FF0840EE1
:100B88000001CB6F7C0ECC6F000ECD6F030ECE6FC5
:100B98002EEC1FF0010E0001AE6F1200E651D8B422
:100BA80092D088EC24F0FF0E0001CB6F7B0ECC6F47
:100BB800000ECD6F000ECE6F2EEC1FF0590E000107
:100BC800CB6F7E0ECC6F000ECD6F020ECE6F2EEC6B
:100BD8001FF0740E0001CB6F7C0ECC6F000ECD6F32
:100BE800030ECE6F2EEC1FF0030E0001AE6F53D034
:100BF800C80ECB6F7F0ECC6F0A0ECD6F020ECE6F74
:100C08002EEC1FF060D0CC0E0001CB6F7F0ECC6FA6
:100C18000A0ECD6F020ECE6F2EEC1FF054D0D00E00
:100C28000001CB6F7F0ECC6F0A0ECD6F020ECE6F18
:100C38002EEC1FF048D0D40E0001CB6F7F0ECC6F86
:100C48000A0ECD6F020ECE6F2EEC1FF03CD0D80EE0
:100C58000001CB6F7F0ECC6F0A0ECD6F020ECE6FE8
:100C68002EEC1FF030D0DC0E0001CB6F7F0ECC6F66
:100C78000A0ECD6F020ECE6F2EEC1FF024D0F40EAC
:100C88000001CB6F7F0ECC6F0A0ECD6F020ECE6FB8
:100C98002EEC1FF018D00001F751000AD8B4A8D7DD
:100CA800010AD8B4B0D7030AD8B4B9D7010AD8B45E
:100CB800C2D7070AD8B4CBD7010AD8B4D4D7030A05
:100CC800D8B4DDD795D70001DA51D8B41200050E93
:100CD800F96102D0F92B54D0000EF96F51D0090EEA
:100CE800F86FDC0ECB6F7F0ECC6F070ECD6F020E48
:100CF800CE6F2EEC1FF01200120E0001F86FE00EFE
:100D0800CB6F7F0ECC6F070ECD6F020ECE6F2EEC21
:100D18001FF012001B0E0001F86FEC0ECB6F7F0E58
:100D2800CC6F070ECD6F020ECE6F2EEC1FF01200A7
:100D3800360E0001F86FE40ECB6F7F0ECC6F070EF6
:100D4800CD6F020ECE6F2EEC1FF012006C0E00015C
:100D5800F86FE80ECB6F7F0ECC6F070ECD6F020ECB
:100D6800CE6F2EEC1FF01200F869F00ECB6F7F0EDD
:100D7800CC6F070ECD6F020ECE6F2EEC1FF0120057
:100D88000001F951000AD8B4AAD7010AD8B4B4D7D7
:100D9800030AD8B4BFD7010AD8B4CAD7070AD8B447
:100DA800D5D7010AD8B4E0D79AD7E651D8B41ED01F
:100DB800F75188EC0DF088EC24F0DD0E0001CB6FC4
:100DC8007B0ECC6F000ECD6F000ECE6F2EEC1FF099
:100DD800940E0001CB6F7C0ECC6F000ECD6F030E0E
:100DE800CE6F2EEC1FF00F0E0001AE6FDA51D8B4A3
:100DF8001200060EF7610AD0A905D8A405D0030E83
:100E0800F76502D0060E03D0F72B56D0000EF76F09
:100E180053D0C80ECB6F7F0ECC6F0A0ECD6F020E6B
:100E2800CE6F2EEC1FF01200CC0E0001CB6F7F0EA0
:100E3800CC6F0A0ECD6F020ECE6F2EEC1FF0120093
:100E4800D00E0001CB6F7F0ECC6F0A0ECD6F020E55
:100E5800CE6F2EEC1FF01200D40E0001CB6F7F0E68
:100E6800CC6F0A0ECD6F020ECE6F2EEC1FF0120063
:100E7800D80E0001CB6F7F0ECC6F0A0ECD6F020E1D
:100E8800CE6F2EEC1FF01200DC0E0001CB6F7F0E30
:100E9800CC6F0A0ECD6F020ECE6F2EEC1FF0120033
:100EA800F40E0001CB6F7F0ECC6F0A0ECD6F020ED1
:100EB800CE6F2EEC1FF012000001F751000AD8B4D3
:100EC800A8D7010AD8B4B0D7030AD8B4B9D7010A49
:100ED800D8B4C2D7070AD8B4CBD7010AD8B4D4D764
:100EE800030AD8B4DDD795D7DA51D8B40CD095EC2D
:100EF80019F00009D8B404D0010E0001E66F03D040
:100F0800090E0001AB6FE651D8B4120088EC24F04A
:100F1800220E0001CB6F7B0ECC6F000ECD6F000E42
:100F2800CE6F2EEC1FF0880E0001CB6F7B0ECC6FBE
:100F3800000ECD6F010ECE6F2EEC1FF0840E000157
:100F4800CB6F7C0ECC6F000ECD6F030ECE6F2EECE8
:100F58001FF0060E0001AE6F1200AE51000AD8B4A1
:100F68005DEF01F0010AD8B48ED4030AD8B4D2D503
:100F7800010AD8B41AD7050AD8B48BEF01F0010AD0
:100F8800D8B412EF02F00F0AD8B47BEF02F0020ACD
:100F9800D8B4A4EF03F0010AD8B448D4070AD8B4E7
:100FA800FAD4010AD8B4FAD5020AD8B49DD75CEFAE
:100FB80001F00001D56F000E0001D46F6DD2FFD78C
:100FC800FD0E0001BF6F7E0EC06F45EC23F0000ED2
:100FD8000001BF6F320EBE6F13EC23F03AD1D1512E
:100FE800D8B402D00A0EAF6FD551D8B479D2600EFA
:100FF800BE6F010EBF6FB90EC06F7F0EC16F000EBE
:10100800C36F040EC26F71EC1DF00001BE51BF1119
:10101800D8A429D0000EA96F88EC24F0440E000152
:10102800CB6F7B0ECC6F000ECD6F000ECE6F2EEC0B
:101038001FF0990E0001CB6F7B0ECC6F000ECD6FA9
:10104800020ECE6F2EEC1FF0EF0E0001CB6F7A0E62
:10105800CC6F000ECD6F030ECE6F2EEC1FF03BD081
:101068000001AF6F3DD2600EBE6F010EBF6FBE0EA6
:10107800C06F7F0EC16F000EC36F040EC26F71EC9C
:101088001DF00001BE51BF11D8A427D0010EA96FD1
:1010980088EC24F0440E0001CB6F7B0ECC6F000E61
:1010A800CD6F000ECE6F2EEC1FF0990E0001CB6FA6
:1010B8007B0ECC6F000ECD6F020ECE6F2EEC1FF0A4
:1010C800EF0E0001CB6F7A0ECC6F000ECD6F030EC2
:1010D800CE6F2EEC1FF0020EC3D7FD0EBF6F7E0E33
:1010E800C06F45EC23F0000E0001BF6F190EBE6FF4
:1010F80013EC23F0000EB4D7D051D8B419D0BC0EDD
:10110800CB6F7A0ECC6F000ECD6F030ECE6F2EEC28
:101118001FF0010E0001BF6FF40EBE6F13EC23F039
:10112800E80E0001BF6F7D0EC06F45EC23F05ED066
:10113800D151D8B4D5D1DE0ECB6F7A0ECC6F000E5C
:10114800CD6F030ECE6F2EEC1FF0010E0001BF6FA6
:10115800F40EBE6F13EC23F03C0E0001BF6F7D0E42
:10116800C06F45EC23F02FD1D551D8B4B9D1600E5A
:10117800BE6F010EBF6FF80EC06F7F0EC16F3DECE2
:1011880021F00001BE51BF11D8A402D0040E69D7C6
:10119800600EBE6F010EBF6F580EC06F7D0EC16F1F
:1011A8003DEC21F00001BE51BF11D8A419D088EC44
:1011B80024F0B50E0001CB6F7E0ECC6F000ECD6F04
:1011C800000ECE6F2EEC1FF01A0E0001CB6F7F0EB3
:1011D800CC6F000ECD6F010ECE6F2EEC1FF076D0C7
:1011E800E80EBF6F7D0EC06F45EC23F0030E38D7B5
:1011F800D551D8B475D1600EBE6F010EBF6F230EE6
:10120800C06F7F0EC16F3DEC21F00001BE51BF11D0
:10121800D8A419D088EC24F0D50E0001CB6F7E0E2F
:10122800CC6F000ECD6F000ECE6F2EEC1FF09F0E10
:101238000001CB6F7E0ECC6F000ECD6F010ECE6F0E
:101248002EEC1FF090D0F30EBF6F7E0EC06F45ECF2
:1012580023F0010E05D7D551D8B442D1600EBE6F28
:10126800010EBF6FF80EC06F7F0EC16F3DEC21F00D
:101278000001BE51BF11D8A402D0060EF2D6600EEE
:10128800BE6F010EBF6F580EC06F7D0EC16F3DEC73
:1012980021F00001BE51BF11D8A41AD088EC24F067
:1012A800B50E0001CB6F7E0ECC6F000ECD6F000E19
:1012B800CE6F2EEC1FF01A0E0001CB6F7F0ECC6F95
:1012C800000ECD6F010ECE6F2EEC1FF0090EC8D6A2
:1012D800600EBE6F010EBF6F4A0EC06F7D0EC16FEC
:1012E8003DEC21F00001BE51BF11D8A407D03C0E3F
:1012F800BF6F7D0EC06F45EC23F065D0600EBE6FEA
:10130800010EBF6F940EC06F7E0EC16F3DEC21F0D1
:1013180066D0D551D8B4E4D0600EBE6F010EBF6F51
:10132800230EC06F7F0EC16F3DEC21F00001BE514E
:10133800BF11D8A41AD088EC24F0890E0001CB6F15
:101348007E0ECC6F000ECD6F000ECE6F2EEC1FF010
:101358009F0E0001CB6F7E0ECC6F000ECD6F010E7D
:10136800CE6F2EEC1FF0070E7BD6600EBE6F010EFF
:10137800BF6F960EC06F7F0EC16F3DEC21F000016C
:10138800BE51BF11D8A421D088EC24F0E90E000189
:10139800CB6F7E0ECC6F010ECD6F000ECE6F2EEC94
:1013A8001FF08F0E0001CB6F7F0ECC6F020ECD6F3A
:1013B800010ECE6F2EEC1FF03C0E0001BF6F7D0EAC
:1013C800C06F45EC23F0050E4BD6600EBE6F010EC4
:1013D800BF6F940EC06F7E0EC16F3DEC21F000010F
:1013E800BE51BF11D8A47CD0000E3BD6AA0EBF6F49
:1013F8007E0EC06F45EC23F018D0D551D8B470D00C
:10140800600EBE6F010EBF6F4A0EC06F7D0EC16FBA
:101418003DEC21F00001BE51BF11D8A408D0AA0E9E
:10142800BF6F7E0EC06F45EC23F0080E19D6010180
:101438006051D00F0001D36FD3C0F7F0010ED46F05
:101448004FD0D151D8B44CD00A0E0BD6000EBE6F77
:10145800000E68EC22F082B002D082A2FCD7FA0E0D
:101468000001D26F580EE82EFED7D22FFCD700F01D
:10147800FA0E0001D26F580EE82EFED7D22FFCD7F5
:1014880000F0FA0E0001D26F580EE82EFED7D22FC8
:10149800FCD700F0FF0024D00001AF51000AD8B4F7
:1014A8008FD5010AD8B49BD5030AD8B425D6010A2A
:1014B800D8B45AD6070AD8B49BD6010AD8B4CBD622
:1014C800030AD8B426D7010AD8B490D70F0AD8B4DB
:1014D80094D7010AD8B4B5D7030AD8B4B7D76FD50B
:1014E8000001D451120004013205D8A410D03051A3
:1014F8001F0B0009D8A40BD000016B8F030E040149
:101508003119D8A402D0010E01D0000E4A6E325112
:10151800D8A4120030511F0B020AD8A4120034516B
:101528000F0B0009D8B4120034510F0B166E030EBE
:1015380016601200200E0001A819D8A412006B8FA3
:10154800040134BF19D034510F0B166E1650020D1A
:10155800740EF324D96E000EF420DA6EDECF1AF082
:10156800DDCF1BF034510F0B166E1650010D840E93
:10157800F324D96E000E18D034510F0B166E165086
:10158800020D6E0EF324D96E000EF420DA6EDECF53
:101598001AF0DDCF1BF034510F0B166E1650010DEB
:1015A800870EF324D96E000EF420DA6EDF50196E20
:1015B80019B002D01A9401D01A8434BF0AD0345119
:1015C8000F0B166E1650020D740EF324D96E000E12
:1015D80009D034510F0B166E1650020D6E0EF324FF
:1015E800D96E000EF420DA6E1AC0DEFF1BC0DDFFD4
:1015F800030E3119D8A42DD01AC0D9FF1BC0DAFFA9
:10160800DFAE1AD034BF0AD034510F0B166E165005
:10161800010D840EF324D96E000E0AD00401345152
:101628000F0B166E1650010D870EF324D96E000E9F
:10163800F420DA6E0001DF821AC0D9FF1BC0DAFF7E
:10164800000EDB841AC0D9FF1BC0DAFF000EDB8E48
:101658001200040E1A1A1AC0D9FF1BC0DAFFDFAE37
:101668001BD01AC0D9FF1BC0DAFF7F0EDF161AC0C5
:10167800D9FF1BC0DAFF000EDB8C000E0F6E050EC3
:101688000E6E1AC010F01BC011F0000E136E020E81
:10169800126E5FEC20F006D01AC0D9FF1BC0DAFF2B
:1016A800000EDB8C040E1A1A19B206D01AC0D9FF24
:1016B8001BC0DAFFDFAE30D0040134BF0AD034518A
:1016C8000F0B166E1650010D840EF324D96E000E02
:1016D8000AD0040134510F0B166E1650010D870EF7
:1016E800F324D96E000EF420DA6E0001DF921AC0DE
:1016F800D9FF1BC0DAFF3B0EDF16000E0F6E050E7A
:101708000E6E1AC010F01BC011F0000E136E020E00
:10171800126E5FEC20F006D01AC0D9FF1BC0DAFFAA
:101728003B0EDF16040134510F0B166E1650010DD7
:101738006A0EF324176E0F0EF420186E17C0D9FF27
:1017480018C0DAFFFE0EDF161200000E0001E96F66
:10175800000EEC6F000EED6F000EF16F030EEE6FD2
:1017680080A009D050EC25F00009D8A407D0040EB9
:101778000001FA6F03D0000E34EC25F00001B3A18C
:1017880008D048EC25F05AEC12F00001B3517BEC7C
:1017980024F0CBEC1FF00001EE6FEE05D8A405D0C5
:1017A800000EAB6F010EEC6F08D0020EEE19D8A434
:1017B80004D0000EAB6F010EED6F98EC1FF000091E
:1017C800D8B402D0010E01D0000E0001F16F060E50
:1017D800AE19D8B404D0020EAE19D8A450D0935183
:1017E80004E1050E925DD8A04AD0000EEB6F000E02
:1017F800EA6F000EBF6F0A0EBE6F13EC23F0200EC7
:101808000001EF6FEF51D8B411D0030E4AEC22F06B
:1018180000019651BE279751BF23D890BF31E76F7B
:10182800BE31966FE7C097F0EF07ECD7000EBF6F99
:101838000A0EBE6F13EC23F0200E0001F06FF0517A
:10184800D8B411D0020E4AEC22F00001EA51BE27AA
:10185800EB51BF23D890BF31E76FBE31EA6FE7C0C5
:10186800EBF0F007ECD7EA51E9EC23F00001E76F61
:10187800E751946F956B000E936F000E926F090EEF
:10188800AB6571D0F651D8B46ED0090EAB656BD08C
:10189800010EE96F000EAB6F66D0FFD788EC24F01D
:1018A800DF0E0001CB6F7E0ECC6F010ECD6F000EE8
:1018B800CE6F2EEC1FF0350E0001CB6F7F0ECC6F74
:1018C800020ECD6F010ECE6F2EEC1FF0AA0E000196
:1018D800CB6F7B0ECC6F000ECD6F030ECE6F2EEC50
:1018E8001FF0000E0001AF6F020E31D0ECC0D0F037
:1018F800EDC0D1F0F151DDEC07F00009D8B441D0CA
:1019080088EC24F0100E0001CB6F7C0ECC6F000E1B
:10191800CD6F000ECE6F2EEC1FF0210E0001CB6FA5
:101928007C0ECC6F000ECD6F020ECE6F2EEC1FF02A
:10193800330E0001CB6F7B0ECC6F000ECD6F030E04
:10194800CE6F2EEC1FF0000E0001AE6F030EFA6F83
:1019580018D0EDC0DAF0F1C0DBF0E9C0DCF0EC51F2
:101968006FEC00F00ED00001FA51010AD8B496D7F6
:10197800030AD8B4BBD7010AD8B4EBD7070AD8A44E
:101988008CD70001FA5112000001C751C86FC96B0A
:10199800040EC827000EC923C00EC825D96E010E33
:1019A800C921DA6EC5C0BEF0C6C0BFF0000EC16F57
:1019B8000A0EC06FA8EC21F00001BE51300FDF6E97
:1019C800C5C0BEF0C6C0BFF0000EC16F0A0EC06F22
:1019D80013EC21F0BEC0C5F0BFC0C6F00001C7516E
:1019E800C86FC96B030EC827000EC923C00EC825CF
:1019F800D96E010EC921DA6EC5C0BEF0C6C0BFF0EF
:101A0800000EC16F0A0EC06FA8EC21F00001BE5194
:101A1800300FDF6EC5C0BEF0C6C0BFF0000EC16F8C
:101A28000A0EC06F13EC21F0BEC0C5F0BFC0C6F0EF
:101A38000001C751C86FC96B020EC827000EC92321
:101A4800C00EC825D96E010EC921DA6EC5C0BEF018
:101A5800C6C0BFF0000EC16F0A0EC06FA8EC21F01F
:101A68000001BE51300FDF6EC5C0BEF0C6C0BFF06A
:101A7800000EC16F0A0EC06F13EC21F0BEC0C5F096
:101A8800BFC0C6F00001C751C86FC96B010EC82797
:101A9800000EC923C00EC825D96E010EC921DA6E01
:101AA800C5C0BEF0C6C0BFF0000EC16F0A0EC06F41
:101AB800A8EC21F00001BE51300FDF6EC5C0BEF0AA
:101AC800C6C0BFF0000EC16F0A0EC06F13EC21F044
:101AD800BEC0C5F0BFC0C6F00001C751010DC00EA1
:101AE800F324D96E010EF420DA6EC5C0BEF0C6C06C
:101AF800BFF0000EC16F0A0EC06FA8EC21F0000104
:101B0800BE51300FDF6E12000001C26F080E0001D7
:101B1800C219D8B46AD0A40EBF6F7C0EC06F45EC52
:101B280023F0FA0E0001C16F580EE82EFED7C12F20
:101B3800FCD700F0FA0E0001C16F580EE82EFED750
:101B4800C12FFCD700F0FA0E0001C16F580EE82E25
:101B5800FED7C12FFCD700F048D0800E0001BF6F20
:101B68007D0EC06F45EC23F05DD08D0E0001BF6F78
:101B78007D0EC06F45EC23F055D09A0E0001BF6F63
:101B88007D0EC06F45EC23F04DD0A70E0001BF6F4E
:101B98007D0EC06F45EC23F045D0B40E0001BF6F39
:101BA8007D0EC06F45EC23F03DD0C10E0001BF6F24
:101BB8007D0EC06F45EC23F035D0CE0E0001BF6F0F
:101BC8007D0EC06F45EC23F02DD0DB0E0001BF6FFA
:101BD8007D0EC06F45EC23F025D0F20E0001BF6FDB
:101BE8007C0EC06F45EC23F01DD00001C251000AE5
:101BF800D8B4B3D7010AD8B4B8D7030AD8B4BDD774
:101C0800010AD8B4C2D7070AD8B4C7D7010AD8B4CA
:101C1800CCD7030AD8B4D1D7010AD8B4D6D70F0A7B
:101C2800D8B4DBD7FA0E0001C16F580EE82EFED7E4
:101C3800C12FFCD700F0FA0E0001C16F580EE82E34
:101C4800FED7C12FFCD700F0FA0E0001C16F580E65
:101C5800E82EFED7C12FFCD700F02C0E0001BF6F75
:101C68007F0EC06F45EC23F01200A39400018A5147
:101C78008B11D8B40FD08AC0D9FF8BC0DAFFDFAE82
:101C880003D0C56BC52B02D00001C56BC551C66F0B
:101C9800C76B04D0000EC76F000EC66FC651C711C0
:101CA800D8B402D0A3841200030EA719D8A402D076
:101CB800000EA76FA751D8A402D0A3841200020E69
:101CC800A719D8A413D0010EBE6F000EBF6F000E67
:101CD800C06F000EC16F020ED9EC18F0BEC08AF0BA
:101CE800BFC08BF0030E0001A76F58D0A705D8A47A
:101CF80055D0400E996503D0400EC96F02D099C0E7
:101D0800C9F0C95100089925996F000E7E6F050E1C
:101D18007F6FC9C0C8F09851D8B410D022D081C004
:101D2800D9FF82C0DAFF7EC0E1FF7FC0E2FFDFCFCC
:101D3800E7FF7E4B7F2B814B822BC807C851D8B455
:101D480013D0EDD781C0D9FF82C0DAFF7EC0E1FF92
:101D58007FC0E2FFDFCFE7FF7E4B7F2B814B822BDB
:101D6800C807C851D8A4EED79951D8A408D0400EB6
:101D7800C919D8A402D0020E01D0030EA76F010E14
:101D8800BE6F000EBF6F050EC06FC9C0C1F0020E56
:101D9800D9EC18F0BEC08AF0BFC08BF0A384120043
:101DA80020EE01F03A50D9263B50DA22DF50136E6C
:101DB80013500001645D000E6559D8A064C013F08B
:101DC8001350645F000E655B000E126E11D0125046
:101DD800010D380EF324D96E040EF420DA6E60C0BB
:101DE800E1FF61C0E2FFDFCFE7FF604B612B122A02
:101DF8001350125CD8A0EBD764516511D8B432D017
:101E080020EE01F03850D9263950DA22080EDF6E5C
:101E180020EE02F03850D9263950DA22380EDE6E1C
:101E2800040EDD6E3AC0D9FF3BC0DAFFDFBC0DD02F
:101E380038C0D9FF39C0DAFF480EDF6E38C0D9FF85
:101E480039C0DAFF000EDB8E120038C0D9FF39C066
:101E5800DAFF080EDF6E38C0D9FF39C0DAFF000E8E
:101E6800DB8E120020EE01F03850D9263950DA22E4
:101E7800080EDF6E20EE02F03850D9263950DA22EB
:101E8800300EDE6E040EDD6E38C0D9FF39C0DAFFC1
:101E9800040EDF6E38C0D9FF39C0DAFF000EDB8EC2
:101EA80066516711D8B40ED020EE66F001D80AD07A
:101EB8000500FA6EDE50FD6EDE50FE6EF850FF6EC5
:101EC800FA5012000001639F4550D8A4120018EC84
:101ED80018F012000001A805D8B460BA06D0000EA8
:101EE800656E64806488020EA86F65B464A403D02C
:101EF8006594BCEC23F060A202D0A494120065B0F3
:101F080064A007D034EC11F0A384040E0001A86F7C
:101F1800659065B864A803D0FDEC23F0659865ACBE
:101F280018D064AC0ED0000E0F6E730E0E6E000E3D
:101F3800106E000E116E000E136E010E126E5FEC25
:101F480020F0659C4650D8A446064650D8B418ECF4
:101F580018F065BA64AA02D0EBEC21F065B264A26D
:101F68000FD07F0E0F6E0E68000E106E000E116EF1
:101F7800000E136E010E126E5FEC20F0000E676EFD
:101F8800040E0001A86102D0A494120064A639D0FE
:101F9800000E1F6E030E1F6401D033D065A631D02A
:101FA80061CF59F05930E832E8320F0B486E659628
:101FB80059B407D04850010D840EF324D96E000E91
:101FC80006D04850010D870EF324D96E000EF42078
:101FD800DA6E0001DF704850D8A403D0E7EC16F0A1
:101FE8000ED0000E0F6E720E0E6E590E106E000E91
:101FF800116E000E136E000E126E5FEC20F01F2A99
:10200800C9D7A4941200800E04013019D8A4120074
:10201800C00E00016B6F82D0060E0001686F7A0E49
:10202800696F000E6D6F120E6C6F12000401325151
:10203800D8A440D03251020D590EF324F66E760E14
:10204800F420F76E0900F5CF68F00A00F5CF69F0C3
:10205800020E00016825016E000E6921026E01C0A2
:10206800F6FF02C0F7FFF86A070EF76403D008000E
:10207800F55005D0F6CFE9FFF7CFEAFFEF500001A2
:102088006C6F030E6825016E000E6921026E01C097
:10209800F6FF02C0F7FFF86A070EF76403D00800DE
:1020A800F55005D0F6CFE9FFF7CFEAFFEF50000172
:1020B8006D6F1200000E00016B6F1200030E040119
:1020C800326124D03251020D530EF324F66E760E8F
:1020D800F420F76E0900F5CF68F00A00F5CF69F033
:1020E80068C0F6FF69C0F7FFF86A070EF76403D007
:1020F8000800F55005D0F6CFE9FFF7CFEAFFEF501B
:10210800016E015000016C6F6D6B1200000E000132
:102118006B6F1200000E00016B6F12000401335147
:10212800010AD8B479D7030AD8B480D7010AD8B439
:10213800C5D7F0D7A394000E676E000E656E000E2B
:102148006A6E6B0E0001BE6F0F0EBF6F000EC16F7F
:10215800000EC06F000EC36F020EC26F5DEC23F05D
:10216800160E626E9F0E666E7B0E646E000E000188
:10217800C66F0B0EC66501D00ED0C651040D000EF9
:10218800F324D96E040EF420DA6EDE6ADE6ADE6AA3
:10219800DD6AC62BEED7608C000E636E6098609C7B
:1021A80009D06596000E6B6F000E636F000E656FA9
:1021B800000E646F65B6F5D7010E446E010E436ECE
:1021C800000E426E000E416E000E496E000EC66F84
:1021D800020EC66501D02ED0C651020D6E0EF32434
:1021E800D96E000EF420DA6E000EDE6E000EDD6E83
:1021F800C651020D740EF324D96E000EF420DA6E67
:10220800000EDE6E000EDD6EC651010D870EF32442
:10221800D96E000EF420DA6E000EDF6EC651010D85
:10222800840EF324D96E000EF420DA6E000EDF6EF1
:10223800C62BCED7080E6E6F040E6F6F160E6A6E21
:10224800040E0401036F300E026F080E016F040EB6
:10225800006F008F000E5A6E000E0001A86F12006A
:10226800A394000E676E000E656E000E6A6E6B0E0C
:10227800016E0F0E026E000E046E000E036E000E4D
:10228800066E020E056ED3EC23F0160E626E9F0EDC
:10229800666E7B0E646E000E096E0B0E096401D02B
:1022A8000ED00950040D000EF324D96E040EF4204C
:1022B800DA6EDE6ADE6ADE6ADD6A092AEED7608CCB
:1022C800000E636E6098609C0AD06596000E00014F
:1022D8006B6F000E636F000E656F000E646F65B65E
:1022E800F4D7010E446E010E436E000E426E000ECE
:1022F800416E000E496E000E096E020E096401D08F
:102308002ED00950020D6E0EF324D96E000EF42063
:10231800DA6E000EDE6E000EDD6E0950020D740ED0
:10232800F324D96E000EF420DA6E000EDE6E000E75
:10233800DD6E0950010D870EF324D96E000EF420CE
:10234800DA6E000EDF6E0950010D840EF324D96E8B
:10235800000EF420DA6E000EDF6E092ACED7080EC2
:1023680000016E6F040E6F6F160E6A6E040E040184
:10237800036F300E026F080E016F040E006F008F9E
:10238800000E5A6E000E0001A86F1200D0C0BEF0F9
:10239800D1C0BFF0000E0001C16F0A0EC06FA8ECDB
:1023A80021F00001BE51300FD86FD0C0BEF0D1C0AF
:1023B800BFF0000EC16F0A0EC06F13EC21F0BEC053
:1023C800D0F0BFC0D1F0D0C0BEF0D1C0BFF0000E79
:1023D8000001C16F0A0EC06FA8EC21F00001BE51C8
:1023E800300FD76FD0C0BEF0D1C0BFF0000EC16FA4
:1023F8000A0EC06F13EC21F0BEC0D0F0BFC0D1F000
:10240800D0C0BEF0D1C0BFF0000E0001C16F0A0EEF
:10241800C06FA8EC21F00001BE51300FD66FD0C0BC
:10242800BEF0D1C0BFF0000EC16F0A0EC06F13EC32
:1024380021F0BEC0D0F0BFC0D1F0D0C0BEF0D1C036
:10244800BFF0000E0001C16F0A0EC06FA8EC21F0AA
:102458000001BE51300FD56FD0C0BEF0D1C0BFF063
:10246800000EC16F0A0EC06F13EC21F0BEC0D0F091
:10247800BFC0D1F0D0C0BEF0D1C0BFF0000E000187
:10248800C16F0A0EC06FA8EC21F00001BE51300FD9
:10249800D46F000ED96FD40ECB6F000ECC6FD2C0A4
:1024A800CDF0D3C0CEF02EEC1FF012000001904BFF
:1024B800912B90C0BEF091C0BFF0000EC16F0A0E04
:1024C800C06FA8EC21F00001BE51BF11D8A41200C2
:1024D800B38390C0BEF091C0BFF0000EC16F640E10
:1024E800C06FA8EC21F00001BE51BF11D8A41200A2
:1024F800B38590C0BEF091C0BFF0030EC16FE80E67
:10250800C06FA8EC21F00001BE51BF11D8A4120081
:10251800B38790C0BEF091C0BFF0C06BC16B600EB6
:10252800C26FEA0EC36F000EC46F000EC56F5AEC7F
:102538001BF00001BE51BF11C011C111D8A4120077
:102548008E4B8F2BB3898EC0BEF08FC0BFF0000EAC
:10255800C16F3C0EC06FA8EC21F00001BE51BF1145
:10256800D8A41200B38B8EC0BEF08FC0BFF0020E8D
:10257800C16FD00EC06FA8EC21F00001BE51BF1191
:10258800D8A41200B38D8EC0BEF08FC0BFF0050E68
:10259800C16FA00EC06FA8EC21F00001BE51BF11A1
:1025A800D8A41200B38F000E916F000E906F000E2A
:1025B8008F6F000E8E6F12005AEC24F037EC24F067
:1025C8009EEC10F0F9EC22F0F28CF28E010E000174
:1025D800BF6F2C0EBE6F13EC23F0F8EC1DF0010E4C
:1025E8000001BF6F2C0EBE6F13EC23F00AEC25F030
:1025F800000E0001BF6F640EBE6F13EC23F0000ED7
:10260800D0EC24F00001B16F550EB119D8B408D040
:1026180086EC21F0550E0001BE6F000E68EC22F02A
:10262800000E0001B26F000E39EC25F088EC24F0A2
:102638001F0E0001CB6F7D0ECC6F000ECD6F000E0C
:10264800CE6F2EEC1FF0010E0001CB6F7D0ECC6F0C
:10265800000ECD6F010ECE6F2EEC1FF0100E000194
:10266800CB6F7D0ECC6F000ECD6F030ECE6F2EECB0
:102678001FF0030E0001BF6FE80EBE6F13EC23F0CE
:1026880015D0FFD7A8EC1AF0010E0001B26F010EA9
:102698003EEC25F00BD0A9EC0BF0040AD8A406D028
:1026A800000E0001B26F000E39EC25F00001B251A6
:1026B800000AD8B4E7D7010AD8B4EDD7E2D76098B2
:1026C80000016BBF38D063AF0BD0020E4B6E415088
:1026D800D8B405EC1CF0000E436E000E446E1200D8
:1026E80020EE01F03850D9263950DA22080EDF6E74
:1026F80020EE02F03850D9263950DA22300EDE6E3C
:10270800040EDD6E38C0D9FF39C0DAFF0C0EDF6E5B
:1027180038C0D9FF39C0DAFF000EDB8E6EC0D9FF92
:102728006FC0DAFF040EDF6E6EC0D9FF6FC0DAFF2C
:10273800000EDB8E1200040130AF10D0010E4B6E7C
:102748004250D8B405EC1CF0000E436E000E446EE7
:102758004550D8A4120018EC18F01200020E4B6E67
:1027680020EE01F03850D9263950DA22080EDF6EF3
:1027780020EE02F03850D9263950DA22300EDE6EBB
:10278800040EDD6E38C0D9FF39C0DAFF040EDF6EE3
:1027980038C0D9FF39C0DAFF000EDB8E000E436E59
:1027A800000E446E4550D8A4120018EC18F0120020
:1027B8000001C26FFA0E0001C16F580EE82EFED755
:1027C800C12FFCD700F0FA0E0001C16F580EE82E99
:1027D800FED7C12FFCD700F0FA0E0001C16F580ECA
:1027E800E82EFED7C12FFCD700F00001C251D8B4A3
:1027F80029D0500EBF6F7A0EC06F45EC23F0FA0E49
:102808000001C16F580EE82EFED7C12FFCD700F08B
:10281800FA0E0001C16F580EE82EFED7C12FFCD763
:1028280000F0FA0E0001C16F580EE82EFED7C12F36
:10283800FCD700F06A0E0001BF6F7A0EC06F45EC3E
:1028480023F012001C0E0001BF6F7A0EC06F45EC1A
:1028580023F0FA0E0001C16F580EE82EFED7C12FE3
:10286800FCD700F0FA0E0001C16F580EE82EFED713
:10287800C12FFCD700F0FA0E0001C16F580EE82EE8
:10288800FED7C12FFCD700F0360E0001BF6F7A0EBD
:10289800C06F45EC23F0120004013039E832030B15
:1028A8000009D8A4120047D000016B8F080EA86F4A
:1028B800120007EC10F01200C1EC14F012005A0ECE
:1028C8000001686F000E696F6B81010E6C6F6B8F72
:1028D8001200B1EC1BF0120077EC0AF012000401B0
:1028E8003451010D570EF3240001686F000EF420D7
:1028F800696F6B81010E6C6F6B8F120000016B8F1B
:1029080004013451010D570EF324D96E000EF42042
:10291800DA6E32C4DFFF1200000E0F6E020E0E6E6A
:10292800000E106E000E116E000E136E000E126E69
:102938005FEC20F0120004013151000AD8B4C9D765
:10294800010AD8B4C9D7020AD8B4C6D7060AD8B477
:10295800ABD7030AD8B4ADD7010AD8B4DDD70F0A6C
:10296800D8B4ADD7010AD8B4A7D7030AD8B4B7D713
:10297800010AD8B4C3D7070A120000016B8F6B0E87
:10298800016E0F0E026E000E046E000E036E000E36
:10299800066E020E056ED3EC23F0000E016E040ED7
:1029A800026E000E046E000E036E000E066E300EF0
:1029B800056ED3EC23F0608C000E166E020E1664C2
:1029C80001D016D01650010D870EF324D96E000ED3
:1029D800F420DA6E000EDF6E1650010D840EF3241B
:1029E800D96E000EF420DA6E000EDF6E162AE6D7D6
:1029F800570E016E000E026E000E046E000E036E7E
:102A0800000E066E020E056ED3EC23F0609C080ED5
:102A180000016E6F040E6F6F000E3A6E040E3B6E6F
:102A28003AC038F03BC039F032C45AF05A50D8A4F2
:102A380003D0100EA86F1200000E0F6E010E0E6E5E
:102A48005A0E106E000E116E000E136E010E126EED
:102A58005FEC20F0200E0001A86F12006EC0D9FFB5
:102A68006FC0DAFF0001000EDFBC010E126E040E0B
:102A78006E1B080EA819D8A40CD0040132517F0B84
:102A8800636E6350D8B402D0100E01D0040E00015A
:102A9800A86F4B04D8A43AD020EE02F06E51D92684
:102AA8006F51DA22380EDE6E040EDD6E4EEC17F032
:102AB800020E4C18D8A40DD06EC0D9FF6FC0DAFF33
:102AC800040EDF6E6EC0D9FF6FC0DAFF000EDB8E1A
:102AD80012001250D8A40DD06EC0D9FF6FC0DAFF13
:102AE800480EDF6E6EC0D9FF6FC0DAFF000EDB8EB6
:102AF80012006EC0D9FF6FC0DAFF080EDF6E6EC01D
:102B0800D9FF6FC0DAFF000EDB8E120063AF14D05E
:102B180066516711D8B40ED020EE66F001D80AD0FD
:102B28000500FA6EDE50FD6EDE50FE6EF850FF6E48
:102B3800FA5012000001639F000E4B6E12001F0E28
:102B48000001A865120060B21200A351D8A411D0E8
:102B5800200EC56F010EC66F400EC76FF1EC19F05D
:102B68000001A26FA251D8B404D0010EA36F000EC9
:102B7800A16FA351D8A4ACA213D0A151010D200E6E
:102B8800F324D96E010EF420DA6EDF502BEC22F01C
:102B98000001A12BA251A119D8A402D0000EA36F45
:102BA800B051D8B425D053EC25F00009D8B420D0C2
:102BB8003F0E0001A4611CD000F0A4EC22F000013B
:102BC800CB6FA451010D200EF324D96E010EF42011
:102BD800DA6ECBC0DFFFA42BA451010D200EF32425
:102BE800D96E010EF420DA6E000EDF6E000EA56FAE
:102BF8000001A751D8A410D0A451D8B40DD0200EEC
:102C0800BE6F010EBF6FA4C0C0F049EC24F056ECB3
:102C180025F0000E0001A46F39EC0EF012008A882E
:102C28008A8A8A84500EE82EFED78A94040E000100
:102C3800C06F1C0EE82EFED7C02FFCD700F08A8488
:102C48008A98040E0001C06F1C0EE82EFED7C02F14
:102C5800FCD700F08A9A040E0001C06F1C0EE82E03
:102C6800FED7C02FFCD700F0AE0E1AEC25F0D50E1B
:102C78001AEC25F0800E1AEC25F0A80E1AEC25F0B7
:102C88001F0E1AEC25F0D30E1AEC25F0000E1AECE4
:102C980025F08D0E1AEC25F0140E1AEC25F0400ED6
:102CA8001AEC25F0A60E1AEC25F0A40E1AEC25F065
:102CB800A00E1AEC25F0C00E1AEC25F0DA0E1AEC6C
:102CC80025F0420E1AEC25F0810E1AEC25F07F0E45
:102CD8001AEC25F0D90E1AEC25F0F10E1AEC25F0B5
:102CE800DB0E1AEC25F0400E1AEC25F0AF0E1AECAC
:102CF80025F08A88120088EC24F0590E0001CB6F69
:102D08007F0ECC6F000ECD6F000ECE6F2EEC1FF035
:102D18006A0E0001CB6F7F0ECC6F000ECD6F010ED7
:102D2800CE6F2EEC1FF00E0E0001C16F010EC26FA8
:102D3800430EB5EC1DF0720E0001CB6F7F0ECC6F09
:102D4800000ECD6F020ECE6F2EEC1FF0000E0001AC
:102D5800DF6F310EDF6501D01200000EBF6F320E3B
:102D6800BE6F13EC23F0020E4AEC22F0BEC0DCF07A
:102D7800BFC0DDF00001DC51E9EC23F00001DE6F9B
:102D8800000EBF6F320EBE6F13EC23F0030E4AEC39
:102D980022F0BEC0DAF0BFC0DBF00A0E0001D06F2F
:102DA800010ED16FDE512CEC1DF0DAC0D0F0DBC083
:102DB800D1F00A0E0001D26F020ED36FCAEC11F0E7
:102DC8000001DF2BC6D72D0E466E59C01CF0FD0E34
:102DD8001C16D8A457D059C01CF0D8901C323F0EEE
:102DE8001C161C50040D000EF3243A6E040EF42039
:102DF8003B6E3AC038F03BC039F0040E381A3AC07E
:102E0800D9FF3BC0DAFFDF30E8320F0B0D0AD8A438
:102E180036D0000E1E6E070E1E6401D023D020EEA1
:102E280002F03A50D9263B50DA22DECF1CF0DDCF33
:102E38001DF01CC0D9FF1DC0DAFF1E50010D300E59
:102E4800F324E16E040EF420E26EDFCFE7FF20EEFC
:102E580002F03A50D9263B50DA22DE2A000EDD2253
:102E68001E2AD9D720EE02F03A50D9263B50DA2252
:102E7800300EDE6E040EDD6E3AEC1EF012008DECA4
:102E880020F012005950FD0B040AD8A4120032ECAD
:102E980015F01200080E016E00016D5110E1080EC8
:102EA8006C5DD8B00CD06CC001F04C50D8A402D0E6
:102EB800010E04D04C04D8A402D0020E4C6E01506E
:102EC8006C5F000E6D5B20EE01F06E51D9266F51DC
:102ED800DA2201C0DFFF380E366E040E376E6BA1A2
:102EE8001CD03AD068C0F6FF69C0F7FFF86A36C050
:102EF800D9FF37C0DAFF070EF76403D00800F55092
:102F080005D0F6CFE9FFF7CFEAFFEF50DF6E0001FB
:102F1800684B692B364A372A01060150D8B412008B
:102F2800E1D768C0F6FF69C0F7FFF86A36C0D9FF75
:102F380037C0DAFF070EF76403D00800F55005D054
:102F4800F6CFE9FFF7CFEAFFEF50DF6E0001684BDD
:102F5800692B364A372A01060150D8B41200E1D746
:102F6800010E0001D16FF40ED06F000ED26F88EC05
:102F780024F0F50E0001CB6F7D0ECC6F000ECD6FE7
:102F8800000ECE6F2EEC1FF082A002D082B20CD0C1
:102F98007D0E0001CB6F7E0ECC6F000ECD6F030E41
:102FA800CE6F2EEC1FF036D01C0E0001CB6F7E0EBC
:102FB800CC6F000ECD6F010ECE6F2EEC1FF02AD015
:102FC80082B00ED0020ECB6F7E0ECC6F000ECD6F8E
:102FD800020ECE6F2EEC1FF00001D251080FD26FF7
:102FE80082B20ED00F0ECB6F7E0ECC6F000ECD6F5F
:102FF800030ECE6F2EEC1FF00001D251800FD26F5E
:10300800880ED219D8B41200000EBF6F0A0EBE6F18
:1030180013EC23F00001D007D8A0D107D029D0E1C4
:10302800D129D8B41200CCD74450D8A41200010E2C
:10303800446E4350D8A41200010E436E020E4B1882
:10304800D8A416D0000120EE01F06E51D9266F5198
:10305800DA22000EDF6E6EC0D9FF6FC0DAFF480EAD
:10306800DF6E6EC0D9FF6FC0DAFF000EDB8E120074
:103078004B04D8A41200000E476E20EE01F03A501F
:10308800D9263B50DA22080EDF6E20EE02F03A50C5
:10309800D9263B50DA22300EDE6E040EDD6E3AC0C1
:1030A800D9FF3BC0DAFF040EDF6E3AC0D9FF3BC040
:1030B800DAFF000EDB8E010E476E20EE01F038506D
:1030C800D9263950DA22080EDF6E20EE02F0385089
:1030D800D9263950DA22300EDE6E040EDD6E38C085
:1030E800D9FF39C0DAFF800EDF6E12000BD0BFC0E7
:1030F800F6FFC0C0F7FF0800F5502BEC22F00001E6
:10310800BF4BC02BBFC0F6FFC0C0F7FF0800F5508B
:103118000009D8A4ECD7000E0001C56F020EC565E2
:1031280001D00ED0C551010DF350C125D96EF45010
:10313800C221DA6EDF502BEC22F00001C52BEED74E
:1031480020EE03F0C151D926C251DA22DF502BEC10
:1031580022F0040E0001C66F21D0C651010DF350B4
:10316800C125D96EF450C221DA6EDF50C46FC4395C
:103178000F0BA5EC23F02BEC22F00001C651010D3A
:10318800F350C125D96EF450C221DA6EDF500F0B0F
:10319800A5EC23F02BEC22F00001C62BC351C65D31
:1031A800D8A0DBD722EC25F012000001C26F000185
:1031B800BE51D8B407D0C251020D6E0EF324D96E99
:1031C800000E06D0C251020D740EF324D96E000E03
:1031D800F420DA6EDECFC3F0DDCFC4F0C351C411E2
:1031E800D8A405D0000EBE6F000EBF6F120020EEEF
:1031F80002F0C351D926C451DA22BFC0DEFFC0C0D5
:10320800DDFF20EE01F0C351D926C451DA22C1C036
:10321800DFFFC3C0D9FFC4C0DAFF400EDF16C3C04A
:10322800D9FFC4C0DAFF000EDB86C3C0D9FFC4C013
:10323800DAFF000EDB8EBE51D8B407D0C251020DA2
:103248006E0EF324D96E000E06D0C251020D740E14
:10325800F324D96E000EF420DA6E040EDF1AC3C010
:10326800BEF0C4C0BFF01200056E0150D8B407D03C
:103278000550020D6E0EF324D96E000E06D00550CF
:10328800020D740EF324D96E000EF420DA6EDECF30
:1032980006F0DDCF07F006500710D8A405D0000EC1
:1032A800016E000E026E120020EE02F00650D926C2
:1032B8000750DA2202C0DEFF03C0DDFF20EE01F076
:1032C8000650D9260750DA2204C0DFFF06C0D9FF0E
:1032D80007C0DAFF400EDF1606C0D9FF07C0DAFFC5
:1032E800000EDB8606C0D9FF07C0DAFF000EDB8EB2
:1032F8000150D8B407D00550020D6E0EF324D96ED4
:10330800000E06D00550020D740EF324D96E000E7F
:10331800F420DA6E040EDF1A06C001F007C002F0CE
:103328001200000E0001CD6F82A2FED711EC24F02E
:10333800010EBAEC24F0C290F29EF29EF29C0F01AC
:103348005B81A08C878087828784F286000E82B09A
:10335800010E0001CD6F000E82B2010ECD6F000E7E
:1033680082B4010ECD6FF551D8A4D180F290A19C02
:1033780000F0030000F0D190CAEC21F0F29687909B
:1033880087928794A09CF28E63EC21F0F2A004D07F
:10339800F290010E000104D00A0E0001AB6F000E7E
:1033A800CD6F0F015B91000EBAEC24F037EC24F0DE
:1033B800F8EC1DF0000E0001BF6F280EBE6F13EC75
:1033C80023F0F8EC1DF0000E0001BF6F280EBE6F51
:1033D80013EC23F00001CD511200000E00019A6F8A
:1033E8008C518D11D8B40FD08CC0D9FF8DC0DAFFA5
:1033F800DFAE03D0C86BC82B02D00001C86BC85120
:10340800C96FCA6B04D0000ECA6F000EC96FC951CC
:10341800CA11D8A43BD020EE01F08C51D9268D5189
:10342800DA22C751DE5CD8B008D020EE01F08C510A
:10343800D9268D51DA22DF50C76F000E9A6F13D04C
:103448009A51010D400EF324D96E050EF420DA6E60
:103458009A51010DF350C525E16EF450C621E26E74
:10346800DFCFE7FF9A2BC7519A5DD8A0E9D7000EA6
:10347800BE6F400EBF6F050EC06F400EC16F020ECB
:10348800D9EC18F0BEC08CF0BFC08DF000019A5185
:1034980012000001C76F0001C451C56FC66B020E50
:1034A800C527000EC623C00EC525D96E010EC6213C
:1034B800DA6EC7C0BEF0BF6B000EC16F0A0EC06FD8
:1034C800BDEC1EF00001BE51300FDF6E0A0EBE6F5C
:1034D800C7510CEC22F00001C76FC451C56FC66B11
:1034E800010EC527000EC623C00EC525D96E010ED4
:1034F800C621DA6EC7C0BEF0BF6B000EC16F0A0EE0
:10350800C06FBDEC1EF00001BE51300FDF6E0A0E19
:10351800BE6FC7510CEC22F00001C76FC451010DFA
:10352800C00EF324D96E010EF420DA6EC7C0BEF0C7
:10353800BF6B000EC16F0A0EC06FBDEC1EF000011C
:10354800BE51300FDF6E12003ED0FFD788EC24F05A
:10355800110E0001CB6F7F0ECC6F010ECD6F000EE8
:10356800CE6F2EEC1FF0620E0001CB6F7F0ECC6F7A
:10357800020ECD6F010ECE6F2EEC1FF0290E00014A
:10358800CB6F7E0ECC6F000ECD6F020ECE6F2EEC81
:103598001FF0010E000105D0200EA86101D01FD038
:1035A800020EA66F1CD0A3EC15F0030E0001D06F1D
:1035B800CBEC1FF00001D06F030ED019D8B40FD098
:1035C800020EF46F0CD00001A651000AD8B4BED781
:1035D800010AD8B4E1D7030AD8B4E5D7B6D780A092
:1035E80004D00001F451D8B4EED700F0020E000167
:1035F800F419D8B41200000EF46F1200040130510F
:103608001F0BE806D8A412003039E832030BE8068D
:10361800D8A412003451D8B437D03405D8A4120035
:1036280033D0DA0E0001686F010E696F000E6D6FFE
:10363800080E6C6F6B816B8F1200DA0E0001686FD9
:10364800010E696F6B8F120036C464F037C465F0E1
:10365800D00E0001606F010E616F760E666F410E2D
:10366800676F638F1200B40E0001686F000E696FF8
:10367800000E6D6F070E6C6FC10E6B6F120032C4B7
:1036880040F000016B8F120004013151000AD8B4D8
:10369800C8D7010AD8B4D1D7210AD8B4D5D7010AD6
:1036A800D8B4E1D7030AD8A41200E9D7000E000164
:1036B800C76FC1AF0AD0C11FC01FBF1FBE6D000EAC
:1036C800BF23C023C123010EC76FC5AF08D0C51FD4
:1036D800C41FC31FC26D000EC323C423C523C25118
:1036E800C311C411C511D8B424D0010EC66F06D0B9
:1036F800D890C237C337C437C537C62BC5AFF8D73C
:10370800C251BE5DC351BF59C451C059C551C159F9
:10371800D8A008D0C251BE5FC351BF5BC451C05BC3
:10372800C551C15BD890C533C433C333C233C62F28
:10373800E7D7C751D8B408D0C11FC01FBF1FBE6D7F
:10374800000EBF23C023C123BEC0BEF0BFC0BFF060
:10375800C0C0C0F0C1C0C1F01200000E0401386F33
:10376800000E396F38D000016B8F4A04D8A43ED0C0
:10377800040138833BD000016B8F38D000016B8F78
:10378800040134BF0AD034510F0B016E0150020DF1
:10379800740EF324D96E000E09D034510F0B016E4C
:1037A8000150020D6E0EF324D96E000EF420DA6E6D
:1037B800DECF02F0DDCF03F002C0D9FF03C0DAFF8D
:1037C800DFAE14D002C0D9FF03C0DAFFDFA40ED0E9
:1037D800010E386F0BD030511F0B000AD8B4C3D775
:1037E800010AD8B4C8D7030AD8B4C8D700016BAF48
:1037F8001200380E686F040E696F6B81020E6C6FD1
:103808001200000E426E000E416E020E4B18D8A434
:103818001FD020EE01F03850D9263950DA22080E90
:10382800DF6E20EE02F03850D9263950DA22380EF1
:10383800DE6E040EDD6E38C0D9FF39C0DAFF480EDF
:10384800DF6E38C0D9FF39C0DAFF000EDB8E1200F8
:1038580000016C510401365D00016D5104013759B6
:10386800D8B004D036C46CF037C46DF04EEC17F005
:10387800000120EE02F06E51D9266F51DA22380E7F
:10388800DE6E040EDD6E6EC0D9FF6FC0DAFF480E23
:10389800DF6E6EC0D9FF6FC0DAFF000EDB8E12003C
:1038A800066E000E076E040E086E0150026E036A63
:1038B800D890023603360650046E056AD89004364E
:1038C8000536D890043605360250042603500522E2
:1038D800D89004360536D8900436053604500726A5
:1038E8000550082207C0D9FF08C0DAFFDF9E015043
:1038F800D8A407D00650020D740EF324D96E000E1A
:1039080006D00650020D6E0EF324D96E000EF42078
:10391800DA6E07C0DEFF08C0DDFF07C0D9FF08C0A8
:10392800DAFFDF9C20EE04F00750D9260850DA228F
:10393800DF8C1200000E0001BE6F020EBE6501D0C2
:103948000CD0BE51010DBB0EF324D96E000EF4202D
:10395800DA6E000EDF6EBE2BF0D7000EBF6F210EA1
:10396800BF6501D00CD0BF51010D100EF324D96EE4
:10397800010EF420DA6E000EDF6EBF2BF0D7000EBA
:10398800C06F1F0EC06501D00CD0C051010DA00E34
:10399800F324D96E010EF420DA6E000EDF6EC02B10
:1039A800F0D7000EC16F0F0EC16501D01200C151D2
:1039B800010DC00EF324D96E010EF420DA6E000E4C
:1039C800DF6EC12BF0D788EC24F03E0E0001CB6FE0
:1039D8007F0ECC6F000ECD6F000ECE6F2EEC1FF059
:1039E800980E0001CB6F7D0ECC6F000ECD6F060ECA
:1039F800CE6F2EEC1FF08B0E0001CB6F7D0ECC6FBF
:103A0800000ECD6F080ECE6F2EEC1FF0C40E000115
:103A1800CB6F7C0ECC6F000ECD6F010ECE6F2EECEF
:103A28001FF0710E0001CB6F7E0ECC6F000ECD6FB4
:103A3800020ECE6F2EEC1FF0470E0001CB6F7F0EEB
:103A4800CC6F000ECD6F030ECE6F2EEC1FF0120060
:103A58000001D26FD2C0BEF00001BF6B000EC16F73
:103A68000A0EC06FBDEC1EF00001BE51300FD56FBD
:103A78000A0EBE6FD2510CEC22F00001D26FD2C0F8
:103A8800BEF0BF6B000EC16F0A0EC06FBDEC1EF01A
:103A98000001BE51300FD46F0A0EBE6FD2510CEC2C
:103AA80022F00001D26FD2C0BEF0BF6B000EC16F12
:103AB8000A0EC06FBDEC1EF00001BE51300FD36F6F
:103AC800000ED66FD30ECB6F000ECC6FD0C0CDF0EA
:103AD800D1C0CEF02EEC1FF0120035D0BEC0D9FFF9
:103AE800BFC0DAFFDF50D8B410D0BEC0D9FFBFC006
:103AF800DAFFDF500001C46FC0C0F6FFC1C0F7FF96
:103B08000800F550C419D8B41AD0C0C0F6FFC1C017
:103B1800F7FF0800F5500001C46FC56BC41FC51F2F
:103B2800C44BC52BBEC0D9FFBFC0DAFFDF50C66F7C
:103B3800C651C425BE6F000EC521BF6F1200BE4B13
:103B4800BF2BC04BC12B0001C207D8A0C307C22995
:103B5800C5E1C329D8A4C2D7000EBF6F000EBE6F3F
:103B680012000001C96F0001C251AEEC24F000013F
:103B7800C151080DF3506BEC24F08A98000E000137
:103B8800CA6F070ECA6501D02DD0CA51010D000EAB
:103B9800C36FFF0EC46FC951C56FC66BD890C537C8
:103BA800C637D890C537C637D890C537C637C3513A
:103BB800C527C451C623F2C0C7F0F3C0C8F0C55129
:103BC800C727C651C823F350C727F450C823C7C016
:103BD800F6FFC8C0F7FF0800F55012EC25F0000109
:103BE800CA2BCFD78A881200000E0001C56F000EBD
:103BF800C46F000EC36FAC9A8B9C000EBF6F0A0E89
:103C0800BE6F13EC23F0AC8A000E0001BF6F050EE7
:103C1800BE6F13EC23F0550EAD6EACA2FED7FD0EB1
:103C28000001BF6F7F0EC06F45EC23F0000E00014E
:103C3800BF6F280EBE6F13EC23F013D098EC1FF063
:103C48000009D8B403D0010E00010AD00001C34B0B
:103C5800C42B890EC35D130EC459D8A002D0010E1F
:103C6800C56F0001C551D8B41200E8D7000E4C6EDC
:103C7800000E456E000E426E000E416E000E476E3D
:103C8800000E4B6E6EC0D9FF6FC0DAFF7F0EDF16D5
:103C9800040E00016E1B6EC0D9FF6FC0DAFF7F0EE5
:103CA800DF16040E6E1B38C0D9FF39C0DAFF7F0E4D
:103CB800DF16000E6B6F000E6D6F000E6C6F000E3E
:103CC800636F000E656F000E646F50EC14F0000E09
:103CD8000F6E030E0E6E000E106E000E116E000EAB
:103CE800136E000E126E5FEC20F063EC13F01200FE
:103CF800000E096E000E0A6E000E0B6E000E0C6EA2
:103D08000550061007100810D8B42AD0010E0D6E01
:103D180006D0D89005360636073608360D2A08AE7E
:103D2800F8D7D89009360A360B360C360550015CA0
:103D3800065002580750035808500458D8A009D014
:103D48000550015E0650025A0750035A0850045A9B
:103D58000980D89008320732063205320D2EE1D795
:103D680009C001F00AC002F00BC003F00CC004F057
:103D78001200000E0001C36FBFAF06D0BE6DBF1F9B
:103D8800D8B0BF2B010EC36FC1AF04D0C06DC11F27
:103D9800D8B0C12BC051C111D8B418D0010EC26F10
:103DA80004D0D890C037C137C22BC1AFFAD7C051A1
:103DB800BE5DC151BF59D8A004D0C051BE5FC1512A
:103DC800BF5BD890C133C033C22FF1D7C351D8B429
:103DD80004D0BE6DBF1FD8B0BF2BBEC0BEF0BFC0E1
:103DE800BFF01200860EF66E4A0EF76E000EF86EE1
:103DF80000EEF2F010EE09F00900F5CFEEFFE55005
:103E0800E150FAE1C40EF66E4A0EF76E000EF86E37
:103E18000900F5CF5BF002EE00F0A00EEE6AE806AE
:103E2800FDE101EE00F0E20EEE6AE806FDE100EECB
:103E380060F05E0EEE6AE806FDE100EE32F0290E53
:103E4800EE6AE806FDE15C905C92000EF86E0001F7
:103E5800E0EF12F0CDC0CFF00F0E0001CF6501D01A
:103E68001200CBC0F6FFCCC0F7FFF86A070EF76464
:103E780003D00800F55005D0F6CFE9FFF7CFEAFFE9
:103E8800EF500009D8B41200CFC0C1F0CEC0C2F0C4
:103E9800CBC0F6FFCCC0F7FFF86A070EF76403D073
:103EA8000800F55005D0F6CFE9FFF7CFEAFFEF504D
:103EB800B5EC1DF00001CB4BCC2BCF2B0F0ECED782
:103EC800C00E0001CB6F7E0ECC6F000ECD6F000EC2
:103ED800CE6F2EEC1FF0010EDCEC13F0010E00018A
:103EE800BF6FF40EBE6F13EC23F0000EDCEC13F082
:103EF800010E0001BF6FF40EBE6F13EC23F0010E2C
:103F0800DCEC13F0010E0001BF6FF40EBE6F13EC72
:103F180023F0000EDCEC13F0010E0001BF6FF40E6D
:103F2800BE6F13EC23F01200000E0001BF6FB051FA
:103F3800D8B42BD0000EC06FA4EC22F00001C06FE3
:103F48000D0EC019D8A40FD0AD51010D600EF32489
:103F5800D96E010EF420DA6E000EDF6E010EBF6F0F
:103F6800000EAD6F12D0C051D8B40FD00A0EC019D0
:103F7800D8B40BD0AD51010D600EF324D96E010EEB
:103F8800F420DA6EC0C0DFFFAD2BBF511200000E67
:103F98000001BE6F82A002D082B217D0010E7A272C
:103FA800000E7B237C237D23370E7A197B117C112D
:103FB8007D11D8A408D0000EA06F82B002D0010EE7
:103FC80015D0020E13D0000E11D0140EA019D8A4CB
:103FD8000BD0000E7A6F000E7B6F000E7C6F000E08
:103FE8007D6F000EA06F01D0A02B030EBE6FBE51D7
:103FF8001200000E0001B46F4B0EB56F000EB66FC5
:10400800000EB76F000EB86F000EB96F080EBA6FCA
:10401800000E9A6F1A0E096E010E86EC22F01E0E23
:10402800096E020E86EC22F0000E016E400E026E42
:10403800050E036E400E046E020E38EC19F001C036
:104048008CF002C08DF0000E00018A6F000E8B6F9D
:10405800000EA76F1200070E0001CB6F7F0ECC6F0A
:10406800000ECD6F010ECE6F2EEC1FF0898C898E5D
:10407800010E0001BF6FF40EBE6F13EC23F0899C94
:10408800899E010E0001BF6FF40EBE6F13EC23F082
:10409800898C898E010E0001BF6FF40EBE6F13EC80
:1040A80023F0899C899E010E0001BF6FF40EBE6F3C
:1040B80013EC23F0120006D0E8EC20F0120002EC1A
:1040C8001BF012000EC014F00FC015F01550000AB6
:1040D800D8B404D07F0AD8A4120018D01450010A0A
:1040E800D8B4EAD7030AD8B41200010AD8B4E7D77B
:1040F800060AD8B41200770AD8B41200010AD8B454
:104108001200070AD8B41200010A12001450FF0A5C
:104118001200020E4B18D8A403D0D4EC0EF01200F3
:10412800000E4B6E4750D8A41FD020EE01F0385037
:10413800D9263950DA22080EDF6E20EE02F0385008
:10414800D9263950DA22300EDE6E040EDD6E38C004
:10415800D9FF39C0DAFF0C0EDF6E38C0D9FF39C07D
:10416800DAFF000EDB8E1200000E476E1200D0C17F
:10417800B4F0D1C1B5F0D2C1B6F0D3C1B7F0000EDA
:10418800016E1B0E026EB70E036E000E046EB4C0F5
:1041980005F0B5C006F0B6C007F0B7C008F07CEC73
:1041A8001EF0FF0E01240E6EFF0E02200F6EFF0E92
:1041B8000320106EFF0E0420116E0EC0AFFF0FC05B
:1041C800B0FFDDEC22F01200FDEC1FF0000E000144
:1041D800B86F080EBA6F000EB96F000EB46F4B0EB1
:1041E800B56F000EB66F000EB76FDDEC22F0000E53
:1041F8000D6E3F0E0D6401D00CD00D50010D200E38
:10420800F324D96E010EF420DA6E000EDF6E0D2A4B
:10421800F0D7000E0001A46F000EA26F1200000E6E
:104228000001C36F000EC26FC051C111D8B41CD0B9
:10423800010EC46F04D0D890C037C137C42BC1AFAA
:10424800FAD7D890C237C337C051BE5DC151BF59E4
:10425800D8A005D0C051BE5FC151BF5BC281D89004
:10426800C133C033C42FEDD7C2C0BEF0C3C0BFF046
:10427800120005D00001BE4BBF2BC04BC12BBEC0E6
:10428800D9FFBFC0DAFFDF500001C26FC0C0F6FF20
:10429800C1C0F7FF0800F5500008C225C36FC3511D
:1042A800D8A407D0BEC0D9FFBFC0DAFFDF50D8A45A
:1042B800E1D7C351BE6FBF6BBEBFBF07120092806C
:1042C8009282928492869298929A929C929E9390CD
:1042D800939293949396939A948094829484949CC2
:1042E800948E8988899A899C899E8A948A908A9AC8
:1042F8008B948B9C0F015B915B835B855B875D9FD8
:104308005D9D1200E7EC1CF0000E0001BF6F140E5B
:10431800BE6F13EC23F0B4EC17F088EC24F0000E19
:104328000001BF6F140EBE6F13EC23F064EC1FF096
:104338002FEC20F07FEC16F0000E0001BF6F140E7A
:10434800BE6F13EC23F012000001C051C111D8B4A4
:1043580018D0010EC26F04D0D890C037C137C22B15
:10436800C1AFFAD7C051BE5DC151BF59D8A004D062
:10437800C051BE5FC151BF5BD890C133C033C22F9B
:10438800F1D7BEC0BEF0BFC0BFF01200000E0001E2
:10439800BE6F3F0EBE6501D00CD0BE51010D000EA0
:1043A800F324D96E020EF420DA6E000EDF6EBE2BF7
:1043B800F0D7000E9C6F000E9B6F000EB06F9D989B
:1043C800000E9F6F000E9E6F400E9D6F12006AA038
:1043D8001DD03AC0D9FF3BC0DAFF800EDE18D8A442
:1043E80014D06EC0D9FF6FC0DAFF840EDE18D8A4CF
:1043F8000CD03AC0D9FF3BC0DAFF0C0EDF6E3AC0D2
:10440800D9FF3BC0DAFF000EDB8E6A90659A120076
:104418000001BF6F000E0001C16FBE51D8B415D0A6
:10442800010EC06F03D0D890BE37C02BBEAFFBD7EC
:10443800D890C137BE51BF5DD8A003D0BE51BF5F71
:10444800C181D890BE33C02FF3D7C15112000001EB
:10445800BE6F00019D51D8B4FCD79DB803D0BEC033
:10446800ADFF12D09D989F51010D400EF324D96ED7
:10447800020EF420DA6EBEC0DFFF9F2B3F0E9F6551
:1044880002D0000E9F6F9D079D8812000001C26F29
:10449800C2C0C0F00001C047C047C250C019830B5A
:1044A800C019C26EC280140EE82EFED7C282C2B2F4
:1044B800FED7C4500001C16FC06BC350C025BE6F8A
:1044C800000EC121BF6F12000001BF6F000EF2BEC7
:1044D800010E0001C06FBFC0A9FFBEC0A8FFA69E05
:1044E800A69CA684F29E550EA76EAA0EA76EA6825B
:1044F800A6B2FED7A6940001C0B102D0F29E01D0A8
:10450800F28E12000C6E09A405D0000E016E0C503C
:1045180054EC1CF009A205D0010E016E0C5054ECAD
:104528001CF00C50010D6A0EF3240A6E0F0EF420D5
:104538000B6E0AC0D9FF0BC0DAFF09C0DFFF1200FB
:10454800000E0001BE6F01D0898EB051D8B4FCD7DF
:104558009D9A9B51010D000EF324D96E020EF42092
:10456800DA6EDF50BE6F9B2B3F0E9B6502D0000EAC
:104578009B6FB0079D8ABE5112009D9A9D98480E68
:10458800B86E900EAB6E260EAC6ED00EAF6E000EEF
:10459800B06E000E00019F6F000E9E6F400E9D6F63
:1045A800000E9C6F000E9B6F000EB06F9D8AAB884B
:1045B80012009D9A9D98480EB86E900EAB6E260E0E
:1045C800AC6ED00EAF6E000EB06E000E00019F6F85
:1045D800000E9E6F400E9D6F000E9C6F000E9B6F2D
:1045E800000EB06F9D8AAB8812000001A851D8A4B4
:1045F8001200000E606E000E646E160E626E9F0E44
:10460800666E7B0E646ED08EA584A384F28E01D074
:10461800608660A6FDD7010E0001A86F1200000E8B
:104628000001C26F000EC16F0CD0100E0001C06FE8
:10463800940EE82EFED7C02FFCD700F00001C14B26
:10464800C22BBE51C15DBF51C259D8B01200EDD7BF
:10465800000ECD6E000ECC6ED00ECF6E200ECE6E3C
:10466800CE50CFCFBEF00001BF6BBEC0BFF0BE6B57
:10467800BE113C6EBF513D6E9E909D805EEC25F054
:1046880012000BD0BFC0F6FFC0C0F7FF0800F550FE
:104698002BEC22F00001BF4BC02BBFC0F6FFC0C0FF
:1046A800F7FF0800F5500009D8A4ECD722EC25F054
:1046B8001200BEC0C4F0BFC0C5F009D0C4C0D9FF45
:1046C800C5C0DAFFC0C0DFFF0001C44BC52B000125
:1046D800C207D8A0C307C229F1E1C329D8B4120080
:1046E800EDD7400E00019D6112D09E51010D400E84
:1046F800F324D96E020EF420DA6EDF50AD6E9E2BD5
:104708003F0E9E6502D0000E9E6F9D2B12009D9855
:104718001200ABA203D0AB98AB88120000019C51E9
:10472800010D000EF324D96E020EF420DA6EAECF1E
:10473800DFFF9C2B3F0E9C6502D0000E9C6FB02BB8
:1047480012000001BE6F0001BE510F0BBE6F0A0EB2
:10475800BE6103D0BE51300F1200090EBE6506D0EF
:10476800100EBE6103D0BE51370F1200000E1200AA
:10477800000E496E000E0F6E740E0E6E000E106E57
:10478800000E116E000E136E000E126E5FEC20F01C
:104798006092649401D0659465A41200FCD701C0AE
:1047A80007F002C008F008D007C0D9FF08C0DAFF38
:1047B80003C0DFFF074A082A0506D8A00606052811
:1047C800F3E10628D8B41200EFD70001C56F060E32
:1047D8000001C525BE6FBF6BFF0EBF23000EC16F62
:1047E800050EC06F13EC21F00001BE51C66FC65113
:1047F8001200648465986082010E496E000E0F6E87
:10480800750E0E6E000E106E000E116E000E136EF9
:10481800000E126E5FEC20F01200840E0001BF6FD4
:104828007A0EC06F45EC23F09DB8FED7FA0E000152
:10483800C16F580EE82EFED7C12FFCD700F012002A
:104848000001CB6F000E0001CC6F0F0ECC6501D0BC
:104858001200CCC0C1F0CBC0C2F0200EB5EC1DF0E8
:104868000001CC2BF2D793949398939A13EC16F0FB
:10487800000EA2EC24F05B0E0001BE6F760EBF6F37
:10488800DBEC24F088EC24F01200A3940001A7517B
:10489800D8A40AD0BEC081F0BFC082F0C0C099F0D1
:1048A800010E986F010EA76FA3841200C5EC24F0C7
:1048B80063EC21F0F8EC24F02CEC23F0E5EC24F088
:1048C800C1EC22F095EC24F001EC25F01200000177
:1048D800C06F8A980001C0390F0B10091AEC25F037
:1048E8000001C0510F0B1AEC25F08A881200000154
:1048F800BE6F0001BEA302D0924B932BBEB7AB2B69
:10490800BEA912004F2A1200000E24EC24F0010E5A
:1049180024EC24F0020E24EC24F0030E24EC24F002
:104928001200A00E7D6E010EC26E080EC16E8E0EB4
:10493800C06E000EC36E000EC46E12000001C06F80
:104948000001C051A60FC06F8A98C0511AEC25F01B
:104958008A8812000001C06F0001C051B009C06F01
:104968008A98C0511AEC25F08A8812000001C06F9D
:104978008A980001C0510008AF0F1AEC25F08A8808
:104988001200800E9B6E700ED36E100ED26ED2AED9
:10499800FED7900EB56E12000001BE6FBEC0A9FF13
:1049A800A69CA69EA68000F000F0A8501200000168
:1049B800BE51BF11D8B41200BEC0F2F0BFC0F3F0B0
:1049C80012007A0EBA6E9B0EBB6E000EBC6E9E92E3
:1049D8005CEC25F012000001BE6FC69EBEC0C9FF88
:1049E800C7A0FED7C9501200000EC76E210EC66EB2
:1049F800000EC86EC688C79C1200A09C9C0E986EBC
:104A08009A8A9A929A96A19CA09C1200330E000151
:104A1800BF6F7A0EC06F45EC23F012000001BF6F24
:104A28008A8A0001BF51EFEC24F012000001BF6F29
:104A38008A9A0001BF51EFEC24F012000D0E2BEC06
:104A480022F00A0E2BEC22F012009E903D50CF6E01
:104A58003CC0CEFF1200BCCFBEF00001BE51120018
:104A68000001BE6FBEC0F4F012000001BE6FBEC0F0
:104A7800A6F012000001BE6FBEC0FAF012005B760D
:074A88000103010203030119
:104A9000000E0001B36F1200010E0001A56F12009D
:104AA0000001F45112000001A5511200010E526ED6
:104AB00012000001B3811200BA841200CD801200EE
:054AC000A19C120002A0
:1076520000187AD2799E795B790000000000000060
:10766200000000005F0000000000000300030000B3
:1076720000643C26643C2624002649497F4949325D
:1076820000422512082452210020504E552258282B
:1076920000000000030000000000001C2241000066
:1076A2000000000041221C00000015150E0E1515E9
:1076B200000008083E0808000000000050300000EA
:1076C2000000080808080800000000004000000050
:1076D200004020100804020100003E4141413E00EA
:1076E200000000417F4000000000426151496E00ED
:1076F200000022414949360000001814127F100090
:10770200000027494949710000003C4A494870007D
:1077120000004321110D030000003649494936009B
:107722000000060949291E000000000012000000A6
:107732000000000052300000000000081414220073
:10774200000014141414141400000022141408006D
:107752000000020159050200003E415D554D512EC7
:1077620000407C4A094A7C4000417F4949494936E8
:10777200001C22414141412200417F414141221CE2
:1077820000417F49495D416300417F49091D010371
:10779200001C224149493A0800417F0808087F41FC
:1077A200000041417F41410000304041413F010121
:1077B20000417F080C12614100417F41404040601E
:1077C20000417F420C427F4100417F420C117F0108
:1077D200001C22414141221C00417F49090909063E
:1077E200000C12212161524C00417F09091969469E
:1077F2000066494949494933000301417F41010378
:1078020000013F4140413F0100010F3140310F0172
:1078120000011F6114611F010041413608364141D8
:107822000001034478440301004361514945436127
:107832000000007F414100000001020408102040C6
:1078420000000041417F0000000004020101020427
:1078520000004040404040400000010200000000A3
:107862000000344A4A4A3C400000413F4848483000
:1078720000003C42424224000000304848493F4058
:1078820000003C4A4A4A2C00000000487E49090098
:107892000000264949493F0100417F48044478409D
:1078A200000000447D40000000000040443D000014
:1078B20000417F1018244242000040417F404000B6
:1078C20000427E027C027E4000427E4402427C40B4
:1078D20000003C4242423C000000417F4909090647
:1078E2000000060909497F410000427E4402020469
:1078F2000000644A4A4A36000000043F4444200023
:107902000000023E4040227E40020E3240320E0211
:1079120000021E6218621E020042621408146242D1
:10792200000143453805030100004662524A46629F
:107932000000000836410000000000007F00000047
:107942000000000041360800000018080810101856
:1079520000AA55AA55AA55AA5509024300020100D8
:10796200C0320904000001020201000524001001D6
:107972000424020205240600010524010001070572
:10798200810308000209040100020A000000070541
:107992000202400000070582024000003403430057
:1079A200440043002000520053002D0032003300F7
:1079B2003200200045006D0075006C00610074000B
:1079C20069006F006E002000440065006D006F00CA
:1079D20034034D006900630072006F0063006800A9
:1079E20069007000200054006500630068006E00AA
:1079F2006F006C006F0067007900200049006E0084
:107A020063002E001201000202000008D8040A00DE
:107A120000010102000104030904737973207365F4
:107A2200742070696E646967204750494F31302075
:107A3200300D0A00737973207365742070696E6467
:107A42006967204750494F313120300D0A00737960
:107A520073207365742070696E64696720475049AA
:107A62004F313020310D0A00737973207365742011
:107A720070696E646967204750494F313120310D7A
:107A82000A0073797320736C65657020393939394E
:107A920039393939390028554E434E46292020209C
:107AA2002028434E462920004D6163204572726FA3
:107AB20072204F6363757265640020202853322957
:107AC20020202020202020202020002020202052A2
:107AD20065636569766564202020200020202020CF
:107AE2002020202020285333292020200020202855
:107AF20053322920202028533329202020002020FF
:107B02004C617374204D657373616765202000209A
:107B12005669657720446F776E6C696E6B20200022
:107B2200202049737375652055706C696E6B202037
:107B320000202853312920202020202028533229B8
:107B42002000204A6F696E696E67204D6574686F08
:107B520064200053657276657220526573706F6E91
:107B6200736520005478204576656E742054696DE3
:107B7200696E672000506572696F64696320557091
:107B82006C696E6B2000204C6F526157414E205041
:107B920061636B657420003C2D20414250202020FF
:107BA2004F544141202D3E00526552756E20507750
:107BB200725473743C53323E00497373756520509E
:107BC20065726F6469632054580044617461205483
:107BD20072616E736D697474656400456E7465726A
:107BE20020536C656570204D6F64650055706C693B
:107BF2006E6B2050636B7420547970650053656C12
:107C020065637420446174612052617465004D6F34
:107C120062696C65204D6F7465202D417070004E55
:107C220061766967617465202053656C65637400D1
:107C32004D656E75204861732054696D656F75746A
:107C420000446F776E6C696E6B20446973706C616F
:107C5200790020202020446973706C6179202020F3
:107C62002000202053656E736F722044617461207E
:107C72002000284E4156292020202028434E472903
:107C82002000284E415629202020202853454C29E7
:107C92002000284E4156292020202028534C5029CC
:107CA20020006D61632073657420616472206F66C9
:107CB20066004E6F2046726565204368616E6E6590
:107CC2006C004275696C6420446174652F54696D5F
:107CD200650020202020456E61626C6564202020B2
:107CE200002020202044697361626C6564202000BA
:107CF2006D61632073657420616472206F6E002071
:107D020020204C6F52612044656D6F202000205668
:107D120020312E302E304C20436F6465004D696354
:107D2200726F63686970204D6F7465006D616320C6
:107D3200747820756E636E6620006D6163206A6FD1
:107D4200696E206F74616100696E76616C69645F4F
:107D5200706172616D006B6579735F6E6F745F69DC
:107D62006E6974005468726F7520506F72742320AC
:107D7200004C3A20202020202020543A20006D611F
:107D820063207365742064722030006D6163207318
:107D920065742064722031006D6163207365742004
:107DA20064722032006D61632073657420647220F6
:107DB20033006D6163207365742064722034006D3A
:107DC2006163207365742064722035006D616320E5
:107DD2007365742064722036006D6163207365746C
:107DE2002064722037006D6163206A6F696E2061C2
:107DF200627000427574746F6E20546573743A0039
:107E0200427574746F6E3120504153530042757441
:107E1200746F6E3220504153530050726573732059
:107E2200427574746F6E005553422048616E646CE3
:107E32006572004F6E20506F727420233A200054F6
:107E42007820506F727420233A200053656E74209C
:107E5200446174613A200044617461205261746526
:107E62003A20006D616320747820636E6620004FB3
:107E72006374203331203230313800427574746FAC
:107E82006E204641494C004F544141204A6F696E71
:107E920020006E6F5F667265655F6368005375638D
:107EA2006365737366756C006D616320676574202A
:107EB20064720056616C6964204B65797300436F8C
:107EC2006D6D20546573743A00527820506F72744D
:107ED200232000414250204A6F696E20004D4F54CA
:107EE20045204D6F6465004F544141204A6F696ED1
:107EF200006D61632072657365740073797320721B
:107F020065736574004C454420546573743A0043AC
:107F12004443204D6F6465005265717569726564F2
:107F2200006163636570746564006D6163207361F1
:107F32007665005374617274696E67004D6F5465A3
:107F42002076202E0031313A30313A353300524614
:107F520020546573743A004144432054657374009D
:107F6200436F6D6D616E640054656D7020203D003D
:107F72004C69676874203D0054656D70203A004C6E
:107F8200696768743A0045766572793A0044656EAD
:107F92006965640064656E696564006E6F5F667230
:107FA20065006D61635F6572006D61635F72780089
:107FB2006D61635F747800524E323400524E323932
:107FC200004D696E730020302000203120002032E5
:107FD20020002033200020342000203520002031D2
:107FE20030002033300020363000203135004F463B
:0E7FF2004600414452006F6B0043007A0000CD
:020000040020DA
:08000000FFFFFFFFFFFFFFFF00
:020000040030CA
:0E00000021081F36FFD181FF0FC00FE00F4017
:00000001FF
