:0400000072EF00F0AB
:100008005E82FACF20F0FBCF21F0E9CF22F0EACFD1
:1000180023F0E1CF24F0E2CF25F0D9CF26F0DACFD4
:1000280027F0F3CF28F0F4CF29F0F6CF2AF0F7CF56
:100038002BF0F8CF2CF0F5CF2DF05EC02EF05FC07E
:100048002FF060C030F061C031F09DB09EA004D0A8
:10005800A3EC2BF0D9EC2BF0A0B2A1A203D0E2ECD8
:100068002AF016D09DBA9EAA05D0C9EC2BF0E2EC76
:1000780029F00ED09DB89EA803D0CAEC29F008D06C
:10008800A0BCA1AC03D0E2EC2BF002D0C9EC13F079
:1000980031C061F030C060F02FC05FF02EC05EF05C
:1000A8002DC0F5FF2CC0F8FF2BC0F7FF2AC0F6FFC4
:1000B80029C0F4FF28C0F3FF27C0DAFF26C0D9FF04
:1000C80025C0E2FF24C0E1FF23C0EAFF22C0E9FF08
:1000D80021C0FBFF20C0FAFF5E9211009BEF21F0C8
:1000E8000001B56F000E0001B06FAE51D8B4CAEF71
:1000F80007F0FA51D8B4CAEF07F0FD51EE5DD8A069
:10010800C4D052EC21F0000E0101596F000E586F57
:10011800000E0001DB6F000EDA6F00F036EC24F001
:10012800000E0001B16F33EC27F06EC072F06FC0A3
:1001380073F0F7EC23F072C058F173C059F19DECDD
:100148002BF060C072F061C073F0060E0001746F8E
:10015800010E756F1BEC25F09DEC2BF060C072F062
:1001680061C073F0040E0001746F50EC26F00001BA
:10017800B16F2EEC28F063C072F064C073F0F7EC36
:1001880023F072C0DAF073C0DBF00001DA51B0EC92
:1001980017F00001AF6FAF51DA6FDB6BCDEC2BF0CE
:1001A800050F0001666FDA51AEEC1EF0000E00017B
:1001B800EE6FFFEC2AF0370E0001726F7C0E736F42
:1001C800000E746F000E756F1BEC25F0520E0001C7
:1001D800726F7E0E736F000E746F010E756F1BECDD
:1001E80025F0AC0E0001726F7D0E736F000E746FF8
:1001F800020E756F1BEC25F09DEC2BF060C072F0C1
:1002080061C073F0030E0001746F020E756F1BEC72
:1002180025F00B0E0001776F020E786FDA5166EC4D
:1002280020F0A9EC2BF00001F06FF051D8A402D017
:10023800050E05D0DF0EF06503D0F051CE0FF06F3C
:100248000A0E776F010E786FF051E3EC21F0000E83
:100258000001666FF051AEEC1EF0200E0101BD6F7B
:1002680000F0330E0001616F7D0E626FBA0E636F8E
:10027800010E646F0C0E656F37EC1DF0070E000160
:10028800EF6F080EF26FCAEF07F0FB51D8B407D032
:10029800EE2B0F0EF26F010EAC6FCAEF07F0000ED7
:1002A800EE6FCAEF07F0FFD70001B551D8A403D00D
:1002B800AC51D8B41200FFEC2AF0270E0001726F7F
:1002C8007B0E736F000E746F000E756F1BEC25F0BC
:1002D8008D0E0001726F7B0E736F000E746F010E2E
:1002E800756F1BEC25F0990E0001726F7C0E736F11
:1002F800000E746F030E756F1BEC25F0060E0001DF
:10030800F26F1200B551D8B427D0FFEC2AF0160EC0
:100318000001726F7B0E736F000E746F000E756FA5
:100328001BEC25F0050E0001726F7B0E736F000E3B
:10033800746F010E756F1BEC25F0990E0001726F3A
:100348007C0E736F000E746F030E756F1BEC25F037
:100358000A0E0001F26F1200AC51D8B41200000E60
:10036800EE6FFFEC2AF0E20E0001726F7B0E736FE6
:10037800000E746F000E756F1BEC25F09F0E0001C8
:10038800726F7D0E736F000E746F010E756F1BEC2C
:1003980025F0AF0E0001726F7A0E736F000E746F46
:1003A800030E756F1BEC25F052EC21F0A9EC2BF035
:1003B8000001F06FF051D8A402D0050E05D0DF0E71
:1003C800F06503D0F051CE0FF06F0C0E776F010E71
:1003D800786FF051E3EC21F0000E0001666FF051E8
:1003E800AEEC1EF0200E0101BD6F000E596F000E1D
:1003F800586F000E0001DB6F000EDA6F00F036EC6C
:1004080024F0010E0001616FF40E606F50EC29F0CA
:10041800000E0001B26F33EC27F06EC072F06FC0AF
:1004280073F0F7EC23F072C058F173C059F133EC54
:1004380027F06EC072F06FC073F0040E0001746F85
:1004480050EC26F00001B26F00F000F02EEC28F01E
:1004580063C072F064C073F0F7EC23F072C0DAF096
:1004680073C0DBF00001DA51B0EC17F00001AF6F98
:10047800AF51DA6FDB6BCDEC2BF0050F0001666F27
:10048800DA51AEEC1EF000F0070E0001F26F120018
:10049800B551D8B40CD0330E616F7D0E626FBA0EB1
:1004A800636F010E646F0C0E656F37EC1DF0000171
:1004B800AC51D8B40CD0820E616F7E0E626FBA0E4A
:1004C800636F010E646F0C0E656F37EC1DF0000151
:1004D800B551D8A403D0AC51D8B41200FFEC2AF01F
:1004E8006A0E0001726F7E0E736F000E746F000E3D
:1004F800756F1BEC25F05E0E0001726F7E0E736F38
:10050800000E746F010E756F1BEC25F00C0E0001C8
:10051800776F010E786FF051E3EC21F0AC0E00011B
:10052800726F7D0E736F000E746F020E756F1BEC89
:1005380025F09DEC2BF060C072F061C073F0030EE3
:100548000001746F020E756F1BEC25F00B0E000195
:10055800776F020E786FDA5166EC20F0899C080EEE
:100568000001F26F1200AD51D8B403D15A0E606F7A
:10057800010E616FF80E626F7F0E636F5AEC27F001
:10058800000160516111D8A403D0898C080EF26F64
:100598005A0E606F010E616FB00E626F7F0E636F4F
:1005A800000E656F060E646F6DEC22F0000160515D
:1005B8006111D8A478D0070EB46FB451010D5A0E4A
:1005C800F324D96E010EF420DA6EDF500101ED6FCD
:1005D8000001B42BB451010D5A0EF324D96E010E4B
:1005E800F420DA6EDF500101EE6F0001B42B200E0B
:1005F8000101EE19D8B415D00001B451010D5A0EFD
:10060800F324D96E010EF420DA6EDF500101EF6F8A
:100618000001B42B200E0101EF19D8B402D000015B
:10062800B42B000E0001B36F3F0EB36501D023D089
:10063800B451010D5A0EF324D96E010EF420DA6E6E
:10064800B351010D9A0EF324E16E010EF420E26E0F
:10065800DFCFE7FFB351010D9A0EF324D96E010ED7
:10066800F420DA6EDF50D8B402D0B42B02D0400E9A
:10067800B36FB32BD9D7898E899C5A0E726F7B0EB4
:10068800736F000E746F020E756F1BEC25F0D20E9F
:100698000001726F7A0E736F000E746F030E756F20
:1006A8001BEC25F05DD05A0E0001606F010E616FE2
:1006B800B70E626F7F0E636F000E656F060E646F74
:1006C8006DEC22F0000160516111D8A40CD0899C16
:1006D800C00E726F7B0E736F000E746F030E756F12
:1006E8001BEC25F03DD05A0E0001606F010E616FC2
:1006F800A90E626F7F0E636F000E656F060E646F42
:100708006DEC22F0000160516111D8A40BD09C0E51
:10071800726F7A0E736F000E746F030E756F1BEC99
:1007280025F01ED05A0E0001606F010E616FA20EF7
:10073800626F7F0E636F000E656F060E646F6DEC5F
:1007480022F0000160516111D8A40AD0C90E726F5D
:100758007C0E736F000E746F030E756F1BEC25F023
:10076800FA0E0001AF6F580EE82EFED7AF2FFCD758
:1007780000F00001B551D8A403D0AC51D8B4120090
:10078800FFEC2AF0270E0001726F7B0E736F000ECC
:10079800746F000E756F1BEC25F08D0E0001726FE3
:1007A8007B0E736F000E746F010E756F1BEC25F0D6
:1007B800990E0001726F7C0E736F000E746F030E3A
:1007C800756F1BEC25F0060E0001F26F1200B55193
:1007D800D8B427D0FFEC2AF0790E0001726F7C0E96
:1007E800736F000E746F000E756F1BEC25F0690EA9
:1007F8000001726F7C0E736F000E746F010E756FBF
:100808001BEC25F0990E0001726F7C0E736F000EC1
:10081800746F030E756F1BEC25F0010E0001F26F6B
:100828001200AC51D8B41200FFEC2AF0899E480E91
:100838000001726F7C0E736F000E746F000E756F7F
:100848001BEC25F0DA0E0001726F7E0E736F000E3E
:10085800746F010E756F1BEC25F0ED0E0001726FC1
:10086800010E736F090E746F010E756F1BEC25F086
:100878006F0E0001726F7E0E736F000E746F020EA2
:10088800756F1BEC25F09A0E0001726F010E736FE5
:10089800060E746F020E756F1BEC25F0A40E000196
:1008A800726F010E736F000E746F030E756F1BEC81
:1008B80025F00B0E0001F26F1200B551D8A403D039
:1008C800AC51D8B41200FFEC2AF0160E0001726F7A
:1008D8007B0E736F000E746F000E756F1BEC25F0A6
:1008E800050E0001726F7B0E736F000E746F010EA0
:1008F800756F1BEC25F0990E0001726F7C0E736FFB
:10090800000E746F030E756F1BEC25F00A0E0001C4
:10091800F26F1200B551D8B436D0FFEC2AF0260E8B
:100928000001726F7C0E736F000E746F000E756F8E
:100938001BEC25F00001FB51D8B40BD0D90E726F17
:100948007C0E736F000E746F020E756F1BEC25F032
:100958000BD0E80E0001726F7C0E736F000E746F7F
:10096800020E756F1BEC25F0890E0001726F7C0E6C
:10097800736F000E746F030E756F1BEC25F00C0E71
:100988000001F26F1200AC51D8B41200FFEC2AF04B
:10099800790E0001726F7C0E736F000E746F000E7B
:1009A800756F1BEC25F0860E0001726F7F0E736F5A
:1009B800000E746F010E756F1BEC25F07F0E0001A1
:1009C800726F7F0E736F000E746F020E756F1BECE3
:1009D80025F0FB0E0001726F7F0E736F0A0E746FA5
:1009E800020E756F1BEC25F036EC24F0020E0001A8
:1009F800F26F1200B551D8B49BD0FFEC2AF07C0EF0
:100A08000001726F7B0E736F000E746F000E756FAE
:100A18001BEC25F06B0E0001726F7B0E736F000EDE
:100A2800746F010E756F1BEC25F08D0E0001726F4F
:100A38007F0E736F000E746F020E756F1BEC25F03E
:100A4800C30E0001726F7F0E736F0C0E746F020E6F
:100A5800756F1BEC25F048D0050E0001726F7E0EF5
:100A6800736F070E746F020E756F1BEC25F051D073
:100A7800E10E0001726F7F0E736F070E746F020E26
:100A8800756F1BEC25F045D0ED0E0001726F7F0EDF
:100A9800736F070E746F020E756F1BEC25F039D05B
:100AA800E50E0001726F7F0E736F070E746F020EF2
:100AB800756F1BEC25F02DD0E90E0001726F7F0ECB
:100AC800736F070E746F020E756F1BEC25F021D043
:100AD800F00E0001726F7F0E736F070E746F020EB7
:100AE800756F1BEC25F015D00001FE51000AD8B433
:100AF800B3D7010AD8B4BCD7030AD8B4C5D7010AFA
:100B0800D8B4CED7070AD8B4D7D7010AD8B4E0D713
:100B1800A3D7890E0001726F7C0E736F000E746F7D
:100B2800030E756F1BEC25F00D0E0001F26F12001D
:100B3800AC51D8B41200FB51D8B40DD0000EFB6FE5
:100B4800E80E726F7C0E736F000E746F020E756F75
:100B58001BEC25F01200010E0001FB6FD90E726F1D
:100B68007C0E736F000E746F020E756F1BEC25F010
:100B780012000001B551D8A403D0AC51D8B412006A
:100B8800FFEC2AF0790E0001726F7C0E736F000E75
:100B9800746F000E756F1BEC25F0690E0001726F03
:100BA8007C0E736F000E746F010E756F1BEC25F0D1
:100BB800990E0001726F7C0E736F000E746F030E36
:100BC800756F1BEC25F0010E0001F26F1200B55194
:100BD800D8B492D0FFEC2AF0F30E0001726F7B0EAE
:100BE800736F000E746F000E756F1BEC25F0760E98
:100BF8000001726F7E0E736F000E746F020E756FB8
:100C08001BEC25F0890E0001726F7C0E736F000ECD
:100C1800746F030E756F1BEC25F0030E0001F26F65
:100C280053D0C80E726F7F0E736F0A0E746F020E68
:100C3800756F1BEC25F060D0CC0E0001726F7F0E33
:100C4800736F0A0E746F020E756F1BEC25F054D08B
:100C5800D00E0001726F7F0E736F0A0E746F020E52
:100C6800756F1BEC25F048D0D40E0001726F7F0E13
:100C7800736F0A0E746F020E756F1BEC25F03CD073
:100C8800D80E0001726F7F0E736F0A0E746F020E1A
:100C9800756F1BEC25F030D0DC0E0001726F7F0EF3
:100CA800736F0A0E746F020E756F1BEC25F024D05B
:100CB800F40E0001726F7F0E736F0A0E746F020ECE
:100CC800756F1BEC25F018D00001FC51000AD8B450
:100CD800A8D7010AD8B4B0D7030AD8B4B9D7010A3B
:100CE800D8B4C2D7070AD8B4CBD7010AD8B4D4D756
:100CF800030AD8B4DDD795D70001AC51D8B4120097
:100D0800050EFE6102D0FE2B54D0000EFE6F51D0AE
:100D1800090EFD6FDC0E726F7F0E736F070E746F16
:100D2800020E756F1BEC25F01200120E0001FD6F0C
:100D3800E00E726F7F0E736F070E746F020E756F81
:100D48001BEC25F012001B0E0001FD6FEC0E726FFC
:100D58007F0E736F070E746F020E756F1BEC25F014
:100D68001200360E0001FD6FE40E726F7F0E736F76
:100D7800070E746F020E756F1BEC25F012006C0ED7
:100D88000001FD6FE80E726F7F0E736F070E746FB0
:100D9800020E756F1BEC25F01200FD69F00E726FE4
:100DA8007F0E736F070E746F020E756F1BEC25F0C4
:100DB80012000001FE51000AD8B4AAD7010AD8B41B
:100DC800B4D7030AD8B4BFD7010AD8B4CAD7070A18
:100DD800D8B4D5D7010AD8B4E0D79AD7B551D8B482
:100DE8001ED0FC5132EC11F0FFEC2AF0D10E0001BC
:100DF800726F7B0E736F000E746F000E756F1BECB5
:100E080025F0A90E0001726F7C0E736F000E746FCF
:100E1800030E756F1BEC25F00F0E0001F26FAC513D
:100E2800D8B41200060EFC610AD0F905D8A405D082
:100E3800030EFC6502D0060E03D0FC2B56D0000E24
:100E4800FC6F53D0C80E726F7F0E736F0A0E746FEB
:100E5800020E756F1BEC25F01200CC0E0001726FAC
:100E68007F0E736F0A0E746F020E756F1BEC25F000
:100E78001200D00E0001726F7F0E736F0A0E746F2E
:100E8800020E756F1BEC25F01200D40E0001726F74
:100E98007F0E736F0A0E746F020E756F1BEC25F0D0
:100EA8001200D80E0001726F7F0E736F0A0E746FF6
:100EB800020E756F1BEC25F01200DC0E0001726F3C
:100EC8007F0E736F0A0E746F020E756F1BEC25F0A0
:100ED8001200F40E0001726F7F0E736F0A0E746FAA
:100EE800020E756F1BEC25F012000001FC51000A80
:100EF800D8B4A8D7010AD8B4B0D7030AD8B4B9D798
:100F0800010AD8B4C2D7070AD8B4CBD7010AD8B4D3
:100F1800D4D7030AD8B4DDD795D7AC51D8B40CD000
:100F2800ECEC19F00009D8B404D0010E0001B56F3B
:100F380003D0090E0001EF6FB551D8B41200FFECD1
:100F48002AF0270E0001726F7B0E736F000E746F0C
:100F5800000E756F1BEC25F08D0E0001726F7B0E75
:100F6800736F000E746F010E756F1BEC25F0990EF0
:100F78000001726F7C0E736F000E746F030E756F35
:100F88001BEC25F0060E0001F26F1200F251000A68
:100F9800D8B458EF01F0010AD8B4BCD4030AD8B4C5
:100FA800E8D5010AD8B41AD7050AD8B486EF01F0F3
:100FB800010AD8B44CEF02F00F0AD8B4B7EF02F028
:100FC800020AD8B404D4010AD8B477D4070AD8B42A
:100FD80011D5010AD8B4FBD5020AD8B49ED757EF69
:100FE80001F000017C6F000E00017B6F2ED2FFD74D
:100FF8000C0E0001616F7F0E626FB2EC29F0010EDA
:10100800D3D17851D8B402D00A0EF36F7C51D8B43A
:1010180040D25A0E606F010E616FBE0E626F7F0E76
:10102800636F000E656F040E646F6DEC22F00001B3
:1010380060516111D8A427D0010EF96FFFEC2AF096
:10104800490E0001726F7B0E736F000E746F000EF5
:10105800756F1BEC25F09E0E0001726F7B0E736F8F
:10106800000E746F020E756F1BEC25F0F40E000174
:10107800726F7A0E736F000E746F030E756F1BEC30
:1010880025F0020E91D10C0E616F7F0E626FB2ECEB
:1010980029F0000E0001616F190E606F50EC29F005
:1010A800000E82D17751D8B41AD0C10E726F7A0E61
:1010B800736F000E746F030E756F1BEC25F0010E35
:1010C8000001616FF40E606F50EC29F0210E0001F1
:1010D800616F7E0E626FB2EC29F0030E65D1785114
:1010E800D8B4D7D1E30E726F7A0E736F000E746F97
:1010F800030E756F1BEC25F0010E0001616FF40EF5
:10110800606F50EC29F0410E0001616F7D0E626F37
:10111800B2EC29F0050E48D17C51D8B4BAD15A0E98
:10112800606F010E616FF80E626F7F0E636F5AEC8D
:1011380027F0000160516111D8A402D0040E29D013
:101148005A0E606F010E616F5D0E626F7D0E636FE8
:101158005AEC27F0000160516111D8A41CD0FFECB3
:101168002AF0C50E0001726F7E0E736F000E746F49
:10117800000E756F1BEC25F03A0E0001726F7F0EA2
:10118800736F000E746F010E756F1BEC25F0090E5E
:101198000BD1F36F7ED1210E616F7E0E626FB2ECC0
:1011A80029F09BD77C51D8B474D15A0E606F010EC8
:1011B800616F430E626F7F0E636F5AEC27F0000178
:1011C80060516111D8A41AD0FFEC2AF0E40E000196
:1011D800726F7E0E736F000E746F000E756F1BECCE
:1011E80025F0AF0E0001726F7E0E736F000E746FE4
:1011F800010E756F1BEC25F0070ED6D0020E616F3D
:101208007F0E626FB2EC29F0FAD67C51D8B441D186
:101218005A0E606F010E616FF80E626F7F0E636F7A
:101228005AEC27F0000160516111D8A402D0060ED3
:10123800B0D75A0E606F010E616F5D0E626F7D0E42
:10124800636F5AEC27F0000160516111D8A419D0DE
:10125800FFEC2AF0C50E0001726F7E0E736F000E50
:10126800746F000E756F1BEC25F03A0E0001726F5B
:101278007F0E736F000E746F010E756F1BEC25F0F7
:1012880086D75A0E606F010E616F4F0E626F7D0E2A
:10129800636F5AEC27F0000160516111D8A407D0A0
:1012A800410E616F7D0E626FB2EC29F033D75A0E92
:1012B800606F010E616FA40E626F7E0E636F5AEC51
:1012C80027F064D07C51D8B4E4D05A0E606F010E78
:1012D800616F430E626F7F0E636F5AEC27F0000157
:1012E80060516111D8A419D0FFEC2AF0990E0001C1
:1012F800726F7E0E736F000E746F000E756F1BECAD
:1013080025F0AF0E0001726F7E0E736F000E746FC2
:10131800010E756F1BEC25F06FD75A0E606F010E2A
:10132800616F9B0E626F7F0E636F5AEC27F00001AE
:1013380060516111D8A420D0FFEC2AF0F80E00010A
:10134800726F7E0E736F010E746F000E756F1BEC5B
:1013580025F0940E0001726F7F0E736F020E746F8A
:10136800010E756F1BEC25F0410E0001616F7D0EBB
:10137800626FB2EC29F0CED65A0E606F010E616F23
:10138800A40E626F7E0E636F5AEC27F00001605165
:101398006111D8A47ED0000EFCD6BA0E616F7E0E05
:1013A800626FB2EC29F01AD00001F3D67C51D8B4A0
:1013B80070D05A0E606F010E616F4F0E626F7D0E16
:1013C800636F5AEC27F0000160516111D8A408D06E
:1013D800BA0E616F7E0E626FB2EC29F0080EE4D788
:1013E80001015A51D00F00017A6F7AC0FCF0010E4A
:1013F8007B6F4FD07851D8B44CD00A0ECAD6000EA5
:10140800606F000E8CEC28F081B202D081A0FCD76E
:10141800FA0E0001796F580EE82EFED7792FFCD707
:1014280000F0FA0E0001796F580EE82EFED7792FDA
:10143800FCD700F0FA0E0001796F580EE82EFED79F
:10144800792FFCD700F0FF0024D00001F351000AE7
:10145800D8B4CED5010AD8B4D4D5030AD8B422D684
:10146800010AD8B459D6070AD8B49CD6010AD8B408
:10147800CCD6030AD8B426D7010AD8B48ED70F0A17
:10148800D8B494D7010AD8B4B5D7030AD8B4B7D713
:10149800AED500017B51120000017751800B806F9F
:1014A80077517725866F76BF86818651D8B40DD05F
:1014B8008629D8A408D0000E746F000E756F000E30
:1014C800766F000E776F768F08D0000E746F000E5F
:1014D800756F000E766F000E776F7B51800B801B47
:1014E8007B517B25856F7ABF85818551D8B40DD016
:1014F8008529D8A408D0000E786F000E796F000EE9
:101508007A6F000E7B6F7A8F08D0000E786F000E0E
:10151800796F000E7A6F000E7B6F8551D8B403D0B7
:101528008651D8A409D0000E746F000E756F000E96
:10153800766F000E776F12007A517403F3CF8BF039
:10154800F4CF8CF08B51816F826B836B846B8C51E1
:10155800876F886B896B8A6B79517503F3CF8BF032
:10156800F4CF8CF08B518127000E822383238423B0
:101578008C518727000E882389238A237851760384
:10158800F3CF8BF0F4CF8CF08B518127000E8223A0
:10159800832384238C518727000E882389238A2359
:1015A80083C084F082C083F081C082F0816B78515F
:1015B8007503F3CF8BF0F4CF8CF08B5181278C51CE
:1015C8008223000E8323000E842379517403F3CF02
:1015D8008BF0F4CF8CF08B5181278C518223000E35
:1015E8008323000E842383C084F082C083F081C0EB
:1015F80082F0816B78517403F3CF8BF0F4CF8CF0C9
:101608008B5181278C518223000E8323000E842363
:101618007A517503F3CF8BF0F4CF8CF08B51872779
:101628008C518823000E8923000E8A237951760372
:10163800F3CF8BF0F4CF8CF08B5187278C51882314
:10164800000E8923000E8A237A517603F3CF8BF09C
:10165800F4CF8CF08B517C6F8C517D6F7E6B7F6BE0
:101668007EC07FF07DC07EF07CC07DF07C6B7C51BD
:1016780087277D5188237E5189237F518A2381C002
:101688007CF082C07DF083C07EF084C07FF0190EAC
:1016980005D0D8907F337E337D337C33E82EF9D75D
:1016A8007C5187277D5188237E5189237F518A2346
:1016B80083C084F082C083F081C082F0816B855141
:1016C80086C07CF07D6B7C27000E7D23820E7C25F6
:1016D8008B6FFF0E7D218C6F0FD0D890873788379E
:1016E80089378A3784BF8781D89081378237833793
:1016F80084378B07D8A08C0789AFEFD7000E856F8A
:1017080084AF16D0FF0E81157C6FFF0E82157D6F9A
:10171800FF0E83157E6F7F0E84157F6F7C517D11C0
:101728007E117F11D8A402D087A102D0010E856F47
:101738008551D8B41FD0010E8727000E882389232E
:101748008A238AA117D087C07CF088C07DF089C021
:101758007EF08AC07FF07F357F337E337D337C33E4
:101768007CC087F07DC088F07EC089F07FC08AF099
:101778008B4B8C2B8CBF0DD08C5103E18B29D8A0BF
:1017880008D0000E876F000E886F800E896F7F0E5D
:1017980020D08CBF05D08C510EE18B05D8B00BD072
:1017A800000E876F000E886F000E896F000E8A6F1B
:1017B800000E806F0FD08BC086F0FF0E8717FF0ECC
:1017C80088177F0E8917000E8A1786B1898FD890DF
:1017D80086318A6F80518A1387C074F088C075F08B
:1017E80089C076F08AC077F0120000016351800B3F
:1017F800706F63516325726F62BF72817251D8B482
:101808000DD07229D8A408D0000E606F000E616F49
:10181800000E626F000E636F628F06D0000E606F5D
:10182800000E616F000E626F000E636F6751800BD0
:10183800716F70517119D8A4708D67516725716FD8
:1018480066BF71817151D8B40DD07129D8A408D060
:10185800000E646F000E656F000E666F000E676FF6
:10186800668F06D0000E646F000E656F000E666FFF
:10187800000E676F7251715DD8B022D070AD02D082
:10188800800E701B72C073F071C072F073C071F07B
:1018980060C073F064C060F073C064F061C073F03E
:1018A80065C061F073C065F062C073F066C062F035
:1018B80073C066F063C073F067C063F073C067F00D
:1018C800000E736F7251686F696B681F691F684BF0
:1018D800692B71516A6F6B6B68516A2769516B2369
:1018E8006BBF2CD06B5104E11A0E6A5DD8A026D0CC
:1018F8006051611162116311D8B402D0010E01D098
:10190800000E736F000E606F000E616F000E626F45
:10191800000E636F71C072F015D073A105D0D89016
:1019280073310109736F02D0D890733360B1738F2C
:1019380063356333623361336033722B7151725D87
:10194800D8A0EBD770BD29D07251D8A409D0000E09
:10195800606F000E616F000E626F000E636F120001
:10196800645160276551612366516223675163237F
:1019780063A183D073A106D0D89073337351010942
:10198800736F02D0D890733360B1738F633563334C
:10199800623361336033722B70D06451605D65517E
:1019A8006159665162596351800A686F6751800AAC
:1019B8006859D8B036D060C068F061C069F062C0BC
:1019C8006AF063C06BF0681F691F6A1F6B1F682B82
:1019D800000E69236A236B23645168256C6F655177
:1019E80069216D6F66516A216E6F67516B216F6F48
:1019F800FF0E6C25606FFF0E6D21616FFF0E6E216B
:101A0800626FFF0E6F21636F800E701B736D7351D1
:101A1800D8A40FD0010E6027000E61236223632330
:101A280008D06451605F6551615B6651625B6751C4
:101A3800635B6051611162116311D8A41CD07351AA
:101A4800D8A419D0000E606F000E616F000E626F8F
:101A5800000E636F1200D8906037613762376337C2
:101A680073BF608173A102D0D88001D0D89073373A
:101A78007251D8A4720762AFEED7000E716F73AFC0
:101A88000AD073C068F07F0E6817D8A402D060A18E
:101A980002D0010E716F7151D8B420D0010E6027A9
:101AA800000E61236223632363A118D060C068F02D
:101AB80061C069F062C06AF063C06BF06B356B336C
:101AC8006A336933683368C060F069C061F06AC01E
:101AD80062F06BC063F07229D8A4722B7229D8B453
:101AE80003D07251D8A40DD0000E606F000E616F44
:101AF800000E626F000E636F7251D8A402D0000E00
:101B0800706F72A102D0628F01D0629FD89072313B
:101B1800636F70BF638F60C060F061C061F062C0C6
:101B280062F063C063F0120000019051800B996F5E
:101B380090519025A46F8FBFA481A451D8B40DD023
:101B4800A429D8A408D0000E8D6F000E8E6F000E49
:101B58008F6F000E906F8F8F06D0000E8D6F000E66
:101B68008E6F000E8F6F000E906F9451800B991B33
:101B780094519425A56F93BFA581A551D8B40DD0D4
:101B8800A529D8A408D0000E916F000E926F000E00
:101B9800936F000E946F938F06D0000E916F000E16
:101BA800926F000E936F000E946F915192119311E2
:101BB8009411D8A415D0000E8D6F000E8E6F000EF4
:101BC8008F6F000E906F800E8F137F0E90138DC055
:101BD8008DF08EC08EF08FC08FF090C090F0120004
:101BE800A451D8A411D0000E8D6F000E8E6F000E78
:101BF8008F6F000E906F8DC08DF08EC08EF08FC0ED
:101C08008FF090C090F01200A551956F966B951FBC
:101C1800961F954B962BA451976F986B95519727C4
:101C2800965198237F0E97259E6F000E98219F6FDF
:101C38008DC09AF08EC09BF08FC09CF090C09DF034
:101C4800000E8D6F000E8E6F000E8F6F000E906F5E
:101C5800000EA06F000EA16F000EA26F000EA36F02
:101C6800000EA56F28D0A551D8B411D0D8909A37B6
:101C78009B379C379D37D8908D378E378F37903765
:101C8800A3BF8D81D890A037A137A237A337915130
:101C98009A5D92519B5993519C5994519D59D8A042
:101CA80009D0A38D91519A5F92519B5B93519C5B94
:101CB80094519D5BA52B190EA565D5D79A519B11FB
:101CC8009C119D11D8B411D0A0810FD0D8908D3718
:101CD8008E378F379037A3BF8D81D890A037A13723
:101CE800A237A3379E07D8A09F078FAFEFD7000E64
:101CF800A56FA3AF16D0FF0EA015956FFF0EA11507
:101D0800966FFF0EA215976F7F0EA315986F9551CA
:101D1800961197119811D8A402D08DA102D0010E66
:101D2800A56FA551D8B41FD0010E8D27000E8E23A4
:101D38008F23902390A117D08DC095F08EC096F078
:101D48008FC097F090C098F09835983397339633B2
:101D5800953395C08DF096C08EF097C08FF098C0DF
:101D680090F09E4B9F2B9FBF10D09F5103E19E295F
:101D7800D8A00BD0000E9F6F9E69000E8D6F000ECD
:101D88008E6F000E8F6F000E906F9FBF05D09F5112
:101D980011E19E05D8B00ED0000E9F6F000E9E6F09
:101DA800000E8D6F000E8E6F000E8F6F000E906FFD
:101DB800000E996F9EC0A4F0A4A102D08F8F01D00D
:101DC8008F9FD890A431906F995190138DC08DF04A
:101DD8008EC08EF08FC08FF090C090F0120004017A
:101DE8003205D8A410D030511F0B0009D8A40BD04D
:101DF8000001C78F030E04013119D8A402D0010EC7
:101E080001D0000E4A6E3251D8A4120030511F0B77
:101E1800020AD8A4120034510F0B0009D8B41200DA
:101E280034510F0B166E030E16601200200E0001BF
:101E3800EC19D8A41200C78F040134BF19D034514B
:101E48000F0B166E1650020D400EF324D96E010EBC
:101E5800F420DA6EDECF1AF0DDCF1BF034510F0B11
:101E6800166E1650010DD00EF324D96E000E18D040
:101E780034510F0B166E1650020DCA0EF324D96E8C
:101E8800000EF420DA6EDECF1AF0DDCF1BF03451ED
:101E98000F0B166E1650010DD30EF324D96E000EDB
:101EA800F420DA6EDF50196E19B002D01A9401D0FE
:101EB8001A8434BF0AD034510F0B166E1650020D17
:101EC800400EF324D96E010E09D034510F0B166E53
:101ED8001650020DCA0EF324D96E000EF420DA6EE5
:101EE8001AC0DEFF1BC0DDFF030E3119D8A42DD0A8
:101EF8001AC0D9FF1BC0DAFFDFAE1AD034BF0AD030
:101F080034510F0B166E1650010DD00EF324D96EF6
:101F1800000E0AD0040134510F0B166E1650010D35
:101F2800D30EF324D96E000EF420DA6E0001DF829E
:101F38001AC0D9FF1BC0DAFF000EDB841AC0D9FF14
:101F48001BC0DAFF000EDB8E1200040E1A1A1AC02C
:101F5800D9FF1BC0DAFFDFAE1BD01AC0D9FF1BC0E8
:101F6800DAFF7F0EDF161AC0D9FF1BC0DAFF000E9A
:101F7800DB8C000E0F6E050E0E6E1AC010F01BC023
:101F880011F0000E136E020E126E7FEC26F006D0D2
:101F98001AC0D9FF1BC0DAFF000EDB8C040E1A1A18
:101FA80019B206D01AC0D9FF1BC0DAFFDFAE30D095
:101FB800040134BF0AD034510F0B166E1650010DB0
:101FC800D00EF324D96E000E0AD0040134510F0B41
:101FD800166E1650010DD30EF324D96E000EF420A0
:101FE800DA6E0001DF921AC0D9FF1BC0DAFF3B0E80
:101FF800DF16000E0F6E050E0E6E1AC010F01BC015
:1020080011F0000E136E020E126E7FEC26F006D051
:102018001AC0D9FF1BC0DAFF3B0EDF16040134518A
:102028000F0B166E1650010D6A0EF324176E0F0E65
:10203800F420186E17C0D9FF18C0DAFFFE0EDF169D
:102048001200000E0001B76F000EB86F000EB96FD6
:10205800000EBB6F030EBA6F80A009D0D0EC2BF036
:102068000009D8A407D0040E0001FF6F03D0000EAA
:10207800AEEC2BF00001F7A108D0C5EC2BF0B1ECC9
:1020880016F00001F751D3EC2AF0E4EC24F000013B
:10209800BA6FBA05D8A405D0000EEF6F010EB86F5D
:1020A80008D0020EBA19D8A404D0000EEF6F010EA2
:1020B800B96FBAEC25F00009D8B402D0010E01D0EE
:1020C800000E0001BB6F020EF219D8A441D0010125
:1020D800575104E1640E565DD8A03AD000F0CD0EF9
:1020E8000001726F7A0E736F060E746F010E756FB2
:1020F8001BEC25F033EC27F06EC072F06FC073F064
:10210800060E0001746F010E756F1BEC25F02EECA6
:1021180028F063C072F064C073F0F7EC23F072C06B
:10212800DAF073C0DBF00001DA51B0EC17F000010F
:10213800B66FB651DA6FDB6B060E776F020E786FEB
:10214800DA5166EC20F0000E0101576F000E566F51
:102158000001EF51D8B471D0090EEF656ED0FB5174
:10216800D8B46BD0010EB76F000EEF6F66D0FFD7F3
:10217800FFEC2AF0EE0E0001726F7E0E736F010EF7
:10218800746F000E756F1BEC25F0550E0001726F11
:102198007F0E736F020E746F010E756F1BEC25F0C6
:1021A800AF0E0001726F7B0E736F000E746F030E1B
:1021B800756F1BEC25F0000E0001F36F020E31D095
:1021C800B8C077F0B9C078F0BB51F5EC07F000095A
:1021D800D8B441D0FFEC2AF0040E0001726F7C0ED7
:1021E800736F000E746F000E756F1BEC25F0150EE3
:1021F8000001726F7C0E736F000E746F020E756FA4
:102208001BEC25F0380E0001726F7B0E736F000E09
:10221800746F030E756F1BEC25F0000E0001F26F52
:10222800030EFF6F18D0B9C0ACF0BBC0ADF0B7C09B
:10223800AEF0B85174EC00F00ED00001FF51010A65
:10224800D8B496D7030AD8B4BBD7010AD8B4EBD709
:10225800070AD8A48CD70001FF5112000001646F4F
:10226800080E00016419D8B46AD0B90E616F7C0EEB
:10227800626FB2EC29F0FA0E0001636F580EE82E77
:10228800FED7632FFCD700F0FA0E0001636F580EDB
:10229800E82EFED7632FFCD700F0FA0E0001636F1B
:1022A800580EE82EFED7632FFCD700F048D0B90EA1
:1022B8000001616F7D0E626FB2EC29F05DD0C60E31
:1022C8000001616F7D0E626FB2EC29F055D0D30E1C
:1022D8000001616F7D0E626FB2EC29F04DD0E00E07
:1022E8000001616F7D0E626FB2EC29F045D0ED0EF2
:1022F8000001616F7D0E626FB2EC29F03DD0FA0EDD
:102308000001616F7D0E626FB2EC29F035D0070EC7
:102318000001616F7E0E626FB2EC29F02DD0140EB1
:102328000001616F7E0E626FB2EC29F025D0F70EC6
:102338000001616F7C0E626FB2EC29F01DD00001C4
:102348006451000AD8B4B3D7010AD8B4B8D7030A7D
:10235800D8B4BDD7010AD8B4C2D7070AD8B4C7D7EA
:10236800010AD8B4CCD7030AD8B4D1D7010AD8B453
:10237800D6D70F0AD8B4DBD7FA0E0001636F580E10
:10238800E82EFED7632FFCD700F0FA0E0001636F2A
:10239800580EE82EFED7632FFCD700F0FA0E000186
:1023A800636F580EE82EFED7632FFCD700F04C0E53
:1023B8000001616F7F0E626FB2EC29F0120000011C
:1023C800686F00016851D8A463AF1AD060C064F088
:1023D80061C065F062C066F063C067F0641F651F86
:1023E800661F671F642B000E65236623672364C07E
:1023F8006AF065C06BF066C06CF067C06DF008D01D
:1024080060C06AF061C06BF062C06CF063C06DF0D0
:102418006051611162116311D8A409D0000E606F78
:10242800000E616F000E626F000E636F1200960E51
:10243800696F06D0692BD8906D336C336B336A3370
:10244800000E6A15646F000E6B15656F000E6C1533
:10245800666FFE0E6D15676F645165116611671121
:10246800D8B40DD0E7D7692B010E6A27000E6B236D
:102478006C236D23D8906D336C336B336A33000E45
:102488006A15646F000E6B15656F000E6C15666F2C
:10249800FF0E6D15676F6451651166116711D8B429
:1024A80007D0E1D76907D8906A376B376C376D3733
:1024B8006CBF03D0020E6961F5D769B108D0FF0E71
:1024C8006A17FF0E6B177F0E6C17FF0E6D17D890EB
:1024D800693369C064F0656B666B676B64C067F0ED
:1024E800666B656B646B64516A1365516B13665157
:1024F8006C1367516D136851D8A463AF01D06D8F09
:102508006AC060F06BC061F06CC062F06DC063F0CF
:102518001200A39432503310D8B410D032C0D9FF6F
:1025280033C0DAFFDFAE04D00001676B672B02D03F
:102538000001676B6751686F696B05D0000E000179
:10254800696F000E686F68516911D8B402D0A3840E
:102558001200030EEB19D8A402D0000EEB6FEB515A
:10256800D8A402D0A3841200020EEB19D8A413D069
:10257800010E606F000E616F000E626F000E636FD8
:10258800020E96EC1DF060C032F061C033F0030E0D
:102598000001EB6F5ED0EB05D8A45BD0400EDD6583
:1025A80003D0400E6B6F02D0DDC06BF06B5100089A
:1025B800DD25DD6F000E01014E6F050E4F6F6BC0FC
:1025C8006AF00001DC51D8B412D026D051C1D9FF2D
:1025D80052C1DAFF4EC1E1FF4FC1E2FFDFCFE7FF93
:1025E80001014E4B4F2B514B522B00016A076A5188
:1025F800D8B415D0EBD751C1D9FF52C1DAFF4EC1BB
:10260800E1FF4FC1E2FFDFCFE7FF01014E4B4F2B48
:10261800514B522B00016A076A51D8A4ECD7DD51FF
:10262800D8A408D0400E6B19D8A402D0020E01D04D
:10263800030EEB6F010E606F000E616F050E626F87
:102648006BC063F0020E96EC1DF060C032F061C002
:1026580033F0A384120020EE01F03650D92637500B
:10266800DA22DF50136E13500001C05D000EC1590D
:10267800D8A0C0C013F01350C05F000EC15B000E9D
:10268800126E11D01250010D380EF324D96E040EBB
:10269800F420DA6EBCC0E1FFBDC0E2FFDFCFE7FF88
:1026A800BC4BBD2B122A1350125CD8A0EBD7C051DB
:1026B800C111D8B432D020EE01F03450D9263550AB
:1026C800DA22080EDF6E20EE02F03450D92635509B
:1026D800DA22380EDE6E040EDD6E36C0D9FF37C042
:1026E800DAFFDFBC0DD034C0D9FF35C0DAFF480EA1
:1026F800DF6E34C0D9FF35C0DAFF000EDB8E120062
:1027080034C0D9FF35C0DAFF080EDF6E34C0D9FFF8
:1027180035C0DAFF000EDB8E120020EE01F03450D7
:10272800D9263550DA22080EDF6E20EE02F034503A
:10273800D9263550DA22300EDE6E040EDD6E34C036
:10274800D9FF35C0DAFF040EDF6E34C0D9FF35C0BB
:10275800DAFF000EDB8EC251C311D8B40ED020EEC2
:10276800C2F001D80AD00500FA6EDE50FD6EDE50C8
:10277800FE6EF850FF6EFA5012000001BF9F4550E0
:10278800D8A41200D5EC1CF012000001EC05D8B456
:1027980060BA06D0000E656E64806488020EEC6F25
:1027A80065B464A403D0659411EC2AF060A202D049
:1027B800A494120065B064A007D08FEC15F0A38430
:1027C800040E0001EC6F659065B864A803D066EC50
:1027D8002AF0659865AC18D064AC0ED0000E0F6E68
:1027E800730E0E6E000E106E000E116E000E136E3C
:1027F800010E126E7FEC26F0659C4650D8A4460662
:102808004650D8B4D5EC1CF065BA64AA02D00DECD9
:1028180028F065B264A20FD07F0E0F6E0E68000E0E
:10282800106E000E116E000E136E010E126E7FEC0C
:1028380026F0000E676E040E0001EC6102D0A4942D
:10284800120064A639D0000E1F6E030E1F6401D05B
:1028580033D065A631D061CF59F05930E832E8322B
:102868000F0B486E659659B407D04850010DD00E2D
:10287800F324D96E000E06D04850010DD30EF32470
:10288800D96E000EF420DA6E0001DF704850D8A42B
:1028980003D0A5EC1BF00ED0000E0F6E720E0E6E5C
:1028A800590E106E000E116E000E136E000E126E91
:1028B8007FEC26F01F2AC9D7A4941200800E0401C9
:1028C8003019D8A41200C00E0001C76F82D0A80E1C
:1028D8000001C46F790EC56F000EC96F120EC86F64
:1028E800120004013251D8A440D03251020DFB0E1F
:1028F800F324F66E750EF420F76E0900F5CFC4F0D8
:102908000A00F5CFC5F0020E0001C425016E000EC5
:10291800C521026E01C0F6FF02C0F7FFF86A070E74
:10292800F76403D00800F55005D0F6CFE9FFF7CFDC
:10293800EAFFEF500001C86F030EC425016E000EB8
:10294800C521026E01C0F6FF02C0F7FFF86A070E44
:10295800F76403D00800F55005D0F6CFE9FFF7CFAC
:10296800EAFFEF500001C96F1200000E0001C76FA7
:102978001200030E0401326124D03251020DF50E0B
:10298800F324F66E750EF420F76E0900F5CFC4F047
:102998000A00F5CFC5F0C4C0F6FFC5C0F7FFF86A56
:1029A800070EF76403D00800F55005D0F6CFE9FF0D
:1029B800F7CFEAFFEF50016E01500001C86FC96BF5
:1029C8001200000E0001C76F1200000E0001C76F51
:1029D800120004013351010AD8B479D7030AD8B4D4
:1029E80080D7010AD8B4C5D7F0D7A394000E676E74
:1029F800000E656E000E6A6E6B0E0001606F0F0EA2
:102A0800616F000E636F000E626F000E656F020E3D
:102A1800646F9AEC29F0160E626E9F0E666E7B0E3E
:102A2800646E000E0001686F0B0E686501D00ED051
:102A38006851040D000EF324D96E040EF420DA6EEA
:102A4800DE6ADE6ADE6ADD6A682BEED7608C000E0D
:102A5800636E6098609C09D06596000EC76F000E83
:102A6800BF6F000EC16F000EC06F65B6F5D7010EBF
:102A7800446E010E436E000E426E000E416E000E53
:102A8800496E000E686F020E686501D02ED068513D
:102A9800020DCA0EF324D96E000EF420DA6E000E71
:102AA800DE6E000EDD6E6851020D400EF324D96E05
:102AB800010EF420DA6E000EDE6E000EDD6E685137
:102AC800010DD30EF324D96E000EF420DA6E000E39
:102AD800DF6E6851010DD00EF324D96E000EF4207C
:102AE800DA6E000EDF6E682BCED7080ECA6F040EA2
:102AF800CB6F160E6A6E040E0401036F300E026F60
:102B0800080E016F040E006F008F000E5A6E000E43
:102B18000001EC6F1200A394000E676E000E656E44
:102B2800000E6A6E6B0E016E0F0E026E000E046EC2
:102B3800000E036E000E066E020E056E28EC2AF0DB
:102B4800160E626E9F0E666E7B0E646E000E096E28
:102B58000B0E096401D00ED00950040D000EF324A9
:102B6800D96E040EF420DA6EDE6ADE6ADE6ADD6A89
:102B7800092AEED7608C000E636E6098609C0AD0BC
:102B88006596000E0001C76F000EBF6F000EC16F83
:102B9800000EC06F65B6F4D7010E446E010E436E89
:102BA800000E426E000E416E000E496E000E096E58
:102BB800020E096401D02ED00950020DCA0EF3246A
:102BC800D96E000EF420DA6E000EDE6E000EDD6E99
:102BD8000950020D400EF324D96E010EF420DA6E6E
:102BE800000EDE6E000EDD6E0950010DD30EF324CB
:102BF800D96E000EF420DA6E000EDF6E0950010D5A
:102C0800D00EF324D96E000EF420DA6E000EDF6EBB
:102C1800092ACED7080E0001CA6F040ECB6F160E14
:102C28006A6E040E0401036F300E026F080E016F06
:102C3800040E006F008F000E5A6E000E0001EC6F3C
:102C48001200B1EC2AF082EC29F0F9EC14F01DEC3A
:102C580029F08A8A000E0001616F320E606F50EC15
:102C680029F08A9A010E0001616FF40E606F50EC32
:102C780029F0F28CF28EB1EC22F0000E0001616FA7
:102C8800140E606F50EC29F08EEC2BF0000E000152
:102C9800616F140E606F50EC29F0000E3AEC2BF0C7
:102CA8000001F56F550EF519D8B408D072EC24F070
:102CB800550E0001606F000E8CEC28F0000E00012C
:102CC800F66F000EB3EC2BF0FFEC2AF0240E000197
:102CD800726F7D0E736F000E746F000E756F1BECB4
:102CE80025F0060E0001726F7D0E736F000E746F73
:102CF800010E756F1BEC25F0150E0001726F7D0E2D
:102D0800736F000E746F030E756F1BEC25F0030EC6
:102D18000001616FE80E606F50EC29F015D0FFD705
:102D280009EC1FF0010E0001F66F010EB8EC2BF054
:102D38000BD025EC10F0040AD8A406D0000E000130
:102D4800F66F000EB3EC2BF00001F651000AD8B470
:102D5800E7D7010AD8B4EDD7E2D70001D84BD92B71
:102D6800D8C060F0D9C061F0000E636F0A0E626FC0
:102D7800CAEC27F0000160516111D8A41200F78352
:102D8800D8C060F0D9C061F0000E636F640E626F46
:102D9800CAEC27F0000160516111D8A41200F78530
:102DA800D8C060F0D9C061F0030E636FE80E626F9F
:102DB800CAEC27F0000160516111D8A41200F7870E
:102DC800D8C060F0D9C061F0626B636B600E646F4D
:102DD800EA0E656F000E666F000E676FBBEC1FF0A2
:102DE80000016051611162116311D8A412003C4ABC
:102DF8003D2AF7893CC060F03DC061F0000E636F6A
:102E08003C0E626FCAEC27F0000160516111D8A432
:102E18001200F78B3CC060F03DC061F0020E636F9A
:102E2800D00E626FCAEC27F0000160516111D8A47E
:102E38001200F78D3CC060F03DC061F0050E636F75
:102E4800A00E626FCAEC27F0000160516111D8A48E
:102E58001200F78F000ED96F000ED86F000E3D6E6E
:102E6800000E3C6E120060980001C7BF38D0BFAF9B
:102E78000BD0020E4B6E4150D8B4B9EC20F0000EC6
:102E8800436E000E446E120020EE01F03450D92635
:102E98003550DA22080EDF6E20EE02F03450D926C3
:102EA8003550DA22300EDE6E040EDD6E34C0D9FFE6
:102EB80035C0DAFF0C0EDF6E34C0D9FF35C0DAFF3B
:102EC800000EDB8ECAC0D9FFCBC0DAFF040EDF6E5E
:102ED800CAC0D9FFCBC0DAFF000EDB8E1200040196
:102EE80030AF10D0010E4B6E4250D8B4B9EC20F080
:102EF800000E436E000E446E4550D8A41200D5EC67
:102F08001CF01200020E4B6E20EE01F03450D92650
:102F18003550DA22080EDF6E20EE02F03450D92642
:102F28003550DA22300EDE6E040EDD6E34C0D9FF65
:102F380035C0DAFF040EDF6E34C0D9FF35C0DAFFC2
:102F4800000EDB8E000E436E000E446E4550D8A472
:102F58001200D5EC1CF012000001A66FCD0E000186
:102F6800786FCC0E796F4C0E7A6F400E7B6FA6513E
:102F7800606F616B626B636B000EE3EC11F060C015
:102F880074F061C075F062C076F063C077F050EC01
:102F98000AF074C08DF075C08EF076C08FF077C0DF
:102FA80090F0000E0001916F000E926F800E936FEB
:102FB800440E946F98EC0DF08DC0A8F08EC0A9F067
:102FC8008FC0AAF090C0ABF0000E0001646F000E35
:102FD800656F000E666FBF0E676FA8C060F0A9C06E
:102FE80061F0AAC062F0ABC063F0F9EC0BF060C00E
:102FF80074F061C075F062C076F063C077F0000EBF
:103008000001786F000E796FC80E7A6F420E7B6FE1
:1030180050EC0AF074C0A8F075C0A9F076C0AAF008
:1030280077C0ABF0A8C060F0A9C061F0AAC062F098
:10303800ABC063F0CCEC1AF000016051A76FA75148
:1030480012000001646FFA0E0001636F580EE82E3B
:10305800FED7632FFCD700F0FA0E0001636F580EFD
:10306800E82EFED7632FFCD700F0FA0E0001636F3D
:10307800580EE82EFED7632FFCD700F000016451EC
:10308800D8B429D0280E616F7A0E626FB2EC29F09D
:10309800FA0E0001636F580EE82EFED7632FFCD797
:1030A80000F0FA0E0001636F580EE82EFED7632F6A
:1030B800FCD700F0FA0E0001636F580EE82EFED719
:1030C800632FFCD700F0420E0001616F7A0E626F29
:1030D800B2EC29F01200F40E0001616F790E626FF4
:1030E800B2EC29F0FA0E0001636F580EE82EFED7F5
:1030F800632FFCD700F0FA0E0001636F580EE82E1C
:10310800FED7632FFCD700F0FA0E0001636F580E4C
:10311800E82EFED7632FFCD700F00E0E0001616F7A
:103128007A0E626FB2EC29F0120004013039E832ED
:10313800030B0009D8A4120047D00001C78F080E5E
:10314800EC6F120062EC14F012000AEC19F0120095
:103158005A0E0001C46F000EC56FC781010EC86FFB
:10316800C78F120012EC20F01200F3EC0EF01200E0
:1031780004013451010D570EF3240001C46F000EF1
:10318800F420C56FC781010EC86FC78F12000001F8
:10319800C78F04013451010D570EF324D96E000E68
:1031A800F420DA6E32C4DFFF1200000E0F6E020E3A
:1031B8000E6E000E106E000E116E000E136E000ED5
:1031C800126E7FEC26F0120004013151000AD8B4C7
:1031D800C9D7010AD8B4C9D7020AD8B4C6D7060ACB
:1031E800D8B4ABD7030AD8B4ADD7010AD8B4DDD761
:1031F8000F0AD8B4ADD7010AD8B4A7D7030AD8B4F0
:10320800B7D7010AD8B4C3D7070A12000001C78F7D
:103218006B0E016E0F0E026E000E046E000E036E32
:10322800000E066E020E056E28EC2AF0000E016EE6
:10323800040E026E000E046E000E036E000E066E83
:10324800300E056E28EC2AF0608C000E166E020E09
:10325800166401D016D01650010DD30EF324D96E82
:10326800000EF420DA6E000EDF6E1650010DD00E3F
:10327800F324D96E000EF420DA6E000EDF6E162AE3
:10328800E6D7570E016E000E026E000E046E000E99
:10329800036E000E066E020E056E28EC2AF0609C86
:1032A800080E0001CA6F040ECB6F000E366E040EB6
:1032B800376E36C034F037C035F032C45AF05A5041
:1032C800D8A403D0100EEC6F1200000E0F6E010E82
:1032D8000E6E5A0E106E000E116E000E136E010E59
:1032E800126E7FEC26F0200E0001EC6F1200CAC0AF
:1032F800D9FFCBC0DAFF0001000EDFBC010E126E51
:10330800040ECA1B080EEC19D8A40CD004013251C3
:103318007F0B636E6350D8B402D0100E01D0040E38
:103328000001EC6F4B04D8A43AD020EE02F0CA5149
:10333800D926CB51DA22380EDE6E040EDD6E3BEC58
:103348001BF0020E4C18D8A40DD0CAC0D9FFCBC0B0
:10335800DAFF040EDF6ECAC0D9FFCBC0DAFF000E59
:10336800DB8E12001250D8A40DD0CAC0D9FFCBC032
:10337800DAFF480EDF6ECAC0D9FFCBC0DAFF000EF5
:10338800DB8E1200CAC0D9FFCBC0DAFF080EDF6E91
:10339800CAC0D9FFCBC0DAFF000EDB8E1200BFAF68
:1033A80014D0C251C311D8B40ED020EEC2F001D847
:1033B8000AD00500FA6EDE50FD6EDE50FE6EF85043
:1033C800FF6EFA5012000001BF9F000E4B6E1200F4
:1033D800000E00016E6F81A0FED77AEC2AF0010E74
:1033E800C1EC2BF0C290F29EF29EF29C8D94A092BA
:1033F8000F015B81A08CF086F2888784F286000E2C
:1034080081B2010E00016E6F000E81B0010E6E6F69
:10341800000E82B4010E6E6FFA51D8A4D180F290DA
:10342800F292F090A19C00F0030000F0D190ECEC37
:1034380027F0F296F096F2988794A09CF28E80EC92
:1034480027F0F2A0F2B204D0F0B002D0A1AC12D0B2
:10345800F290F292F090010E00016E6F000EC1EC36
:103468002BF082EC29F08D84FB0EB36E500EB26EF9
:10347800A08207D00A0E0001EF6F000E6E6F8D94C8
:10348800A0920F015B91B1EC22F0000E0001616F78
:10349800280E606F50EC29F0B1EC22F0000E00010C
:1034A800616F280E606F50EC29F000016E51120018
:1034B8001F0E0001EC65120060B21200E751D8A49B
:1034C80011D0800E676F020E686F400E696F52EC64
:1034D8001EF00001E66FE651D8B404D0010EE76F84
:1034E800000EE56FE751D8A4ACA213D0E551010D49
:1034F800800EF324D96E020EF420DA6EDF506DECE4
:1035080028F00001E52BE651E519D8A402D0000EF9
:10351800E76FF451D8B425D0D3EC2BF00009D8B418
:1035280020D03F0E0001E8611CD000F0C8EC28F064
:1035380000016D6FE851010D800EF324D96E020E63
:10354800F420DA6E6DC0DFFFE82BE851010D800E24
:10355800F324D96E020EF420DA6E000EDF6E000E30
:10356800E96F0001EB51D8A410D0E851D8B40DD0C0
:10357800800E606F020E616FE8C062F0A0EC2AF066
:10358800D6EC2BF0000E0001E86F8DEC12F0120063
:10359800000162356335696F6951D8A409D0000EFE
:1035A800606F000E616F000E626F000E636F120095
:1035B80060C064F061C065F062C066F063C067F027
:1035C800200E05D0D8906733663365336433E82E10
:1035D800F9D76451686F628FFF0E6017FF0E61178D
:1035E800FF0E6217000E6317960E695F69AF16D05B
:1035F8006951800A970FD8B009D0000E606F000E8D
:10360800616F000E626F000E636F1200D890633313
:10361800623361336033693FF9D715D01F0E69658E
:103628000FD0000E606F000E616F000E626F000E0B
:10363800636F1200D8906037613762376337690764
:103648006951D8A4F7D76851D8B408D0631F621F4E
:10365800611F606D000E61236223632360C060F008
:1036680061C061F062C062F063C063F01200080ECE
:10367800016E0001C95110E1080EC85DD8B00CD028
:10368800C8C001F04C50D8A402D0010E04D04C049C
:10369800D8A402D0020E4C6E0150C85F000EC95B60
:1036A80020EE01F0CA51D926CB51DA2201C0DFFF42
:1036B800380E0101546F040E556F0001C7A11DD0CB
:1036C8003CD0C4C0F6FFC5C0F7FFF86A54C1D9FFA3
:1036D80055C1DAFF070EF76403D00800F55005D08E
:1036E800F6CFE9FFF7CFEAFFEF50DF6E0001C44BDA
:1036F800C52B0101544B552B01060150D8B41200BB
:10370800E0D7C4C0F6FFC5C0F7FFF86A54C1D9FFB7
:1037180055C1DAFF070EF76403D00800F55005D04D
:10372800F6CFE9FFF7CFEAFFEF50DF6E0001C44B99
:10373800C52B0101544B552B01060150D8B412007A
:10374800E0D72D0E466E59C01CF0FD0E1C16D8A4ED
:1037580057D059C01CF0D8901C323F0E1C161C5074
:10376800040D000EF324366E040EF420376E36C0B6
:1037780034F037C035F0040E341A36C0D9FF37C0DC
:10378800DAFFDF30E8320F0B0D0AD8A436D0000E6E
:103798001E6E070E1E6401D023D020EE02F03650B4
:1037A800D9263750DA22DECF1CF0DDCF1DF01CC041
:1037B800D9FF1DC0DAFF1E50010D300EF324E16E53
:1037C800040EF420E26EDFCFE7FF20EE02F0365061
:1037D800D9263750DA22DE2A000EDD221E2AD9D752
:1037E80020EE02F03650D9263750DA22300EDE6E3F
:1037F800040EDD6EF3EC22F01200ADEC26F01200A0
:103808005950FD0B040AD8A412007BEC19F01200E1
:10381800010E0001796FF40E786F000E7A6FFFECDD
:103828002AF06B0E0001726F7D0E736F000E746FBD
:10383800000E756F1BEC25F081A202D081B00CD070
:103848003A0E0001726F7E0E736F000E746F030ED6
:10385800756F1BEC25F038D0920E0001726F7D0E4B
:10386800736F000E746F010E756F1BEC25F02CD072
:1038780081B20ED0780E726F7D0E736F000E746F6A
:10388800020E756F1BEC25F000017A51080F7A6F54
:1038980081B00ED0850E726F7D0E736F000E746F3F
:1038A800030E756F1BEC25F000017A51800F7A6FBB
:1038B800880E7A19D8B412009C0E0001776FD70EC3
:1038C800E82EFED7772FFCD700017807D8A0790714
:1038D8007829CEE17929D8B41200CAD736EC24F079
:1038E800FFEC2AF05E0E0001726F7F0E736F000E00
:1038F800746F000E756F1BEC25F0770E0001726F68
:103908007F0E736F000E746F010E756F1BEC25F040
:103918006F0E0001726F7F0E736F000E746F020ED0
:10392800756F1BEC25F00E0E0001626F020E636FBF
:10393800430E35EC23F02EEC28F063C072F064C01F
:1039480073F0F7EC23F072C0DAF073C0DBF000011B
:10395800DA51B0EC17F00001AC6FAC51DA6FDB6BE9
:103968000A0E776F020E786FDA5166EC20F000F0DD
:10397800CD0E0001726F7A0E736F0A0E746F010E0E
:10398800756F1BEC25F033EC27F06EC072F06FC03A
:1039980073F00A0E0001746F010E756F1BEC25F0B1
:1039A80012004450D8A41200010E446E4350D8A40B
:1039B8001200010E436E020E4B18D8A416D0000157
:1039C80020EE01F0CA51D926CB51DA22000EDF6E63
:1039D800CAC0D9FFCBC0DAFF480EDF6ECAC0D9FF14
:1039E800CBC0DAFF000EDB8E12004B04D8A4120005
:1039F800000E476E20EE01F03650D9263750DA22F5
:103A0800080EDF6E20EE02F03650D9263750DA2243
:103A1800300EDE6E040EDD6E36C0D9FF37C0DAFF19
:103A2800040EDF6E36C0D9FF37C0DAFF000EDB8E1A
:103A3800010E476E20EE01F03450D9263550DA22B7
:103A4800080EDF6E20EE02F03450D9263550DA2207
:103A5800300EDE6E040EDD6E34C0D9FF35C0DAFFDD
:103A6800800EDF6E12000BD061C0F6FF62C0F7FF58
:103A78000800F5506DEC28F00001614B622B61C025
:103A8800F6FF62C0F7FF0800F5500009D8A4ECD78C
:103A9800000E0001676F020E676501D00ED06751F6
:103AA800010DF3506325D96EF4506421DA6EDF50AE
:103AB8006DEC28F00001672BEED720EE03F0635180
:103AC800D9266451DA22DF506DEC28F0040E00018B
:103AD800686F21D06851010DF3506325D96EF450F9
:103AE8006421DA6EDF50666F66390F0BFAEC29F045
:103AF8006DEC28F000016851010DF3506325D96E73
:103B0800F4506421DA6EDF500F0BFAEC29F06DECFB
:103B180028F00001682B6551685DD8A0DBD796ECCA
:103B28002BF012000001646F00016051D8B407D077
:103B38006451020DCA0EF324D96E000E06D06451EA
:103B4800020D400EF324D96E010EF420DA6EDECF9A
:103B580065F0DDCF66F065516611D8A405D0000E7A
:103B6800606F000E616F120020EE02F06551D926D9
:103B78006651DA2261C0DEFF62C0DDFF20EE01F08F
:103B88006551D9266651DA2263C0DFFF65C0D9FFC7
:103B980066C0DAFF400EDF1665C0D9FF66C0DAFFDF
:103BA800000EDB8665C0D9FF66C0DAFF000EDB8E2B
:103BB8006051D8B407D06451020DCA0EF324D96EEF
:103BC800000E06D06451020D400EF324D96E010E8A
:103BD800F420DA6E040EDF1A65C060F066C061F08A
:103BE8001200056E0150D8B407D00550020DCA0E58
:103BF800F324D96E000E06D00550020D400EF324B2
:103C0800D96E010EF420DA6EDECF06F0DDCF07F0B4
:103C180006500710D8A405D0000E016E000E026EE3
:103C2800120020EE02F00650D9260750DA2202C010
:103C3800DEFF03C0DDFF20EE01F00650D926075055
:103C4800DA2204C0DFFF06C0D9FF07C0DAFF400E42
:103C5800DF1606C0D9FF07C0DAFF000EDB8606C0F4
:103C6800D9FF07C0DAFF000EDB8E0150D8B407D0A9
:103C78000550020DCA0EF324D96E000E06D0055069
:103C8800020D400EF324D96E010EF420DA6E040EF4
:103C9800DF1A06C001F007C002F01200000E000192
:103CA800DE6FD651D711D8B40FD0D6C0D9FFD7C040
:103CB800DAFFDFAE03D06A6B6A2B02D000016A6BB1
:103CC8006A516B6F6C6B04D0000E6C6F000E6B6FDB
:103CD8006B516C11D8A43BD020EE01F0D651D926F7
:103CE800D751DA226951DE5CD8B008D020EE01F055
:103CF800D651D926D751DA22DF50696F000EDE6F10
:103D080013D0DE51010D400EF324D96E050EF420B8
:103D1800DA6EDE51010DF3506725E16EF45068212B
:103D2800E26EDFCFE7FFDE2B6951DE5DD8A0E9D771
:103D3800000E606F400E616F050E626F400E636F7C
:103D4800020E96EC1DF060C0D6F061C0D7F00001FD
:103D5800DE5112000001696F00016651676F686BE0
:103D6800020E6727000E6823BA0E6725D96E010E6A
:103D78006821DA6E69C060F0616B000E636F0A0E2D
:103D8800626FABEC24F000016051300FDF6E0A0E59
:103D9800606F69514EEC28F00001696F6651676FDA
:103DA800686B010E6727000E6823BA0E6725D96E67
:103DB800010E6821DA6E69C060F0616B000E636FF6
:103DC8000A0E626FABEC24F000016051300FDF6E19
:103DD8000A0E606F69514EEC28F00001696F665158
:103DE800010DBA0EF324D96E010EF420DA6E69C003
:103DF80060F0616B000E636F0A0E626FABEC24F02B
:103E080000016051300FDF6E12003ED0FFD7FFEC8B
:103E18002AF0310E0001726F7F0E736F010E746FFE
:103E2800000E756F1BEC25F0670E0001726F7F0E98
:103E3800736F020E746F010E756F1BEC25F0460E42
:103E48000001726F7E0E736F000E746F020E756F35
:103E58001BEC25F0010E000105D0200EEC6101D00D
:103E68001FD0020EEA6F1CD05CEC1AF0030E0001A2
:103E7800776FE4EC24F00001776F030E7719D8B45C
:103E88000FD0020EF86F0CD00001EA51000AD8B426
:103E9800BED7010AD8B4E1D7030AD8B4E5D7B6D754
:103EA80080A004D00001F851D8B4EED700F0020E7B
:103EB8000001F819D8B41200000EF86F12000401BE
:103EC80030511F0BE806D8A412003039E832030B32
:103ED800E806D8A412003451D8B437D03405D8A491
:103EE800120033D0D40E0001C46F010EC56F000E4E
:103EF800C96F080EC86FC781C78F1200D40E0001A2
:103F0800C46F010EC56FC78F120036C4C0F037C426
:103F1800C1F0CA0E0001BC6F010EBD6FB60EC26FB4
:103F28004D0EC36FBF8F1200DC0E0001C46F010E6F
:103F3800C56F000EC96F070EC86FC10EC76F12009C
:103F480032C440F00001C78F120004013151000A49
:103F5800D8B4C8D7010AD8B4D1D7210AD8B4D5D78C
:103F6800010AD8B4E1D7030AD8A41200E9D7000E91
:103F78000001696F63AF0AD0631F621F611F606D24
:103F8800000E612362236323010E696F67AF08D0B7
:103F9800671F661F651F646D000E65236623672310
:103FA8006451651166116711D8B424D0010E686F89
:103FB80006D0D8906437653766376737682B67AFA0
:103FC800F8D76451605D655161596651625967510E
:103FD8006359D8A008D06451605F6551615B665130
:103FE800625B6751635BD8906733663365336433CC
:103FF800682FE7D76951D8B408D0631F621F611FC3
:10400800606D000E61236223632360C060F061C0AD
:1040180061F062C062F063C063F01200000E040138
:10402800386F000E396F38D00001C78F4A04D8A402
:104038003ED0040138833BD00001C78F38D000013F
:10404800C78F040134BF0AD034510F0B016E0150E1
:10405800020D400EF324D96E010E09D034510F0B16
:10406800016E0150020DCA0EF324D96E000EF42021
:10407800DA6EDECF02F0DDCF03F002C0D9FF03C055
:10408800DAFFDFAE14D002C0D9FF03C0DAFFDFA425
:104098000ED0010E386F0BD030511F0B000AD8B468
:1040A800C3D7010AD8B4C8D7030AD8B4C8D70001FF
:1040B800C7AF1200380EC46F040EC56FC781020E59
:1040C800C86F12000001806F000E0001796F80AF89
:1040D80002D0010E796F80517F0B806F80C060F035
:1040E800616B000E636F0A0E626FABEC24F0000187
:1040F8006051300F7C6F0A0E606F80514EEC28F0D3
:104108000001806F80C060F0616B000E636F0A0E63
:10411800626FABEC24F000016051300F7B6F0A0E28
:10412800606F80514EEC28F00001806F80C060F015
:10413800616B000E636F0A0E626FABEC24F0000136
:104148006051300F7A6F7951D8B402D02D0E7A6F42
:10415800000E7D6F7A0E726F000E736F77C074F069
:1041680078C075F01BEC25F01200000E426E000EB0
:10417800416E020E4B18D8A41FD020EE01F0345027
:10418800D9263550DA22080EDF6E20EE02F03450C0
:10419800D9263550DA22380EDE6E040EDD6E34C0B4
:1041A800D9FF35C0DAFF480EDF6E34C0D9FF35C0FD
:1041B800DAFF000EDB8E12000001C8510401365DE3
:1041C8000001C95104013759D8B004D036C4C8F029
:1041D80037C4C9F03BEC1BF0000120EE02F0CA51D5
:1041E800D926CB51DA22380EDE6E040EDD6ECAC037
:1041F800D9FFCBC0DAFF480EDF6ECAC0D9FFCBC0EB
:10420800DAFF000EDB8E1200066E000E076E040E3B
:10421800086E0150026E036AD890023603360650C3
:10422800046E056AD89004360536D89004360536EB
:104238000250042603500522D89004360536D8903B
:1042480004360536045007260550082207C0D9FF52
:1042580008C0DAFFDF9E0150D8A407D00650020D2F
:10426800400EF324D96E010E06D00650020DCA0E78
:10427800F324D96E000EF420DA6E07C0DEFF08C002
:10428800DDFF07C0D9FF08C0DAFFDF9C20EE04F08D
:104298000750D9260850DA22DF8C1200000E0001E0
:1042A800606F020E606501D00CD06051010DED0EFB
:1042B800F324D96E010EF420DA6E000EDF6E602B47
:1042C800F0D7000E616F210E616501D00CD06151ED
:1042D800010D300EF324D96E010EF420DA6E000EB3
:1042E800DF6E612BF0D7000E626F1F0E626501D082
:1042F8000CD06251010D9A0EF324D96E010EF420F0
:10430800DA6E000EDF6E622BF0D7000E636F0F0EB1
:10431800636501D012006351010DBA0EF324D96E02
:10432800010EF420DA6E000EDF6E632BF0D7CA0E92
:10433800F66E570EF76E000EF86E0900F5CFF0F125
:104348000900F5CFF1F17A0EF66E570EF76E000EF2
:10435800F86E00EEF8F010EE08F00900F5CFEEFF69
:10436800E550E150FAE1C80EF66E570EF76E000EF2
:10437800F86E0900F5CF5BF00900F5CF5CF002EEAE
:1043880000F0C00EEE6AE806FDE101EE00F0F00E66
:10439800EE6AE806FDE100EEBCF03C0EEE6AE806C7
:1043A800FDE15D6A00EE32F0290EEE6AE806FDE1F5
:1043B8005E905E92000EF86E000125EF16F0000187
:1043C800796F79C060F00001616B000E636F0A0EAF
:1043D800626FABEC24F000016051300F7C6F0A0E65
:1043E800606F79514EEC28F00001796F79C060F068
:1043F800616B000E636F0A0E626FABEC24F0000174
:104408006051300F7B6F0A0E606F79514EEC28F0C7
:104418000001796F79C060F0616B000E636F0A0E5E
:10442800626FABEC24F000016051300F7A6F000E20
:104438007D6F7A0E726F000E736F77C074F078C05C
:1044480075F01BEC25F01200FFEC2AF0160E0001A7
:10445800726F7F0E736F000E746F000E756F1BEC1A
:1044680025F0C40E0001726F7D0E736F000E746F1D
:10447800060E756F1BEC25F0D10E0001726F7D0ED4
:10448800736F000E746F080E756F1BEC25F0590ED4
:104498000001726F7C0E736F000E746F010E756FE2
:1044A8001BEC25F02E0E0001726F7E0E736F000E4E
:1044B800746F020E756F1BEC25F01F0E0001726FF2
:1044C8007F0E736F000E746F030E756F1BEC25F073
:1044D800120035D060C0D9FF61C0DAFFDF50D8B410
:1044E80010D060C0D9FF61C0DAFFDF500001666FED
:1044F80062C0F6FF63C0F7FF0800F5506619D8B42C
:104508001AD062C0F6FF63C0F7FF0800F55000013B
:10451800666F676B661F671F664B672B60C0D9FFA6
:1045280061C0DAFFDF50686F68516625606F000E62
:104538006721616F1200604B612B624B632B000196
:104548006407D8A065076429C5E16529D8A4C2D73E
:10455800000E616F000E606F1200000E0001676FA1
:10456800000E666F000E656FAC9A8B9C000E616F33
:104578000A0E606F50EC29F0AC8A000E0001616FE2
:10458800050E606F50EC29F0550EAD6EACA2FED74B
:10459800FD0E0001616F7F0E626FB2EC29F0000E14
:1045A8000001616F280E606F50EC29F013D0BAEC4F
:1045B80025F00009D8B403D0010E00010AD000018B
:1045C800654B662B890E655D130E6659D8A002D01F
:1045D800010E676F00016751D8B41200E8D7000ECA
:1045E8004C6E000E456E000E426E000E416E000EBF
:1045F800476E000E4B6ECAC0D9FFCBC0DAFF7F0EE4
:10460800DF16040E0001CA1BCAC0D9FFCBC0DAFFEF
:104618007F0EDF16040ECA1B34C0D9FF35C0DAFF7F
:104628007F0EDF16000EC76F000EC96F000EC86F31
:10463800000EBF6F000EC16F000EC06F99EC18F02E
:10464800000E0F6E030E0E6E000E106E000E116E31
:10465800000E136E000E126E7FEC26F037EC17F08A
:10466800120000016A6F0001635159EC2BF0000140
:104678006251080DF350040FF1EC2AF0000E00010E
:104688006B6F070E6B6501D012006B51010D000EA8
:10469800646FFF0E656F6A51666F676BD8906637F7
:1046A8006737D89066376737D89066376737645169
:1046B800662765516723F0C168F0F1C169F066515A
:1046C800682767516923F3506827F450692368C045
:1046D800F6FF69C0F7FF0800F55019EC2BF0000150
:1046E8006B2BCFD7000E096E000E0A6E000E0B6EF4
:1046F800000E0C6E0550061007100810D8B42AD00A
:10470800010E0D6E06D0D8900536063607360836E7
:104718000D2A08AEF8D7D89009360A360B360C366B
:104728000550015C065002580750035808500458B9
:10473800D8A009D00550015E0650025A0750035A06
:104748000850045A0980D8900832073206320532D8
:104758000D2EE1D709C001F00AC002F00BC003F02A
:104768000CC004F01200E20E24EC2BF08A84040E34
:104778000001626F1C0EE82EFED7622FFCD700F0F6
:104788008A94200E0001626F290EE82EFED7622F50
:10479800FCD700D08A84100E0001626F940EE82EB8
:1047A800FED7622FFCD700F0A10E24EC2BF0C00E30
:1047B80024EC2BF0A30E24EC2BF0070E7EEC2BF050
:1047C800050E76EC2BF05B504FEC2BF0000E86ECD0
:1047D8002BF0F80E24EC2BF0000E24EC2BF0AF0E8F
:1047E80024EC2BF01200000E0001786F000E776F9A
:1047F800000E796F030E796501D02FD072C0D9FFF2
:1048080073C0DAFFDF50D8B428D07951D8B40ED0AD
:1048180077C060F078C061F0000E636F0A0E626FB7
:1048280052EC2AF060C077F061C078F072C0D9FF0E
:1048380073C0DAFFDF500001746F74517725756F0C
:10484800000E7821766FD00E7525776FFF0E7621D2
:10485800786F724B732B792BCDD777C072F078C0F5
:1048680073F01200000E0001666F000E656FD90E1E
:10487800616F790E626FB2EC29F009D00001654BC7
:10488800662B510E655DC30E6659D8B005D0BAECDB
:1048980025F00009D8B4F2D7000E0001666F000EAB
:1048A800656FBE0E616F790E626FB2EC29F009D0A8
:1048B8000001654B662B510E655DC30E6659D8B075
:1048C80005D0BAEC25F00009D8B4F2D7000E0001E3
:1048D800616F640E606F50EC29F0120028EC22F032
:1048E800000E0001616F140E606F50EC29F00CECA3
:1048F8001CF0FFEC2AF0000E0001616F140E606FCF
:1049080050EC29F086EC25F0000E0001616F140EC2
:10491800606F50EC29F020EC26F0000E0001616F6A
:10492800140E606F50EC29F0ECEC27F0000E00013B
:10493800616F140E606F50EC29F072EC1CF00B0ED6
:104948000001616FB80E606F50EC29F01200000E84
:104958000001656F61AF06D0606D611FD8B0612B33
:10496800010E656F63AF04D0626D631FD8B0632B0F
:1049780062516311D8B418D0010E646F04D0D89076
:1049880062376337642B63AFFAD76251605D635156
:104998006159D8A004D06251605F6351615BD890BF
:1049A80063336233642FF1D76551D8B404D0606D96
:1049B800611FD8B0612B60C060F061C061F0120067
:1049C800000E0001606F81A202D081B01AD0010EE2
:1049D80001014A27000E4B234C234D23370E4A1959
:1049E8004B114C114D11D8A409D0000E0001E46FF1
:1049F80081B202D0010E18D0020E16D0000E0001AE
:104A080013D0140EE419D8A40DD0000E01014A6F7A
:104A1800000E4B6F000E4C6F000E4D6F000E000124
:104A2800E46F01D0E42B030E606F6051120074C074
:104A380076F00F0E0001766501D0120072C0F6FF05
:104A480073C0F7FFF86A070EF76403D00800F55043
:104A580005D0F6CFE9FFF7CFEAFFEF500009D8B449
:104A6800120076C062F075C063F072C0F6FF73C0C2
:104A7800F7FFF86A070EF76403D00800F55005D071
:104A8800F6CFE9FFF7CFEAFFEF5035EC23F000014E
:104A9800724B732B762B0F0ECED7E80E0001606F8A
:104AA800010E616FE30E626F010E636F000E656F9A
:104AB800050E646FA6EC27F0E80E0001606F010E8A
:104AC800616F6BC062F06CC063F0000E656F050E1D
:104AD800646FA6EC27F0000E00016D6F040E6D6583
:104AE80001D00ED06D51010DE80EF324D96E010EE0
:104AF800F420DA6EDF50D8B46DC0EDF06D2BEED730
:104B080000F012008E0E0001726F7E0E736F000EA1
:104B1800746F000E756F1BEC25F0010E25EC18F074
:104B2800010E0001616FF40E606F37EC29F0000E82
:104B380025EC18F0010E0001616FF40E606F37EC80
:104B480029F0010E25EC18F0010E0001616FF40E3A
:104B5800606F37EC29F0000E25EC18F0010E00010B
:104B6800616FF40E606F37EC29F01200000E00013F
:104B7800616FF451D8B42BD0000E626FC8EC28F0E6
:104B88000001626F0D0E6219D8A40DD0F151010D0C
:104B98005A0EF324D96E010EF420DA6E000EDF6E81
:104BA800000EF16F14D06251D8B411D00A0E6219F8
:104BB800D8B40DD0F151010D5A0EF324D96E010E5F
:104BC800F420DA6E62C0DFFF010E616FF12B6151D4
:104BD8001200000E0101DC6F4B0EDD6F000EDE6F60
:104BE800000EDF6F000EE06F000EE16F080EE26F3F
:104BF800000E0001DE6F1A0E096E010EAAEC28F0F5
:104C08001E0E096E020EAAEC28F0000E016E400E70
:104C1800026E050E036E400E046E020EF5EC1DF0DA
:104C280001C0D6F002C0D7F0000E326E000E336E0F
:104C3800000E0001EB6F1200D00E0001726F7E0EA5
:104C4800736F000E746F010E756F1BEC25F0898C65
:104C5800898E010E0001616FF40E606F37EC29F048
:104C6800899C899E010E0001616FF40E606F37EC1C
:104C780029F0898C898E010E0001616FF40E606F36
:104C880037EC29F0899C899E010E0001616FF40EB2
:104C9800606F37EC29F01200000E0001756F050EE9
:104CA800756501D026D072C0D9FF73C0DAFFDF5016
:104CB800D8B412D072C0D9FF73C0DAFF7451010D95
:104CC800BA0EF324E16E010EF420E26EDFCFE7FFA7
:104CD800724B732B742B0BD07451010DBA0EF32445
:104CE800D96E010EF420DA6E200EDF6E02D0752B1D
:104CF800D6D77551120006D008EC27F0120063ECE5
:104D08001FF012000EC014F00FC015F01550000A65
:104D1800D8B404D07F0AD8A4120018D01450010ABD
:104D2800D8B4EAD7030AD8B41200010AD8B4E7D72E
:104D3800060AD8B41200770AD8B41200010AD8B407
:104D48001200070AD8B41200010A12001450FF0A10
:104D58001200020E4B18D8A403D02FEC13F0120047
:104D6800000E4B6E4750D8A41FD020EE01F03450EF
:104D7800D9263550DA22080EDF6E20EE02F03450C4
:104D8800D9263550DA22300EDE6E040EDD6E34C0C0
:104D9800D9FF35C0DAFF0C0EDF6E34C0D9FF35C03D
:104DA800DAFF000EDB8E1200000E476E1200CAC139
:104DB800DCF1CBC1DDF1CCC1DEF1CDC1DFF1000EFC
:104DC800016E1B0E026EB70E036E000E046EDCC180
:104DD80005F0DDC106F0DEC107F0DFC108F076ECB2
:104DE80023F0FF0E01240E6EFF0E02200F6EFF0E41
:104DF8000320106EFF0E0420116E0EC0AFFF0FC00F
:104E0800B0FF01EC29F01200EDEC25F0000E0101D5
:104E1800E06F080EE26F000EE16F000EDC6F4B0EC4
:104E2800DD6F000EDE6F000EDF6F01EC29F0000E63
:104E38000D6E3F0E0D6401D00CD00D50010D800E8B
:104E4800F324D96E020EF420DA6E000EDF6E0D2AFE
:104E5800F0D7000E0001E86F000EE66F1200000E9A
:104E68000001716F000E706F720E616F7A0E626FC3
:104E7800B2EC29F009D00001704B712B510E705D16
:104E8800C30E7159D8B005D0BAEC25F00009D8B4D2
:104E9800F2D75A0E00016B6F010E6C6F51EC25F0C2
:104EA8005A0E00016E6F010E6F6F120005D00001DF
:104EB800604B612B624B632B60C0D9FF61C0DAFF86
:104EC800DF500001646F62C0F6FF63C0F7FF08009F
:104ED800F55000086425656F6551D8A407D060C0F7
:104EE800D9FF61C0DAFFDF50D8A4E1D76551606F00
:104EF800616B60BF610712009280928292849286F1
:104F08008D949694929A929C929E93829380939475
:104F180093969398939A949094929484949C948E54
:104F2800000E956E9694899A899C899E8A948B9492
:104F38008B9C8D840F015B915B835B855B875D9F99
:104F48005D9D120062C068F063C069F060C066F0E1
:104F580061C067F011D068C0D9FF69C0DAFFDF50BF
:104F680000016A6F684B692B66C0D9FF67C0DAFF1A
:104F78006AC0DFFF664B672B00016407D8A065078E
:104F88006429E9E16529D8B41200E5D70001625126
:104F98006311D8B418D0010E646F04D0D89062376A
:104FA8006337642B63AFFAD76251605D635161590F
:104FB800D8A004D06251605F6351615BD8906333BD
:104FC8006233642FF1D760C060F061C061F01200F5
:104FD800000E0001606F3F0E606501D00CD060517B
:104FE800010D000EF324D96E020EF420DA6E000EC5
:104FF800DF6E602BF0D7000EE06F000EDF6F000E43
:10500800F46F9D98000EE36F000EE26F400EE16FA3
:1050180012006AA01DD036C0D9FF37C0DAFF800E53
:10502800DE18D8A414D0CAC0D9FFCBC0DAFF840ECA
:10503800DE18D8A40CD036C0D9FF37C0DAFF0C0E62
:10504800DF6E36C0D9FF37C0DAFF000EDB8E6A90FC
:10505800659A1200000E0001666F000E656F5C0E07
:10506800616F7A0E626FB2EC29F009D00001654BCE
:10507800662B510E655DC30E6659D8B005D0BAECE3
:1050880025F00009D8B4F2D75A0E0001636F010E5B
:10509800646F12000001616F000E0001636F6051C0
:1050A800D8B415D0010E626F03D0D8906037622B48
:1050B80060AFFBD7D89063376051615DD8A003D04B
:1050C8006051615F6381D8906033622FF3D7635179
:1050D80012000001606F0001E151D8B4FCD79DB8FF
:1050E80003D060C0ADFF12D09D98E351010D400E72
:1050F800F324D96E020EF420DA6E60C0DFFFE32BD2
:105108003F0EE36502D0000EE36FE1079D881200B1
:105118000001616F000EF2BE010E0001626F61C0F6
:10512800A9FF60C0A8FFA69EA69CA684F29E550E65
:10513800A76EAA0EA76EA682A6B2FED7A6940001F5
:1051480062B102D0F29E01D0F28E12000C6E09A458
:1051580005D0000E016E0C5008EC21F009A205D014
:10516800010E016E0C5008EC21F00C50010D6A0E76
:10517800F3240A6E0F0EF4200B6E0AC0D9FF0BC081
:10518800DAFF09C0DFFF1200000E0001606F01D0D6
:10519800898EF451D8B4FCD79D9ADF51010D000EC9
:1051A800F324D96E020EF420DA6EDF50606FDF2B25
:1051B8003F0EDF6502D0000EDF6FF4079D8A605155
:1051C80012009D9A9D98480EB86E900EAB6E260EF2
:1051D800AC6ED00EAF6E000EB06E000E0001E36F25
:1051E800000EE26F400EE16F000EE06F000EDF6F01
:1051F800000EF46F9D8AAB8812009D9A9D98480E08
:10520800B86E900EAB6E260EAC6ED00EAF6E000E62
:10521800B06E000E0001E36F000EE26F400EE16F0A
:10522800000EE06F000EDF6F000EF46F9D8AAB88F2
:1052380012000001EC51D8A41200000E606E000E9E
:10524800646E160E626E9F0E666E7B0E646ED08E56
:10525800A584A384F28E01D0608660A6FDD7010ED6
:105268000001EC6F1200000E0001646F000E636F06
:105278000CD0100E0001626F940EE82EFED7622F3C
:10528800FCD700F00001634B642B6051635D6151F2
:105298006459D8B01200EDD7000E0001646F000EFB
:1052A800636F0CD0100E0001626F940EE82EFED7CB
:1052B800622FFCD700F00001634B642B6051635DE3
:1052C80061516459D8B01200EDD7000ECD6E000EB2
:1052D800CC6ED00ECF6E200ECE6ECE50CFCF60F0FB
:1052E8000001616B60C061F0606B60113A6E6151E2
:1052F8003B6E9E909D80E0EC2BF0120096948D847E
:10530800939493969398949094928A868A98B7ECFB
:1053180023F0010E3EEC2AF0FD0E0001606F750EC1
:10532800616F45EC2BF0FFEC2AF0120060C066F0CC
:1053380061C067F009D066C0D9FF67C0DAFF62C0F4
:10534800DFFF0001664B672B00016407D8A06507E3
:105358006429F1E16529D8B41200EDD70BD061C0FA
:10536800F6FF62C0F7FF0800F5506DEC28F0000169
:10537800614B622B61C0F6FF62C0F7FF0800F55071
:105388000009D8A4ECD796EC2BF01200400E0001CF
:10539800E16112D0E251010D400EF324D96E020EE4
:1053A800F420DA6EDF50AD6EE22B3F0EE26502D0DC
:1053B800000EE26FE12B12009D981200ABA203D001
:1053C800AB98AB8812000001E051010D000EF324E8
:1053D800D96E020EF420DA6EAECFDFFFE02B3F0E5F
:1053E800E06502D0000EE06FF42B12000001606F40
:1053F800000160510F0B606F0A0E606103D06051AD
:10540800300F1200090E606506D0100E606103D0DF
:105418006051370F1200000E1200000E496E000E88
:105428000F6E740E0E6E000E106E000E116E000ED2
:10543800136E000E126E7FEC26F06092649401D019
:10544800659465A41200FCD701C007F002C008F0FB
:1054580008D007C0D9FF08C0DAFF03C0DFFF074A3A
:10546800082A0506D8A006060528F3E10628D8B4B8
:105478001200EFD70001616F00016151D8A407D075
:10548800A00E24EC2BF0C80E24EC2BF01200A10E79
:1054980024EC2BF0C00E24EC2BF01200000160511C
:1054A8006203F3CF64F0F4CF65F060516303F35007
:1054B800652761516203F350652764C060F065C0D9
:1054C80061F01200648465986082010E496E000ED6
:1054D8000F6E750E0E6E000E106E000E116E000E21
:1054E800136E000E126E7FEC26F01200880E00017B
:1054F800616F7A0E626FB2EC29F09DB8FED7FA0E92
:105508000001636F580EE82EFED7632FFCD700F01A
:10551800120000016C6F000E00016D6F0F0E6D65BB
:1055280001D012006DC062F06CC063F0200E35EC43
:1055380023F000016D2BF2D7A3940001EB51D8A4FE
:105548000AD060C051F161C052F162C0DDF0010EB5
:10555800DC6F010EEB6FA38412002FEC2BF080ECB4
:1055680027F069EC29F063EC2BF0C2EC2AF0E5ECAB
:1055780028F00CEC2BF06DEC2BF01200040EB16E41
:10558800000EB46ED50EB36ED00EB26EB2CF38F038
:10559800B3CF39F0A192A082DCEC2BF0120000010D
:1055A800606F000160A303D00101564B572B000127
:1055B80060B7EF2B60A912004F2A1200A1928DA4A8
:1055C80006D08D94D50EB36ED00EB26E12008D84B7
:1055D800FB0EB36E500EB26E12000001616F000137
:1055E80061390F0B100924EC2BF0000161510F0BEE
:1055F80024EC2BF01200000E8DEC2AF0010E8DEC3D
:105608002AF0020E8DEC2AF0030E8DEC2AF012001F
:10561800A00E7D6E010EC26E080EC16E8E0EC06E9B
:10562800000EC36E000EC46E12000001606F8A98EF
:105638008B8060C08CFF8B9200F08B828A8812006E
:105648000001606F8A988B9060C08CFF8B9200F08D
:105658008B828A881200800E9B6E700ED36E100E9D
:10566800D26ED2AEFED7900EB56E12000001606FFA
:1056780060C0A9FFA69CA69EA68000F000F0A850D6
:105688001200000160516111D8B4120060C0F0F13D
:1056980061C0F1F112000001616F810E24EC2BF062
:1056A8000001615124EC2BF012000001616F000130
:1056B8006151B009616F615124EC2BF012007A0E30
:1056C800BA6E9B0EBB6E000EBC6E9E92DEEC2BF08B
:1056D8001200A09C9C0E986E9A8A9A929A96A19C07
:1056E800A09C12000001616F00016151200924ECA7
:1056F8002BF012000001616F00016151280924ECB0
:105708002BF012000001616F0001618D615124ECE2
:105718002BF012000B0E0001616F7A0E626FB2EC73
:1057280029F012000D0E6DEC28F00A0E6DEC28F031
:105738001200E80E0001606F010E616F12009E906A
:105748003B50CF6E3AC0CEFF1200BCCF60F00001D4
:10575800605112000001606F60C0F8F01200000193
:10576800606F60C0EAF012000001606F60C0FFF077
:1057780012000101030102030301AE0E24EC2BF019
:105788001200000E0001F76F1200010E0001E96F10
:1057980012000001ED5112000001F8511200000141
:1057A800E9511200010E526E12000001F781120039
:1057B800B1801200BA841200CD801200A19C1200A0
:0457C8001302FD7556
:1075F40000BA7974794079FD780000000000000039
:10760400000000005F000000000000030003000011
:1076140000643C26643C2624002649497F494932BB
:1076240000422512082452210020504E5522582889
:1076340000000000030000000000001C22410000C4
:107644000000000041221C00000015150E0E151547
:10765400000008083E080800000000005030000048
:1076640000000808080808000000000040000000AE
:10767400004020100804020100003E4141413E0048
:10768400000000417F4000000000426151496E004B
:10769400000022414949360000001814127F1000EE
:1076A400000027494949710000003C4A49487000DC
:1076B40000004321110D03000000364949493600FA
:1076C4000000060949291E00000000001200000005
:1076D40000000000523000000000000814142200D2
:1076E40000001414141414140000002214140800CC
:1076F4000000020159050200003E415D554D512E26
:1077040000407C4A094A7C4000417F494949493646
:10771400001C22414141412200417F414141221C40
:1077240000417F49495D416300417F49091D0103CF
:10773400001C224149493A0800417F0808087F415A
:10774400000041417F41410000304041413F01017F
:1077540000417F080C12614100417F41404040607C
:1077640000417F420C427F4100417F420C117F0166
:10777400001C22414141221C00417F49090909069C
:10778400000C12212161524C00417F0909196946FC
:107794000066494949494933000301417F410103D6
:1077A40000013F4140413F0100010F3140310F01D1
:1077B40000011F6114611F01004141360836414137
:1077C4000001034478440301004361514945436186
:1077D4000000007F41410000000102040810204025
:1077E40000000041417F0000000004020101020486
:1077F4000000404040404040000001020000000002
:107804000000344A4A4A3C400000413F484848305E
:1078140000003C42424224000000304848493F40B6
:1078240000003C4A4A4A2C00000000487E490900F6
:107834000000264949493F0100417F4804447840FB
:10784400000000447D40000000000040443D000072
:1078540000417F1018244242000040417F40400014
:1078640000427E027C027E4000427E4402427C4012
:1078740000003C4242423C000000417F49090906A5
:107884000000060909497F410000427E44020204C7
:107894000000644A4A4A36000000043F4444200081
:1078A4000000023E4040227E40020E3240320E0270
:1078B40000021E6218621E02004262140814624230
:1078C400000143453805030100004662524A4662FE
:1078D4000000000836410000000000007F000000A6
:1078E40000000000413608000000180808101018B5
:1078F40000AA55AA55AA55AA550902430002010037
