:040000000CD0000020
:020008007FD1A6
:100018007FD194908B80730ED36EF86A030EF76EBF
:10002800000EF66EFC0E0B6EFE0E0A6E15EC01F05D
:10003800FE0EF66EFF0EF76E0900F550001804E18B
:100048000900F55001184AE03CD80400ACA2FDD7DD
:10005800B880B8A005D0B8AEFCD7B890B89EF5D790
:10006800AE50AE5000EE09F0090E026E22D80550CF
:10007800EE6EE9500B0A0BE10950020A06E009503E
:10008800050A03E00950070A02E10A500226022E77
:10009800EDD726D8026E550E07D800EE09F0EE50BF
:1000A80003D8022EFCD7D1D704009EA8FDD7AD6E89
:1000B80012000400ABB2FF009EAAFED7AE50056E38
:1000C80012008B8C948C948E0F013A9D3A9F900E5F
:1000D800AB6E260EAC6E080EB86E12008B900CD16B
:1000E8000E50F66EA96E0F50F76E10C0F8FF00EEB6
:1000F80012F00A50026E0950090803E2FF0E096E59
:10010800010CFB6A010EFA6E09441A0FD8B0FA2ADC
:10011800F96E09D044D04BD05AD064D06DD03FD0BE
:1001280076D07FD0FF00010E126E010E136E146A96
:10013800156A166A176A3F0EF86EFF0EF76EFE0E06
:10014800F66E0900F5CF18F00900F5CF19F01A6A14
:100158001B6A400E1C6E400E1D6E200EF86EF76A6C
:10016800F66A0900F5CF1EF009001E38F5101E6E5C
:100178000900F5CF1FF009001F38F5101F6E0900A0
:10018800F5CF20F009002038F510206E0900F5CFD2
:1001980021F009002138F510216E190E120009000E
:1001A800F5CFEEFF022EFBD70A50090F1200EECF53
:1001B800F5FF0D00024E03D0F6503F0BF8E10A00A0
:1001C800840EA66E49D809000252F1E141D0940E7E
:1001D800A66E42D8400EF626E86AF722F822022ECA
:1001E800F6D736D0A66AA680A8CFEEFFA92A022E97
:1001F800F9D70A50090F1200EECFA8FF040EA66E19
:100208002BD8A6B2FED7A92A022EF6D721D0C40E23
:10021800A66EEECFF5FF0C001FD80900022EF7D707
:1002280017D0006A016A0A900A52D8A40B2A09005A
:10023800F55000260900F5500122020E0A5EF7E18A
:100248000B2EF5D700C0EEFF01C0EEFF0B0E12001B
:10025800010E126E0A0E120004000C50A76E0D500B
:08026800A76EA682000012003F
:10030000DFEF01F0FFFFFFFFFACF2AF0FBCF2BF06A
:10031000E1CF2CF0E2CF2DF0D9CF2EF0DACF2FF0B5
:10032000F3CF30F0F4CF31F01DEEBEF0F2BC9DA063
:1003300005D09EA003D0A5EC69F030D0F2BC9DAAF8
:1003400005D09EAA03D02AEC4FF028D0F2BC9DA87D
:1003500005D09EA803D052EC61F020D0F0B6F0A0FA
:1003600003D0EEEC6AF01AD0F0B8F0A203D0EBECB8
:100370006AF014D0F2B6F2A003D08FEC69F00ED080
:10038000F2BC9DA605D09EA603D03AEC1DF006D087
:10039000F2BCA0A603D0A1B61BEC6BF031C0F4FFF9
:1003A00030C0F3FF2FC0DAFF2EC0D9FF2DC0E2FF0F
:1003B0002CC0E1FF2BC0FBFF2AC0FAFF11001DEE8D
:1003C00000F0CCEF2EF0E5EC6AF02BEEF9F0DFB0A8
:1003D00049D302EC06F0696F6939E832070BE80689
:1003E00001E09AD02CEE13F0DF5001E095D000012F
:1003F000F00501016F6F1AD00001F051EE25F16F89
:10040000000EEF21F26F01016F510001F15D8C6F61
:10041000F251D8A0F2051DEC51F02CEC65F0100E55
:1004200001016F6502D06F5F01D06F6B6F51E4E126
:10043000380E0001D66F0C0ED76FEEC0D8F0EFC0AB
:10044000D9F0F051FC0FDA6FBEEC55F0D6C072F166
:10045000D7C073F1D8C074F1D9C075F1CCDB79EC99
:100460005CF04BDB72516A1909E173516B1906E1BB
:1004700074516C1903E175516D1910E02DDB050AFB
:1004800002E1E0EF62F028DB030AD8A412002CEEB0
:10049000FBF0DF50D8B41200E0EF62F01DDB030A7E
:1004A00004E1C4EC08F06EEC69F0EEC076F1EFC048
:1004B00077F1010120EE07F0CDDBDECF14FCDECFBB
:1004C00015FCDECF16FCDDCF17FC20EE0CF0C2DBF6
:1004D000DF500F0BABEC58F0B5DBDF38070B00013A
:1004E000606FB0DBDF500F0BCFEC65F076C19EF094
:1004F00077C19FF0F051D2EC25F076C1A0F077C122
:10050000A1F0F2EC50F0E66A55EC35F0000EE2ECAA
:1005100020F0D0EC20F0000C6939E832070B030A18
:1005200007E06939E832070B050A02E0D3EF47F02C
:10053000000EE8CFA1FCEEC079F1EFC07AF108CC53
:10054000E8FF020A01E0F2D02CEE58F000EE01F0D4
:100550003ADB09E1DE50EE1806E1DE50EE1803E169
:10056000DE50EE18D8A4E2D02BEEFAF0DFA4DED0F5
:1005700079C160F07AC161F0CAEC52F0000906E17D
:100580006BEC16F00909DF6EFAEF4FF0010198DA13
:10059000DECFF1F0CBDA010E716FB6EC3EF0F5DA9A
:1005A000A5DA100E646FA4EC53F0B1DAA4EC53F0AA
:1005B0005C0EC86F0C0EC96FCA0E0CDB76EC12F025
:1005C000E8DA94DA040E646FA4EC53F014DB79ECEF
:1005D0005CF093DA6A517219D3E16B517319D0E16F
:1005E0006C517419CDE16D517519CAE12CEE04F00E
:1005F000DFDA1DE32CEE04F020DB62DA14DB2CEEF4
:1006000098F05FDB0DE20101BD51BE11B9E070EC65
:1006100016F0050EC56F01D8B3D70500FA6E7ED06F
:1006200001014EDADECF04FCDDCF05FC18D048DA3C
:10063000DE50DE1010E12CEE04F0DE280CE1DE28A6
:100640000AE1000EE8CF04FCE8CF05FC2CEE06F032
:10065000DE2ADD2204D0BD51BE11D9E191D72CEEA6
:1006600004F0DE2807E1DE2805E1DE2803E1DE28CC
:1006700001E1F1D731DA080A08E120EC1CF06EEC58
:1006800069F0FADA6EEC69F006D026DA030A03E1C3
:10069000F3DA6EEC69F000DB1ADA09DABADA03E1B0
:1006A000F251F41925E0AEDA666F0001EE4BEF2B44
:1006B000F051F40F0101786F190E6E6FEEC0A0F0CB
:1006C000D6DAA26F010EA36F04CCA4F005CCA5F07E
:1006D00006CCA6F007CCA7F06C0EA86F0C0E35DA8E
:1006E000010EAD6FB8EC2AF0FF0EEE25B8DA01D09E
:1006F000E3DA2BEEF9F0DF82F4D9BD51BE1101E14E
:100700003FD770C1C2F071C1C3F078C1C4F0010E0F
:100710000001C56F01D834D70500FA6E0101BD5143
:10072000FD6EBE51FE6EFF6AFA5012002CEE14F000
:1007300000EE01F048DA09E1DE50EE1806E1DE5085
:10074000EE1803E1DE50EE1808E0D3EC47F008CCD9
:10075000E8FF020A01E114D71200B2D9DECFF1F0AE
:10076000E5D9716B010EB6EC3EF00FDABFD9100E71
:10077000646FA4EC53F0CBD9A4EC53F048EC12F026
:1007800029DA76EC12F005DAB1D9040E646FA4EC24
:1007900053F031DA79EC5CF0B0D96A51721909E1A1
:1007A0006B51731906E16C51741903E16D517519A0
:1007B00003E0D3EC47F0CBD72CEE00F0F9D928E3D7
:1007C0002CEE00F03ADA7CD92EDA2CEE96F079DABB
:1007D0001BE207EC48F085D90101BD51BE1111E0C3
:1007E00003EC48F070EC16F0C56B01D80AD0050098
:1007F000FA6E0101BD51FD6EBE51FE6EFF6AFA50E8
:1008000012000FEC48F025D001015AD94BDA15D06F
:1008100057D9DE50DE100EE12CEE00F0DE280AE1A2
:10082000DE2808E14DD93EDA2CEE02F0DE2A000E79
:10083000DD2203D0D3EC47F08AD7DB6BDA6B2CEEEA
:1008400000F0DE280AE1DE2808E1DE2806E1DE28E5
:1008500004E12BEEFAF0DF827AD73ED9030A03E1F6
:100860000BDA6EEC69F0010EE8CFE2FC79C160F0C2
:100870007AC161F0D7EC56F0010119D91DE017D902
:1008800079250001F16F22DAF26F080EF125D96E99
:10089000000EF221DA6EDF5010E0080E010179251A
:1008A0000001A76F13DAA86F010101D90001A96F38
:1008B0002FEC1EF0FCD901D0EFD909D9F8D8A9D96D
:1008C00003E1F251F4194FE09DD9666F0001EE4B40
:1008D000EF2B0101ECD80001F16FF151F05DF40F45
:1008E0000101786FE4D8190F6E6F66510EE0EEC00B
:1008F000A0F0BDD93ED966EC12F027D9AD6BB8ECAB
:100900002AF0FF0EEE25ABD92FD00001E0D8CFD8CA
:100910000001F36FF46B0D0EF327000EF423F15179
:10092000F35DF451800AF56FF251800AF5591BE22C
:10093000EEC0A0F0EFC0A1F001017805000119D9C7
:1009400062EC12F002D9AD6BB8EC2AF00101AFD81D
:100950000AE1EEC0A7F0EFC0A8F078050001A96F8A
:100960002FEC1EF0A4D9A8D977EC68F03ED9E8CFD7
:10097000F8FC2BEEF6F0DF982BEEF9F0DF822BEE91
:10098000F6F0DFA043D020EE05F07951D9267A5158
:10099000DA22DFAA38D02BEEF6F0DF90010E686F76
:1009A000A0D8BD51BE110CE0D8D801D809D005009F
:1009B000FA6EBD51FD6EBE51FE6EFF6AFA50120016
:1009C0002BEEF9F0DF922BEEF8F0DFAAC0D62BEE7B
:1009D000F6F0DFBABCD62BEEF6F0DFB204D02BEE89
:1009E000F6F0DFA6B4D6D9D800EC3CF0000908E157
:1009F000000E4DD95DEC37F02BEEF6F0DF96A7D662
:100A0000DBEC2DF0A4D6C1EC50F0A1D6010E686F3E
:100A100068D8BD51BE110CE0A0D801D809D005009E
:100A2000FA6EBD51FD6EBE51FE6EFF6AFA501200A5
:100A30002BEEF8F0DFAA8BD62BEEF6F0DFBA87D6D6
:100A40002BEEF6F0DFB204D02BEEF6F0DFA67FD669
:100A5000A4D800EC3CF00009D3E1000E18D95DECFD
:100A600037F0CAD70101BD51BE11D8B41200E2EC73
:100A70006AF00001F16FF1B70DD002D9030EC56F16
:100A80000500FA6E0101BD51FD6EBE51FE6EFF6A9A
:100A9000FA501200F5D8020EC56F0500FA6E01017A
:100AA000BD51FD6EBE51FE6EFF6AFA50120020EE7F
:100AB00005F07951D9267A51DA22DF500F0B120056
:100AC00020EE06F07951D9267A51DA221200F0513F
:100AD000F16FF26B010112002BEEF8F0DF500F0BFB
:100AE00012002BEEF8F0F00EDF16F00C616FCA0E5C
:100AF000626F020E636F656B12006BC06AF16CC0AF
:100B00006BF16DC06CF16EC06DF101011200E80E69
:100B1000606F090E616FEEC062F0EFC063F0FC0E13
:100B2000F025646F656BFF0E6523FF0CDDCFF2F0DF
:100B3000F1C06BF0F2C06CF000016D6B6E6BF051A8
:100B4000FC0F6F6F490E706F490CA96F6EC1AAF050
:100B5000D80EAB6F090EAC6F12002BEEF6F0DF9AD9
:100B600070C1C2F071C1C3F078C1C4F068C1C5F0F2
:100B70001200A26F010EA36F00CCA4F001CCA5F06F
:100B800002CCA6F003CCA7F0010CD80E606F090EC2
:100B90001200720E606F010E1200010E0001A76FAD
:100BA000670EA86F010EA96F2CEEF7F0DF50120050
:100BB00000EE06F07951E9267A51EA22DE50EE5C29
:100BC000DE50EE5812007951E9267A51EA22DE50C1
:100BD000EE181200CA6F020ECB6FD80ECC6F090E42
:100BE000CD6FF0510C0FCE6F1200000EE8CFDAFC83
:100BF000E8CFDBFC000CEEC06BF0EFC06CF0F0C097
:100C00006DF01200EEC0D9FFEFC0DAFFDF50010136
:100C100012000001F36FF46B0C0EF327000EF423A7
:100C2000F151F3191200DECFF3F0DDCFF4F0000143
:100C3000F151F35FF251F45B1200DECFF1F0DDCF42
:100C4000F2F01200010120EE0BF07651D926775117
:100C5000DA2212007651D9267751DA2212000101E8
:100C6000706FFF0E0001EF210101716F1200EFC0E4
:100C7000A1F07805000112002CEEEFF0DF50120019
:100C8000EEC0C2F0EFC0C3F0F0C0C4F01200E46FD9
:100C9000E56FE66FE76F1200080E0001EE27000E09
:100CA000EF23000CDECF00FCDDCF01FC1200A7C05B
:100CB000EEF0A8C0EFF012000101786B706B716B61
:100CC0001200F351DE5CF451DE581200000E0101F7
:100CD0007A21000112002BEEF9F0DFB0D2D1000131
:100CE000E76BE86BE96BEA6BEB6BF469F569F66946
:100CF000F769000EE8CFFBFC6BEC16F00209DF6E23
:100D0000E4CCF8F02BEEF6F0DFA451D02CEE92F00C
:100D100017DA2CEE0DF0DDD972EC4AF016DA24EC7D
:100D20001CF0DDEC5EF02CEE94F00ADA2CEE12F002
:100D3000D0D972EC4AF009DA27DADDEC5EF024EC67
:100D40001CF0F5EC4EF020DAF5EC4EF02CEEE5F070
:100D5000F7D91EDA946B956BC80E00DAD1EC58F017
:100D6000FF0E9225EC6FFF0E9321ED6FFF0E942185
:100D7000EE6FFF0E9521EF6FECC092F0EDC093F097
:100D8000EEC094F0EFC095F0D4C096F0D5C097F0C7
:100D9000986B996BD1EC58F0F851CAD992C0DEFF2C
:100DA00093C0DEFF94C0DEFF95C0DEFF45D02CEE81
:100DB0008EF0C6D92CEE0DF08CD972EC4AF0C5D964
:100DC00020EC1CF0DDEC5EF02CEE90F0B9D92CEEAE
:100DD00012F07FD972EC4AF0B8D93CEC06F0DDECA9
:100DE0005EF020EC1CF0F5EC4EF03CEC06F0F5EC7F
:100DF0004EF0F851B8D9A4D9D651D86FD751D96F80
:100E0000DA6BDB6BD829926F000ED921936F000E3D
:100E1000DA21946F000EDB21956F2CEEE5F0DECF2A
:100E2000DCF0DDCFDDF0DCC096F0DDC097F0986B34
:100E3000996BD1EC58F094D7A3D965EC68F0000910
:100E400060E09ED96EEC69F09BD9A1EC60F089C09E
:100E5000F0F08AC0F1F08BC0F2F08CC0F3F0F351E7
:100E600007E11F0EF05DAC0EF159DF0EF2591BE3E6
:100E7000F0C0D6F0F1C0D7F0F2C0D8F0F3C0D9F08E
:100E80000D0E05D0D890D933D833D733D633E82ECA
:100E9000F9D77ED9D8C094F0D9C095F07D0E5ED92F
:100EA000D1EC58F012D0F0C092F0F1C093F0F2C043
:100EB00094F0F3C095F07D0E51D9D1EC58F00D0EA1
:100EC00002D0FDEC1BF0E82EFCD792C0DFF093C0FF
:100ED000E0F094C0E1F095C0E2F0D2CCD6F0D3CCF3
:100EE000D7F0D4CCD8F0D5CCD9F0DF51D65DE86FAF
:100EF000E051D759E96FE151D859EA6FE251D95918
:100F0000EB6FF86BF851F4EC19F0FEEC3CF055E1A6
:100F1000F8510ED9E0EC19F050E02CEEE4F0F85165
:100F2000DE182FE0F85104D9DE50E85DDE50E959B3
:100F3000DE50EA59DE50EB5921E2F851F9D8DECF04
:100F4000D6F0DECFD7F0DECFD8F0DECFD9F0E85143
:100F5000D65DDA6FE951D759DB6FEA51D859DC6FAA
:100F6000EB51D959DD6FF851E3D8DAC0DEFFDBC0B1
:100F7000DEFFDCC0DEFFDDC0DEFF03D0F851D8D8D5
:100F8000FAD8F851D5D8DE50F45DDE50F559DE5070
:100F9000F659DE50F75911E3F851CAD8E0EC19F0D0
:100FA0000CE0F851C5D8DECFF4F0DECFF5F0DECF9F
:100FB000F6F0DECFF7F0010EE76FF82B0F0EF865B5
:100FC000A1D7E70554E1F4C0D2FCF5C0D3FCF6C0CC
:100FD000D4FCF7C0D5FCF75106E1F429FF0EF55912
:100FE0000F0EF65912E3F4C060F0F5C061F0F6C0E0
:100FF00062F0F7C063F065EC16F072EC4AF00C0E8C
:10100000D1EC21F0E82EFCD71CD0F4C0D6F0F5C00E
:10101000D7F0F6C0D8F0F7C0D9F00C0ED890D6377C
:10102000D737D837D937E82EF9D7D6C060F0D7C030
:1010300061F0D8C062F0D9C063F065EC16F072ECD4
:101040004AF060C0E3F061C0E4F062C0E5F063C064
:10105000E6F0E3C06DF0E4C06EF0E5C06FF0E6C00E
:1010600070F08ED8DDEC5EF08BD8F5EC4EF00BEC2A
:1010700048F0D8A412006BEC16F00809DF6EFAEF06
:101080004FF0E2EC6AF00001D66FD6A911D085D8F6
:10109000D8B4120070EC16F0020EC56F0500FA6E9F
:1010A0000101BD51FD6EBE51FE6EFF6AFA50120085
:1010B00074D8D8B4120070EC16F0030EC56F05009A
:1010C000FA6E0101BD51FD6EBE51FE6EFF6AFA500F
:1010D0001200DF50D86FD96BEA0ED825F66EF60EE7
:1010E000D921F76EF86A000EF8220800F5CFDAF081
:1010F000D651DA25DB6F000EDABFFF0ED721DC6F89
:10110000DD6BDE6B0C0ED890DB37DC37DD37DE377E
:10111000E82EF9D7DBC060F0DCC061F0DDC062F022
:10112000DEC063F07D0E646F656B666B676B7D0C74
:10113000120DC40EF324D96E080EF420DA6E1200DC
:10114000DECFD6F0DDCFD7F0120060C06DF061C009
:101150006EF062C06FF063C070F01200966F976B14
:10116000986B996B1200120DC20EF324D96E080E03
:10117000F420DA6E1200DE6ADE6ADE6ADD6A1200D0
:101180002CEEF3F0DF5012002CEEEDF0DF501200E9
:10119000D6C092F0D7C093F012000101BD51BE112C
:1011A00012007E6B7F6B766B776B010E0001616FB7
:1011B000B00E606F6269D7EC5BF0010E0001616FE9
:1011C000B10E606F6269D7EC5BF090EC6AF0FFD90A
:1011D0007627000E77230001616B606B79C162F0A6
:1011E000D7EC5BF001017E4B7F2B7A0E0001606F24
:1011F000010E616F790E626F010E636F13EC64F084
:1012000001017951D3D9D7EC5BF001017E4B7F2BE3
:10121000806B030E806501D005D098D9D7EC5BF0C8
:10122000E1D9F7D78FC27AF190C27BF17C6B7D6BED
:101230007B517627C5D97BC162F0D7EC5BF0010109
:101240007E4B7F2B7A517627BBD97AC162F0D7ECDF
:101250005BF001017E4B7F2B98EC6AF0796F79513E
:10126000A5D9D7EC5BF001017E4B7F2B0BEC69F02D
:1012700060C07AF161C07BF162C07CF163C07DF136
:10128000806B030E806501D005D060D9D7EC5BF090
:10129000A9D9F7D726EC69F060C07AF161C07BF17B
:1012A00062C07CF163C07DF1806B030E806501D06C
:1012B00005D04CD9D7EC5BF095D9F7D7660E000175
:1012C0006B6F010E6C6F4FEC68F00101806B070EC5
:1012D000806501D005D052D9D7EC5BF083D9F7D720
:1012E000660E00016B6F010E6C6F9AEC66F00101E7
:1012F000806B070E806501D005D040D9D7EC5BF03C
:1013000071D9F7D7660E00016B6F010E6C6F39EC67
:1013100068F00101806B0F0E806501D005D02ED9D9
:10132000D7EC5BF05FD9F7D7660E00016B6F010E4B
:101330006C6F23EC68F00101806B0F0E806501D0AB
:1013400005D01CD9D7EC5BF04DD9F7D7660E00015C
:101350006B6F010E6C6F2EEC68F00101806B0F0E4D
:10136000806501D005D00AD9D7EC5BF03BD9F7D71F
:101370002FEC69F060C07AF161C07BF162C07CF152
:1013800063C07DF1806B030E806501D005D0DED88F
:10139000D7EC5BF027D9F7D7660E00016B6F010E13
:1013A0006C6F5EEC66F00101806B0F0E806501D002
:1013B00005D0E4D8D7EC5BF015D9F7D7660E00015D
:1013C0006B6F010E6C6F4FEC66F00101806B0F0EBE
:1013D000806501D005D0D2D8D7EC5BF003D9F7D720
:1013E0001DEC69F060C07AF161C07BF162C07CF1F4
:1013F00063C07DF1806B030E806501D005D0A6D857
:10140000D7EC5BF0EFD8F7D725EC6AF0796F79511C
:10141000CDD8D7EC5BF001017E4B7F2B786B020EB1
:10142000786501D01DD07851A5EC64F0D0D8BED835
:10143000D7EC5BF0E5D8BEEC65F0C9D8B7D8D7ECEF
:101440005BF0DED884EC62F0D2D8030E806501D068
:1014500005D07CD8D7EC5BF0C5D8F7D7782BDFD791
:10146000786B1C0E786501D03AD07851030F21ECCF
:1014700067F060C07AF161C07BF162C07CF163C04B
:101480007DF10101806B030E806501D005D05ED82F
:10149000D7EC5BF0A7D8F7D77851030F84EC62F054
:1014A000A6D8030E806501D005D050D8D7EC5BF0EC
:1014B00099D8F7D77851030FBEEC65F088D876D865
:1014C000D7EC5BF09DD8030FA5EC64F080D86ED804
:1014D000D7EC5BF001017E4B7F2B782BC2D794ECCD
:1014E0006AF0796F795162D8D7EC5BF001017E4BDD
:1014F0007F2B2FEC6AF0796F795158D8D7EC5BF0DD
:1015000001017E4B7F2B762904E1772902E1766B7E
:10151000776B7EC160F07FC161F076C162F0D7EC7D
:101520005BF001017E4B7F2B7EC160F07FC161F0DB
:1015300077C162F0D7EC5BF001017E4B7F2B00019D
:1015400020EE06F0EE51D926EF5145D07A0E8025D7
:10155000D96EDA6A010EDA22DF507627000E772381
:101560007EC160F07FC161F07A0E8025D96EDA6AA3
:10157000010EDA22DF500001626F1200660E802534
:10158000D96EDA6A010EDA22DF507627000E772351
:101590007EC160F07FC161F0660E8025D96EDA6A87
:1015A000010EDA22DF500001626F12007627000E72
:1015B00077237EC160F07FC161F079C162F0000CD9
:1015C000000E77237EC160F07FC161F0000C010145
:1015D000796F79511200DA2200C2DEFF01C2DEFF0C
:1015E000DD6A120001017E4B7F2B802B120063C04D
:1015F0007AF164C07BF101017C6B7D6B806B120022
:1016000001017E4B7F2B78511200EEEC1FF0C0ECF5
:1016100035F0AFEC22F0A8EC33F00201AE51C3EC90
:1016200037F00201AB0501E06BD1A1C262F0390EC7
:10163000E5EC66F0B5C2A0F0010E0001A0170201B2
:10164000D890B4350001A16F0201AD39CBD91D0E80
:10165000E5EC66F09FC0A0F0030E0001A017AFC23A
:10166000A1F0010EA117D890A137D890A13702019F
:10167000AC39B8D91E0EE5EC66F00201B151B211D9
:1016800042E0B1C2A3F0B2C2A4F00001A56BA66B08
:1016900024D09FD97D0E0001AEEC08F0D1EC58F0BB
:1016A00011D097D9FA0E0001AEEC08F0D1EC58F049
:1016B00009D08FD9F40E0001966F010ECDEC2BF0FE
:1016C000D1EC58F092C0A3F093C0A4F094C0A5F060
:1016D00095C0A6F00BD08CD909D00201AD51070AF4
:1016E000D8E00F0ADEE0010AE4E0F5D70201AC29F8
:1016F0000001A06F05D0D890A633A533A433A3333F
:10170000A02FF9D701D074D9A3C062F0240EE5EC64
:1017100066F09EC062F01F0EE5EC66F0260E65ECEA
:1017200065F0A76F0C0E0201AC1906E1070EAD19AA
:1017300009E0080EAD1906E00B0EAC1906E1070E24
:10174000AD1903E10001A78702D00001A797A78583
:10175000A7C062F0260EE5EC66F0310E65EC65F090
:10176000A76FF80EA717030EA7135AD9E5EC66F07A
:101770000A0E0001626F370EE5EC66F0120E0201F0
:10178000C41925E1070EAD1903E0080EAD1913E1E8
:10179000310E65EC65F0A76FA79F42D9E5EC66F0C6
:1017A000400E0001626F2F0EE5EC66F00001626BE7
:1017B000300EE5EC66F0090E0201AD1908E1310EBC
:1017C00065EC65F0A76FA78F2BD9E5EC66F0330EBB
:1017D00065EC65F0A76FA79DA781B3C2A0F0010ECD
:1017E000A017060EA16FD890A037A12FFCD7A0514B
:1017F000A713A7C062F0330EE5EC66F0B3C2A0F009
:10180000010E0001A017D890A037D890A035FF0A8C
:101810001D0BA76FA7C062F03B0EE5EC66F0F2D897
:10182000200EE5EC66F09FC262F0210EE5EC66F05A
:1018300000D9E5EC66F00001626B0E0EE5EC66F097
:101840000001626B0F0EE5EC66F0120E0201C41986
:1018500054E1090EAD191AE1800E935D130E9459EF
:10186000610E9559330E965911E39305F70E94596D
:10187000CB0E95593C0E965909E2020ECBD8E5ECF9
:1018800066F0640EC4D8E5EC66F022D0090EAD19FE
:101890001BE1800E935D1A0E9459700E9559180E27
:1018A000965912E3410E935DDD0E94594A0E9559F7
:1018B0001F0E965909E2020EADD8E5EC66F07F0ED8
:1018C000A6D8E5EC66F004D0030EA4D8E5EC66F0EB
:1018D000090E0201AD190AE1B30508E18FD8E5EC64
:1018E00066F0190E9AD8E5EC66F007D087D8E5ECDB
:1018F00066F01D0E92D8E5EC66F098D8E5EF66F03C
:1019000097C26DF098C26EF099C26FF09AC270F0F3
:1019100013EC52F09BC26DF09CC26EF09DC26FF052
:101920009EC270F023EC51F06DD8250EE5EC66F008
:101930009FC262F0260EE5EC66F00A0E65EC65F0DB
:10194000A76F9F0EA7170201C739E846E00B0001F9
:10195000A713A7C062F00A0EE5EC66F0C80E0001FE
:10196000A76F0201AF5102E00001A789A7C062F092
:10197000300EE5EC66F00001A26B0ED0A20EA2259F
:10198000D96EDA6A020EDA22DF50626FA251280F96
:10199000E5EC66F00001A22B0201AA510001A25D54
:1019A000EDE30201AA5108E0AA0510090001626FE7
:1019B000270EE5EC66F005D00001626B270EE5EC22
:1019C00066F0000162693E0EE5EC66F02CD8E5EFAA
:1019D00066F0A3C092F0A4C093F0A5C094F0A6C096
:1019E00095F01200F00B0001A111A011626F12001E
:1019F0000001A36BA46BA56BA66B1200650E000122
:101A0000626F3A0C0201A0510001626F12000001E6
:101A1000626F3A0C0001626F360C0001626F3B0C82
:101A2000A7C062F0310C000162693F0C00016269DD
:101A3000120C0001626B0D0C0001C86BC96B616B6D
:101A4000606BB7EC67F00001C36FC84BC92BC3C014
:101A5000C0F0C16BC35113EC20F0C0D9B7EC67F0F4
:101A6000A4D9CA6BABD9B7EC67F07CD9CA65FAD7F1
:101A7000C4C065F0C5C066F0C6C067F0C7C068F0F6
:101A8000C3C069F060EC5AF0A9D9B7EC67F08DD902
:101A9000C3C0BCF0BD6BBC51BD6FBC6B9FD9B7EC74
:101AA00067F083D9C351BC27000EBD23BCC060F0D2
:101AB000BDC061F04DEC6AF0BCC0BEF0BDC0BFF06F
:101AC0008DD9B7EC67F071D9C35183EC5AF000019E
:101AD000CA6B74D9B7EC67F045D9CA65FAD7C4C0E8
:101AE00060F0C5C061F0C6C062F0C7C063F053ECDF
:101AF00069F0CA6B63D9B7EC67F034D9CA65FAD715
:101B0000C4C060F0C5C061F0C6C062F0C7C063F079
:101B10005CEC69F0CA6BCA51AC0F59D9B7EC67F0ED
:101B2000DF6E2ED9CA65F7D7BEA105D0AC0E6B6F9C
:101B30006C6B9BEC61F0CA6BCA51AC0F48D9B7EC27
:101B400067F0DF6E1DD9CA65F7D7BEA305D0AC0E0E
:101B50006B6F6C6BCBEC61F0CA6BCA51AC0F37D9B1
:101B6000B7EC67F0DF6E000144D917D9CA65F5D725
:101B7000BEA505D0AC0E6B6F6C6B52EC64F0CA6BFB
:101B8000CA51AC0F24D9B7EC67F0DF6E000131D930
:101B900004D9CA65F5D7BEA905D0AC0E6B6F6C6BC6
:101BA00083EC61F0CA6BCA51AC0F11D9B7EC67F086
:101BB000DF6E00011ED9F1D8CA65F5D7BEAB05D0DE
:101BC000AC0E6B6F6C6B3DEC64F00DD9F7D8B7ECD5
:101BD00067F0C8D8CA65FAD7BEA70AD0C4C060F0FB
:101BE000C5C061F0C6C062F0C7C063F09DEC67F08D
:101BF000CA6BCA51AC0FEBD8B7EC67F0DF6E0001CF
:101C0000F8D8CBD8CA65F5D7BEAF05D0AC0E6B6F90
:101C10006C6B21EC66F0CA6BCA51AC0FD8D8B7EC2C
:101C200067F0DF6E0001E5D8B8D8CA65F5D7BFA167
:101C300005D0AC0E6B6F6C6B11EC66F0D4D8BED8CF
:101C4000B7EC67F08FD8CA65FAD7BEAD0AD0C4C06A
:101C500060F0C5C061F0C6C062F0C7C063F0F4ECCC
:101C600067F0BCD8B7EC67F0A0D8C351F8EC5BF0D4
:101C70000001C26B020EC26501D021D0AFD8B7EC13
:101C800067F093D8C351010ED8B4000E656FC251EE
:101C90009BEC5FF0A3D8B7EC67F087D8C3C066F0C1
:101CA000C25120EC61F09FD889D8B7EC67F05AD8C0
:101CB000CA65FAD7A3D893EC63F0C22BDBD7C26B0B
:101CC0001C0EC26501D034D08ED878D8B7EC67F03E
:101CD00049D8CA65FAD7C4C065F0C5C066F0C6C0A9
:101CE00067F0C7C068F0C251030F0DEC5BF07BD802
:101CF00065D8B7EC67F036D8CA65FAD77FD8030F36
:101D000093EC63F06BD8B7EC67F04FD8C3C066F0C4
:101D1000C251030F20EC61F061D8B7EC67F045D8F1
:101D2000C3C065F0C251030F9BEC5FF0C22BC8D754
:101D300055D8B7EC67F039D8C351B3EC61F04ED841
:101D4000B7EC67F032D8C351D6EC66F00001C02979
:101D500004E1C12902E1C06BC16BC0C0AAF0C1C0DF
:101D6000ABF01200DF6E0001C84BC92BCA51C40F83
:101D7000D96EDA6ADF50C027000EC123CA2B030CCC
:101D80000001C84BC92BCA51AC0FD96EDA6ADF50BB
:101D9000C027000EC123CA2B070CD96EDA6ADF50A8
:101DA000C027000EC123CA2B0F0C0001C36FC84B04
:101DB000C92BC351C027000EC123000CCA51C40F48
:101DC000D96EDA6AC8C060F0C9C061F01200D96E7D
:101DD000DA6AC8C060F0C9C061F01200C8C060F023
:101DE000C9C061F01200C46BC56BC66BC76BCA6B10
:101DF0001200C84BC92BCA51AC0F1200C4C063F00B
:101E0000C5C064F0C2511200EEC0D9FFEFC0DAFFC6
:101E1000DECFF3F0DDCFF4F0000120EE02F0B0D918
:101E2000DECFF5F0DDCFF6F0010EF76FF869F3C005
:101E3000C5F0F4C0C6F05AEC39F0F86FF8BF8BD19A
:101E4000F96B070EF96501D086D1F951020D280E04
:101E5000F324D96E020EF420DA6EDECF60F0DDCF0F
:101E600061F0F5C062F0F6C063F012EC47F060512B
:101E7000611101E06DD1B70EF8257DD908EC47F06E
:101E8000F5CFF0F0F9C0F1F0010EF26FF12B02D0B6
:101E9000D890F237F12FFCD70001F251F01501E193
:101EA00057D1F76B26D10F013891929051D10F0184
:101EB000389192804DD192800F01388149D1F951EA
:101EC000F2E0010AF4E0030AF6E012D00F013893C1
:101ED00092923ED10F01389392823AD192820F01B1
:101EE000388336D1F951F2E0010AF4E0030AF6E052
:101EF000010A2ED10F01389592942AD10F013895FD
:101F0000928426D192840F01388522D1F951F2E0D2
:101F1000010AF4E0030AF6E0EBD70F013897929636
:101F200017D10F013897928613D192860F01388707
:101F30000FD1F951F2E0010AF4E0030AF6E0D8D734
:101F4000929806D1928804D1F951FAE0010AFAE098
:101F5000020AFED00F01389B929AFAD00F01389BEB
:101F6000928AF6D0928A0F01388BF2D0F951F2E0C2
:101F7000010AF4E0030AF6E0BBD70F013C9196900A
:101F8000E7D00F013C919680E3D096800F013C8111
:101F9000DFD0F951F2E0010AF4E0030AF6E0A8D735
:101FA0000F013C939692D4D00F013C939682D0D0EF
:101FB00096820F013C83CCD0F951F2E0010AF4E0A3
:101FC000030AF6E095D70F013B959594C1D00F0118
:101FD0003B959584BDD095840F013B85B9D0F951CF
:101FE000F2E0010AF4E0030AF6E082D70F013C9523
:101FF0009694AED00F013C959684AAD096840F019A
:102000003C85A6D0F951F2E0010AF4E0030AF6E0BB
:102010006FD70F013A9B949A9BD00F013A9B948AF9
:1020200097D0948A0F013A8B93D0F951F2E0010ACC
:10203000F4E0030AF6E05CD70F013B9B959A88D049
:102040000F013B9B958A84D0958A0F013B8B80D0F2
:10205000F951F2E0010AF4E0030AF6E049D70F0172
:102060003B9F959E75D00F013B9F958E71D0958EAD
:102070000F013B8F6DD0F951F2E0010AF4E0030A41
:10208000F6E036D70F013B9D959C62D00F013B9D3A
:10209000958C5ED0958C0F013B8D5AD0F951F2E0B2
:1020A000010AF4E0030AF6E023D7929E51D0928E03
:1020B0004FD0F951FAE0010AFAE04AD7929C48D091
:1020C000928C46D0F951FAE0010AFAE041D7939C8C
:1020D0003FD0938C3DD0F951FAE0010AFAE038D7AD
:1020E000939E36D0938E34D0F951FAE0010AFAE08B
:1020F0002FD7F85101E1E3D6010A01E1F3D6030A33
:1021000001E104D7010A01E114D7070A01E11CD754
:10211000010A01E12BD7030A01E13BD7010A01E1E2
:102120004BD70F0A01E15BD7010A01E16BD7030A24
:1021300001E17BD7010A8CE0070A9DE0010AAEE0CD
:10214000030AB7E0010ABEE01F0AC5E0010ACCE0BD
:102150000001F92B76D6F75141EC24F0DECFF0F0F8
:10216000DDCFF1F020EE06F00BD8F0C0DEFFF1C0BD
:10217000DEFFDD6A1200F66EF76AF60EF722120035
:10218000EE51D926EF51DA221200DF6F100E000156
:10219000E36FE16BE00E606F616B636B626B656BAD
:1021A000010E646F67EC64F05ED967EC64F0F7ECE5
:1021B0003EF0EAEC3EF067EC64F0DF0506E1E0514A
:1021C0001F0B8009E06F8ED904D0E0511F0B40092E
:1021D000E06FFC0EE017E30EE017E70E68D9E0C0F1
:1021E000DFFFE32B39D9FCEC3EF0E5EC3EF0A4EC4C
:1021F00053F0040EE327E26B2BEEF8F0DFAC3FD098
:10220000E28FFBEC42F017E2E28D2BEEF6F0DF8876
:102210002CEEDAF0DE2A000EDD222CEEDAF0DECF34
:10222000DBF0DDCFDCF02CEE9CF0DF50DB19DC11B5
:1022300006E150D9E29D2BEEF6F0DF9820D02CEE8F
:10224000DAF00CEE9CF0EF50DD6FDE6BDE50DD5D02
:10225000DE50DE59EFE2F8CCE8FF010FE8CFF8FCE2
:102260002CEE9DF00CEEF8F0DE50EE5C08E332D977
:10227000B9EC42F0000903E1F5EC05F0DBD72BEEF9
:10228000F6F0DFA204D0E28B2BEEF6F0DF92E299BB
:102290002CEEA1F0DF5003E0D951DA1113E1F00E7A
:1022A000E2170101DB5106E008D9020EDB27E251FB
:1022B000DB1914D90101DA510AE0FFD8DB2BE25116
:1022C000DB1904D08EEC46F0DB6FE21907D9E70E7C
:1022D0000001EDD8E2C0DFFFE32BBED8FC0E626F39
:1022E0000B0E636F656B020E646FA4EC53F0020E6D
:1022F000E3272CEEA1F0DF500EE0D951DA110BE00C
:10230000E70E606F0A0E616FE30E626F010E636F7E
:102310002DEC1CF028D02CEEA1F0DF5024E10101BF
:10232000D95109E0E70E0001606F0A0E616FE30EFC
:10233000626F28EC64F00101DB5109E0E70E000157
:10234000606F0A0E616FE30E626F87EC60F001014F
:10235000DA5109E0E70E0001606F0A0E616FE30ECB
:10236000626FB9EC64F0E70E0001A1D8D6C0DFFFC0
:10237000E32BD951DA1118E06FD8D7C062F0D8C07A
:1023800063F0D9C064F0DAC065F0A4EC53F0D7C0B4
:10239000A0F0D8C0A1F0D9C0A2F070D897D87ED84C
:1023A000B8EC2AF0D95119D02CEEA1F0DF5016E08C
:1023B000D80E606F090E616FE10E626F636B2DECDA
:1023C0001CF0D80EA06F090EA16FE1C0A2F056D884
:1023D00079D864D8B8EC2AF0E151E327FCCB6BF054
:1023E000FDCB6CF0FECB6DF0FFCB6EF0E351F00F48
:1023F0006F6F490E706F000E716BB6EC3EF0E70E1A
:10240000606F0A0E76EC05F0100E646FA4EC53F0CA
:102410003FD8CA6F020ECB6FE70ECC6F0A0ECD6F9E
:10242000E3C0CEF076EC12F017D8E3EC55F0E5EC13
:102430003EF0A4EC53F0040EE327F00EDB6FDC69F2
:10244000E351DD6FDE6BDB51DD27DC51DE23DDC0C8
:10245000DEFCDEC0DFFC1200E70EE325606F616B7F
:102460000A0E61231200E70E606F0A0E616F636B44
:10247000626B010E656F0F0E646F0F0CA36BFCCBCC
:10248000A4F0FDCBA5F0FECBA6F0FFCBA7F0120089
:10249000180EC86F0C0EC96FCA0E1200A96FE3C0E8
:1024A000AAF0E70EAB6F0A0EAC6FAD6B1200E3251E
:1024B000D96EDA6A0A0EDA2212000001E2510F0B1D
:1024C000DB6F1200180EA86F0C0E1200280EA86FFA
:1024D0000C0E1200000EE8CFF8FC000CF00BDB191C
:1024E000E26F12002BEEF6F0DF8012000101656B47
:1024F000646B626B606B616BC8C0A0F0C9C0A1F077
:10250000100E0001A26F010EA36F000EA46F010E4A
:10251000A56F10EC31F0CE51CF6FD06B0F0ECF27DF
:10252000000ED023040ED16FD035D033CF33D12F4E
:10253000FBD7CF510101636F635104E1010E636F5B
:10254000626B0AD0CEC0CFF00F0E0001CF17010E84
:10255000D8A4000E0101626F62052EE1646B635125
:10256000100DF350F00F656F18D0200E0101642597
:102570001AD9100E6425E96EEA6A010EFAD8010133
:1025800065510001CC25E96E000ECD21EA6EEF50B9
:10259000CF19DF6E0101642B652B6351C6D8010191
:1025A0006551FDD8CF51D15DD251800AD36FD05142
:1025B000800AD35940E2D9D70001CE51CC25CF6F44
:1025C000000ECD21D06FCE510F0BCF5D0101606F9A
:1025D0000001D051D8A0D0050101616F656BE8D82A
:1025E00065610CD065516025D96E000E6121DA6EEF
:1025F000300ECAD8EA22DFCFEFFF09D0D9D865194B
:1026000004E1B0D8800EDF6E02D0ACD8DF6A652B53
:102610000F0E6565E4D7656B200E6525C4D8000EE6
:102620006525E96EEA6A010EA4D8300E0101ACD826
:1026300089D86565F1D7500E0001606F010E616F9A
:10264000EAEC3EF067EC64F00101656B34D0010107
:10265000646B400E6425B1D8655167D8CCC0D1F009
:10266000CDC0D2F096D864510001D125E96E000E9C
:10267000D221EA6EEF50D36F500E010164256ED85F
:10268000EA22EF500001D319DF6E0101642B0F0E17
:102690006465DFD7500E0001606F010E616F5AD87C
:1026A0003FD8A4EC53F0500E8C6F010E67D82CEC81
:1026B00065F00101652B0001CF69D069010163510B
:1026C0006ED867D865510001D36FD46BD151D35DFB
:1026D000D451800AD56FD251800AD559B8E301018F
:1026E000656B400E652569D8200E6525E96EEA6A9E
:1026F000010E3FD8500E0101652530D823D86565FD
:10270000F0D7400E00018C6F010E38D82CEC65F02C
:10271000CAC060F0CBC061F01DD802D8A4EF53F05E
:10272000636F656B100E646F100C0001CF6FD06B80
:10273000CF3BD03BF00ED017CF510F0BD013F00E84
:10274000CF17F00CEA22EF500001CF19DF6E010124
:10275000652B0F0C400E626F010E1200E96EEA6AE3
:10276000010E1200300E6525D96EDA6A010EDA22EA
:102770001200EA22EF500001CF6F12008D6FC8C027
:102780008EF0C9C08FF012006525E96EEA6A010E6D
:102790001200CF51D127D051D223010112000001E4
:1027A000D16FD26B1200D96EDA6A010EDA221200F2
:1027B0000001CE510F0B01011200D96EDA6A010E31
:1027C000DA22120000017B6F796B7A6B080E7B199D
:1027D0002EE126EEA2F0DE50DE10D8B412001BD996
:1027E0005D0E7025D96E040E7121DA6EDF5014E192
:1027F000A1C6E8FFFF0FE8CFA1F602D9DECFA4F60D
:10280000DDCFA5F6FDD8DE6ADD6A26EEA1F0DF5049
:1028100009D9DE6ADD6A05D026EEA4F0DE06000ED8
:10282000DD5A26EEA2F0DE06000EDD5A000C26EE82
:10283000A2F0250EDE5C020EDE5846E2200E7B1969
:1028400045E126EEA1F0060EDF603ED0E4D805D9C2
:10285000000EDF6A26EEA2F0DE2ADD2226EEA4F0CC
:1028600006EEA1F0EF50020D840EF324E96E060E81
:10287000F420EA6EDECFEEFFDDCFEDFF7069716907
:1028800026EEA4F0F1D826EEA2F0DECF74F0DDCF74
:1028900075F07251745F7351755B7051742771518B
:1028A000752326EEA1F0DF50BDD874C0DEFF75C0E1
:1028B000DDFFA1C6E8FF010FE8CFA1F6000EE8CFCB
:1028C000A4F6E8CFA5F677D0796975D0A4D8C5D895
:1028D0007BC0DFFF26EEA2F0DE2A000EDD2226EE10
:1028E000A4F0DE2ADD2283D83DEC5AF026EEA2F0D9
:1028F0006051DE5C6151DE582EE3010E7A6F77D8AD
:102900003DEC5AF060517C6F22D085D8B2D87C5112
:10291000725F000E9AD8DF50746F69D83DEC5AF0A0
:10292000E70E756FFF0E766F605175276151762344
:102930007C51755F000E765B75C0F6FF76C0F7FFC1
:10294000F86A0800F550741901E07A6B7C077C5135
:1029500002E07A51DAE17A512EE05DD848D83DECB8
:102960005AF087D86051725F61516FD8DF6A3FD8E3
:102970003DEC5AF026EEA4F05DD86051705F6151D5
:10298000715B3ED870C0DEFF71C0DDFF26EEA4F0A3
:1029900051D826EEA2F068D87051725F7151735B06
:1029A00026EEA1F0DF503ED872C0DEFF73C0DDFF1F
:1029B000010EE8CFA0F67929D8A412009BEC62F0B2
:1029C00053C260F054C261F0A2EC18F03DEC5AF032
:1029D00060C077F061C078F053C266F054C267F00F
:1029E0002ED877C069F078C06AF0C0EF49F0E70EE2
:1029F000606FFF0E616F6011D8A4000E626F12004D
:102A000026EEA1F0DF50020D840EF324D96E060EDF
:102A1000F420DA6E120026EEA2F0DECF70F0DDCFE9
:102A200071F01200020D920EF324D96E060EF420FE
:102A3000DA6E1200DECF70F0DDCF71F01200665159
:102A40006711D8A4000E686F1200735B7051722575
:102A5000D96E71517321DA6E12005E0E7025D96E37
:102A6000040E7121DA6E1200DECF72F0DDCF73F04A
:102A700012005E0E726F040E736F12000001DA69AD
:102A8000DB69DC69DD692BEEF9F0DFB00DD16CECB0
:102A900005F0030A10E12CEE08F0DF5004E11BD929
:102AA0000409DF6E120008CCE8FF020AD8A4120065
:102AB000E66A0BEF3FF02BEEF6F0DFB4E0EF62F0EA
:102AC0002BEEF8F0DFA8E7D02BEEF6F0DFA042D037
:102AD00059EC28F029E3FFD8EDEC50F0DECFD4F02C
:102AE000DDCFD5F0D451D66FD551D76FD86BD96B18
:102AF0000C0ED890D637D737D837D937E82EF9D734
:102B0000D6C060F0D7C061F0D8C062F0D9C063F021
:102B1000DCD872EC4AF0A5EC08F0EDD8DDEC5EF004
:102B2000EAD8F5EC4EF0B7D04AEC69F00101BD519E
:102B3000BE1101E1B0D0000ED3D8C56B01D8ABD027
:102B40000500FA6E0101BD51FD6EBE51FE6EFF6AB9
:102B5000FA5012002CEEE2F00CEEE0F0DE50EE5CEB
:102B600001E284D0B8D80609DF6E010E05EC4CF006
:102B7000000913E1F7EC4BF0FDEC20F0A851A9118E
:102B800005E1B3D8A8D80109DF6E85D070EC68F0F4
:102B90000101BD51BE11CFE17ED0DE6B3AD0DE51D6
:102BA000F4EC19F0FEEC3CF033E1DE5198EC08F067
:102BB000E0EC19F02DE0DE5198EC08F0DE50DA5D23
:102BC000DE50DB59DE50DC59DE50DD5921E3DE51A9
:102BD000F6EC3CF0DF500F0BD46F2CEEE9F0D45143
:102BE000DE5C16E32CEEE9F0DE5148EC2EF0EF3817
:102BF0000F0BD56FDE50D55D0BE3DE5198EC08F07E
:102C0000DECFDAF0DECFDBF0DECFDCF0DECFDDF0E2
:102C1000DE2B2CEEF7F0DE51DE5CC1E2DAC0D4F040
:102C2000DBC0D5F0DCC0D6F0DDC0D7F00C0ED890FC
:102C3000D437D537D637D737E82EF9D7000ED42575
:102C4000606F200ED521616F030ED621626F000EDA
:102C5000D721636F3AD872EC4AF0A5EC08F04FD850
:102C6000DDEC5EF04CD8F5EC4EF015D070EC68F071
:102C70000101BD51BE110FE033D8010EC56F01D85F
:102C80000AD00500FA6E0101BD51FD6EBE51FE6E07
:102C9000FF6AFA5012000BEC48F0D8A412001BD8BF
:102CA0000909DF6EFAEF4FF0CDEC08F0D8B412004E
:102CB00017D8020EC56F0500FA6E0101BD51FD6EF9
:102CC000BE51FE6EFF6AFA5012007D0E646F656B96
:102CD000666B676B7D0C2BEEF8F0DF50F00B12008B
:102CE0000001C26BC36BC46B1200E2CCE8FF010FA2
:102CF000E8CFE2FC12002CEEF2F0DF5012002CEED6
:102D0000F4F0DF5012008F6B63C2A2F164C2A3F132
:102D1000A251A311D8A4000EA46F926B31D092518E
:102D2000090DF3508125886FF4508221896F000EC0
:102D300083218A6F88C1F6FF89C1F7FF8AC1F8FF36
:102D400021EE93F0080E0AD9FEE293C160F094C11F
:102D500061F0855112EC15F0DECF88F1DDCF89F1FD
:102D60005E0E88250001626F040E010189210001B9
:102D7000636F12EC47F06051611105E00101922B85
:102D80008451925DCCE301018451925D01E3ACD0AA
:102D900095519611971101E09CD09851991101E13C
:102DA000A3D09B51886F896B8551A1C68AF18AC1D6
:102DB0008BF18C6B8B5F000E8C5B88518B1903E160
:102DC00089518C19D8A490D08529916F906B9B5113
:102DD00012E0912B9105020D840EF324D96E060E9C
:102DE000D5EC43F003E1010E906F05D026EEA1F083
:102DF0009151DE5CEEE2905177E19C0E0001606F34
:102E0000010EADEC62F0090E646F67EC64F0010135
:102E10008551886F896B882B000E8923895114E1B5
:102E2000070E885D11E280D8860E8825D96E060EC1
:102E30008BD80AE079D8940E8825D96E060E7BD8F7
:102E40009C6F040E8B219D6F8551886F896B020EDC
:102E500080D814E1070E885D11E266D8880E8825B7
:102E6000D96E060E71D80AE05FD8960E8825D96E05
:102E7000060E61D89E6F040E8B219F6F8551886F5F
:102E8000896B030E66D814E1070E885D11E24CD8F9
:102E90008A0E8825D96E060E57D80AE045D8980EB6
:102EA0008825D96E060E47D8A06F040E8B21A16F1E
:102EB0009C0E0001EE6F010EEF6F01D815D00500DA
:102EC000FA6E01019851FD6E9951FE6EFF6AFA503B
:102ED0001200010E8F6F86C1D9FF87C1DAFF92C140
:102EE000DFFFA26BA36BA46B0101A251A311A4117C
:102EF00018E0A2C160F0A3C161F0A4C162F03DEC92
:102F00005AF060C08DF161C08EF1A2C166F0A3C11C
:102F100067F0A4C168F08DC169F08EC16AF0C0ECA1
:102F200049F001018F5112008551886F896BD8904B
:102F30008837893712008921DA6EDECF8AF1DDCF3A
:102F40008BF15E0E8A2512008921DA6EDE50DE10CA
:102F500012008827000E8923895112000900F5CF3D
:102F6000DEFFE8061200D6D0C45154E023D91EC2B9
:102F700062F01FC263F06BEC61F0DBD83DEC5AF0FD
:102F8000F7D8AE6F060ED321AF6FC2C0D9FFC3C052
:102F9000DAFFDF50B06FF5EC3BF0C1EC5EF0C9D862
:102FA0003DEC5AF0E5D8F3D8D24BD32BC669C769AC
:102FB000C451C86FC96BC651C827C751C923120E67
:102FC000CA6F020ECB6FD251CA5FD351CB5BD89080
:102FD000CB31CD6FCA31CC6FC851CC5DC951CD5901
:102FE00003E2B6D8DBD806D0FF0EC425CE6FCF6B78
:102FF000FF0ECF23C229B66F000EC321B76FBFD813
:103000005FEC3FF096D83DEC5AF0ADD8CDD8D8A4BF
:10301000200E0DD01AC260F01BC261F093D83DECB7
:103020005AF0A1D81AC266F01BC267F06ED0686F62
:10303000D0C069F0D1C06AF0C0EF49F0C45125E0BA
:10304000B9D81CC262F01DC263F06BEC61F071D89C
:103050003DEC5AF08DD89BD8D24BD32B79D8C96F81
:10306000C631C86FC451C85D000EC95903E270D89B
:1030700095D803D0C4C0CEF0CF6BC2C0B6F0C3C0E9
:10308000B7F07DD85FEC3FF0BDD718C260F019C231
:1030900061F058D83DEC5AF066D818C266F019C2F3
:1030A00067F033D020C260F021C261F04BD83DEC14
:1030B0005AF059D820C266F021C267F026D022C249
:1030C00060F023C261F03ED83DEC5AF04CD822C2E9
:1030D00066F023C267F019D024C260F025C261F007
:1030E00031D83DEC5AF03FD824C266F025C267F0D3
:1030F0000CD026C260F027C261F024D83DEC5AF013
:1031000032D826C266F027C267F066516711D8A48C
:10311000000E8DD70001C551D2E0010A01E124D78C
:10312000030AC0E0010A8AE0070AD6E0010AE1E0EA
:103130001200A60E606F060E616F6011D8A4200EFB
:10314000626F120060516111D8A4000E626F12000C
:10315000120EC66F020EC76FD251C65FD351C75B46
:10316000D890C731120060C0D0F061C0D1F0120019
:1031700060C0D2F061C0D3F0A60ED2251200A60E18
:10318000D225B86F060ED321B96FCE511200D96E79
:10319000060ED321DA6E200EDF6E200CC86FC6310A
:1031A000CE6FC8C0CFF01200A60E666F060E676F16
:1031B00066111200A60E606F060E616F12000A0EF5
:1031C000E126000EE2224E684F6850685168FDD833
:1031D000FE0EE36AFE0EE35007D9FEEC3CF06AE116
:1031E000FE0EE35098EC08F0EBD864E0FE0EE350DE
:1031F00098EC08F00CEED2F0DE50EE5CDE50EE58AB
:10320000DE50EE58DE50EE582DE2D2CC4EF0D3CC4C
:103210004FF0D4CC50F0D5CC51F0FE0EE35098ECEA
:1032200008F0DECF4AF0DECF4BF0DECF4CF0DECF41
:103230004DF04E504A5C466E4F504B58476E5050C2
:103240004C58486E51504D58496EFE0EE35098EC64
:1032500008F046C0DEFF47C0DEFF48C0DEFF49C0C1
:10326000DEFF06D0FE0EE35098EC08F0BBEC08F051
:10327000FE0EE35098EC08F0FA0EC0EC27F0FB0EBF
:10328000B8D8FC0EB6D8FD0EB4D814E3FE0EE35049
:1032900098EC08F095D80EE0FE0EE35098EC08F09C
:1032A000DECF4EF0DECF4FF0DECF50F0DECF51F06C
:1032B0008CD8E32AFE0EE32AE3CF46F00F0E4664D5
:1032C00089D7FF0EE3046DE1E150FA0F6DD8DECF30
:1032D000D2FCDECFD3FCDECFD4FCDDCFD5FCFD0E9F
:1032E000E3500DE1FA0EE328FB0EE3CF46F0FF0EAC
:1032F000465AFC0EE3CF46F00F0E465A18E3E15053
:10330000FA0F52D8DECF60F0DECF61F0DECF62F090
:10331000DECF63F07D0E0001A2EC35F072EC4AF0D6
:10332000A7EC35F00C0E46D8E82EFDD720D0FA0ECB
:10333000E3CF4EF0FB0EE3CF4FF0FC0EE3CF50F0A7
:10334000FD0EE3CF51F00C0E35D8E82EFDD74EC060
:1033500060F04FC061F050C062F051C063F07D0E6C
:103360000001A2EC35F072EC4AF0A7EC35F0F60E55
:103370004EC0E3FFF70E4FC0E3FFF80E50C0E3FF6F
:10338000F90E51C0E3FFE150F60FD96EE250B0ECF8
:1033900035F0C0EC08F0DDEC5EF0C0EC08F0F5ECC8
:1033A0004EF0F50EBCEF35F0D96EE250DA6EFF0E3E
:1033B000DA22FF0CD8904E364F3650365136120076
:1033C000DE50DE10DE10DE101200FA0E4EC0E3FFFB
:1033D000FB0E4FC0E3FFFC0E50C0E3FFFD0E51C0DB
:1033E000E3FFFF0EE36A1200120DC00EF324D96E44
:1033F0001200E3CF46F0DE50465812008B6B685146
:103400008B25D96EDA6A8B51710FE96EEA6ADFCFCC
:10341000EFFF8B2B0F0E8B65F2D70A0E426E010E5B
:10342000416E8B6BC4D8B5D800D98B65FBD78B6B3D
:10343000B0D8DF50696F6A6BB70E6925F66EF50E6E
:103440006A21F76EF86A000EF822A3D80800F5CFBB
:10345000DFFF8B2B0F0E8B65EBD766C060F067C06C
:1034600061F024EC3AF0420401E184D08B6B98D8EF
:103470006929D96EBDD86B6F8CD8DF506B19896FF5
:103480008FD8CFD8B5D8A4D88A6F8919876F88D834
:103490006929D96EADD89CD8886F7F0E896508D010
:1034A0001B0E89C069F0AFD8816F6A51826F05D059
:1034B000D8908935816F826B823781C089F07F0E09
:1034C000886508D01B0E88C069F09DD8836F6A514B
:1034D000846F05D0D8908835836F846B843783C020
:1034E00088F07F0E8A6508D01B0E8AC069F08BD8E1
:1034F000856F6A51866F05D0D8908A35856F866B47
:10350000863785C08AF045D884D887198919DF6E37
:1035100047D86929D96E52D86B296FD8871988196D
:10352000DF6E3ED8020E6925D96E48D8020E6B2593
:1035300064D887198A19DF6E33D873D83FD8020E42
:103540006B255BD86D6F8B5166256E6F000E672102
:103550006F6F6E29E96E000E6F21EA6EEF50706F8B
:1035600058D870196D198719DF6E040E8B270F0E4E
:103570008B657DD7710E606F26EC2AF08B6B17D8A8
:1035800008D853D88B65FBD74206425001E04FD78D
:1035900012008B516625D96E000E6721DA6E12007B
:1035A0008B516625696F000E67216A6F12008B517F
:1035B000710FD96EDA6ADF50696F1200000E6A214E
:1035C000DA6E8B5166256B6F000E67216C6F1200EF
:1035D0006B6F8B5166256C6F000E67216D6F020E4D
:1035E0006C25D96E000E6D21DA6EDF506B1912005A
:1035F000000E6A21DA6EDF501200E96E000E6C21B7
:10360000EA6EEF5012006A6BD89069376A37691911
:1036100012008B516625E96E000E6721EA6EEF50AD
:103620001200030E6925D96E12006951DF1A8B2B27
:103630000F0CAAD00001A669A769A869A969B0D032
:103640002BEEF6F0DFA41FD0FFD8A1EC60F08C5178
:1036500002E1D9D80CE3F8D8A1EC60F00D0E01D04E
:10366000D9D8E82EFDD7BBD8D1EC58F077D0ECD81C
:10367000A1EC60F0B4D8D1EC58F00D0E01D0BDD85B
:10368000E82EFDD76BD02BEEF8F0DFA889D0D8D884
:10369000A1EC60F08C5102E1B6D80CE3D1D8A1ECDA
:1036A00060F00D0E01D0B6D8E82EFDD798D8D1EC39
:1036B00058F054D0C5D8A1EC60F091D8D1EC58F0B6
:1036C0000D0E01D09AD8E82EFDD748D02BEEF6F09B
:1036D000DFA405D0C4EC08F0A1EC60F008D02BEE1C
:1036E000F8F0DFA805D03CEC06F0A1EC60F098D82B
:1036F0000001A95102E19DD81FE3A6C0A2F0A7C016
:10370000A3F0A8C0A4F0A9C0A5F00D0E05D0D890D4
:10371000A533A433A333A233E82EF9D7A2C092F085
:10372000A3C093F0A4C094F0A5C095F07D0EAEECBC
:1037300008F0D1EC58F012D0A6C092F0A7C093F0D8
:10374000A8C094F0A9C095F07D0EAEEC08F0D1ECC5
:1037500058F00D0E01D051D8E82EFDD792C0A6F03A
:1037600093C0A7F094C0A8F095C0A9F019D07BEC45
:1037700016F0A1EC60F054D8A951BFE15AD8BDE2CF
:10378000DBD7000165D80CD06CEC05F001E152D715
:10379000020A01E155D7060A99E0020AE8E0F1D7EA
:1037A0000001A951A811A71103E1C80EA65D0AE303
:1037B000CE0EA627FF0EA723A823A9232BEEF9F0F0
:1037C000DF8004D045D82BEEF9F0DF90A6C09EF044
:1037D000A7C09FF0A8C0A0F0A9C0A1F0120089C0A6
:1037E00092F08AC093F08BC094F08CC095F07D0E5F
:1037F000966F976B986B996B7D0CD890953394333B
:103800009333923312001F0E895DAC0E8A59DF0E7E
:103810008B591200D8908C338B338A338933120042
:1038200089C0A6F08AC0A7F08BC0A8F08CC0A9F010
:1038300012001F0EA65DAC0EA759DF0EA85912008C
:103840002CEEEEF0DF5012002CEEECF0DF50120008
:10385000A66BA76BA86BA96B120007D96B6F6A6B7D
:10386000E0D0635101E1C5D06A51EED8DE2801E114
:10387000C0D0FE0E646F65696A51E6D8DF50666F8E
:10388000676B6451662765516723D90E6625F66E0E
:10389000F60E6721B7EC46F06BC068F0696B6827DD
:1038A000000E6923E2D8685F000E695B69BFA1D092
:1038B000695105E1100E685D01E3B9D09AD0B7D027
:1038C000BCD8030EDF6E6B2BB8D8DF6A6A5116ECDA
:1038D00027F0DFA003D0B1D8000EDB806A5116ECD0
:1038E00027F0DFA203D0A9D8000EDB826A5116ECC4
:1038F00027F0DFA403D0A1D8000EDB8400016B2BDE
:103900008FD09BD8050EDF6E6B2B97D8DF6A6A517C
:1039100016EC27F0DFA603D090D8000EDB806A51AA
:1039200016EC27F0DFA803D088D8000EDB826A519E
:1039300016EC27F0DFAA03D080D8000EDB847DD8F8
:10394000DF500101D86FDAD778D8060EDF6E6B2B07
:103950002CEEEAF081D86B2BDFEC6AF0800AA00F26
:1039600005E3DFEC6AF0800A600F04E3000165D82C
:10397000200E05D0000161D8DFEC6AF03F0BDF6E4E
:10398000BDD75BD8070EDF6E6B2B57D8DF6A6A5145
:1039900016EC27F0DFAE03D050D8000EDB806A5162
:1039A00016EC27F0DFACAAD748D8000EDB82A6D7EA
:1039B000EBEC20F06A5148D84FD8A0D73ED80A0E79
:1039C000DF6E6B2B3AD8DF6A6A5147EC2DF0DFA02F
:1039D00003D033D8000EDB806A5147EC2DF0DFA214
:1039E00003D02BD8000EDB8228D8DF500101D76F1F
:1039F00085D76A5129D8DF50020ADAE0010A01E1CD
:103A00005FD7070AD7E0010A01E17BD7030A9CE0F0
:103A1000010AB7E00F0ACEE0010ACCE0030ACEE0CB
:103A20006A2B2CEEA1F0DE506A5D01E21AD76251DA
:103A3000D96EDA6A6BC0DFFF12006B516025D96E58
:103A4000000E6121DA6E1200030DA20EF324D96E6E
:103A50000C0EF420DA6E12006B516025E96E000E38
:103A60006121EA6EDFCFEFFF12006251D96EDA6A90
:103A7000DF5012009E96C6AECED0C69E406A0101AF
:103A8000CAEC5FF0DECF04F0DDCF05F004C0D9FF53
:103A900005C0DAFF010EDF6EC56BC66B12000101B7
:103AA000BAB31200B8C1C5F1B9C1C6F1B8C1D9FFE6
:103AB000B9C1DAFFDF503F6E20EE01F0B851D926D0
:103AC000B951DA22DECFC7F1DDCFC8F1050EB82734
:103AD000000EB923E90EB81907E1020EB91904E185
:103AE000E40EB86F020EB96FBA91B651B81904E17D
:103AF000B751B91901E1BA83C580020E406E020CBC
:103B0000C5AC04D015D0040EB6EF5FF0D89001011B
:103B1000E031056EDF31046E0450C96EDFA103D0C1
:103B20000B0E406E0B0C030E406E030CC5AC03D0A5
:103B30000101BC2BE8D7C5820101E051060B046EE0
:103B4000056AF00E0410DF6F0550E06FDF81010E93
:103B5000D46FD3D70101D40514E0C7C1D9FFC8C1C0
:103B6000DAFFDECFDFF1DDCFE0F120EE03F06DD83C
:103B7000DECF91F2DDCF92F220EE02F066D8DF5078
:103B80003E6EDFC1C9FFDFA1CED7050E406E050C2A
:103B9000C5AC06D00101BC2BC59C050EB6EF5FF08D
:103BA0003E063E2807E11BEC67F03F2E01D02BD0EC
:103BB000C582A3D74FD8DF50C96E0201914B922B1B
:103BC0001200C5AC07D00101BC2B040EB6EC5FF0AF
:103BD000C59C1200C586080E406E080C080E406E8B
:103BE000C586080C37D8C9CFDFFF0201914B922B55
:103BF0003E0604E0C59A060E406E03D0C58A12EC5C
:103C000067F0C5881200000EB6EF5FF00101BC2B13
:103C1000060EB6EF5FF0405001E141D7010AC8E05F
:103C2000030A98E0010AB4E0070AEDE0010AC9E0DE
:103C3000030AD4E0010AE7E00F0AD4E0020A01E136
:103C40005FD7010A01E172D7E1D7C751D926C85120
:103C5000DA22120091C2D9FF92C2DAFF1200AC6BD5
:103C6000A7C0ADF0A8C0AEF0C6D0D9D816EC27F0EA
:103C7000DF90D5D816EC27F0DF92D1D816EC27F0DC
:103C8000DF94CDD816EC27F0DF96C9D816EC27F0D4
:103C9000DF98C5D816EC27F0DF9AC1D816EC27F0CC
:103CA000DF9CBDD816EC27F0DF9EB9D847EC2DF08D
:103CB000DF90B5D847EC2DF0DF92BBD80CEEA1F029
:103CC000EF50030DA20EF324E96E0C0EF420EA6E01
:103CD000DFCFEFFF70D0ADC060F0AEC061F067EC39
:103CE00063F060C0ADF061C0AEF099D824EC1DF077
:103CF000DF6878D0ADC06EF0AEC06FF07FEC26F01C
:103D00006EC0ADF06FC0AEF06DD0ADC060F0AEC0B3
:103D100061F095EC55F060C0ADF061C0AEF062D0DE
:103D2000ADC09EF0AEC09FF0D1EC2BF09EC0ADF0C8
:103D30009FC0AEF057D0ADC060F0AEC061F039ECBE
:103D40006AF060C0ADF061C0AEF04CD0ADC09EF086
:103D5000AEC09FF05DEC24F09EC0ADF09FC0AEF011
:103D600041D0ADC06BF0AEC06CF0F7EC62F06BC050
:103D7000ADF06CC0AEF036D0ADC09EF0AEC09FF0DE
:103D8000DCEC2CF09EC0ADF09FC0AEF02BD0ADC0EF
:103D900069F0AEC06AF05CEC2DF069C0ADF06AC0AD
:103DA000AEF020D0010EAC6FA951A725AD6F000E6B
:103DB000A821AE6F9AD73DD8AD4BAE2BDF50020A8B
:103DC0008AE0010A97E0070AA0E0010AA9E0030AD5
:103DD000B2E0010ABBE00F0AC4E0010AD8E0030A1E
:103DE000CBE0E0D71CD824EC1DF0DE2804E026D878
:103DF000DF6001D018D80001A951A725AA6F000ED5
:103E0000A821AB6FAA51AD5DAB51AE5903E2AC51E5
:103E100001E12BD7ADC0A7F0AEC0A8F012002CEE88
:103E2000A1F0DF501200A1CCE8FF010FE8CFA1FC08
:103E30001200ADC0D9FFAEC0DAFF12002CEEA1F027
:103E4000100C0201B6A506D0800E0001A96F030E6A
:103E5000A86F030CB6C2AAF0030E0001AA1705E072
:103E6000800EA96F040EA86F040C8A86A851A911B0
:103E700004E1D1D805EC0BF006D0A8C09EF0A9C093
:103E80009FF005EC0BF00201AB050DE1010E000106
:103E9000626F220EE5EC66F0C3D8E5EC66F0B8D8A8
:103EA000E5EC66F010D0C8C262F0120EE5EC66F0E8
:103EB000C9C262F0130EE5EC66F0B2D8E5EC66F02C
:103EC000A7D8E5EC66F00201B683E70EB61700014D
:103ED000A851A91105E182D8050EC0EC35F02BD010
:103EE0000201AB0509E1010E0001656F000E666F6E
:103EF000060EC0EC35F01FD0000E86D8C0EC35F0B1
:103F00000001A851AA6FA951AB6FAC6BAD6B0C0E41
:103F1000D89075D8E82EFCD758D865EC16F072EC1E
:103F20004AF0A5EC08F00201BB51DDEC5EF00201A5
:103F3000BB51F5EC4EF05DD83AE0C05102E153D8E8
:103F40000BE339D8A2EC35F072EC4AF00C0ED1EC50
:103F500021F0E82EFCD713D0BDC2AAF0BEC2ABF050
:103F6000BFC2ACF0C0C2ADF00C0ED890000147D873
:103F7000E82EFBD72AD865EC16F072EC4AF060C048
:103F8000AEF061C0AFF062C0B0F063C0B1F0AEC0DF
:103F90006DF0AFC06EF0B0C06FF0B1C070F0020154
:103FA000BC51DDEC5EF00201BC51F5EC4EF00001BD
:103FB000A86BA96B1200BDC260F0BEC261F0BFC2A7
:103FC00062F0C0C263F000017D0CAAC060F0ABC01B
:103FD00061F0ACC062F0ADC063F01200ABC265F03E
:103FE000000E666F000CBD29FF0EBE590F0EBF59A3
:103FF00012000201BD51BE11BF11C0111200AA373B
:10400000AB37AC37AD3712000001656F666F050C3A
:104010000001626B410C000E9F6F040E9E6F040C3A
:104020000001626B400C0001A96FFACCE8FF010AA5
:1040300002E1FFEC56F0340EE8CFFEFCDAD852EC89
:104040006AF0000EB6D8C7D8A2D8E8CFDEFCE8CF19
:10405000DFFCA6D8B7D8E8CFDCFCE8CFDDFC010E4A
:10406000E8CFE5FC000EE8CFE6FCE8CFDAFCE8CFCD
:10407000DBFCE8CFF8FCE8CFF9FC89D82BEEF9F0AF
:10408000DF9497D8E8CFF6FBE8CFF7FB070EE8CF31
:10409000E1FC000EE8CFE0FC010EE8CFE3FCE8CF46
:1040A000E2FCFF0EE8CFEAFC2CEE9EF0A9C0DFFF99
:1040B000000EE8CF08FC100EE8CFF7FCE80E000178
:1040C0005BD8DDEC21F023EC54F0020EE8CF12FCBB
:1040D000000EE8CF0EFCEA0EE8CF0FFC060EE8CF8C
:1040E00010FC370EE8CF11FC010EE8CFEBFC000E00
:1040F000E8CFE9FC4BEC46F0000EE8CF9FFCE8CFA0
:10410000A0FC130E606F0C0EADEC62F0690E646FD4
:1041100067EC64F067D8D00EE8CF90FC070EE8CFCC
:1041200091FC880EE8CF92FC130EE8CF93FC700E42
:10413000E8CF94FC170EE8CF95FCD00EE8CF9AFCA0
:10414000070EE8CF9BFC200EE8CF9DFC400EE8CF89
:104150009CFC000EE8CF96FC400EE8CF97FC000ECA
:10416000E8CF98FC400EE8CF99FC000EE8CFFFFCAA
:104170009F6B9E6B49EF2BF0796F090E7A6F7B6B0B
:10418000EA0E7C6F060E7D6F370E7E6F370CE8CF20
:10419000D2FCE8CFD3FCE8CFD4FCE8CFD5FC1200AA
:1041A000E8CF00FCE8CF01FCE8CF02FCE8CF03FC3D
:1041B0001200E8CFF8FBE8CFF9FBE8CFFAFBE8CF35
:1041C000FBFB1200E8CFFCFBE8CFFDFBE8CFFEFBDA
:1041D000E8CFFFFB1200FF0EE8CFE7FC000EE8CFB0
:1041E000E8FC000CE80EE8CF8EFC030EE8CF8FFC55
:1041F000030C2CEEFEF0DF5012000201B6A506D033
:10420000800E0001A96F030EA86F030CB6C2ABF0BD
:10421000030E0001AB1705E0800EA96F040EA86F16
:10422000040C0201AB5109E1400E0001AA6505D062
:10423000800EA96F020EA86F020C0201BA516EEC3B
:1042400069F00BEC20F005EC0BF00201AB051EE170
:10425000AAC062F0220EE5EC66F00A0E65EC65F08D
:10426000B76FF00EB717B787B7C062F00A0EE5EC6C
:1042700066F0400E0001626FE5EC66F008EC20F09D
:10428000E5EC66F094D8C0EC35F008D010EC20F0E6
:10429000E5EC66F008EC20F0E5EC66F00201AB51CD
:1042A00005E1AAC062F0000EE5EC66F006EC6BF0EA
:1042B000800E57EC6AF00001B86B0BD0B851A825FE
:1042C000D96E000EA921DA6EDF5057EC6AF00001BA
:1042D000B82BAA51B85DF2E304EC6BF00201B68191
:1042E000E70EB617C3EC62F0030EC0EC35F0000128
:1042F0006D6B6E6B0A0E6F6F706B0201BA51DDEC65
:104300005EF00201BA51F5EC4EF0F9EC1FF045E019
:10431000C05103E1F3EC1FF00BE3DBEC1FF0A2EC68
:1043200035F072EC4AF00C0E3CD8E82EFDD71DD0CB
:10433000BDC2ABF0BEC2ACF0BFC2ADF0C0C2AEF009
:104340000C0ED8900001AB37AC37AD37AE37E82E46
:10435000F8D7ABC060F0ACC061F0ADC062F0AEC0E9
:1043600063F065EC16F072EC4AF060C0B3F061C027
:10437000B4F062C0B5F063C0B6F0B3C06DF0B4C0C5
:104380006EF0B5C06FF0B6C070F00201BC51DDEC4C
:104390005EF00201BC51F5EC4EF00001A86BA96B78
:1043A0001200D89060376137623763371200ABC2B2
:1043B00065F0010E0001666F010C7BC093F27CC0BA
:1043C00094F27DC095F27EC096F2A80E0201976F1E
:1043D000610E986F996B9A6B500E9B6FC30E9C6F1A
:1043E0009D6B9E6B010EAB6F070EAD6F010EAE6F36
:1043F000B46FB56BA06B080E9F6F0C0EAC6F010E07
:10440000AF6FB06FB36BC10EA26F940EA36FC10EEE
:10441000A46F030EAA6F340EA16FB66BB76B79C091
:10442000B8F27AC0B9F2B16BB26B800EC56FC66FCD
:10443000980EBD6F3A0EBE6FBF6BC06B020EC76F9A
:104440000B0EC86F120EC96FC26BC36BC15123E153
:104450002FEC5BF00201BA6F2FEC5BF00201BB6F37
:104460002FEC5BF00201BC6FCA0E0001606FBE0E44
:10447000616F626B0201BB51FCEC5DF04A0E606F34
:10448000BD0E616F626B0201BC51FCEC5DF0010E70
:104490000201C16F0BD0BA516EEC69F00201BB5141
:1044A0006EEC69F00201BC516EEC69F039EC61F020
:1044B000000E0001656F010E666FC0EC35F04FD83D
:1044C000A8EC33F0420E0DEC0DF0E5EC66F03B0E7F
:1044D00065EC65F07F6F7FBBFAD7230E626F0C0E21
:1044E000E5EC66F01E0E0001626F0D0EE5EC66F065
:1044F000AA0E0001626F1F0EE5EC66F08F0E000140
:10450000626F350EE5EC66F000016269320EE5EC93
:1045100066F0400E0001626F310EE5EC66F0010EB0
:104520000001656F666F000EC0EC35F09386618602
:10453000F19E0001806B05D081A602D0939603D036
:10454000802B80AFF9D76196F18E6269230EE5EC7E
:1045500066F0420E65EC65F00201C46F120093C272
:104560006DF094C26EF095C26FF096C270F01200BA
:10457000EEC0D9FFEFC0DAFFDECFF2F0DDCFF3F00F
:10458000000120EE02F0C8D8DECFF5F0DDCFF6F066
:10459000010EF46FF869F2C0C5F0F3C0C6F05AEC32
:1045A00039F0F76FF5C0AEF0F6C0AFF0010EB06FA6
:1045B000B16FBBEC39F021EC4BF0000908E0F5C01D
:1045C00066F0F6C067F002EC40F06651F86FF7AFA6
:1045D000F8BF92D0F46B6CD0F85102E189908CD086
:1045E00089808AD0F85102E1899286D0898284D06C
:1045F000F85102E1899480D089847ED0F85102E19B
:1046000089967AD0898678D0F85102E1899874D059
:10461000898872D0F85102E1899A6ED0898A6CD06B
:10462000F85102E18D9068D08D8066D0F85102E19A
:104630008D9262D08D8260D0F85102E18C945CD072
:104640008C845AD0F85102E18D9456D08D8454D088
:10465000F85102E18B9A50D08B8A4ED0F85102E18A
:104660008C9A4AD08C8A48D0F85102E18C9E44D072
:104670008C8E42D0F85102E18C9C3ED08C8C3CD088
:10468000F85102E1899E38D0898E36D0F85102E186
:10469000899C32D0898C30D0F85102E18A9C2CD090
:1046A0008A8C2AD0F85102E18A9E26D08A8E24D0A4
:1046B000F75192E0010A96E0030A9AE0010A9EE0AF
:1046C000070AA2E0010AA6E0030AAAE0010AAEE096
:1046D0000F0AB2E0010AB6E0030ABAE0010ABEE03E
:1046E000070AC2E0010AC6E0030ACAE0010ACEE0F6
:1046F0001F0AD2E0010AD6E0F45141EC24F0DECFEB
:10470000F0F0DDCFF1F020EE06F006D8F0C0DEFFCD
:10471000F1C0DEFFDD6A1200EE51D926EF51DA2238
:104720001200EEC0D9FFEFC0DAFFDECFF2F0DDCF2E
:10473000F3F0010E0001F46FF669F2C0C5F0F3C0AA
:10474000C6F05AEC39F0F56FF5BF80D05AD0000EA4
:1047500080B0010EF66F79D0000E80B2010EF66FB8
:1047600074D0000E80B4010EF66F6FD0000E80B6CC
:10477000010EF66F6AD0000E80B8010EF66F65D09C
:10478000000E80BA010EF66F60D0000E84B0010EEC
:10479000F66F5BD0000E84B2010EF66F56D0000E9D
:1047A00083B4010EF66F51D0000E84B4010EF66F83
:1047B0004CD0000E82BA010EF66F47D0000E83BABD
:1047C000010EF66F42D0000E83BE010EF66F3DD093
:1047D000000E83BC010EF66F38D0000E80BE010EB5
:1047E000F66F33D0000E80BC010EF66F2ED0000E97
:1047F00081BC010EF66F29D0000E81BE010EF66F4E
:1048000024D0F551A4E0010AA7E0030AAAE0010AB6
:10481000ADE0070AB0E0010AB3E0030AB6E0010A1E
:10482000B9E00F0ABCE0010ABFE0030AC2E0010AD6
:10483000C5E0070AC8E0010ACBE0030ACEE0010A9E
:10484000D1E01F0AD4E0010AD7E0F46BF45109E08B
:10485000F45117D8DECFF0F0DDCFF1F01FD8DD6ACC
:10486000120017D8F651A76FA86BA7BFA80721D8C9
:104870008BEC41F0A60EF06F060EF16F0FD835EFFE
:104880003BF0020D550EF324D96E020EF420DA6EC1
:104890001200A60EA56F060EA66F120020EE06F0FF
:1048A000EE51D926EF51DA22F0C0DEFFF1C0DEFF73
:1048B0001200AA6B0A0EA96F0A0CA7D8DF50A66FC8
:1048C0009E4B9F2BA2D8FF0EDE14A26FFF0EDE14AC
:1048D000A36FFF0EDE14A46F000EDE14A56FA2C03E
:1048E00092F0A3C093F0A4C094F0A5C095F0640E1C
:1048F000AEEC08F0D1EC58F092C0A2F093C0A3F057
:1049000094C0A4F095C0A5F0030E9E27000E9F232F
:104910007CD8DF50A16F9E4B9F2B606BA651C7ECDC
:1049200066F000091DE1A2C060F0A3C061F0A4C060
:1049300062F0A5C063F029EC38F0000902E06AD803
:1049400005E10FEC1FF016EC27F0DF8EA151BBEC58
:1049500060F0000905E10FEC1FF016EC27F0DF8C8A
:104960000FEC1FF016EC27F0DFAE40D00FEC1FF07D
:1049700016EC27F0DFAC3AD02CEEE4F0100EDF603E
:1049800018D048D811E037D852EC65F0A1C060F0DB
:10499000A651B1EC3CF043D8A9EC66F0010E606F73
:1049A000A6518FEC38F021D0656BA6519BEC5FF0DF
:1049B0001CD030D815E01FD8100F52EC65F0A1C004
:1049C00060F0A651100FB1EC3CF029D8100FA9EC03
:1049D00066F0010E606FA651100F8FEC38F005D015
:1049E000656BA651100F9BEC5FF01ED89EC09EF029
:1049F0009FC09FF01200A2C060F0A3C061F0A4C0ED
:104A000062F0A5C063F0A65112009EC0D9FF9FC0FE
:104A1000DAFF1200A251A311A411A5111200616BBB
:104A2000C70E606FA65112002BEEF9F0DF86120060
:104A3000B2D89E4B9F2BAD518AEC65F0F9E2A96B81
:104A4000AA6BAB6BAC6BA86B2D0EAD1906E1010E1A
:104A5000A86FA1D89E4B9F2B03D02B0EAD19F9E068
:104A6000300EAD191DE197D89E4B9F2BA251A3117B
:104A700004E0100EA219A3110DE1780EAD1903E0A8
:104A8000580EAD1907E1A36B100EA26F84D89E4B90
:104A90009F2B06D0A251A31103E1A36B080EA26FB6
:104AA000A251A31103E1A36B0A0EA26FAD51F3EC67
:104AB00064F006E3AD5144EC68F0C90FAD6F06D069
:104AC000AD518BEC66F031E3300EAD5FAD51A46FAC
:104AD000A56BA251A45DA551800AA66FA351800ABF
:104AE000A65923E2A2C092F0A3C093F0000E93BF98
:104AF000FF0E946F956FA9C096F0AAC097F0ABC057
:104B000098F0ACC099F0D1EC58F0AD519225A96F56
:104B1000000E9321AA6F000E9421AB6F000E952119
:104B2000AC6F39D89E4B9F2BC1D7A051A1110EE07D
:104B3000FF0E9E25A46FFF0E9F21A56FA0C0D9FF79
:104B4000A1C0DAFFA4C0DEFFA5C0DDFFA8511AE0B6
:104B5000A9C0A4F0AAC0A5F0ABC0A6F0ACC0A7F055
:104B6000A41FA51FA61FA71FA42B000EA523A623C5
:104B7000A723A4C09EF0A5C09FF0A6C0A0F0A7C028
:104B8000A1F0000CA9C09EF0AAC09FF0ABC0A0F09D
:104B9000ACC0A1F012009EC0D9FF9FC0DAFFDF5069
:104BA000AD6F1200A26F210E0001A219D8A412004D
:104BB000020EA76FA86BA36BA46BA56BA66BA30ECD
:104BC000606F616BA851030D9EC0A0F09FC0A1F063
:104BD000F350A027F450A1230D0EA025626F000E04
:104BE000A121636FF1EC4EF0A4EC53F0A3C092F05E
:104BF000A4C093F0A5C094F0A6C095F0640EAEECEE
:104C000008F0D1EC58F092C0A3F093C0A4F094C087
:104C1000A5F095C0A6F0A351A411A511A61140E0DE
:104C2000A3C060F0A4C061F0A5C062F0A6C063F0AC
:104C300029EC38F0000939E14CD8F3503ED856D869
:104C400048D8040EA027000EA123F35036D84ED822
:104C500040D846D832D8DF500F0B5009DF6E39D814
:104C60003FD82BD8F00EDF1634D80A0EA027000E3E
:104C7000A123F35022D8E70EDE6E030EDD6E29D895
:104C8000110EA027000EA123F35017D8DF68010EE4
:104C9000656FA851A7259BEC5FF014EC25F005D0BB
:104CA000656BA851A7259BEC5FF0A82B040EA865A7
:104CB00082D72BEEF9F0DF86040CA027F450A12355
:104CC000A751120DF350A025D96EF450A121DA6E30
:104CD0001200A851120DB80EA06F080EA16F12009D
:104CE000090EA027000EA123F3501200A3C0DEFF7F
:104CF000A4C0DEFFA5C0DEFFA6C0DEFF1200A3D861
:104D0000DF500F0B736F9FD8DF50706F70390F0B30
:104D1000766F6E4B6F2B97D8DECF71F0DDCF72F0D0
:104D2000020E6E27000E6F236EC074F06FC075F018
:104D30006E4B6F2B2BEEF8F0DFAC67D07FD8DF38EF
:104D4000070BE8EC67F000090CE171C060F072C07D
:104D500061F00EEC63F0000904E10FEC1FF066D87F
:104D6000DF807651B8EC66F000090EE12CEEF5F02C
:104D7000DE50765D09E32CEEF6F07651DE5C04E35E
:104D80000FEC1FF053D8DF827351AEEC68F00009CE
:104D900004E10FEC1FF04AD8DF840FEC1FF046D877
:104DA000DFA43FD00FEC1FF041D8DFA23AD00FECC8
:104DB0001FF03CD8DFA035D071C06BF072C06CF032
:104DC0003DD8DF38070B6D6F5AEC68F07351E2EC99
:104DD00069F02BEEF9F0DF8800017651E8EC69F01C
:104DE0002DD80001DF500F0B04E1000EE8CFE0FCEE
:104DF00008D024D8DF500F0B706FFF0E700770C003
:104E0000E0FC2BEEF9F0DF8A0CD00FEC1FF00ED88F
:104E1000DF900FEC1FF00AD8DF920FEC1FF006D8DE
:104E2000DF946EC06EF06FC06FF01200030DA30E22
:104E3000F324D96E0C0EF420DA6E120074C0D9FF80
:104E400075C0DAFF12006EC0D9FF6FC0DAFF120022
:104E5000050EE126000EE2222BEEF9F0DFB027D09E
:104E60002BEEF9F0DFA423D0FF0EE36A09D0FF0E8A
:104E7000E35024EC1DF0020EDE1807E0FF0EE32ADB
:104E80002CEEA1F0FF0E7CD8F2E32CEEA1F0FF0E89
:104E9000E350DE180CE10FEC1FF024EC1DF0020EC5
:104EA000DF6E1EEC1FF0DF6002D013EC1FF02BEE64
:104EB000F9F0DFA434D05FD802E157D80FE34CD823
:104EC0007D0E0001A2EC35F072EC4AF0A7EC35F053
:104ED0000C0EDAEC19F0E82EFCD707D023D8A2ECA0
:104EE00035F072EC4AF0A7EC35F0FB0E4EC0E3FF54
:104EF000FC0E4FC0E3FFFD0E50C0E3FFFE0E51C09D
:104F0000E3FFE150FB0FD96EE250B0EC35F0C9EC95
:104F10002BF0DDEC5EF0C9EC2BF0F5EC4EF0FA0E68
:104F2000BCEF35F0D6CC4EF0D7CC4FF0D8CC50F00B
:104F3000D9CC51F00C0ED8904E364F3650365136F3
:104F4000E82EF9D74EC060F04FC061F050C062F05B
:104F500051C063F000017D0CD6CC60F0D7CC61F07D
:104F6000D8CC62F0D9CC63F01200DE28FF0EDE58F8
:104F70000F0EDE5812002CEED6F0030EDB5012009E
:104F8000E3CF46F0DE50465C1200E6522BEEF9F01D
:104F9000DFB08BD008CCE8FF020A02E1AAEC67F090
:104FA00088D861E31AEC5AF0516E0D0E5126FF0EAF
:104FB00051C0E3FF2CEEDEF0E350476E486ADE504E
:104FC000475CDE5048583DE3010E05EC4CF000090B
:104FD00034E1F7EC4BF0FDEC20F0FEEC4BF02DE172
:104FE0006BEC16F00109DF6EE3CCE8FF010FE8CFB0
:104FF000E3FC2CEEE3F0DFB07DEF5FF02CEEE9F0A8
:10500000DF5002E17DEF5FF02CEEE3F0DF50476E02
:10501000486A2CEEE1F0DF50506E516A502A000EC3
:1050200051224750501805E14850511802E17DEFD8
:105030005FF0B9EC42F07DEF5FF0C1EC50F07DEF36
:105040005FF04AEC69F00101BD51BE1102E17DEF54
:105050005FF070EC16F0040EC56F02D87DEF5FF0C4
:105060000500FA6E1AD025D802E37DEF5FF02BEE33
:10507000F9F0DFB07DEF5FF04AEC69F00101BD515E
:10508000BE1102E17DEF5FF0000E70EC16F0C56B13
:1050900002D87DEF5FF00500FA6E0101BD51FD6E93
:1050A000BE51FE6EFF6AFA5012004AEC69F07DEFC5
:1050B0005FF02CEEE3F00CEEE1F0DE50EE5C12005F
:1050C000EEC0D9FFEFC0DAFFDECFF2F0DDCFF3F0B4
:1050D000010E0001F46FF2C0C5F0F3C0C6F05AEC47
:1050E00039F0F56FF5BF5DD0B70EF525BBEC10F0CC
:1050F00008EC47F0F5A455D00001F46B38D0000E51
:1051000039EC60F02FD0010E39EC60F02BD0020E9C
:1051100039EC60F027D0030E39EC60F023D0040E98
:1051200039EC60F01FD0050E39EC60F01BD0060E94
:1051300039EC60F017D0160E39EC60F013D0070E82
:1051400039EC60F00FD0110E39EC60F00BD0190E75
:1051500039EC60F007D01B0E39EC60F003D01A0E6A
:1051600039EC60F065C0F6F066C0F7F01AD0F55182
:10517000C6E0010AC8E0030ACAE0010ACCE0060A58
:10518000CEE0030AD0E0010AD2E00F0AD4E0010A1F
:10519000D6E0030AD8E0010ADAE0070ADCE0010AF7
:1051A000DEE00001F4510AE0F45141EC24F0DECFDE
:1051B000F0F0DDCFF1F013D8DD6A120049EC24F0F5
:1051C000F6C0A7F0F7C0A8F059EC24F08BEC41F042
:1051D000A60EF06F060EF16F02D835EF3BF020EE11
:1051E00006F0EE51D926EF51DA22F0C0DEFFF1C011
:1051F000DEFF1200010E0001F26F89D866D86DEC57
:1052000060F0000949E06CD860D86DEC60F00009EE
:1052100043E07DD8DECF9EF050D818EC25F09E51AB
:10522000F36F20EE02F06AD846EC35F046D818EC61
:1052300025F09E51F46F6BD8DECFF0F058D84AD8E5
:105240003DEC5AF0020E6019611126E1F35108E1BC
:1052500063D85DD857D812EC47F0605161111CE15A
:105260003FD8DECFF0F043D835D83DEC5AF0020EEF
:105270006019611111E1F45108E14ED831D842D8DA
:1052800012EC47F06051611107E1F4C062F0F35194
:10529000E5EC66F00001F26BF2513EEC46F0DECF39
:1052A000F0F0DDCFF1F020EE06F028D8DA22F0C0E1
:1052B000DEFFF1C0DEFFDD6A1200DDCF9FF0A06BE4
:1052C000A16BA36B100EA26F100CDECF66F0DDCFCA
:1052D00067F0120060516111D8A4200E626F1200B5
:1052E00020EE02F0EE51D926EF51DA221200DDCF86
:1052F000F1F0F0C060F0F1C061F01200EE51D9267B
:10530000EF511200DECF62F0DDCF63F01200EEC08D
:10531000D9FFEFC0DAFF12004C0E606FFF0E616F15
:10532000120025EC63F0BBEC6AF0D60E0001646F4E
:10533000BF0E656F8BEC59F0A0EC6AF0F28EF28C28
:10534000010E0001616FB00E606FB7EC67F00401F1
:105350005A6F5B6B010E0001616FB10E606FB7ECAD
:1053600067F00401596F59515B275A2902E15B2903
:105370002DE01CEC0DF0AAC055F4ABC056F40401AE
:1053800055515A1903E156515B192CE0040E13ECE8
:1053900020F053D893EC4FF04AD89BEC61F052D8F0
:1053A0004DEC6AF004015C6B5D6B5CC460F05DC445
:1053B00061F000016269D7EC5BF004015C4B5D2B8E
:1053C000B20E5C5D010E5D590DE2EFD7000E13ECDD
:1053D00020F033D893EC4FF02AD89BEC61F032D810
:1053E0004DEC6AF01ED824EC42F099EC18F03DEC3C
:1053F0005AF060C057F461C058F4D4EC18F0D8A447
:10540000200E686F57C469F058C46AF0C0EC49F0C8
:105410004DEC5DF0D1EC5FF091EC36F05FEC4FF0CD
:10542000F7D7A60E00016B6F060E6C6F1200450ECB
:1054300000016B6F040E6C6F1200450E6F6F040E4F
:10544000706F1200616B010E606F010C6051D96EBC
:10545000DA6A0D0E60D8635186D80E0E5CD8D92A50
:10546000635181D80F0E57D8020ED92663517BD8CD
:105470000C0E51D8030ED926635175D84150DF1A4E
:105480007F0E41640CD01B0E41C061F0626BD8905E
:10549000613762376119646F6251656F05D0D890CA
:1054A0004134646F656B653764C041F06051D96EFB
:1054B000DA6A53D8040E43D8D92A4FD8050E3FD8FC
:1054C000020E44D8060E3BD8030E40D8070E37D83C
:1054D000040E3CD8080E33D8050E38D8090E2FD844
:1054E000060E34D80A0E2BD8070E30D80B0E27D84C
:1054F000080E2CD80C0E23D8090E28D80D0E1FD854
:105500000A0E24D80E0E1BD80B0E20D80F0ED9264B
:105510006151DF1A1200D926DF50616F626BB70E3E
:105520006125F66EF50E6221F76EF86A000EF8221C
:105530000800F5CF63F06051D96EDA6A1200D926FF
:105540006151DF1A6051D96EDA6A1200D926DF5034
:10555000616F6051D96EDA6A1200DF50616F60517D
:10556000D96EDA6A1200DF1A6051D96EDA6A120057
:10557000B46BB56BA2390F0BB36F010EB46F31D0A2
:105580005BD8B6EC3EF068D82CEC65F0B56B75D8FE
:10559000B451AE6FAF6BAE3BAF3BF00EAF17AE5139
:1055A0000F0BAF13F00EAE17A0C0B0F0A1C0B1F05A
:1055B000AE51B027AF51B123B551B027000EB12382
:1055C000F00EB025E96EFF0EB121EA6EEF50B26F1A
:1055D0004CD8B219DF6EAA2BB52B0F0EB565D7D7F5
:1055E000B42BB451B35DCCE24FD8D8B40F0C24D84F
:1055F000B6EC3EF031D82CEC65F0B56B18D03DD848
:10560000B351100DA0C0AEF0A1C0AFF0F350AE2763
:10561000F450AF23B551AE25E96E000EAF21EA6E0E
:10562000EF50B06F22D8B019DF6EAA2BB52B2CD853
:10563000AE51B55DE4E31200A4C06BF0A5C06CF000
:10564000A6C06DF0A7C06EF0B4C06FF0010E706F11
:10565000ADC071F0A3511200CA0E8C6F020E8D6F97
:10566000A8C08EF0A9C08FF01200CA0EB525E96E51
:10567000EA6A020EEA22EF501200AA51AB25D96E57
:10568000000EAC21DA6E1200A2C0AEF00F0EAE1703
:105690000F0C9EC092F09FC093F0946B956BE80E38
:1056A000966F030E7AD8D1EC58F092C0D6FC93C016
:1056B000D7FC94C0D8FC95C0D9FC9E519F111EE127
:1056C00068D86EEC69F02BEEF9F0DF94A86B10D07F
:1056D000A85124EC1DF0020EDE1809E1A85124ECBB
:1056E0001DF0DF68A1CCE8FFFF0FE8CFA1FCA82BDD
:1056F0002CEEA1F0DE50A85DEBE312002BEEF9F0EA
:10570000DF842BEEF8F0DFA81200BBEC27F003E1FA
:10571000B5EC27F00CE3ACEC27F065EC16F072EC7E
:105720004AF00C0ED1EC21F0E82EFCD71CD0D6CCE0
:10573000A0F0D7CCA1F0D8CCA2F0D9CCA3F00C0E1D
:10574000D890A037A137A237A337E82EF9D7A0C049
:1057500060F0A1C061F0A2C062F0A3C063F065EC8C
:1057600016F072EC4AF060C0A4F061C0A5F062C00F
:10577000A6F063C0A7F0A4C06DF0A5C06EF0A6C0EF
:105780006FF0A7C070F005D8DDEC5EF002D8F5EF41
:105790004EF02CEEF1F0DF501200976F986B996B82
:1057A000120080D8DF50A56F9E4B9F2B7BD8FF0E39
:1057B000DE14A16FFF0EDE14A26FFF0EDE14A36FC6
:1057C000000EDE14A46FA1C092F0A2C093F0A3C09B
:1057D00094F0A4C095F0640EAEEC08F0D1EC58F053
:1057E00092C0A1F093C0A2F094C0A3F095C0A4F021
:1057F000030E9E27000E9F23A1C060F0A2C061F09F
:10580000A3C062F0A4C063F029EC38F0000905E100
:105810000FEC1FF016EC27F0DF86A5510F0BB8EC4C
:1058200066F0000905E10FEC1FF016EC27F0DF88A9
:10583000A539070BA4EC68F0000905E10FEC1FF097
:1058400016EC27F0DF8A0FEC1FF016EC27F0DFA82C
:1058500021D00FEC1FF016EC27F0DFA61BD00FECC9
:105860001FF016EC27F0DFAA15D0A539070BA06FA3
:10587000A0C0F9FCA1C060F0A2C061F0A3C062F0BA
:10588000A4C063F0A5510F0B646F90EC67F02BEE92
:10589000F9F0DF8E010E0101DB6F9EC09EF09FC00C
:1058A0009FF0010C9EC0D9FF9FC0DAFF1200010ECD
:1058B0000001F26F72D87BD8F0C060F0F1C061F0E7
:1058C0006AEC29F03DEC5AF060C0F8F061C0F9F0E4
:1058D00064D881EC4EF002EC40F066C0F3F067C093
:1058E000F4F05BD8DECFF6F0DDCFF7F0F95145E10B
:1058F000040EF85D42E2F4BF05D0F4513EE1100E13
:10590000F35D3BE2F4AF05D0FD0EF35DFF0EF459FD
:1059100034E348D82B0EDE180EE044D82D0EDE18E6
:1059200005E1F95108E1020EF85D05E23BD8DF50D0
:105930008BEC66F022E3010EF56F0BD0F551F625E6
:10594000D96E000EF721DA6EDF508BEC66F009E3BA
:10595000F52BF551F06FF16BF851F05DF951F159FC
:10596000EDE3F551F819F91103E0F805F91105E136
:10597000F351A4EC6AF00001F26BF2513EEC46F0F8
:1059800016D820EE06F0EE51D926EF51DA22F0C0FB
:10599000DEFFF1C0DEFFDD6A1200EEC0D9FFEFC00E
:1059A000DAFF1200F6C0D9FFF7C0DAFF1200DECF2F
:1059B000F0F0DDCFF1F012007AD8DF50A56F9E4BEA
:1059C0009F2B75D8FF0EDE14A16FFF0EDE14A26FA1
:1059D000FF0EDE14A36F000EDE14A46FA1C092F0C0
:1059E000A2C093F0A3C094F0A4C095F0640EAEECF6
:1059F00008F0D1EC58F092C0A1F093C0A2F094C08E
:105A0000A3F095C0A4F0030E9E27000E9F23A5517E
:105A1000B8EC68F000091EE1A1C060F0A2C061F01E
:105A2000A3C062F0A4C063F029EC38F0000904E1DF
:105A30000FEC1FF02CD8DF80A55131D8DFA00AD0A1
:105A4000A551F4EC19F0FEEC3CF004E10FEC1FF072
:105A50001ED8DF820FEC1FF01AD8DFA010D00FEC99
:105A60001FF015D8DFA20BD0A1C060F0A2C061F07A
:105A7000A3C062F0A4C063F0A55119EC65F0010E5B
:105A80000101D96F9EC09EF09FC09FF0010C030DD5
:105A9000A40EF324D96E0C0EF420DA6E1200120D4F
:105AA000C90EF324D96E080EF420DA6E12009EC0DF
:105AB000D9FF9FC0DAFF120069C0D9FF6AC0DAFFC0
:105AC000DF506B6F694B6A2B6B39E842070B0101A2
:105AD000DE6F00016B390F0B446E6B510F0B010130
:105AE000DD6FDD510001606FC90E00016025F66EAB
:105AF000F76AF60EF72208EC47F0F5500101DC6F6B
:105B0000445012EC58F00101DC510001606F0001BB
:105B1000616B400E6125D96EDA6A020EDA2260C02E
:105B2000DFFF030E606504D001D002D0FE0E6027B7
:105B3000612B070E6165EDD701D0EBD70101DE5176
:105B40000001666F00016605D8A403D0020E686FDD
:105B500001D0686B2CEEF9F0DF50626F636B480E7A
:105B60006225D96E020E6321DA6EDF50646FE9CCD4
:105B700065F06451655D606F6851616F000161514E
