:0400000055EF00F0C8
:100008005B82FACF4FF0FBCF50F0E1CF51F0E2CF57
:1000180052F0D9CF53F0DACF54F0F3CF55F0F4CFF4
:1000280056F0F6CF57F0F7CF58F0F8CF59F0F5CF94
:100038005AF09DB09EA005D092EC1EF0B0EC1EF0D8
:1000480016D09DBA9EAA05D0ADEC1EF048EC1DF066
:100058000ED09DB89EA803D034EC1DF008D0A0BCEB
:10006800A1AC03D0BDEC1EF002D04AEC0DF05AC092
:10007800F5FF59C0F8FF58C0F7FF57C0F6FF56C044
:10008800F4FF55C0F3FF54C0DAFF53C0D9FF52C084
:10009800E2FF51C0E1FF50C0FBFF4FC0FAFF5B9287
:1000A800110034EF19F0EA6F0001E15102E141EF6C
:1000B80006F0FC5102E141EF06F0FD519A5D01E2C4
:1000C800B2D0E46BE56BC46B0A0EC36F20EC1DF075
:1000D800200EE66FE65110E0030E88EC1BF07A5113
:1000E800C3277B51C423D890C431E26FC3317A6FE0
:1000F800E2C07BF0E607EED7C46B0A0EC36F20ECB4
:100108001DF0200EE76FE75110E0020E88EC1BF09F
:10011800E451C327E551C423D890C431E26FC331F9
:10012800E46FE2C0E5F0E707EED7E45192EC1DF08A
:10013800806F816B9A6BFFEC1DF0BB0ED06F7B0E4E
:10014800D16FD26BD36B6FEC18F0350E0001D06F06
:100158007E0ED16FD26B010ED36F6FEC18F00A0EC2
:100168000001D56F010ED66F9651C0EC19F0730ED1
:100178000001D06F7D0ED16FD26B020ED36F6FEC82
:1001880018F07AC0D5F07BC0D6F0030E0001D76F07
:10019800020ED86FC9EC0DF00C0E0001D56F020EDF
:1001A800D66F8051C0EC19F0840E0001D06F7C0E20
:1001B800D16FD26B030ED36F6FEC18F092EC19F07D
:1001C8009DEC1EF0966F965103E1050E966F05D0D3
:1001D800DF0E966502D0CE0E9627C76B965104ECBB
:1001E80019F0200EA06F7AC0CAF07BC0CBF0040EC5
:1001F800CC6FC4EC0BF0090EC76F805104EC19F0FA
:1002080000F02E0E0001C46F7D0EC56F9D0EC66FE7
:100218000C0EC76F5DEC15F0070E0001996F080E04
:10022800986F41EF06F0FA5107E09A2B0F0E986F7E
:10023800010EDF6F41EF06F09A6B41EF06F0FFD732
:10024800EA5103E1DF51D8B41200FFEC1DF0220E91
:10025800D06F7B0ED16FD26BD36B6FEC18F0880E1A
:100268000001D06F7B0ED16FD26B010ED36F6FEC94
:1002780018F0840E0001D06F7C0ED16FD26B030E84
:10028800D36F6FEC18F0060E0001986F060CEA5158
:1002980022E0FFEC1DF0110ED06F7B0ED16FD26BF8
:1002A800D36B6FEC18F0000E0001D06F7B0ED16F8E
:1002B800D26B010ED36F6FEC18F0840E0001D06F73
:1002C8007C0ED16FD26B030ED36F6FEC18F00A0E51
:1002D8000001986F0A0CDF51D8B412009A6BFFEC3A
:1002E8001DF0EE0ED06F7B0ED16FD26BD36B6FEC1F
:1002F80018F0660E0001D06F7D0ED16FD26B010E23
:10030800D36F6FEC18F0980E0001D06F7A0ED16F92
:10031800D26B030ED36F6FEC18F092EC19F09DECD2
:100328001EF0966F965103E1050E966F05D0DF0E0D
:10033800966502D0CE0E96270C0ED56F010ED66F9D
:100348009651C0EC19F00001C76B965104EC19F0F6
:10035800200EA06F7AC0CAF07BC0CBF0040ECC6F21
:10036800C4EC0BF0090EC76F805104EC19F000F0D3
:10037800070E0001986F070CEA510AE02E0EC46FB1
:100388007D0EC56F9D0EC66F0C0EC76F5DEC15F028
:100398000001DF510AE0650EC46F7E0EC56F9D0E29
:1003A800C66F0C0EC76F5DEC15F00001EA5103E152
:1003B800DF51D8B41200FFEC1DF04D0ED06F7E0E49
:1003C800D16FD26BD36B6FEC18F0730E0001D06F46
:1003D8007D0ED16FD26B010ED36F6FEC18F07AC01F
:1003E800D5F07BC0D6F0030E0001D76F020ED86F90
:1003F800C9EC0DF00C0E0001D56F020ED66F8051BE
:10040800C0EC19F0410E0001D06F7E0ED16FD26B97
:10041800010ED36F6FEC18F00C0E0001D56F010EB2
:10042800D66F9651C0EC19F0899C080E0001986FA0
:10043800080CE05101E1D3D0900EC36F010EC46FD8
:10044800F80EC56F7F0EC66F08EC17F0C351C411C4
:1004580003E1898C080E986F900EC36F010EC46F6C
:10046800AB0EC56F7F0EC66FC86B060EC76F3BEC31
:1004780018F0C351C4115CE1070EE96F900EE9252D
:10048800D96EDA6A010EDA22DF50BE6FE92B900EC0
:10049800E925D96EDA6A010EDA22DF50BF6FE92B3F
:1004A800200EBF190DE0900EE925D96EDA6A010E0B
:1004B800DA22DF50C06FE92B200EC01901E0E92BCA
:1004C800E92BE86B3F0EE86501D01CD0900EE925BA
:1004D800D96EDA6A010EDA22D00EE825E16EE26AF8
:1004E800010EE222DFCFE7FFD00EE825D96EDA6AE7
:1004F800010EDA22DF5002E0E92B02D0400EE86F4D
:10050800E82BE0D7898E899C550ED06F7B0ED16F72
:10051800D26B020ED36F6FEC18F0CD0E0001D06FC6
:100528007A0ED16FD26B030ED36F6FEC18F04ED0EA
:10053800900EC36F010EC46FB20EC56F7F0EC66FEB
:10054800C86B060EC76F3BEC18F0C351C4110BE122
:10055800899CCC0ED06F7B0ED16FD26B030ED36FFC
:100568006FEC18F033D0900EC36F010EC46FA40E59
:10057800C56F7F0EC66FC86B060EC76F3BEC18F0D1
:10058800C351C4110AE1AA0ED06F7A0ED16FD26B93
:10059800030ED36F6FEC18F019D0900EC36F010ED5
:1005A800C46F9D0EC56F7F0EC66FC86B060EC76FF2
:1005B8003BEC18F0C351C41109E1B40ED06F7C0EA6
:1005C800D16FD26B030ED36F6FEC18F0FA0E0001E7
:1005D800E26F580EE82EFED7E22FFCD700D00001BC
:1005E800EA5103E1DF51D8B41200FFEC1DF0220EEE
:1005F800D06F7B0ED16FD26BD36B6FEC18F0880E77
:100608000001D06F7B0ED16FD26B010ED36F6FECF0
:1006180018F0840E0001D06F7C0ED16FD26B030EE0
:10062800D36F6FEC18F02FD6EA5122E0FFEC1DF0E3
:10063800640ED06F7C0ED16FD26BD36B6FEC18F059
:10064800540E0001D06F7C0ED16FD26B010ED36FA8
:100658006FEC18F0840E0001D06F7C0ED16FD26B56
:10066800030ED36F6FEC18F0010E0001986F010CA8
:10067800DF51D8B41200FFEC1DF0899E430ED06FF5
:100688007C0ED16FD26BD36B6FEC18F0CB0E0001E0
:10069800D06F7E0ED16FD26B010ED36F6FEC18F056
:1006A800BE0E0001D06FD16B090ED26F010ED36F51
:1006B8006FEC18F0520E0001D06F7E0ED16FD26B26
:1006C800020ED36F6FEC18F0D00E0001D06F010E40
:1006D800D16F060ED26F020ED36F6FEC18F0DA0EE0
:1006E8000001D06F010ED16FD26B030ED36F6FEC88
:1006F80018F00B0E0001986F0B0CEA5103E1DF5163
:10070800D8B41200FFEC1DF0110ED06F7B0ED16F24
:10071800D26BD36B6FEC18F0000E0001D06F7B0E1C
:10072800D16FD26B010ED36F6FEC18F0840E0001FD
:10073800D06F7C0ED16FD26B030ED36F6FEC18F0B5
:10074800C6D5EA512EE0FFEC1DF0320ED06F7C0EBC
:10075800D16FD26BD36B6FEC18F00001FA510AE03D
:10076800D40ED06F7C0ED16FD26B020ED36F6FECAC
:1007780018F009D0E30ED06F7C0ED16FD26B020E49
:10078800D36F6FEC18F0740E0001D06F7C0ED16F30
:10079800D26B030ED36F6FEC18F00C0E0001986F3C
:1007A8000C0CDF51D8B41200FFEC1DF0640ED06FB2
:1007B8007C0ED16FD26BD36B6FEC18F0810E0001F9
:1007C800D06F7F0ED16FD26B010ED36F6FEC18F024
:1007D8007A0E0001D06F7F0ED16FD26B020ED36FED
:1007E8006FEC18F0FB0E0001D06F7F0ED16F0C0E6E
:1007F800D26F020ED36F6FEC18F000018051811197
:1008080015E07AC0D5F07BC0D6F0060ED76F010E82
:10081800D86FC9EC0DF080C0D5F081C0D6F0060EB7
:100828000001D76F020ED86FC9EC0DF0020E00015F
:10083800986F020CEA5101E188D0FFEC1DF0770EA9
:10084800D06F7B0ED16FD26BD36B6FEC18F0660E46
:100858000001D06F7B0ED16FD26B010ED36F6FEC9E
:1008680018F0880E0001D06F7F0ED16FD26B020E88
:10087800D36F6FEC18F0C30E0001D06F7F0ED16FED
:100888000C0ED26F020ED36F6FEC18F042D0CC0E64
:10089800D06F7D0ED16F070ED26F020ED36F6FEC43
:1008A80018F045D0E10ED06F7F0ED16F070ED26FD2
:1008B800020ED36F6FEC18F03AD0ED0ED06F7F0EAA
:1008C800D16F070ED26F020ED36F6FEC18F02FD0D6
:1008D800E50ED06F7F0ED16F070ED26F020ED36F69
:1008E8006FEC18F024D0E90ED06F7F0ED16F070E91
:1008F800D26F020ED36F6FEC18F019D0F00ED06FD4
:100908007F0ED16F070ED26F020ED36F6FEC18F007
:100918000ED00001FE51BBE0010AC4E0030ACDE09D
:10092800010AD6E0070ADFE0010AE8E0B0D7740E52
:100938000001D06F7C0ED16FD26B030ED36F6FECBA
:1009480018F00D0E0001986F0D0CDF51D8B412008D
:10095800FA5105E0FA6BE30ED06F7C0E05D0010E5C
:10096800FA6FD40ED06F7C0ED16FD26BCBD07AC019
:10097800D5F07BC0D6F0060ED76F010ED86FC9EC44
:100988000DF080C0D5F081C0D6F0060E0001D76FFB
:10099800020ED86FC9EC0DF00001EA5103E1DF51F6
:1009A800D8B41200FFEC1DF0640ED06F7C0ED16F2E
:1009B800D26BD36B6FEC18F0540E0001D06F7C0E25
:1009C800D16FD26B010ED36F6FEC18F0840E00015B
:1009D800D06F7C0ED16FD26B030ED36F6FEC18F013
:1009E80043D6EA517EE0FFEC1DF0FF0ED06F7B0E80
:1009F800D16FD26BD36B6FEC18F0590E0001D06F2A
:100A08007E0ED16FD26B020ED36F6FEC18F0740E9E
:100A18000001D06F7C0ED16FD26B030ED36F6FECD9
:100A280018F0030E0001986F4DD0C80ED06F7F0EDE
:100A3800D16F0A0ED26F020ED36F6FEC18F051D03F
:100A4800CC0ED06F7F0ED16F0A0ED26F020ED36F0D
:100A58006FEC18F046D0D00ED06F7F0ED16F0A0E13
:100A6800D26F020ED36F6FEC18F03BD0D40ED06F5C
:100A78007F0ED16F0A0ED26F020ED36F6FEC18F093
:100A880030D0D80ED06F7F0ED16F0A0ED26F020E03
:100A9800D36F6FEC18F025D0DC0ED06F7F0ED16FBE
:100AA8000A0ED26F020ED36F6FEC18F01AD0F40E44
:100AB800D06F7F0ED16F0A0ED26F020ED36F6FEC1C
:100AC80018F00FD0F851B1E0010ABAE0030AC3E008
:100AD800010ACCE0070AD5E0010ADEE0030AE7E0F4
:100AE800A4D70001DF51D8B41200050EFE6102D070
:100AF800FE2B2BD0FE6B29D0090EFD6FDC0ED06FBC
:100B08007F0E20D0020ED36F6FEF18F0120EFD6F1C
:100B1800E00ED06F7F0E16D01B0EFD6FEC0ED06F5F
:100B28007F0E10D0360EFD6FE40ED06F7F0E0AD008
:100B38006C0EFD6FE80ED06F7F0E04D0FD69F00ECD
:100B4800D06F7F0ED16F070E3FD0FE51D5E0010A5E
:100B5800DDE0030AE1E0010AE5E0070AE9E0010A4D
:100B6800EDE0CAD7EA511AE0F8519BEC0AF0FFEC25
:100B78001DF0DD0ED06F7B0ED16FD26BD36B6FEC97
:100B880018F0940E0001D06F7C0ED16FD26B030E5B
:100B9800D36F6FEC18F00F0E0001986FDF51D8B4C7
:100BA8001200060EF8610AD0970506E1030EF865F3
:100BB80003D0060EF86F24D0F82B22D0F86B20D083
:100BC800C80ED06F7F0E19D0D26F9CD7CC0ED06FC5
:100BD8007F0E13D0D00ED06F7F0E0FD0D40ED06FF3
:100BE8007F0E0BD0D80ED06F7F0E07D0DC0ED06FE3
:100BF8007F0E03D0F40ED06F7F0ED16F0A0EE4D7AC
:100C0800F851DEE0010AE2E0030AE4E0010AE6E066
:100C1800070AE8E0010AEAE0030AECE0D1D7DF516D
:100C280009E012EC15F0000903E0010EEA6F02D0AA
:100C3800090E996FEA51D8B41200FFEC1DF0220E8C
:100C4800D06F7B0ED16FD26BD36B6FEC18F0880E20
:100C58000001D06F7B0ED16FD26B010ED36F6FEC9A
:100C680018F0840E0001D06F7C0ED16FD26B030E8A
:100C7800D36F6FEC18F047EF01F0985102E124EFC1
:100C880001F0010A01E15DD5030A01E170D6010A0C
:100C980001E168D7050A02E14BEF01F0010A02E120
:100CA800C0EF01F00F0A02E11DEF02F0020A01E1B4
:100CB800BBD4010A01E121D5070A01E1BBD5010A2C
:100CC80001E18FD6020AABE023EF01F0DA6F0001F1
:100CD800D96B2AD2FFD7FD0EC46F7E0EC56FA3EC69
:100CE8001CF00001C46B320EC36F20EC1DF0010E26
:100CF800ABD0D65102E00A0E8F6FDA5101E132D241
:100D0800900EC36F010EC46FB90EC56F7F0EC66F0C
:100D1800C86B040EC76F3BEC18F0C351C41121E136
:100D2800976BFFEC1DF0440ED06F7B0ED16FD26B2A
:100D3800D36B6FEC18F0990E0001D06F7B0ED16F5A
:100D4800D26B020ED36F6FEC18F0EF0E0001D06F6C
:100D58007A0ED16FD26B030ED36F6FEC18F0020EC0
:100D680073D0900EC36F010EC46FBE0EC56F7F0E99
:100D7800C66FC86B040EC76F3BEC18F0C351C411A3
:100D880021E1010E976FFFEC1DF0440ED06F7B0E32
:100D9800D16FD26BD36B6FEC18F0990E0001D06F46
:100DA8007B0ED16FD26B020ED36F6FEC18F0EF0E83
:100DB8000001D06F7A0ED16FD26B030ED36F6FEC38
:100DC80018F0CDD7FD0EC46F7E0EC56FA3EC1CF0D6
:100DD8000001C46B190EC36F20EC1DF08F6BC2D1DC
:100DE800D55118E0BC0ED06F7A0ED16FD26B030EBE
:100DF800D36F6FEC18F0010E0001C46FF40EC36FCF
:100E080020EC1DF0E80EC46F7D0EC56FA3EC1CF03E
:100E1800030E1AD0D65101E1A5D1DE0ED06F7A0E9D
:100E2800D16FD26B030ED36F6FEC18F0010E000177
:100E3800C46FF40EC36F20EC1DF03C0EC46F7D0E22
:100E4800C56FA3EC1CF0050E000135D0DA5101E1A5
:100E580089D1900EC36F010EC46FF80EC56F7F0E57
:100E6800C66F08EC17F0C351C41102E1040E23D079
:100E7800900EC36F010EC46F580EC56F7D0EC66FFE
:100E880008EC17F0C351C41118E1FFEC1DF0B50EC2
:100E9800D06F7E0ED16FD26BD36B6FEC18F01A0E39
:100EA8000001D06F7F0ED16FD26B010ED36F6FEC44
:100EB80018F0090EC9D78F6F55D1E80EC46F7D0E93
:100EC800C56FA3EC1CF0A4D7DA5101E14BD1900E09
:100ED800C36F010EC46F230EC56F7F0EC66F08EC7B
:100EE80017F0C351C41116E1FFEC1DF0D50ED06FF9
:100EF8007E0ED16FD26BD36B6FEC18F09F0E000192
:100F0800D06F7E0ED16FD26B010ED36F6FEC18F0DD
:100F1800070E9AD7F30EC46F7E0EC56FA3EC1CF0B4
:100F2800E6D6DA5101E11ED1900EC36F010EC46FEF
:100F3800F80EC56F7F0EC66F08EC17F0C351C411C9
:100F480002E1060EB8D7900EC36F010EC46F580E9B
:100F5800C56F7D0EC66F08EC17F0C351C41115E1BB
:100F6800FFEC1DF0B50ED06F7E0ED16FD26BD36B38
:100F78006FEC18F01A0E0001D06F7F0ED16FD26B94
:100F8800010ED36F6FEC18F094D7900EC36F010E5B
:100F9800C46F4A0EC56F7D0EC66F08EC17F0C351BB
:100FA800C41107E13C0EC46F7D0EC56FA3EC1CF0A5
:100FB8004AD7900EC36F010EC46F940EC56F7E0E94
:100FC800C66F08EC17F0C351C41101E107D7CAD0A6
:100FD800DA5101E1C7D0900EC36F010EC46F230E22
:100FE800C56F7F0EC66F08EC17F0C351C41115E129
:100FF800FFEC1DF0890ED06F7E0ED16FD26BD36BD4
:101008006FEC18F09F0E0001D06F7E0ED16FD26B7F
:10101800010ED36F6FEC18F07BD7900EC36F010EE3
:10102800C46F960EC56F7F0EC66F08EC17F0C351DC
:10103800C4111EE1FFEC1DF0E90ED06F7E0ED16FDA
:10104800010ED26FD36B6FEC18F08F0E0001D06FCA
:101058007F0ED16F020ED26F010ED36F6FEC18F0B6
:101068003C0E0001C46F7D0EC56FA3EC1CF0EBD6DF
:10107800900EC36F010EC46F940EC56F7E0EC66FBF
:1010880008EC17F0A0D7AA0EC46F7E0EC56FA3ECAC
:101098001CF0080ED9D6DA5165E0900EC36F010E28
:1010A800C46F4A0EC56F7D0EC66F08EC17F0C351AA
:1010B800C41107E1AA0EC46F7E0EC56FA3EC1CF025
:1010C800E8D701019051D00F0001D86FD8C0F8F0CF
:1010D800010ED96F47D0D65145E00A0EECD6000E66
:1010E800C36BA5EC1BF082B002D082A2FCD7FA0E2B
:1010F8000001D76F580EE82EFED7D72FFCD700D0A7
:10110800FA0E0001D76F580EE82EFED7D72FFCD75E
:1011180000D0FA0E0001D76F580EE82EFED7D72F51
:10112800FCD700D0FF001ED08F5101E1D4D5010AB1
:1011380001E1DFD5030A01E153D6010A01E186D6B0
:10114800070A01E1C1D6010A01E1EBD6030A01E170
:101158003FD7010A98E00F0A9EE0010ABCE0030AA3
:10116800BEE0B8D50001D9511200040132050BE1E7
:1011780030511F0B08E10C8E030E311903E1010EEB
:101188001D6E01D01D6A3251D8A4120030511F0BB8
:10119800020AD8A4120034510F0BD8B412003451EB
:1011A8000F0B436E030E4360030C200E00018C19D5
:1011B800D8A412000C8E040134BF11D034510F0B87
:1011C800020DF350600FD96EDA6ADECF48F0DDCF3A
:1011D80049F034510F0B436E43506D0F10D034510A
:1011E8000F0B020DF3500F0FD96EDA6ADECF48F0FD
:1011F800DDCF49F034510F0B436E43506A0FD96E5F
:10120800DA6ADF50476E47B002D0489401D048846C
:1012180034BF06D034510F0B020DF350600F05D0C8
:1012280034510F0B020DF3500F0FD96EDA6A48C014
:10123800DEFF49C0DDFF030E311923E148C0D9FFA5
:1012480049C0DAFFDFAE11D034BF06D034510F0BDE
:10125800436E43506D0F05D034510F0B436E43500E
:101268006A0FD96EDA6A0001DF8248C0D9FF49C027
:10127800DAFF000EDB8448C0D9FF49C0DAFFDB8EF5
:10128800000C040E481A48C0D9FF49C0DAFFDFAE87
:1012980019D048C0D9FF49C0DAFF7F0EDF1648C011
:1012A800D9FF49C0DAFF000EDB8C3C6A050E3B6EA5
:1012B80048C03DF049C03EF0406A020E3F6EDEEC89
:1012C8001AF006D048C0D9FF49C0DAFF000EDB8CFF
:1012D800040E481A47B206D048C0D9FF49C0DAFF01
:1012E800DFAE25D0040134BF06D034510F0B436E56
:1012F80043506D0F05D034510F0B436E43506A0FA6
:10130800D96EDA6A0001DF9248C0D9FF49C0DAFF16
:101318003B0EDF163C6A050E3B6E48C03DF049C0E7
:101328003EF0406A020E3F6EDEEC1AF006D048C06E
:10133800D9FF49C0DAFF3B0EDF16040134510F0B09
:10134800436E446A6A0E4324456E0F0E4420466E6F
:1013580045C0D9FF46C0DAFFFE0EDF16FE0C0001BD
:10136800ED6BF06BF16B80A007D0B3EC1EF00009B9
:1013780006E1040EFB6F03D0000EA1EC1EF0000185
:1013880090A107D0B5EC1EF025EC0FF0905151EC70
:101398001EF093EC1AF0F26FF20504E1996B010E5E
:1013A800F06F06D0020EF21903E1996B010EF16F8E
:1013B80003EC1BF0000903E0010EF56F01D0F56B9B
:1013C800060E981903E0020E98193EE17D5103E1DB
:1013D800050E7C5D39E3EE6BEF6BC46B0A0EC36FD1
:1013E80020EC1DF0200EF36F030E88EC1BF07A51F1
:1013F800C3277B51C423D890C431EB6FC3317A6FB4
:10140800EBC07BF0F307F351EFE1C46B0A0EC36F37
:1014180020EC1DF0200EF46F020E88EC1BF0EE514C
:10142800C327EF51C423D890C431EB6FC331EE6F9B
:10143800EBC0EFF0F407F451EFE1EE5192EC1DF040
:10144800806F816B7C6B7D6B090E996564D0FA5156
:1014580062E0090E99655FD0010EED6F996B5BD064
:10146800FFD7FFEC1DF0DF0ED06F7E0ED16F010E9F
:10147800D26FD36B6FEC18F0350E0001D06F7F0E72
:10148800D16F020ED26F010ED36F6FEC18F0AA0E57
:101498000001D06F7B0ED16FD26B030ED36F6FEC50
:1014A80018F000018F6B020E2AD0F0C0D5F0F1C001
:1014B800D6F0F5516AEC06F0000936E0FFEC1DF0B5
:1014C800100ED06F7C0ED16FD26BD36B6FEC18F00F
:1014D800210E0001D06F7C0ED16FD26B020ED36F3C
:1014E8006FEC18F0330E0001D06F7B0ED16FD26B0A
:1014F800030ED36F6FEC18F00001986B030EFB6FAF
:1015080013D0F1C0DFF0F5C0E0F0EDC0E1F0F0512C
:1015180057EC00F009D0FB51010AA3E0030AC5E02B
:10152800010AEFE0070A9CE10001FB511200C76FB6
:10153800080E0001C71961E0A40EC46F7C0EC56FC8
:10154800A3EC1CF0FA0E0001C66F580EE82EFED769
:10155800C62FFCD700D0FA0E0001C66F580EE82E31
:10156800FED7C62FFCD700D0FA0E0001C66F580E62
:10157800E82EFED7C62FFCD700D03FD0800EC46F10
:101588007D0EC56FA3EC1CF04BD08D0EC46F7D0E85
:10159800C56FA3EC1CF044D09A0EC46F7D0EC56FC6
:1015A800A3EC1CF03DD0A70EC46F7D0EC56FA3EC55
:1015B8001CF036D0B40EC46F7D0EC56FA3EC1CF0C2
:1015C8002FD0C10EC46F7D0EC56FA3EC1CF028D0C0
:1015D800CE0EC46F7D0EC56FA3EC1CF021D0DB0EC0
:1015E800C46F7D0EC56FA3EC1CF01AD0F20EC46F49
:1015F8007C0EC56FA3EC1CF013D00001C751BEE0F0
:10160800010AC3E0030AC8E0010ACDE0070AD2E0F4
:10161800010AD7E0030ADCE0010AE1E00F0AE6E08C
:10162800FA0E0001C66F580EE82EFED7C62FFCD75B
:1016380000D0FA0E0001C66F580EE82EFED7C62F4E
:10164800FCD700D0FA0E0001C66F580EE82EFED760
:10165800C62FFCD700D02C0E0001C46F7F0EC56FBB
:10166800AFEF1CF020EE01F01550D9261650DA2203
:10167800DF50406E4050055C000E065802E205C07F
:1016880040F04050055E000E065A3F6A0DD0380EF5
:101698003F24D96EDA6A040EDA220150E16EE26A5A
:1016A800DFCFE7FF012A3F2A40503F5CF0E30550B7
:1016B800061032E020EE01F01750D9261850DA2231
:1016C800080EDF6E20EE02F01750D9261850DA22E5
:1016D800380EDE6E040EDD6E15C0D9FF16C0DAFFB7
:1016E800DFBC0DD017C0D9FF18C0DAFF480EDF6E77
:1016F80017C0D9FF18C0DAFF000EDB8E000C17C028
:10170800D9FF18C0DAFF080EDF6E17C0D9FF18C05E
:10171800DAFF000EDB8E000C20EE01F01750D92600
:101728001850DA22080EDF6E20EE02F01750D92684
:101738001850DA22300EDE6E040EDD6E17C0D9FFA7
:1017480018C0DAFFDF6E17C0D9FF18C0DAFF000E25
:10175800DB8E075008100EE020EE07F001D80AD003
:101768000500FA6EDE50FD6EDE50FE6EF850FF6E1C
:10177800FA501200049E1E50D8B40CEC12F012005D
:10178800CC51A10FD96EDA6ACAC0C3F0CBC0C4F07D
:10179800C66B0A0EC56F4AEC1BF0C351300FDF6EE3
:1017A800CAC0C3F0CBC0C4F0C66B0A0EC56FB9EC93
:1017B8001AF0C3C0CAF0C4C0CBF0CC51A00FD96E88
:1017C800DA6ACAC0C3F0CBC0C4F0C66B0A0EC56FD4
:1017D8004AEC1BF0C351300FDF6ECAC0C3F0CBC058
:1017E800C4F0C66B0A0EC56FB9EC1AF0C3C0CAF0D4
:1017F800C4C0CBF0CC519F0FD96EDA6ACAC0C3F00F
:10180800CBC0C4F0C66B0A0EC56F4AEC1BF0C351BF
:10181800300FDF6ECAC0C3F0CBC0C4F0C66B0A0E6F
:10182800C56FB9EC1AF0C3C0CAF0C4C0CBF0CC5134
:101838009E0FD96EDA6ACAC0C3F0CBC0C4F0C66BBB
:101848000A0EC56F4AEC1BF0C351300FDF6ECAC0D9
:10185800C3F0CBC0C4F0C66B0A0EC56FB9EC1AF062
:10186800C3C0CAF0C4C0CBF0CC519D0FD96EDA6AA0
:10187800CAC0C3F0CBC0C4F0C66B0A0EC56F4AEC31
:101888001BF0C351300FDF6E1200800E04013019B7
:10189800D8A41200C00E0C6E71D0060E096E7A0E16
:1018A8000A6E0E6A120E0D6E120C32513DE1325163
:1018B800020D590EF324F66E760EF420F76E090029
:1018C800F5CF09F00A00F5CF0AF0020E09242E6EB2
:1018D800000E0A202F6E2EC0F6FF2FC0F7FFF86A01
:1018E800070EF76403D00800F55005D0F6CFE1FFE6
:1018F800F7CFE2FFE7500D6E030E09242E6E000E9F
:101908000A202F6E2EC0F6FF2FC0F7FFF86A070EC9
:10191800F76403D00800F55005D0F6CFE1FFF7CF04
:10192800E2FFE7500E6E12000C6A1200030E3261DD
:1019380021D03251020D530EF324F66E760EF420A8
:10194800F76E0900F5CF09F00A00F5CF0AF009C0D3
:10195800F6FF0AC0F7FFF86A070EF76403D008001D
:10196800F55005D0F6CFE1FFF7CFE2FFE7500D6E57
:101978000E6A12000C6A12000C6A12003351010A36
:101988008CE0030A92E0010AD1E0F6D7A3940001A3
:101998007651771109E076C0D9FF77C0DAFF010EDA
:1019A800DFAE000ECA6F01D0CA6BCB6BCA51CB1128
:1019B80002E0A3841200030E201801E1206A2050DF
:1019C80002E1A3841200020E201810E1010EC36F79
:1019D800000EC46FC56FC66F020E24EC14F0C3C0AE
:1019E80076F0C4C077F0030E206E4ED020044CE190
:1019F800400E936502D0CD6F02D093C0CDF0CD518B
:101A0800935F000E706F050E716FCDC0CCF09151D1
:101A180010E021D073C0D9FF74C0DAFF70C0E1FFB5
:101A280071C0E2FFDFCFE7FF704B712B734B742B54
:101A3800CC07CC5112E0EED773C0D9FF74C0DAFFDF
:101A480070C0E1FF71C0E2FFDFCFE7FF704B712B81
:101A5800734B742BCC07CC51EFE1935106E1400E48
:101A6800CD19020ED8A4030E206E010EC36F000E0E
:101A7800C46F050EC56FCDC0C6F0020E24EC14F07D
:101A8800C3C076F0C4C077F0A384120000018C05AF
:101A980007E160BA05D0656A64806488020E8C6FBD
:101AA80065B464A403D06594A3EC1DF060A202D0D1
:101AB800A494120065B064A006D06DEC10F0A38465
:101AC800040E8C6F659065B864A803D0E2EC1DF035
:101AD800659865AC14D064AC0AD03C6A730E3B6E52
:101AE8003D6A3E6A406A010E3F6EDEEC1AF0659C64
:101AF8001F5001E01F061F5002E10CEC12F065BAFE
:101B080064AA02D069EC1BF065B264A20BD07F0E08
:101B18003C6E3B683D6A3E6A406A010E3F6EDEECF1
:101B28001AF0676A040E00018C6102D0A494040CB8
:101B380064A629D04E6A65A626D061CF2DF02D3037
:101B4800E832E8320F0B226E65962DB403D022508E
:101B58006D0F02D022506A0FD96EDA6A0001DF7069
:101B6800225003E120EC13F00AD03C6A720E3B6E5F
:101B78002D0E3D6E3E6A406A3F6ADEEC1AF04E2A30
:101B8800030E4E64D8D7A4941200D5C0C3F0D6C0B3
:101B9800C4F0C66B0A0EC56F4AEC1BF0C351300F78
:101BA800DD6FD5C0C3F0D6C0C4F0C66B0A0EC56FD2
:101BB800B9EC1AF0C3C0D5F0C4C0D6F0D5C0C3F094
:101BC800D6C0C4F0C66B0A0EC56F4AEC1BF0C351F1
:101BD800300FDC6FD5C0C3F0D6C0C4F0C66B0A0E98
:101BE800C56FB9EC1AF0C3C0D5F0C4C0D6F0D5C0E3
:101BF800C3F0D6C0C4F0C66B0A0EC56F4AEC1BF022
:101C0800C351300FDB6FD5C0C3F0D6C0C4F0C66B6C
:101C18000A0EC56FB9EC1AF0C3C0D5F0C4C0D6F02F
:101C2800D5C0C3F0D6C0C4F0C66B0A0EC56F4AEC67
:101C38001BF0C351300FDA6FD5C0C3F0D6C0C4F063
:101C4800C66B0A0EC56FB9EC1AF0C3C0D5F0C4C094
:101C5800D6F0D5C0C3F0D6C0C4F0C66B0A0EC56FA7
:101C68004AEC1BF0C351300FD96FDE6BD90ED06F21
:101C7800D16BD7C0D2F0D8C0D3F06FEF18F060980E
:101C88000CBE37D004AE0AD0020E216E00018B5173
:101C980002E139EC16F08E6B8D6B120020EE01F02C
:101CA8001750D9261850DA22080EDF6E20EE02F0FF
:101CB8001750D9261850DA22300EDE6E040EDD6E6B
:101CC80017C0D9FF18C0DAFF0C0EDF6E17C0D9FF96
:101CD80018C0DAFF000EDB8E0FC0D9FF10C0DAFF84
:101CE800040EDF6E0FC0D9FF10C0DAFF000EDB8EC6
:101CF800000C040130AF0ED0010E216E00018A5194
:101D080002E139EC16F08E6B8D6B1E50D8A41200D0
:101D18000CEF12F0020E216E20EE01F01750D926BA
:101D28001850DA22080EDF6E20EE02F01750D9267E
:101D38001850DA22300EDE6E040EDD6E17C0D9FFA1
:101D480018C0DAFFDF6E17C0D9FF18C0DAFF000E1F
:101D5800DB8E00018E6B8D6B1E5002E10CEF12F0D2
:101D68001200B4EC1DF081EC1DF0D9EC10F077EC0A
:101D78001CF0F28CF28E010EC46F2C0EC36F20EC97
:101D88001DF0A2EC18F0010EC46F2C0EC36F20ECEE
:101D98001DF07AEC1EF00001C46B640EC36F20ECDA
:101DA8001DF0000E35EC1EF00001956F550E9519CB
:101DB80007E0C2EC1BF0550EC36F000EA5EC1BF03C
:101DC8000001946B000EA5EC1EF0FFEC1DF01F0E39
:101DD800D06F7D0ED16FD26BD36B6FEC18F0010E04
:101DE8000001D06F7D0ED16FD26B010ED36F6FECF7
:101DF80018F0100E0001D06F7D0ED16FD26B030E5C
:101E0800D36F6FEC18F0030E0001C46FE80EC36FB8
:101E180020EC1DF010D0FFD7A7EC15F0010E946F41
:101E2800A9EC1EF008D0B3EC09F0040A04E1946BA5
:101E3800000EA5EC1EF000019451EEE0010AF3E05B
:101E4800EAD7864B872B86C0C3F087C0C4F0C66B21
:101E58000A0EC56F4AEC1BF0C351C411D8A4120076
:101E6800908386C0C3F087C0C4F0C66B640EC56F8C
:101E78004AEC1BF0C351C411D8A41200908586C047
:101E8800C3F087C0C4F0030EC66FE80EC56F4AECF6
:101E98001BF0C351C411D8A41200908786C0C3F0A8
:101EA80087C0C4F0EA0EC66F600EC56F4AEC1BF01F
:101EB800C351C411D8A41200844B852B908984C0C7
:101EC800C3F085C0C4F0C66B3C0EC56F4AEC1BF06E
:101ED800C351C411D8A41200908B84C0C3F085C02C
:101EE800C4F0020EC66FD00EC56F4AEC1BF0C3518A
:101EF800C411D8A41200908D84C0C3F085C0C4F06A
:101F0800050EC66FA00EC56F4AEC1BF0C351C41175
:101F1800D8A41200908F866B876B846B856B120038
:101F28000001C76FFA0EC66F580EE82EFED7C62FEF
:101F3800FCD700D0FA0E0001C66F580EE82EFED767
:101F4800C62FFCD700D0FA0E0001C66F580EE82E37
:101F5800FED7C62FFCD700D00001C75126E0500E8F
:101F6800C46F7A0EC56FA3EC1CF0FA0E0001C66FA1
:101F7800580EE82EFED7C62FFCD700D0FA0E000167
:101F8800C66F580EE82EFED7C62FFCD700D0FA0E23
:101F98000001C66F580EE82EFED7C62FFCD700D01A
:101FA8006A0E0001C46F7A0E25D01C0EC46F7A0E1B
:101FB800C56FA3EC1CF0FA0E0001C66F580EE82E90
:101FC800FED7C62FFCD700D0FA0E0001C66F580EF8
:101FD800E82EFED7C62FFCD700D0FA0E0001C66F38
:101FE800580EE82EFED7C62FFCD700D0360E0001BB
:101FF800C46F7A0EC56FAFEF1CF08A888A8A8A840C
:10200800500EE82EFED78A94040E0001C56F1C0EF0
:10201800E82EFED7C52FFCD700D08A848A98040EF4
:102028000001C56F1C0EE82EFED7C52FFCD700D0C7
:102038008A9A040E0001C56F1C0EE82EFED7C52F24
:10204800FCD700D0AE0E8CEC1EF0D50E8CEC1EF03A
:10205800800E8CEC1EF0A80E8CEC1EF01F0E8CEC83
:102068001EF0D30E8CEC1EF0000E8CEC1EF08D0EC4
:102078008CEC1EF0140E8CEC1EF0400E8CEC1EF056
:10208800A60E8CEC1EF0A40E8CEC1EF0A00E8CECB0
:102098001EF0C00E8CEC1EF0DA0E8CEC1EF0420E18
:1020A8008CEC1EF0810E8CEC1EF07F0E8CEC1EF07A
:1020B800D90E8CEC1EF0F10E8CEC1EF0DB0E8CECC5
:1020C8001EF0400E8CEC1EF0AF0E8CEC1EF08A88D1
:1020D8001200A394676A656A6A6A6B0E2E6E0F0E09
:1020E8002F6E316A306A336A020E326EE2EC1CF0EF
:1020F800160E626E9F0E666E7B0E646E366A3650E2
:10210800040D000EF324D96E040EF420DA6EDE6A94
:10211800DE6ADE6ADD6A362A0B0E3664F0D7608C1A
:10212800636A6098609C05D065960C6A046A056AC3
:10213800066A65B6F9D7010E00018D6F8E6F8A6B3E
:102148008B6B896B366A3650020DF3500F0FD96EC0
:10215800DA6ADE6ADD6A3650020DF350600FD96E16
:10216800DA6ADE6ADD6A36506A0FD96EDA6ADF6AC1
:1021780036506D0FD96EDA6ADF6A362A020E366477
:10218800E2D7080E0F6E040E106E160E6A6E040E5D
:102198000401036F300E026F080E016F040E006F0A
:1021A800008F2C6A00018C6B1200A394676A656A21
:1021B8006A6A6B0EC36F0F0EC46FC66BC56BC86BB4
:1021C800020EC76FB8EC1CF0160E626E9F0E666E9C
:1021D8007B0E646ECB6BCB51040D000EF324D96ECD
:1021E800040EF420DA6EDE6ADE6ADE6ADD6ACB2B64
:1021F8000B0ECB65F0D7608C636A6098609C05D045
:1022080065960C6A046A056A066A65B6F9D7010E0E
:102218008D6F8E6F8A6B8B6B896BCB6BCB51020D7D
:10222800F3500F0FD96EDA6ADE6ADD6ACB51020D00
:10223800F350600FD96EDA6ADE6ADD6ACB516A0F35
:10224800D96EDA6ADF6ACB516D0FD96EDA6ADF6A46
:10225800CB2B020ECB65E2D7080E0F6E040E106E64
:10226800160E6A6E040E0401036F300E026F080E1C
:10227800016F040E006F008F2C6A00018C6B120036
:102288000FC0D9FF10C0DAFF000EDFBC010E3F6E91
:10229800040E0F1A080E8C190AE1040132517F0B43
:1022A800636E6350100ED8B4040E00018C6F2104C5
:1022B80038E120EE02F00F50D9261050DA22380EFD
:1022C800DE6E040EDD6EABEC11F0020E2B180DE184
:1022D8000FC0D9FF10C0DAFF040EDF6E0FC0D9FFA0
:1022E80010C0DAFF000EDB8E000C3F500DE10FC06E
:1022F800D9FF10C0DAFF480EDF6E0FC0D9FF10C03B
:10230800DAFF000EDB8E000C0FC0D9FF10C0DAFF19
:10231800080EDF6E0FC0D9FF10C0DAFF000EDB8E8B
:10232800000C04AE12D0075008100EE020EE07F0A3
:1023380001D80AD00500FA6EDE50FD6EDE50FE6E42
:10234800F850FF6EFA501200049E216A1200080E1F
:102358002E6E0E500DE1080E0D5C0AE20DC02EF037
:102368002B5002E1010E03D02B0402E1020E2B6E6A
:102378002E500D5E000E0E5A20EE01F00F50D92699
:102388001050DA222EC0DFFF380E00017E6F040ED7
:102398007F6F0CB03AD01BD009C0F6FF0AC0F7FF18
:1023A800F86A7EC0D9FF7FC0DAFF070EF76403D052
:1023B8000800F55005D0F6CFE1FFF7CFE2FFE75070
:1023C800DF6E094A0A2A00017E4B7F2B2E062E500B
:1023D800E3E1120009C0F6FF0AC0F7FFF86A7EC001
:1023E800D9FF7FC0DAFF070EF76403D00800F55065
:1023F80005D0F6CFE1FFF7CFE2FFE750DF6E094ADD
:102408000A2A00017E4B7F2B2E062E50E3E1120094
:1024180000018D51D8A41200010E8D6F8E51D8A4E1
:102428001200010E8E6F020E211814E120EE01F049
:102438000F50D9261050DA22DF6A0FC0D9FF10C01A
:10244800DAFF480EDF6E0FC0D9FF10C0DAFF000EAA
:10245800DB8E000C2104D8A41200886B20EE01F05A
:102468001550D9261650DA22080EDF6E20EE02F03B
:102478001550D9261650DA22300EDE6E040EDD6EA7
:1024880015C0D9FF16C0DAFFDF6E15C0D9FF16C018
:10249800DAFF000EDB8E010E886F20EE01F0175078
:1024A800D9261850DA22080EDF6E20EE02F01750F7
:1024B800D9261850DA22300EDE6E040EDD6E17C0F3
:1024C800D9FF18C0DAFF800EDF6E800CFFEC1DF01C
:1024D800590ED06F7F0ED16FD26BD36B6FEC18F0A3
:1024E8006A0E0001D06F7F0ED16FD26B010ED36FD1
:1024F8006FEC18F00E0E0001C66F010EC76F430E89
:10250800C5EC17F0720ED06F7F0ED16FD26B020E32
:10251800D36F6FEC18F00001E46BC46B320EC36F1D
:1025280020EC1DF0020E88EC1BF0C3C0E1F0C4C023
:10253800E2F0E15192EC1DF0E36FC46B320EC36F11
:1025480020EC1DF0030E88EC1BF0C3C0DFF0C4C004
:10255800E0F00A0ED56F010ED66FE351C0EC19F00A
:10256800DFC0D5F0E0C0D6F00A0E0001D76F020E2A
:10257800D86FC9EC0DF00001E42B310EE465CDD71E
:10258800310C1F0E8C651F0C60B21F0C1B500EE126
:10259800500ECA6F010ECB6F400ECC6FF1EC15F0E8
:1025A800196E195003E0010E1B6E1C6A1B5010E0D7
:1025B800ACA20ED0500E1C24D96EDA6A010EDA22B3
:1025C800DF5030EC1CF01C2A19501C1801E11B6A62
:1025D80023501CE0B7EC1EF0000918E03F0E1A600B
:1025E80015D000F04AEC1CF0D06F500E1A24D96EAA
:1025F800DA6A010EDA22D0C0DFFF1A2A500E1A2436
:10260800D96EDA6A010EDA22DF6A2A6A205002E0FD
:10261800CAEF0CF01A5002E1CAEF0CF0500E00019C
:10262800C36F010EC46F1AC0C5F0F1EC1DF0BFEC0A
:102638001EF01A6ACAEF0CF02D0E1F6E2DC04BF05B
:10264800FD0E4B164BE1D8902D303F0B040D000EBC
:10265800F324156E040EF420166E15C017F016C07C
:1026680018F0040E171A15C0D9FF16C0DAFFDF30AC
:10267800E8320F0B0D0A02E06AEF1AF04D6A20EEFD
:1026880002F01550D9261650DA22DECF4BF0DDCFF6
:102698004CF04BC0D9FF4CC0DAFF300E4D24E16E30
:1026A800E26A040EE222DFCFE7FF20EE02F01550C7
:1026B800D9261650DA22DE2A000EDD224D2A070E10
:1026C8004D64DDD720EE02F01550D9261650DA22D7
:1026D800300EDE6E040EDD6E63EF19F02D50FD0B2B
:1026E800040AD8B444EC11F01200010ED66FF40EAF
:1026F800D56FD76BFFEC1DF0F50ED06F7D0ED16F47
:10270800D26BD36B6FEC18F082A002D082B20BD0E0
:102718007D0E0001D06F7E0ED16FD26B030ED36F8A
:102728006FEC18F030D01C0E0001D06F7E0ED16F08
:10273800D26B010ED36F6FEC18F025D082B00CD09D
:10274800020ED06F7E0ED16FD26B020ED36F6FEC7C
:1027580018F0080E0001D72782B20CD00F0ED06FE8
:102768007E0ED16FD26B030ED36F6FEC18F0800E14
:102778000001D727880ED71901E11200C46B0A0E91
:10278800C36F20EC1DF00001D507D8A0D607D529C6
:10279800D5E1D629D3E112000C8E6B0E2E6E0F0EEA
:1027A8002F6E316A306A336A020E326EE2EC1CF028
:1027B8002E6A040E2F6E316A306A336A300E326E1A
:1027C800E2EC1CF0608C436A43506A0FD96EDA6AF7
:1027D800DF6A43506D0FD96EDA6ADF6A432A020E48
:1027E8004364F2D7C10E2E6E2F6A316A306A336A9B
:1027F800020E326EE2EC1CF0609C080E0F6E040EA6
:10280800106E000E156E040E166E15C017F016C069
:1028180018F032C42CF02C5004E1100E00018C6F1B
:10282800100C3C6A010E3B6E2C0E3D6E3E6A406AEF
:10283800010E3F6EDEEC1AF0200E00018C6F200CAA
:10284800C76F0001C35105E0C751020DF3500F0FC8
:1028580004D0C751020DF350600FD96EDA6ADECF8B
:10286800C8F0DDCFC9F0C851C91103E1C36BC46B0F
:10287800120020EE02F0C851D926C951DA22C4C08C
:10288800DEFFC5C0DDFF20EE01F0C851D926C951D1
:10289800DA22C6C0DFFFC8C0D9FFC9C0DAFF400EC0
:1028A800DF16C8C0D9FFC9C0DAFF000EDB86C8C072
:1028B800D9FFC9C0DAFFDB8EC35105E0C751020D4D
:1028C800F3500F0F04D0C751020DF350600FD96EAB
:1028D800DA6A040EDF1AC8C0C3F0C9C0C4F0040C19
:1028E80004013039E832030B2AE012000C8E080E7E
:1028F80000018C6F080C2C0E096E0A6A0C80010E00
:102908000D6E0C8E010C3451C10F4A6E4AC009F08D
:102918000A6A0C80010E0D6E0C8E010C0C8E34515F
:10292800C10FD96EDA6A32C4DFFF12003C6A020EA8
:102938003B6E3D6A3E6A406A3F6ADEEF1AF03151EB
:1029480002E14AEF17F0010A02E1B9EF08F0020AC2
:1029580002E1B9EF08F0060AC9E0030A02E149EF0B
:102968000CF0010AE3E00F0AC6E0010A02E1D0EF29
:1029780013F0030AC8E0010AD1E0070A1200326E18
:102988002E5005E03250020DF3500F0F04D0325094
:10299800020DF350600FD96EDA6ADECF33F0DDCF67
:1029A80034F03350341003E12E6A2F6A120020EEFF
:1029B80002F03350D9263450DA222FC0DEFF30C05F
:1029C800DDFF20EE01F03350D9263450DA2231C031
:1029D800DFFF33C0D9FF34C0DAFF400EDF1633C043
:1029E800D9FF34C0DAFF000EDB8633C0D9FF34C00C
:1029F800DAFFDB8E2E5005E03250020DF3500F0F38
:102A080004D03250020DF350600FD96EDA6A040E0A
:102A1800DF1A33C02EF034C02FF0040C82A2FED788
:102A28006FEC1DF0010E48EC1EF0C290F29EF29E73
:102A3800F29C0F015B81A08C878087828784F28655
:102A48008250825082500001FC5101E0D180F29006
:102A5800A19C00F0030000F0D19061EC1CF0F2960C
:102A6800879087928794A09CF28E27EC1BF0F2A0A7
:102A780005D0F290010E0001D26F04D00A0E0001B9
:102A8800996FD26B0F015B91000E48EC1EF081EC40
:102A98001DF0A2EC18F0C46B280EC36F20EC1DF0DB
:102AA800A2EC18F0C46B280EC36F20EC1DF0D251B5
:102AB80012000BD0C4C0F6FFC5C0F7FF0800F550E0
:102AC80030EC1CF00001C44BC52BC4C0F6FFC5C0D8
:102AD800F7FF0800F550EEE1C96BC651C925D96E5C
:102AE800DA6ADF5030EC1CF00001C92B020EC96510
:102AF800F4D7C651D96EDA6A030ED926DF5030EC06
:102B08001CF0040E0001CA6F19D0C651CA25D96E2F
:102B1800DA6ADF50C86FC8390F0B5CEC1DF030EC77
:102B28001CF00001C651CA25D96EDA6ADF500F0BB6
:102B38005CEC1DF030EC1CF00001CA2BC751CA5DDB
:102B4800E4E380EF1EF036D0FFD7FFEC1DF0110E46
:102B5800D06F7F0ED16F010ED26FD36B6FEC18F070
:102B6800620E0001D06F7F0ED16F020ED26F010E80
:102B7800D36F6FEC18F0290E0001D06F7E0ED16F65
:102B8800D26B020ED36F6FEC18F0010E000105D066
:102B9800200E8C6101D016D0020E9B6F13D0C5ECAD
:102BA80012F093EC1AF0D56F030ED5190BE0020E54
:102BB800F96F08D000019B51C8E0010AE9E0030A57
:102BC800EEE0C2D780A002D0F951F4E000F0020E86
:102BD8000001F919D8A4F96B1200926B7851791198
:102BE80009E078C0D9FF79C0DAFF010EDFAE000E28
:102BF800CE6F01D0CE6BCF6BCE51CF1134E120EE2A
:102C080001F07851D9267951DA22CC51DE5C08E2FC
:102C180020EE01F07851D9267951DA22DF50CC6FB5
:102C2800926B0FD0400E9225D96EDA6A050EDA2221
:102C38009251CA25E16E000ECB21E26EDFCFE7FF8D
:102C4800922BCC51925DEEE3000EC36F400EC46F21
:102C5800050EC56F400EC66F020E24EC14F0C3C0FB
:102C680078F0C4C079F0925112008A6B8B6B020E17
:102C780021181FE120EE01F01750D9261850DA224A
:102C8800080EDF6E20EE02F01750D9261850DA220F
:102C9800380EDE6E040EDD6E17C0D9FF18C0DAFFDD
:102CA800480EDF6E17C0D9FF18C0DAFF000EDB8EA2
:102CB800000C0D500401365D0E50375904E236C43D
:102CC8000DF037C40EF0ABEC11F020EE02F00F500F
:102CD800D9261050DA22380EDE6E040EDD6E0FC0D3
:102CE800D9FF10C0DAFF480EDF6E0FC0D9FF10C041
:102CF800DAFF000EDB8E000C336E346A040E356E7C
:102D08002E502F6E306AD8902F3630363350316EB1
:102D1800326AD89031363236D890313632362F5022
:102D2800312630503222D89031363236D89031366A
:102D38003236315034263250352234C0D9FF35C0AE
:102D4800DAFFDF9E2E5005E13350020DF350600F7D
:102D580004D03350020DF3500F0FD96EDA6A34C025
:102D6800DEFF35C0DDFF34C0D9FF35C0DAFFDF9C98
:102D780020EE04F03450D9263550DA22DF8C1200C8
:102D8800040130511F0BE80601E012003039E83227
:102D9800030BE80601E0120034512BE0340529E06A
:102DA8001200F00E096E010E0A6E0E6A080E0D6E04
:102DB8000C800C8E080CF00E096E010E0A6E0C8E3B
:102DC800120036C405F037C406F0AD0E016E2E0EA3
:102DD800076E340E086E048E1200B70E096E0A6A6A
:102DE8000E6A070E0D6EC10E0C6EC10C32510C8EA0
:102DF80012003151D6E0010ADEE0210AE2E0010AC0
:102E0800ECE0030AF3E01200C3C0D9FFC4C0DAFF44
:102E1800DF50C96FC5C0F6FFC6C0F7FF0800F5CF81
:102E2800CBF0C9512CE0020EC327000EC423CB51AE
:102E3800C91925E12FEEFFF0C351D926C451DA2272
:102E4800DF50CA6FC529C76F000EC621C86FC7C03B
:102E5800F6FFC8C0F7FF0800F5CFCBF0CA5107E16D
:102E6800CB51CA5DC36FC46BD8A0C4071200020E51
:102E7800C527000EC623CA51CB19F2E1C5D7CB51DD
:102E8800C95DC36FC46BD8A0C40712000401386BB6
:102E9800396B2AD00C8E1D042EE138832CD00C8E71
:102EA8002AD00C8E34BF06D034510F0B020DF350CC
:102EB800600F05D034510F0B020DF3500F0FD96E70
:102EC800DA6ADECF2EF0DDCF2FF02EC0D9FF2FC06B
:102ED800DAFFDFAE10D02EC0D9FF2FC0DAFFDFA493
:102EE8000AD0010E386F07D030511F0BD3E0010A0A
:102EF800D6E0030AD6E00CAE1200380E096E040EB6
:102F08000A6E0C80020E0D6E020CFFEC1DF03E0ED8
:102F1800D06F7F0ED16FD26BD36B6FEC18F0980E19
:102F28000001D06F7D0ED16FD26B060ED36F6FECA0
:102F380018F08B0E0001D06F7D0ED16FD26B080E8A
:102F4800D36F6FEC18F0C40E0001D06F7C0ED16FF8
:102F5800D26B010ED36F6FEC18F0710E0001D06FB9
:102F68007E0ED16FD26B020ED36F6FEC18F0470E46
:102F78000001D06F7F0ED16FD26B030ED36F6FEF4E
:102F880018F00001CE6FC7512BEC1EF00001C6519E
:102F9800080DF350D3EC1DF08A980001CF6BC86B75
:102FA800C969CE51CA6FCB6BD890CA37CB37D89086
:102FB800CA37CB37D890CA37CB37F6C0CCF0F7C072
:102FC800CDF0CA51CC27CB51CD23CF51CC27000E01
:102FD800CD23C851CC27C951CD23CCC0F6FFCDC0D5
:102FE800F7FF0800F55086EC1EF00001CF2B070E06
:102FF800CF65D5D78A88070C366A376A386A396A3E
:10300800325033103410351029E0010E3A6E06D0D4
:10301800D89032363336343635363A2A35AEF8D784
:10302800D890363637363836393632502E5C3350EB
:103038002F58345030583550315809E332502E5EED
:1030480033502F5A3450305A3550315A3680D89030
:1030580035323432333232323A2EE2D736C02EF09D
:1030680037C02FF038C030F039C031F0120029D005
:10307800C3C0D9FFC4C0DAFFDF500DE0C3C0D9FF19
:10308800C4C0DAFFDF50C96FC5C0F6FFC6C0F7FF7E
:103098000800F51812E0C3C0D9FFC4C0DAFFDF503A
:1030A800C96FC5C0F6FFC6C0F7FF0800F550C95D77
:1030B800C36FC46BD8A0C4071200C34BC42BC54B45
:1030C800C62BC707D8A0C807C729D2E1C829D0E1AD
:1030D800C36BC46B1200D2C0D4F00F0ED46501D0FC
:1030E8000F0CD0C0F6FFD1C0F7FFF86A070EF764DF
:1030F80003D00800F55005D0F6CFE1FFF7CFE2FF87
:10310800E7500009D8B41200D4C0C6F0D3C0C7F045
:10311800D0C0F6FFD1C0F7FFF86A070EF76403D0F6
:103128000800F55005D0F6CFE1FFF7CFE2FFE750F2
:10313800C5EC17F0D04BD12BD42BCFD7CA6BC86BAB
:10314800C96BAC9A8B9CC46B0A0EC36F20EC1DF044
:10315800AC8AC46B050EC36F20EC1DF0550EAD6E26
:10316800ACA2FED7FD0EC46F7F0EC56FA3EC1CF09A
:103178000001C46B280EC36F20EC1DF00ED003ECC9
:103188001BF0000903E0010ECA6F07D0C84BC92B1A
:10319800890EC85D130EC959F6E2CA51F0E1120052
:1031A800C00ED06F7E0ED16FD26BD36B6FEC18F060
:1031B800010E94EC0FF0010E0001C46FF40EC36F02
:1031C80020EC1DF0000E94EC0FF0010E0001C46F0E
:1031D800F40EC36F20EC1DF0010E94EC0FF0010EFD
:1031E8000001C46FF40EC36F20EC1DF0000E94ECC8
:1031F8000FF0010E0001C46FF40EC36F20EF1DF035
:10320800C86F0001C7519F0FD96EDA6A0A0EC36FE3
:10321800C8510CEC1DF0300FDF6E0A0EC36FC85199
:10322800FAEC1BF0C86FC7519E0FD96EDA6A0A0E06
:10323800C36FC8510CEC1DF0300FDF6E0A0EC36F60
:10324800C851FAEC1BF0C86FC7519D0FD96EDA6AE6
:103258000A0EC36FC8510CEC1DF0300FDF6E120060
:1032680002EE00F0400EEE6AE806FDE101EE00F025
:10327800F80EEE6AE806FDE100EE60F0630EEE6A15
:10328800E806FDE100EE01F02D0EEE6AE806FDE12C
:10329800300EF66E3D0EF76E000EF86E00EEF6F08C
:1032A80010EE09F00900F5CFEEFFE550E150FAE124
:1032B8005B905B92000EF86E0001B5EF0EF02B6A82
:1032C8001E6A8A6B8B6B886B216A0FC0D9FF10C08E
:1032D800DAFF7F0EDF16040E0F1A0FC0D9FF10C0D9
:1032E800DAFF7F0EDF16040E0F1A17C0D9FF18C0B9
:1032F800DAFF7F0EDF160C6A0D6A0E6A046A056A29
:10330800066A74EC14F03C6A030E3B6E3D6A3E6A32
:10331800406A3F6ADEEC1AF043EF0EF00001C36B1F
:10332800C351BE0FD96EDA6ADF6AC32B020EC365BA
:10333800F7D7C46B400EC425D96EDA6A010EDA22BB
:10334800DF6AC42B210EC465F5D7C56BD00EC52521
:10335800D96EDA6A010EDA22DF6AC52B1F0EC5653F
:10336800F5D7C66BC6519D0FD96EDA6ADF6AC62BD0
:103378000F0EC665F7D70F0CD76F0A0E0001C36F83
:10338800D7510CEC1DF0300FDA6F0A0EC36FD7510E
:10339800FAEC1BF0D76F0A0EC36FD7510CEC1DF077
:1033A800300FD96F0A0EC36FD751FAEC1BF0D76FE5
:1033B8000A0EC36FD7510CEC1DF0300FD86FDB6BC2
:1033C800D80ED06FD16BD5C0D2F0D6C0D3F06FEF86
:1033D80018F0070ED06F7F0ED16FD26B010ED36F2E
:1033E8006FEC18F0898C898E010E0001C46FF40E01
:1033F800C36F20EC1DF0899C899E010EC46FF40EEA
:10340800C36F20EC1DF0898C898E010EC46FF40EF9
:10341800C36F20EC1DF0899C899E010EC46FF40EC9
:10342800C36F20EF1DF0ADC0B7F0AEC0B8F0AFC0AD
:10343800B9F0B0C0BAF02E6A1B0E2F6EB70E306E00
:10344800316AB7C032F0B8C033F0B9C034F0BAC08E
:1034580035F000EC18F0FF0E2E243B6EFF0E2F20E7
:103468003C6EFF0E30203D6EFF0E31203E6E3BC09D
:10347800AFFF3CC0B0FFF7EF1CF00001B76B4B0E7D
:10348800B86FB96BBA6BBB6BBC6B080EBD6F926B38
:103498001A0E366E010E15EC1CF01E0E366E020E5C
:1034A80015EC1CF0000E2E6E400E2F6E050E306EC1
:1034B800400E316E020EC3EC14F02EC078F02FC00F
:1034C80079F00001766B776B206A1200020E2118E2
:1034D80002E136EF0BF0216A88511FE120EE01F07E
:1034E8001750D9261850DA22080EDF6E20EE02F0A7
:1034F8001750D9261850DA22300EDE6E040EDD6E13
:1035080017C0D9FF18C0DAFF0C0EDF6E17C0D9FF3D
:1035180018C0DAFF000EDB8E000C886B120082A048
:1035280002D082B214D0662B000E67236823692369
:10353800370E661967116811691107E19C6B82B033
:1035480002D0010E0FD0020E0DD0C36B0CD0140E9A
:103558009C1906E1666B676B686B696B9C6B01D0A5
:103568009C2B030EC36FC3511200C86BC96BC551A6
:10357800C6111BE0010EC76F04D0D890C537C637F7
:10358800C72BC6AFFAD7D890C837C937C551C35D5E
:10359800C651C45905E3C551C35FC651C45BC88150
:1035A800D890C633C533C72FEED7C8C0C3F0C9C03B
:1035B800C4F012003BC041F03CC042F0425004E06D
:1035C8007F0AD8A4120019D04150010A02E1DEEFA7
:1035D8001BF0030AD8B41200010A02E1C4EF16F086
:1035E800060AD8B41200770AD8B41200010AD8B46F
:1035F8001200070AD8A4010A1200411C1200C46B69
:1036080023501FE04AEC1CF0C56F0D0EC5190BE1E5
:10361800900E2924D96EDA6A010EDA22DF6A010EC9
:10362800C46F296A0ED0C5510CE00A0EC51909E00D
:10363800900E2924D96EDA6A010EDA22C5C0DFFF9E
:10364800292AC4511200928092829284928692987A
:10365800929A929C929E9390939293949396939A13
:10366800948094829484949C948E8988899A899C65
:10367800899E8A948A908A9A8B948B9C0F015B917D
:103688005B835B855B875D9F5D9D1200C551C6119D
:1036980017E0010EC76F04D0D890C537C637C72BBF
:1036A800C6AFFAD7C551C35DC651C45904E3C55165
:1036B800C35FC651C45BD890C633C533C72FF2D792
:1036C800C3C0C3F0C4C0C4F012006AA01BD015C0A8
:1036D800D9FF16C0DAFF800EDE1813E10FC0D9FF3C
:1036E80010C0DAFF840EDE180CE115C0D9FF16C031
:1036F800DAFF0C0EDF6E15C0D9FF16C0DAFF000E18
:10370800DB8E6A90659A1200C76FC7C0C5F00001CA
:10371800C547C547C250C519830BC519C26EC280BB
:10372800140EE82EFED7C282C2B2FED7C4500001E2
:10373800C66FC56BC350C525C36F000EC621C46FC5
:103748001200C46F000EF2BE010E0001C56FC4C0A6
:10375800A9FFC3C0A8FFA69EA69CA684F29E550EEC
:10376800A76EAA0EA76EA682A6B2FED7A6940001DF
:10377800C5B102D0F29E01D0F28E120089EC17F08A
:103788000001C46B140EC36F20EC1DF079EC13F02C
:10379800FFEC1DF0C46B140EC36F20EC1DF0D4ECCD
:1037A80018F0EDEC19F06AEC12F0C46B140EC36F4C
:1037B80020EF1DF041EC1AF0BB6B080EBD6FBC6B1F
:1037C800B76B4B0EB86FB96BBA6BF7EC1CF03A6A73
:1037D800500E3A24D96EDA6A010EDA22DF6A3A2AE2
:1037E8003F0E3A64F5D71A6A196A1200C46F0001CD
:1037F800C66BC35114E0010EC56F03D0D890C33710
:10380800C52BC3AFFBD7D890C637C351C45D03E3FC
:10381800C351C45FC681D890C333C52FF4D7C651EE
:103828001200396E36A404D02E6A395080EC16F096
:1038380036A205D0010E2E6E395080EC16F06A0EB5
:103848003924376E386A0F0E382237C0D9FF38C08E
:10385800DAFF36C0DFFF0F0C0001C36F2650FEE011
:103868009DB803D0C3C0ADFF0FD09D98000E27248C
:10387800D96EDA6A020EDA22C3C0DFFF272A3F0EAA
:10388800276401D0276A26069D88120001D0898EF8
:103898002350FDE09D9A000E2524D96EDA6A010EA8
:1038A800DA22DF500001C36F252A3F0E256401D0BC
:1038B800256A23069D8AC35112000001C36B000EBE
:1038C800C325D96EDA6A010EDA22DF6AC32B3F0EEE
:1038D800C365F5D7246A256A236A9D98276A286AEA
:1038E800400E266E400C8C51D8A41200606A646A9F
:1038F800160E626E9F0E666E7B0E646ED08EA58469
:10390800A384F28E01D0608660A6FDD7010E8C6F6D
:10391800010CCD6ACC6AD00ECF6E200ECE6ECE5082
:10392800CFCFC3F00001C46BC3C0C4F0C36BC311D5
:10393800826FC451836F9E909D80BBEF1EF00BD0A9
:10394800C4C0F6FFC5C0F7FF0800F55030EC1CF006
:103958000001C44BC52BC4C0F6FFC5C0F7FF080063
:10396800F550EEE180EF1EF0C3C0C9F0C4C0CAF044
:1039780008D0C9C0D9FFCAC0DAFFC5C0DFFFC94B2C
:10398800CA2BC707D8A0C807C729F3E1C829F1E19E
:1039980012009D9A9D98480EB86E900EAB6E260E3A
:1039A800AC6ED00EAF6EB06A276A286A400E266EDB
:1039B800246A256A236A9D8AAB8812002EC034F0D7
:1039C8002FC035F008D034C0D9FF35C0DAFF30C079
:1039D800DFFF344A352A3206D8A033063228F3E10D
:1039E8003328F1E112009D9A9D98480EB86E900E0A
:1039F800AB6E260EAC6ED00EAF6EB06A276A286A20
:103A0800400E266E246A256A236A9D8AAB881200B6
:103A1800C46F080E0001C56FC66BD890C435C63593
:103A2800C66FD890C437C351C65D02E3C351C65FA1
:103A3800C52FF3D7C6511200C66BC76B0BD0100E3B
:103A4800C56F940EE82EFED7C52FFCD700D0000115
:103A5800C64BC72BC351C65DC451C759F0E312000A
:103A6800400E26600FD0000E2824D96EDA6A020EA6
:103A7800DA22DF50AD6E282A3F0E286401D0286A6A
:103A8800262A12009D981200ABA203D0AB98AB88EF
:103A98001200000E2424D96EDA6A010EDA22AECFA3
:103AA800DFFF242A3F0E246401D0246A232A12004F
:103AB800C36F0F0E0001C3170A0EC36103D0C351B1
:103AC800300F1200090EC365000C100EC361000C04
:103AD800C351370F1200840EC46F7A0EC56FA3EC62
:103AE8001CF09DB8FED7FA0E0001C66F580EE82EDE
:103AF800FED7C62FFCD700D0120093949398939AC0
:103B080001EC10F0000E21EC1EF05B0E0001C36FFB
:103B1800760EC46F3FEC1EF0FFEF1DF0CA6F060E65
:103B28000001CA25C36FC46BFF0EC423C66B050E04
:103B3800C56FB9EC1AF0C351CB6FCB511200896B2A
:103B48003C6A740E3B6E3D6A3E6A406A3F6ADEEC30
:103B58001AF06092649401D0659465A41200FCD7B1
:103B68000BEC1EF027EC1BF073EC1EF08DEC1CF038
:103B78006BEC1EF0CDEC1CF016EC1EF05AEF1EF0AC
:103B88000001D06FD16BD1C0C6F0D0C0C7F0200EF5
:103B9800C5EC17F0D12B0F0ED165F5D70F0CC56FFB
:103BA8008A980001C5390F0B10098CEC1EF0000132
:103BB800C5510F0B8CEC1EF08A881200648465983E
:103BC8006082010E0001896F3C6A750E3B6E3D6A8A
:103BD8003E6A406A3F6ADEEF1AF0A394205009E17A
:103BE800C3C073F0C4C074F0C5C093F0010E916FE8
:103BF800206EA3841200000EC4EC1DF0010EC4EC6C
:103C08001DF0020EC4EC1DF0030EC4EF1DF0800E73
:103C18009B6E700ED36E100ED26ED2AEFED7900E83
:103C2800B56E900CA00E7D6E010EC26E080EC16EB0
:103C38008E0EC06EC36AC46A12000001C56FA60E5C
:103C4800C5278A98C5518CEC1EF08A881200C56F6A
:103C5800B00E0001C5138A98C5518CEC1EF08A88F5
:103C68001200C36FC3C0A9FFA69CA69EA68000F041
:103C780000F0A8501200C351C411D8B41200C3C038
:103C8800F6F0C4C0F7F012000001C56F8A98C5515C
:103C9800AF088CEC1EF08A881200C36F0001C3A322
:103CA80002D07C4B7D2BC3B7992B1200A09C9C0E95
:103CB800986E9A8A9A929A96A19CA09C9C0CC36F23
:103CC800C69EC3C0C9FFC7A0FED7C95012007A0E4E
:103CD800BA6E9B0EBB6EBC6A9E92B9EF1EF0C76AA5
:103CE800210EC66EC86AC688C79C1200330EC46F00
:103CF8007A0EC56FAFEF1CF00D0E30EC1CF00A0EFB
:103D080030EF1CF0C46F8A8A0001C45163EF1EF0C3
:103D18000001C46F8A9AC45163EF1EF09E9083C05D
:103D2800CFFF82C0CEFF12005B76020101010303C0
:103D38000300BCCFC3F0C3511200C36FC3C0F9F076
:103D48001200C36FC3C09BF01200C36FC3C0FBF067
:103D58001200010E2A6E010C000190811200F95127
:103D68001200906B12002A501200BA841200CD8003
:083D78001200A19C12001200D0
:1076520000187A9E79D2795B790000000000000060
:10766200000000005F0000000000000300030000B3
:1076720000643C26643C2624002649497F4949325D
:1076820000422512082452210020504E552258282B
:1076920000000000030000000000001C2241000066
:1076A2000000000041221C00000015150E0E1515E9
:1076B200000008083E0808000000000050300000EA
:1076C2000000080808080800000000004000000050
:1076D200004020100804020100003E4141413E00EA
:1076E200000000417F4000000000426151496E00ED
:1076F200000022414949360000001814127F100090
:10770200000027494949710000003C4A494870007D
:1077120000004321110D030000003649494936009B
:107722000000060949291E000000000012000000A6
:107732000000000052300000000000081414220073
:10774200000014141414141400000022141408006D
:107752000000020159050200003E415D554D512EC7
:1077620000407C4A094A7C4000417F4949494936E8
:10777200001C22414141412200417F414141221CE2
:1077820000417F49495D416300417F49091D010371
:10779200001C224149493A0800417F0808087F41FC
:1077A200000041417F41410000304041413F010121
:1077B20000417F080C12614100417F41404040601E
:1077C20000417F420C427F4100417F420C117F0108
:1077D200001C22414141221C00417F49090909063E
:1077E200000C12212161524C00417F09091969469E
:1077F2000066494949494933000301417F41010378
:1078020000013F4140413F0100010F3140310F0172
:1078120000011F6114611F010041413608364141D8
:107822000001034478440301004361514945436127
:107832000000007F414100000001020408102040C6
:1078420000000041417F0000000004020101020427
:1078520000004040404040400000010200000000A3
:107862000000344A4A4A3C400000413F4848483000
:1078720000003C42424224000000304848493F4058
:1078820000003C4A4A4A2C00000000487E49090098
:107892000000264949493F0100417F48044478409D
:1078A200000000447D40000000000040443D000014
:1078B20000417F1018244242000040417F404000B6
:1078C20000427E027C027E4000427E4402427C40B4
:1078D20000003C4242423C000000417F4909090647
:1078E2000000060909497F410000427E4402020469
:1078F2000000644A4A4A36000000043F4444200023
:107902000000023E4040227E40020E3240320E0211
:1079120000021E6218621E020042621408146242D1
:10792200000143453805030100004662524A46629F
:107932000000000836410000000000007F00000047
:107942000000000041360800000018080810101856
:1079520000AA55AA55AA55AA5509024300020100D8
:10796200C0320904000001020201000524001001D6
:107972000424020205240600010524010001070572
:10798200810308000209040100020A000000070541
:1079920002024000000705820240000034034D004D
:1079A2006900630072006F00630068006900700084
:1079B200200054006500630068006E006F006C00D8
:1079C2006F0067007900200049006E0063002E00FE
:1079D20034034300440043002000520053002D00B2
:1079E200320033003200200045006D0075006C004B
:1079F2006100740069006F006E00200044006500A1
:107A02006D006F001201000202000008D8040A0093
:107A120000010102000104030904737973207365F4
:107A2200742070696E646967204750494F31302075
:107A3200300D0A00737973207365742070696E6467
:107A42006967204750494F313120300D0A00737960
:107A520073207365742070696E64696720475049AA
:107A62004F313020310D0A00737973207365742011
:107A720070696E646967204750494F313120310D7A
:107A82000A0073797320736C65657020393939394E
:107A920039393939390028554E434E46292020209C
:107AA2002028434E462920004D6163204572726FA3
:107AB20072204F6363757265640020202853322957
:107AC20020202020202020202020002020202052A2
:107AD20065636569766564202020200020202020CF
:107AE2002020202020285333292020200020202855
:107AF20053322920202028533329202020002020FF
:107B02004C617374204D657373616765202000209A
:107B12005669657720446F776E6C696E6B20200022
:107B2200202049737375652055706C696E6B202037
:107B320000202853312920202020202028533229B8
:107B42002000204A6F696E696E67204D6574686F08
:107B520064200053657276657220526573706F6E91
:107B6200736520005478204576656E742054696DE3
:107B7200696E672000506572696F64696320557091
:107B82006C696E6B2000204C6F526157414E205041
:107B920061636B657420003C2D20414250202020FF
:107BA2004F544141202D3E00526552756E20507750
:107BB200725473743C53323E00497373756520509E
:107BC20065726F6469632054580044617461205483
:107BD20072616E736D697474656400456E7465726A
:107BE20020536C656570204D6F64650055706C693B
:107BF2006E6B2050636B7420547970650053656C12
:107C020065637420446174612052617465004D6F34
:107C120062696C65204D6F7465202D417070004E55
:107C220061766967617465202053656C65637400D1
:107C32004D656E75204861732054696D656F75746A
:107C420000446F776E6C696E6B20446973706C616F
:107C5200790020202020446973706C6179202020F3
:107C62002000202053656E736F722044617461207E
:107C72002000284E4156292020202028434E472903
:107C82002000284E415629202020202853454C29E7
:107C92002000284E4156292020202028534C5029CC
:107CA20020006D61632073657420616472206F66C9
:107CB20066004E6F2046726565204368616E6E6590
:107CC2006C004275696C6420446174652F54696D5F
:107CD200650020202020456E61626C6564202020B2
:107CE200002020202044697361626C6564202000BA
:107CF2006D61632073657420616472206F6E002071
:107D020020204C6F52612044656D6F202000205668
:107D120020312E302E304C20436F6465004D696354
:107D2200726F63686970204D6F7465006D616320C6
:107D3200747820756E636E6620006D6163206A6FD1
:107D4200696E206F74616100696E76616C69645F4F
:107D5200706172616D006B6579735F6E6F745F69DC
:107D62006E6974005468726F7520506F72742320AC
:107D7200004C3A20202020202020543A20006D611F
:107D820063207365742064722030006D6163207318
:107D920065742064722031006D6163207365742004
:107DA20064722032006D61632073657420647220F6
:107DB20033006D6163207365742064722034006D3A
:107DC2006163207365742064722035006D616320E5
:107DD2007365742064722036006D6163207365746C
:107DE2002064722037006D6163206A6F696E2061C2
:107DF200627000427574746F6E20546573743A0039
:107E0200427574746F6E3120504153530042757441
:107E1200746F6E3220504153530050726573732059
:107E2200427574746F6E005553422048616E646CE3
:107E32006572004F6E20506F727420233A200054F6
:107E42007820506F727420233A200053656E74209C
:107E5200446174613A200044617461205261746526
:107E62003A20006D616320747820636E6620004DB5
:107E72006179203131203230313600427574746FAD
:107E82006E204641494C004F544141204A6F696E71
:107E920020006E6F5F667265655F6368005375638D
:107EA2006365737366756C006D616320676574202A
:107EB20064720056616C6964204B65797300436F8C
:107EC2006D6D20546573743A00527820506F72744D
:107ED200232000414250204A6F696E20004D4F54CA
:107EE20045204D6F6465004F544141204A6F696ED1
:107EF200006D61632072657365740073797320721B
:107F020065736574004C454420546573743A0043AC
:107F12004443204D6F6465005265717569726564F2
:107F2200006163636570746564006D6163207361F1
:107F32007665005374617274696E67004D6F5465A3
:107F42002076202E0031343A35303A353800524608
:107F520020546573743A004144432054657374009D
:107F6200436F6D6D616E640054656D7020203D003D
:107F72004C69676874203D0054656D70203A004C6E
:107F8200696768743A0045766572793A0044656EAD
:107F92006965640064656E696564006E6F5F667230
:107FA20065006D61635F6572006D61635F72780089
:107FB2006D61635F747800524E323400524E323932
:107FC200004D696E730020302000203120002032E5
:107FD20020002033200020342000203520002031D2
:107FE20030002033300020363000203135004F463B
:0E7FF2004600414452006F6B0043007A0000CD
:020000040020DA
:08000000FFFFFFFFFFFFFFFF00
:020000040030CA
:0E00000021081F36FFD181FF0FC00FE00F4017
:00000001FF
